:100000000C9433030C945B030C945B030C945B0320
:100010000C945B030C945B030C945B030C945B03E8
:100020000C945B030C945B030C945B030C945B03D8
:100030000C945B030C945B030C945B030C945B03C8
:100040000C94E71F0C945B030C9457200C94312004
:100050000C945B030C945B030C945B030C945B03A8
:100060000C9489200C945B0300000000003E5B4F61
:100070005B3E3E6B4F6B3E1C3E7C3E1C183C7E3C08
:10008000181C577D571C1C5E7F5E1C00183C180016
:10009000FFE7C3E7FF0018241800FFE7DBE7FF30A6
:1000A000483A060E2629792926407F050507407F14
:1000B00005253F5A3CE73C5A7F3E1C1C08081C1C87
:1000C0003E7F14227F22145F5F005F5F06097F017D
:1000D0007F006689956A606060606094A2FFA29468
:1000E00008047E040810207E201008082A1C080836
:1000F0001C2A08081E101010100C1E0C1E0C303884
:100100003E3830060E3E0E06000000000000005F84
:1001100000000007000700147F147F14242A7F2AA0
:100120001223130864623649562050000807030062
:10013000001C2241000041221C002A1C7F1C2A08AE
:10014000083E080800807030000808080808000011
:1001500060600020100804023E5149453E00427F85
:10016000400072494949462141494D331814127FD4
:100170001027454545393C4A494931412111090774
:100180003649494936464949291E000014000000F5
:1001900040340000000814224114141414140041C7
:1001A00022140802015909063E415D594E7C121184
:1001B000127C7F494949363E414141227F414141BC
:1001C0003E7F494949417F090909013E4141517337
:1001D0007F0808087F00417F41002040413F017FA8
:1001E000081422417F404040407F021C027F7F0470
:1001F00008107F3E4141413E7F090909063E4151B9
:10020000215E7F09192946264949493203017F01A8
:10021000033F4040403F1F2040201F3F4038403FA9
:10022000631408146303047804036159494D4300BF
:100230007F4141410204081020004141417F0402F6
:10024000010204404040404000030708002054548D
:1002500078407F284444383844444428384444286B
:100260007F385454541800087E090218A4A49C78BE
:100270007F0804047800447D40002040403D007F1A
:100280001028440000417F40007C047804787C08FA
:100290000404783844444438FC18242418182424CE
:1002A00018FC7C08040408485454542404043F44B3
:1002B000243C4040207C1C2040201C3C4030403CE2
:1002C00044281028444C9090907C4464544C440042
:1002D00008364100000077000000413608000201A6
:1002E0000204023C2623263C1EA1A161123A404092
:1002F000207A38545455592155557941225454780F
:1003000042215554784020545579400C1E527212A7
:100310003955555559395454545939555454580030
:1003200000457C410002457D420001457C407D1234
:1003300011127DF0282528F07C5455450020545496
:100340007C547C0A097F4932494949323A44444441
:100350003A324A4848303A4141217A3A424020787C
:10036000009DA0A07D3D4242423D3D4040403D3C7D
:1003700024FF2424487E4943662B2FFC2F2BFF09A2
:1003800029F620C0887E0903205454794100004496
:100390007D413048484A32384040227A007A0A0A81
:1003A000727D0D19317D2629292F282629292926F4
:1003B00030484D4020380808080808080808382F39
:1003C00010C8ACBA2F102834FA00007B00000814C3
:1003D0002A142222142A14085500550055AA55AA99
:1003E00055AAFF55FF55FF000000FF00101010FF39
:1003F00000141414FF001010FF00FF1010F010F094
:10040000141414FC001414F700FF0000FF00FF1484
:1004100014F404FC141417101F10101F101F1414D0
:10042000141F00101010F0000000001F101010101A
:100430001F10101010F010000000FF10101010100E
:1004400010101010FF10000000FF140000FF00FF4C
:1004500000001F10170000FC04F4141417101714E8
:1004600014F404F40000FF00F7141414141414140A
:10047000F700F7141414171410101F101F1414147D
:10048000F4141010F010F000001F101F0000001FE7
:1004900014000000FC140000F010F01010FF10FF1A
:1004A000141414FF141010101F00000000F010FFAF
:1004B000FFFFFFFFF0F0F0F0F0FFFFFF0000000093
:1004C00000FFFF0F0F0F0F0F3844443844FC4A4A17
:1004D0004A347E02020606027E027E0263554941CC
:1004E000633844443C04407E201E2006027E020203
:1004F00099A5E7A5991C2A492A1C4C7201724C3017
:100500004A4D4D303048784830BC625A463D3E49ED
:100510004949007E0101017E2A2A2A2A2A44445F91
:10052000444440514A444040444A51400000FF0185
:1005300003E080FF000008086B6B08361236243693
:10054000060F090F060000181800000010100030F8
:1005500040FF0101001F01011E00191D1712003C80
:100560003C3C3C0000000000EF03038002CF03008E
:10057000C130ED0464031281E803850078CB0539AE
:100580002C003402F70120EA020000C00123C1015F
:1005900010C5023E28C701863601483701003A01DE
:1005A00055B1020018B603088227F20100260101A6
:1005B000E00F0F312B0C0E084EF1370710030E0918
:1005C00000E10F000E1403110731C148080F0C3170
:1005D000360F1180298000444F4E450053554D3A47
:1005E000004F50454E3A4641494C0053443A4F4B18
:1005F0000053443A4641494C0049444C453A005462
:1006000046540000000000240027002A00000000DB
:1006100008000201000003040700000000000000C1
:10062000007C3C3E5E2B3D3F2F5B5D3B2C2A225CD9
:10063000000102040810204080010204081020017B
:10064000020408102000000000250028002B0004F0
:100650000404040404040402020202020203030369
:1006600003030300A42111241FBECFEFD8E0DEBF97
:10067000CDBF11E0A0E0B1E0E0E2FDE402C00590F2
:100680000D92AE37B107D9F725E0AEE7B1E001C072
:100690001D92A133B207E1F713E0C3E3D3E004C036
:1006A0002197FE010E944225C233D107C9F70E945B
:1006B0008C220C948E260C94000090E0FC01E35FE9
:1006C000F94F2491FC01EF5CF94F3491FC01E15B9F
:1006D000F94FE491EE23C9F0222339F0233001F1E0
:1006E000A8F4213019F1223029F1F0E0EE0FFF1FBC
:1006F000EB5BF94FA591B4918FB7F894EC91611130
:1007000026C030953E233C938FBF08952730A9F033
:100710002830C9F0243049F7809180008F7D03C0D4
:10072000809180008F7780938000DFCF84B58F77B2
:1007300084BDDBCF84B58F7DFBCF8091B0008F77F8
:100740008093B000D2CF8091B0008F7DF9CF3E2B47
:10075000DACFCF93DF9390E0FC01EF5CF94F249167
:10076000815B994FFC0184918823D1F090E0880F40
:10077000991FFC01ED5FF94FA591B491FC01EB5B72
:10078000F94FC591D49161110EC09FB7F8948C9127
:10079000E22FE0958E238C932881E223E8839FBF8C
:1007A000DF91CF9108958FB7F894EC91E22BEC9301
:1007B0008FBFF6CF3FB7F8948091FA019091FB017B
:1007C000A091FC01B091FD0126B5A89B05C02F3F6B
:1007D00019F00196A11DB11D3FBFBA2FA92F982F67
:1007E0008827BC01CD01620F711D811D911D42E062
:1007F000660F771F881F991F4A95D1F708958F922A
:100800009F92AF92BF92CF92DF92EF92FF924B01F5
:100810005C010E94DA036B017C010E94DA036C190F
:100820007D098E099F09683E734081059105A8F3F3
:1008300021E0821A9108A108B10888EEC80E83E071
:10084000D81EE11CF11C81149104A104B10429F704
:10085000FF90EF90DF90CF90BF90AF909F908F90E0
:1008600008952FB7F8946091F6017091F701809187
:10087000F8019091F9012FBF0895AF92BF92CF92E6
:10088000DF92EF92FF920F931F93CF93DF936C0150
:100890007B018B01040F151FEB015E01AE18BF0831
:1008A000C017D10759F06991D601ED91FC910190E3
:1008B000F081E02DC6010995892B79F7C501DF91FB
:1008C000CF911F910F91FF90EF90DF90CF90BF904D
:1008D000AF900895FC01538D448D252F30E0842F77
:1008E00090E0821B930B541710F0CF960895019758
:1008F0000895FC01918D828D981761F0A28DAE0F45
:10090000BF2FB11D5D968C91928D9F5F9F73928FCB
:1009100090E008958FEF9FEF0895FC01918D828DF7
:10092000981731F0828DE80FF11D858D90E00895C4
:100930008FEF9FEF0895FC01918D228D892F90E01C
:10094000805C9F4F821B91098F739927089581E0E6
:1009500094E00E949B0421E0892B09F420E0822F7F
:10096000089580E090E0892B29F00E94A70481116E
:100970000C9400000895FC01A48DA80FB92FB11D9F
:10098000A35ABF4F2C91848D90E001968F739927C5
:10099000848FA689B7892C93A089B1898C918370A3
:1009A00080648C93938D848D981306C00288F3899C
:1009B000E02D80818F7D80830895EF92FF920F93C9
:1009C0001F93CF93DF93EC0181E0888F9B8D8C8DFB
:1009D00098131AC0E889F989808185FF15C09FB7EF
:1009E000F894EE89FF896083E889F98980818370B2
:1009F000806480839FBF81E090E0DF91CF911F9161
:100A00000F91FF90EF900895F62E0B8D10E00F5F81
:100A10001F4F0F731127E02E8C8D8E110CC00FB657
:100A200007FCFACFE889F989808185FFF5CFCE01EF
:100A30000E94BB04F1CFEB8DEC0FFD2FF11DE35AAB
:100A4000FF4FF0829FB7F8940B8FEA89FB89808172
:100A50008062CFCF0F931F93CF93DF938C01D0E0B1
:100A6000C0E0F801EC0FFD1F6491662341F081E0C6
:100A700094E00E94DD04892B11F02196F2CFCE0183
:100A8000DF91CF911F910F910895CF93DF93EC01E8
:100A9000888D8823B9F0AA89BB89E889F9898C9166
:100AA00085FD03C0808186FD0DC00FB607FCF7CF22
:100AB0008C9185FFF2CF808185FFEDCFCE010E9422
:100AC000BB04E9CFDF91CF9108952091AB01260FB0
:100AD0003327331F21323105ECF42091CF01FC0183
:100AE00090E080E0243069F082E00895A091AB01AD
:100AF0002191AC0145575E4FA40FB52FB11D2C932A
:100B00000196861798F38091AB01680F6093AB0153
:100B100080E0089581E0089508958FEF9FEF089594
:100B20008FEF9FEF08958091840190E091958195DA
:100B300091090895CF93DF93CB01EA01642F0E94BE
:100B40006505CE01DF91CF910895CF93DF931F927A
:100B5000CDB7DEB7698361E0CE0101960E946505DD
:100B600081E090E00F90DF91CF910895FC01A5A165
:100B7000B6A18C9192A589238C93A5A1B6A18C9145
:100B800091A5892B8C9308950F931F93CF93DF9397
:100B9000EC018B018DA981110DC01EBD0DB407FEA6
:100BA000FDCF0EBD0DB407FEFDCFDF91CF911F919C
:100BB0000F9108958130E9F480E1E9A1FAA19081D3
:100BC00017FF14C02DA1922B9083EBA1FCA1908163
:100BD0002FA1922B9083EBA1FCA1908128A59223B9
:100BE0009083000F111F815041F7DFCF2EA1922378
:100BF000EBCFEF8DF8A11083CE010E94B605EF8DEB
:100C0000F8A10083CE01DF91CF911F910F910C9439
:100C1000B605FC0185A9811105C06EBD0DB407FEA6
:100C2000FDCF08958130E1F488E0A1A1B2A19C91AB
:100C300067FF13C025A1922B9C93A3A1B4A19C9103
:100C400027A1922B9C93660FA3A1B4A19C9120A5F0
:100C500092239C93815049F7089526A19223ECCFCB
:100C6000A78DB0A16C93CF010C94B605CF93DF9301
:100C7000EC01ED8DFE8D80819CA989238083CE01BE
:100C80000E940906ED8DFE8D80819BA9892B8083B2
:100C9000DF91CF910895AF92BF92CF92DF92EF9202
:100CA000FF920F931F93CF93DF93EC015B016A01D7
:100CB000215031097901E60EF71E01501109040F88
:100CC000151F80910601909107018617970739F447
:100CD00080910401909105018E159F05A1F06AE2B3
:100CE000CE010E943606B501CE010E94C405B701AF
:100CF000CE010E94C405B0920701A0920601F092B5
:100D00000501E092040180910201909103018C158C
:100D10009D0539F4809100019091010180179107A0
:100D2000A1F06BE2CE010E943606B601CE010E9410
:100D3000C405B801CE010E94C405D0920301C0923F
:100D4000020110930101009300016CE2CE01DF91DA
:100D5000CF911F910F91FF90EF90DF90CF90BF90B8
:100D6000AF900C9436061F93CF93DF93EC01162FB0
:100D7000E881F9810284F385E02D0995112371F052
:100D80006DADCE010E943606E881F9810688F789AB
:100D9000E02DCE01DF91CF911F9109946EADF1CF7F
:100DA000AF92BF92CF92DF92EF92FF920F931F9379
:100DB000CF93DF93EC0177FD38C08885998568175C
:100DC00079079CF557FD31C08A859B8548175907DF
:100DD00064F569017A015B01E881F9810284F38598
:100DE000E02DCE010995E881F98102A4F3A5E02D5B
:100DF00001E010E021E030E0A701B501CE01099546
:100E0000B601CE010E94C405E881F9810688F78900
:100E1000E02DCE01DF91CF911F910F91FF90EF90C8
:100E2000DF90CF90BF90AF900994DF91CF911F9149
:100E30000F91FF90EF90DF90CF90BF90AF9008950B
:100E40008F929F92AF92BF92CF92DF92EF92FF92DA
:100E50000F931F93CF93DF93EC0149015701E88172
:100E6000F98102A4F3A5E02D09959401D8010E940F
:100E700019256B017C01C114D104E104F10409F4CA
:100E800090C08DA9811115C081E0C81AD108E10870
:100E9000F1088FEFC816D806E806F80609F481C0F5
:100EA000BEBC0DB407FEFDCFAEBC0DB407FEFDCF3A
:100EB000EBCF813009F045C081E0C81AD108E108C4
:100EC000F1088FEFC816D806E806F80609F469C0DD
:100ED0009B2D88E0E9A1FAA1208197FF2CC03DA1BC
:100EE000232B2083EBA1FCA120813FA1232B208376
:100EF000EBA1FCA1208138A523232083990F8150E9
:100F000049F79A2D88E0E9A1FAA1208197FF16C040
:100F10003DA1232B2083EBA1FCA120813FA1232B0A
:100F20002083EBA1FCA1208138A523232083990FE6
:100F3000815049F7C1CF3EA12323D3CF3EA1232324
:100F4000E9CFBA1016C0CC0CDD1CEE1CFF1CEF8DD7
:100F5000F8A1B08281E0C81AD108E108F1088FEF4A
:100F6000C816D806E806F806E1F0CE010E94B605DC
:100F7000F1CF81E0C81AD108E108F1088FEFC81657
:100F8000D806E806F80669F0EF8DF8A1B082CE0128
:100F90000E94B605EF8DF8A1A082CE010E94B60591
:100FA000E8CFDF91CF911F910F91FF90EF90DF90ED
:100FB000CF90BF90AF909F908F9008958F929F9207
:100FC000AF92BF92CF92DF92EF92FF920F931F9357
:100FD000CF93DF935C014B016A01E90177FD52C0B9
:100FE000DC0118968D919C91681779070CF04AC026
:100FF000209709F447C037FF07C0C9010196C80E02
:10100000D91ED195C195D109F50182859385C81660
:10101000D906C4F5A6014C0F5D1F9A012150310974
:1010200037FD30C0D7FE03C0EA01D12CC12C2817F0
:1010300039071CF0EC01CC19DD09D501ED91FC91CB
:101040000284F385E02DC501099578018E0121E028
:1010500030E0A601B401C5010E942007D501ED9141
:10106000FC910688F789E02DC501DF91CF911F9192
:101070000F91FF90EF90DF90CF90BF90AF909F9037
:101080008F900994DF91CF911F910F91FF90EF9076
:10109000DF90CF90BF90AF909F908F9008958F92E8
:1010A0009F92AF92BF92CF92DF92EF92FF920F93F7
:1010B0001F93CF93DF935C016B014A01E90157FD58
:1010C00052C0DC011A968D919C91481759070CF07B
:1010D0004AC0209709F447C037FF07C0C9010196ED
:1010E000C80ED91ED195C195D109F501808591858C
:1010F000C816D906C4F5A6014C0F5D1F9A012150F0
:10110000310937FD30C0D7FE03C0EA01D12CC12C14
:10111000281739071CF0EC01CC19DD09D501ED9138
:10112000FC910284F385E02DC5010995780101E069
:1011300010E09E01A401B601C5010E942007D5015F
:10114000ED91FC910688F789E02DC501DF91CF91E3
:101150001F910F91FF90EF90DF90CF90BF90AF90D5
:101160009F908F900994DF91CF911F910F91FF90E5
:10117000EF90DF90CF90BF90AF909F908F900895A9
:101180008F929F92AF92BF92CF92DF92EF92FF9297
:101190000F931F93CF93DF934C016B015A01E90129
:1011A000209709F46CC00115110509F468C037FFD8
:1011B00007C0C9010196C80ED91ED195C195D109A4
:1011C000F401A085B185CA16DB060CF058C017FFE4
:1011D00007C0C8010196A80EB91E11950195110905
:1011E000F40182859385A816B9060CF048C0F60173
:1011F000EC0FFD1FAF014150510957FD40C0B50133
:10120000600F711F9B012150310937FD38C0D7FE97
:1012100003C0EF01D12CC12CB7FE03C08B01B12C50
:10122000A12C4A175B071CF0ED01CC19DD0928172A
:1012300039071CF08C010A191B09D401ED91FC91AE
:101240000284F385E02DC40109959E01A501B60134
:10125000C4010E942007D401ED91FC910688F78912
:10126000E02DC401DF91CF911F910F91FF90EF907E
:10127000DF90CF90BF90AF909F908F900994DF91B7
:10128000CF911F910F91FF90EF90DF90CF90BF9083
:10129000AF909F908F900895EF92FF920F931F93BE
:1012A000CF93DF9377FD32C0DC011896ED91FC916E
:1012B0006E177F075CF52115310541F137FF07C037
:1012C000F90131964E0F5F1F319521953109DC01EF
:1012D0001A96ED91FC914E175F07C4F4EA01C20F14
:1012E000D31FDE011197B7FD11C057FF03C09E0148
:1012F00050E040E0AE17BF071CF09F01241B350BE8
:101300007801890121E030E00E942007DF91CF9130
:101310001F910F91FF90EF900895EF92FF920F931E
:101320001F93CF93DF9357FD31C0DC011A96ED91E7
:10133000FC914E175F0754F52115310539F137FF40
:1013400007C0F90131966E0F7F1F31952195310944
:10135000DC011896ED91FC916E177F07BCF4EB0150
:10136000C20FD31FDE011197B7FD10C077FF03C076
:101370009E0170E060E0AE17BF071CF09F01261BC6
:10138000370B780101E010E00E942007DF91CF9138
:101390001F910F91FF90EF9008958F929F92AF92BF
:1013A000BF92CF92DF92EF92FF920F931F93CF9352
:1013B000DF9347012115310509F44BC001151105D3
:1013C00009F447C037FF07C0F90131966E0F7F1F40
:1013D000319521953109DC011896AD90BC906A15C4
:1013E0007B05BCF517FF07C0F80131964E0F5F1F54
:1013F000119501951109DC011A96ED91FC914E179A
:101400005F073CF56B01C20ED31EE6012197D7FDA5
:1014100020C07A01E00EF11ED7011197B7FD19C067
:1014200077FF03C0960170E060E057FF03C08701BB
:1014300050E040E0CA15DB051CF09501261B370B78
:10144000AE17BF071CF08F01041B150B74010E941F
:101450002007DF91CF911F910F91FF90EF90DF90C8
:10146000CF90BF90AF909F908F900895EF92FF9292
:101470000F931F93CF93DF93EC0177FD22C08885F4
:10148000998568177907ECF457FD1BC08A859B8501
:1014900048175907B4F47901E881F98102A4F3A54A
:1014A000E02D01E010E021E030E0CE010995B70128
:1014B000CE01DF91CF911F910F91FF90EF900C948F
:1014C000C405DF91CF911F910F91FF90EF90089588
:1014D0000895FC016370668B848195812681378134
:1014E000613039F0633029F0918780873387228714
:1014F0000895318720879387828708952F923F929E
:101500004F925F926F927F928F929F92AF92BF9213
:10151000CF92DF92EF92FF920F931F93CF93DF93BF
:10152000CDB7DEB76A970FB6F894DEBF0FBECDBF5A
:101530009A8F898F7A8369834A01D22E18870F8305
:101540003701BC2CDC0159962D913C915A972115FD
:10155000310509F015C118968D919C91199768175E
:1015600079070CF0D7C11A968D919C9148175907AD
:101570000CF0D0C14C2C512CB6E0CB9E600D711DEF
:1015800011247C876B87161617060CF0C3C1EA2D51
:10159000F0E0FA87E98793E0EE0FFF1F9A95E1F7F5
:1015A000F88BEF87CF01840F951F181619060CF0E2
:1015B000B1C1A98DBA8D58968C91811104C0BFEA32
:1015C000BD1508F4D394A98DBA8DED91FC911197B6
:1015D0000284F385E02DCD010995B5E0DB9EC001C5
:1015E0001124E981FA81FC83EB83312C212C9C01AD
:1015F00028593F4F388F2F8B4A2D50E05E8B4D8BF3
:10160000EF89F88DE20DF31D44919E828D82D12CDD
:10161000C12C69817A81620D731D7A8B698B842F4D
:1016200090E09C8B8B8BE98DFA8DA081B18140FF7E
:1016300082C0F1E0BF126FC0AF126DC01C96ED9179
:10164000FC912F813885A4014C0D5D1D69897A8933
:10165000898D9A8D0995EB89FC89F595E7954E2F33
:101660005FEFC51AD50A6D817E818D899E89680FCD
:10167000791F7E836D8398E0C916D10481F6AFEFA0
:101680002A1A3A0AEB81FC81E40DF51DFC83EB83F9
:10169000F5E02F16310409F0B3CF2F8138852615D8
:1016A0003705B9F0A98DBA8DED91FC91B1E0BB126F
:1016B00057C0AB1255C069817A816B5F7F4F00883C
:1016C000F189E02D830128E030E0A401898D9A8D15
:1016D0000995A98DBA8DED91FC9111970688F7892E
:1016E000E02DCD016A960FB6F894DEBF0FBECDBFD8
:1016F000DF91CF911F910F91FF90EF90DF90CF90EE
:10170000BF90AF909F908F907F906F905F904F9021
:101710003F902F9009941E96ED91FC91EF80F884F4
:1017200009851A8592014D815E816B817C81898D4D
:101730009A8D099590CF2F8138852615370509F4A4
:101740008ACF31E0B31207C0A31205C01C96ED91F9
:10175000FC91930178CF1E96ED91FC917301E0CF3F
:101760006B857C85641975090684F785E02D730106
:101770000F8518899201A401898D9A8D0995A9CFA9
:10178000F90134969491329745915491D91AB7E062
:10179000DB9E400D511D1124F901259134913C8BA4
:1017A0002B8BFA0125903490FA0132967490319681
:1017B0003491398B329664903196449041E04C15C7
:1017C00018F04A1508F07FC0662D062C000C770B28
:1017D0007C836B83842D042C000C990B9E838D835A
:1017E000A98DBA8DED91FC9111970284F385E02DBE
:1017F000CD010995512CD12CC12CEA2DF0E0FA87AE
:10180000E9872B2D30E03C872B87A401440D511D27
:1018100047FC5A95588F4F8B69817A81660D711DEF
:1018200067FC7A957E876D877989C71608F051CF56
:101830002C2D30E04D815E81420F531FA985BA8562
:101840004A9FC0014B9F900D5A9F900D1124FC019F
:10185000E80DF91DF88BEF87852D612C4F89588D88
:10186000420F531F5E8B4D8B671408F050C0442409
:101870004394480E877041F4C1010196EB89FC89BD
:10188000E20DF31DD4901C01D7FE19C0A98DBA8DAD
:10189000ED91FC91662D70E0B1E0BB1219C0AB1266
:1018A00017C02D853E85620F731F0484F585E02DDA
:1018B0002F8138854D895E89898D9A8D0995DD0C3A
:1018C0006394842DD1CF1E821D821C821B8288CFFF
:1018D0004B815C81640F751FAB85BC856A9FC0011D
:1018E0006B9F900D7A9F900D112469817A81680F0A
:1018F000791F0684F785E02DEF80F88409851A8525
:101900009D014F855889898D9A8D0995D8CF570C9F
:10191000C3948ACF6A960FB6F894DEBF0FBECDBFD0
:10192000DF91CF911F910F91FF90EF90DF90CF90BB
:10193000BF90AF909F908F907F906F905F904F90EF
:101940003F902F9008958F929F92AF92CF92EF92F7
:10195000FF920F931F93CF93DF93EC01262F898D76
:101960009A8D009709F051C06A30D1F41D861C860B
:101970008D8948E0849F900111248E859F85820F78
:10198000931F9F878E8781E090E0DF91CF911F9119
:101990000F91FF90EF90CF90AF909F908F90089510
:1019A0006D3089F3CC88AD888F898823C1F08C8510
:1019B0009D8536E0C39E800D911D11244885598573
:1019C0004817590764F44E855F851D861C8638E0EC
:1019D000A39EC0011124840F951F9F878E87EA88DC
:1019E000FB88088919894E855F856C857D85CE01C8
:1019F0000E947E0A2C898C859D8546E0249F800D5F
:101A0000911D11249D878C87BECF6A3069F41D8695
:101A10001C86FC013896E4912D898E859F85E29F76
:101A2000800D911D1124ADCF6D3009F4ACCFFC01B8
:101A300034963491631708F4A6CF3296E491E617F2
:101A400008F4A1CFFC01329685909490462F431B59
:101A5000342F47E0349F800C911C1124F4013296FE
:101A600034913196E4913323A9F1EE2399F1CC8896
:101A7000F4013596E491AD884F89442301F10E2E8F
:101A8000000CFF0BE30FF11DCE9EA001CF9E500D69
:101A900011246C857D85460F571F688579856417ED
:101AA00075076CF44E855F851D861C86FC01389693
:101AB000E491AE9E400D511D11245F874E87EA8848
:101AC000FB88088919894E855F856C857D85CE01E7
:101AD0000E947E0AF4013496E4912C898C859D85C0
:101AE000E29F800D911D11248DCF6F927F928F9276
:101AF0009F92AF92BF92CF92DF92EF92FF920F939D
:101B00001F93CF93DF93EC016B015A013901480118
:101B1000E881F9810284F385E02D0995E881F98156
:101B20000288F389E02D87019301A501B601CE015A
:101B30000995A501480D591D41505109E881F981C8
:101B40000288F389E02D9301B601CE010995E88161
:101B5000F9810088F189E02D9401A501B601CE013B
:101B60000995C60CD71CB60161507109E881F9814D
:101B70000088F189E02D9401A501CE010995E88145
:101B8000F9810688F789E02DCE01DF91CF911F9171
:101B90000F91FF90EF90DF90CF90BF90AF909F900C
:101BA0008F907F906F9009946F927F928F929F9207
:101BB000AF92BF92CF92DF92EF92FF920F931F935B
:101BC000CF93DF935C01EB016A0149013801870182
:101BD000DC01ED91FC916217730719F56416750627
:101BE0002CF0962D872D3A01C92ED82E9601261954
:101BF00037092F5F3F4F048CF58DE02DA301BE0107
:101C0000C5010995DF91CF911F910F91FF90EF9042
:101C1000DF90CF90BF90AF909F908F907F906F900C
:101C200008954615570591F42617370724F0892D96
:101C30004B01C22FD82F9E01281939092F5F3F4F22
:101C4000068CF78DE02DA601B401DACF0284F3856E
:101C5000E02D0995D501ED91FC910488F589E02DE1
:101C600083019401A601BE01C5010995D501ED913D
:101C7000FC910688F789E02DC501DF91CF911F9176
:101C80000F91FF90EF90DF90CF90BF90AF909F901B
:101C90008F907F906F900994EF92FF920F931F9314
:101CA000DC011A960D911C911B9718962D913C9171
:101CB0001997ED91FC9100A0F1A1E02D7B0150E07E
:101CC00040E070E060E009951F910F91FF90EF9068
:101CD00008954F925F926F927F928F929F92AF92F0
:101CE000BF92CF92DF92EF92FF920F931F93CF9309
:101CF000DF936C012B015A0139014801DC01ED91A0
:101D0000FC910284F385E02D0995E201640C751CB9
:101D1000D601ED91FC91C615D7055CF40088F189D8
:101D2000E02D87019401A501BE01C6010995219608
:101D3000EFCF0688F789E02DC601DF91CF911F9183
:101D40000F91FF90EF90DF90CF90BF90AF909F905A
:101D50008F907F906F905F904F9009948F929F9299
:101D6000AF92BF92CF92DF92EF92FF920F931F93A9
:101D7000CF93DF93EC015B014A016901E881F981AE
:101D80000284F385E02D099595012C0D3D1D215010
:101D90003109E881F9810488F589E02D7801840111
:101DA000A401B501CE010995E881F9810688F7897A
:101DB000E02DCE01DF91CF911F910F91FF90EF9019
:101DC000DF90CF90BF90AF909F908F9009948F92AB
:101DD0009F92AF92BF92CF92DF92EF92FF920F93BA
:101DE0001F93CF93DF93EC015B014A0169017801F6
:101DF000E881F9810284F385E02D0995C80CD91C8E
:101E0000860101501109E881F9810488F589E02DE6
:101E10009501A401B501CE010995E881F9810688F3
:101E2000F789E02DCE01DF91CF911F910F91FF90A7
:101E3000EF90DF90CF90BF90AF909F908F900994DC
:101E4000EF92FF920F931F93DC01ED91FC9100A0A4
:101E5000F1A1E02D09951F910F91FF90EF9008954A
:101E60000F931F93DC01ED91FC91068CF78DE02D13
:101E700009951F910F9108950F931F93DC01ED9128
:101E8000FC91048CF58DE02D09951F910F9108951B
:101E9000DC01ED91FC910084F185E02D09942F92F5
:101EA0003F924F925F926F927F928F929F92AF92EA
:101EB000BF92CF92DF92EF92FF920F931F93CF9337
:101EC000DF9300D000D000D0CDB7DEB73C016A016F
:101ED0003E832D83FC82EB825801A41AB50AB7FE1B
:101EE00003C0B194A194B1088D809E80861A970A90
:101EF00097FE03C09194819491088A149B045CF02E
:101F0000902F812F0D811E819D838E839C2D8D2D81
:101F10006B01692F782F0C151D055CF09D818E815A
:101F20007E836D83692F782F902F812F8601C92E94
:101F3000D82E1601201A310A2B012D813E81421A1A
:101F4000530A57FE03C0519441945108710137FE62
:101F500003C03FEFE31AF30AF594E7948D819E8165
:101F6000861797075CF5A1E0B0E0BA83A983C01695
:101F7000D1064CF1D301ED91FC910484F585E02D5F
:101F80002B813C81A8016D817E818A149B041CF009
:101F90004D815E81B801C3010995E418F508F7FE8B
:101FA0000AC02D813E8189819A81280F391F3E8385
:101FB0002D83E20CF31C0F5F1F4FD9CF2FEF3FEFA4
:101FC0003A832983D4CF26960FB6F894DEBF0FBE8E
:101FD000CDBFDF91CF911F910F91FF90EF90DF90D8
:101FE000CF90BF90AF909F908F907F906F905F90B9
:101FF0004F903F902F90089590E080E00895FC016D
:10200000DB0112968D919C911397938382838AE3CF
:1020100091E09183808314968C9114978483159614
:102020008C911597858316964D915D916D917C915C
:10203000199746835783608771871A964D915D91F2
:102040006D917C911D9742875387648775871E9693
:102050004D915D916D917C91519746875787608B2B
:10206000718B52968C915297828B53964D915D91C4
:102070006D917C915697438B548B658B768B5796DD
:102080004D915D916D917C915A97478B508F618FE7
:10209000728F5B968D919C91948F838F0895089594
:1020A000DC015996ED91FC913097B9F083899489C0
:1020B000A589B6894285538564857585841B950BF2
:1020C000A60BB70B811520E89207A105B10538F0E2
:1020D0008FEF9FE7A0E0B0E0089590E080E00895E2
:1020E000DC0159968D919C91009739F0DC01ED91BE
:1020F000FC910480F581E02D099490E080E0089542
:10210000CF93DF931F92CDB7DEB76983DC01ED91EA
:10211000FC910280F381E02D41E050E0BE016F5F51
:102120007F4F09950F90DF91CF910895CF93CFB74F
:10213000F89480917E01811127C0E9E5F6E0849151
:10214000EBE3F6E09491E82FF0E0EE0FFF1FED5F78
:10215000F94FA591B491EC91E92321F461E08AE073
:102160000E945D0361E08AE00E94A9038CB5806152
:102170008CBD8CB580648CBD61E08DE00E94A903AC
:1021800061E08BE00E94A90380917E018F5F8093C4
:102190007E01CFBFCF9108950895FC0187A987FDE7
:1021A00006C0A38DB48D9C9181A9892B8C93089531
:1021B00061E0FC0184810E945D0380917F018111B7
:1021C00010927F0108958EBD00000DB407FEFDCF73
:1021D0008EB508958FEF0C94E3100F931F93CF9358
:1021E000DF93EC010E9431048B010E94EA108F3FC3
:1021F00069F00E943104601B710B6C177D07A8F316
:1022000080E0DF91CF911F910F91089581E0F9CF88
:102210008CBD9DBD0895FC0125A9211104C081A19B
:1022200092A10C94081108950F931F93CF93DF93FD
:102230001F92CDB7DEB78C016370DC0156966C93AC
:102240005697623009F468C0633009F46AC061309F
:1022500009F456C088E4898380EF90E019969C9336
:102260008E93189780E491E01B969C938E931A9717
:10227000C8010E940B11D801D7968C91D79787FD82
:1022800009C05B96ED91FC915C978081D2969C9100
:1022900089238083D8015D96ED91FC915E978081C2
:1022A000D4969C918923808366E3C8010E94090625
:1022B000D8015D96ED91FC915E978081D3969C91BB
:1022C000D397892B8083D5968C91823061F1698177
:1022D000C8010E940906D801D7968C91D79787FD2F
:1022E00009C05B96ED91FC915C978081D1969C91A1
:1022F000892B80830F90DF91CF911F910F910895CB
:1023000088E2898380E491E0F8019187808780EFFB
:1023100090E093878287ACCF88E8898380EF90E054
:102320009DCF88EEEECFF80180A9882381F26981E4
:102330007A81C8010E94C405CECFAF92BF92CF92DE
:10234000DF92EF92FF920F931F93CF93DF93EC01F5
:10235000E62E8A01A22E0E940B118FA987FD06C0CE
:10236000EB8DFC8D80819AA989238083ED8DFE8D74
:1023700080819CA9892380836E2DCE010E9409064D
:10238000ED8DFE8D80819BA9892B8083D12CC12C62
:10239000B12CCA14DB04E4F48DA97801823079F4FD
:1023A00088A9882361F0F801619171917F01CE01C4
:1023B0000E94C405FFEFCF1ADF0A8701EACFFFEFC3
:1023C000EF1AFF0AF8016491CE010E940906F2CFCC
:1023D0008FA987FD06C0EB8DFC8D808199A9892B83
:1023E0008083DF91CF911F910F91FF90EF90DF904D
:1023F000CF90BF90AF900895611106C060E220E0D9
:1024000050E040E00C949D1161E2F9CFCF93DF934F
:10241000EC010E940B118FA987FD06C0EB8DFC8D8E
:1024200080819AA989238083DF91CF910895CF93EA
:10243000DF93EC0180917F01811109C081E08093DD
:102440007F0180919E0490919F040E94081160E09A
:102450008C81DF91CF910C945D038F929F92AF920C
:10246000BF92FF920F931F93CF93DF93EC01F62E51
:1024700049015A018E81882389F08F8198859C01BA
:102480002F5F3F4F38872F838230924018F40E948D
:10249000EA10F3CFCE010E94D8101E82CE010E9416
:1024A00017128CE291E00E94ED108F2D80640E9443
:1024B000E31008E110E0D501C401002E04C0B69578
:1024C000A795979587950A94D2F70E94E310085034
:1024D0001109083F8FEF180771F785E9FF2021F0F8
:1024E00028E087E8F2128FEF0E94E31010E00E94CC
:1024F000EA108A8787FF04C01F3F11F01F5FF7CFE4
:10250000DF91CF911F910F91FF90BF90AF909F905F
:102510008F900895AF92BF92CF92DF92EF92FF9289
:102520000F931F93CF93DF93EC016901C801820FD2
:10253000931F8130924050F58E81882379F08881F5
:102540009981AA81BB8184179507A607B70731F443
:102550008F819885C816D90608F042C048835983F0
:102560006A837B838B85833039F089E0440F551F64
:10257000661F771F8A95D1F79A01AB0161E1CE0101
:102580000E942D12882389F083E08D83CE010E9462
:10259000D81080E0DF91CF911F910F91FF90EF90C5
:1025A000DF90CF90BF90AF9008950E9431045B01FF
:1025B0000E94EA108A878F3F69F40E9431046A19E9
:1025C0007B096D327140A0F38FE08D83CE010E94B4
:1025D000D810DCCF8E3F89F418861F8281E08E836D
:1025E0008F8198858C159D0550F40E94EA108F818B
:1025F0009885019698878F83F3CF8DE0E6CF6701AA
:10260000E00EF11E0E94EA10F60181936F01EE15B3
:10261000FF05C1F78F819885080F191F18870F8351
:102620008985882319F001151240A0F08E81882336
:1026300089F08F8198859C012F5F3F4F38872F83CA
:102640008230924018F40E94EA10F3CFCE010E942B
:10265000D8101E8281E09ECFCF92DF92EF92FF9240
:102660000F93CF93DF93EC01690182E1411551058E
:102670006105710599F08B85833039F089E0440F4D
:10268000551F661F771F8A95D1F79A01AB0168E144
:10269000CE010E942D12882319F084E08D832DC075
:1026A0008EEF0E94E31076018EEFD81AF701819128
:1026B0007F010E94E310EC14FD04C1F78FEF0E942C
:1026C000E3108FEF0E94E3100E94EA108A878F7157
:1026D000853071F4011116C0CE010E94D81081E03E
:1026E000DF91CF910F91FF90EF90DF90CF90089501
:1026F00081E18D83CE010E94D810CE010E94D810B6
:1027000080E0EECF88E592E00E94ED10811102C0DA
:1027100085E1C4CF20E030E0A9016DE0CE010E9448
:102720002D12882311F084E1B9CF0E94EA108111A3
:10273000FACFD2CF0F9340918001509181016091E7
:10274000820170918301411551056105710599F070
:10275000082F21E032E08091FE019091FF010E945C
:102760002C13882349F0109280011092810110925D
:1027700082011092830181E00F9108950F93CF930E
:10278000C82F80910002811105C0C1E08C2FCF912C
:102790000F910895409108015091090160910A013B
:1027A00070910B010C2F21E032E08091FE0190919D
:1027B000FF010E942C13811102C0C0E0E7CFCC239F
:1027C00021F381E00E949A138823B9F3109200024A
:1027D000DDCF8F929F92AF92BF92EF92FF920F93B5
:1027E0001F93CF934B015C01C42F809108019091FE
:1027F0000901A0910A01B0910B0188159905AA055C
:10280000BB0551F181E00E94BE1381110BC080E035
:10281000CF911F910F91FF90EF90BF90AF909F903D
:102820008F90089581E0E82E82E0F82E00E012E01B
:1028300030E020E0B501A4018091FE019091FF01FC
:102840000E948A12882319F380920801909209014C
:10285000A0920A01B0920B01409100024C2B4093D0
:10286000000281E0D5CF8F929F92AF92BF92CF921C
:10287000DF92EF92FF92CF9320EA34E03093FF0192
:102880002093FE01882309F46DC040E060E070E011
:10289000CB010E94E91381110BC080E0CF91FF9022
:1028A000EF90DF90CF90BF90AF909F908F90089562
:1028B0008091BF038F7789F78091CB039091CC03F0
:1028C000A091CD03B091CE0384369105A105B10549
:1028D00020F3C090C703D090C803E090C903F090E4
:1028E000CA03C114D104E104F104B9F240E0C70104
:1028F000B6010E94E913882381F280910C02909125
:102900000D028115924049F6A0911102AA2329F2E5
:1029100060910F02709110026115710509F4BDCF2D
:1029200020910E02222309F4B8CFA093BE04209375
:10293000B00490E080E030E0E1E0F0E0C82FAF01CB
:10294000082E02C0440F551F0A94E2F724173507DA
:1029500069F041E0480F01968930910579F740937D
:10296000B9049BCFC12CD12C7601C0CF8093B90480
:10297000209117023091180250E040E021153105F6
:1029800041F4209125023091260240912702509176
:1029900028022093B1043093B2044093B3045093BF
:1029A000B40446015701860E971EA11CB11C8092EB
:1029B000BF049092C004A092C104B092C204E091FE
:1029C0001202F0911302F093C504E093C404B0E046
:1029D0000E943725DC01CB01880D991DAA1DBB1D66
:1029E0008093C6049093C704A093C804B093C9040D
:1029F00025E0EE0FFF1F2A95E1F7E150FE4FEF2F84
:102A0000FF27E6958E0F9F1FA11DB11D8093BA046D
:102A10009093BB04A093BC04B093BD0480901402B7
:102A200090901502B12CA12C8114910441F4809056
:102A3000210290902202A0902302B0902402C81A92
:102A4000D90AEA0AFB0AC80CD91CEA1CFB1C04C000
:102A5000F694E794D794C794CA95D2F7C092B50478
:102A6000D092B604E092B704F092B80485EFC8168D
:102A70008FE0D806E104F10428F48CE08093C304CD
:102A800081E00CCF80E125EFC2162FEFD206E104E2
:102A9000F104A0F380912D0290912E02A0912F02BB
:102AA000B09130028093C6049093C704A093C804E9
:102AB000B093C90480E2E2CF4F925F926F927F920F
:102AC0008F929F92AF92BF92CF92DF92EF92FF923E
:102AD0000F931F93CF93DF93EC01423051056105B3
:102AE000710590F480E0DF91CF911F910F91FF90DD
:102AF000EF90DF90CF90BF90AF909F908F907F909E
:102B00006F905F904F90089589859A85AB85BC85BD
:102B10000196A11DB11D84179507A607B70710F3ED
:102B2000CB88DC88ED88FE888F89803109F042C02F
:102B3000BB27A72F962F852F480159012A013B015A
:102B4000C80ED91EEA1EFB1E809108019091090152
:102B5000A0910A01B0910B01C816D906EA06FB063E
:102B600099F58F898031C1F5B301A20155276627F8
:102B70007727440F551F4F5F5D4FFA019182808286
:102B8000809100028160809300028A89823080F007
:102B90008D819E81AF81B8858C0D9D1DAE1DBF1DA1
:102BA0008093800190938101A0938201B09383016F
:102BB00081E099CFDB01CA01E7E0B695A79597952B
:102BC0008795EA95D1F7B8CF40E0C701B6010E94DA
:102BD000E9138111C6CF86CFB301A2014F775527E4
:102BE00066277727440F551F440F551F4F5F5D4FD2
:102BF000FA0180829182A282B382C2CF8F929F9289
:102C0000AF92BF92CF92DF92EF92FF920F931F93FA
:102C1000CF93DF93FC0181859285A385B4850196CE
:102C2000A11DB11D84179507A607B70770F480E0B2
:102C3000DF91CF911F910F91FF90EF90DF90CF9098
:102C4000BF90AF909F908F90089583889488A588B7
:102C5000B6888789803189F5BB27A72F962F852FC6
:102C6000E9016A017B018F01BC01CD01680D791D6D
:102C70008A1D9B1D8090080190900901A0900A0177
:102C8000B0900B0186169706A806B90601F5F80163
:102C90008789803111F5DD24EE24FF24F601EE0F43
:102CA000FF1FEF5FFD4F80819181B0E0A0E088833E
:102CB0009983AA83BB8381E0BBCFDB01CA01C7E054
:102CC000B695A79597958795CA95D1F7C9CF40E056
:102CD0000E94E9138111DBCFAACFE894C7F8DD2465
:102CE000EE24FF24F601EE0FFF1FEE0FFF1FEF5F34
:102CF000FD4F80819181A281B381BF70D8CF4F9267
:102D00005F926F927F92AF92BF92CF92DF92EF92DB
:102D1000FF920F931F93CF93DF9300D000D0CDB7D6
:102D2000DEB78C0149835A836B837C835901C12CA4
:102D3000D12C7601412C82E0582E612C712C4981D6
:102D40005A816B817C819E012F5F3F4FC8010E9499
:102D5000FE15882339F1F8018585A301920104C08D
:102D6000220F331F441F551F8A95D2F7DA01C9017C
:102D7000C80ED91EEA1EFB1E49815A816B817C81D7
:102D80008789803111F188EF9FEFAFEFBFE04817DF
:102D900059076A077B0798F2F501C082D182E28267
:102DA000F38281E00F900F900F900F90DF91CF9101
:102DB0001F910F91FF90EF90DF90CF90BF90AF9059
:102DC0007F906F905F904F90089588EF9FEFA0E005
:102DD000B0E0DDCFCF93DF93FC012581222321F0EA
:102DE00080E0DF91CF910895EC018091C3048031A0
:102DF00059F582E08583178A108E118E128E80918C
:102E0000C4049091C504B0E0A0E025E0880F991FAC
:102E1000AA1FBB1F2A95D1F7838B948BA58BB68BEA
:102E20008CEA94E09C8F8B8F81E08C831E821F82C2
:102E3000188619861A861B861C861D861E861F8686
:102E4000188A198A1A8ACDCF803251F683E0858399
:102E50004091C6045091C7046091C8047091C904A0
:102E6000478B508F618F728F9F012D5E3F4F8CEA91
:102E700094E00E947F168111D3CFB2CF8F929F92A0
:102E8000AF92BF92CF92DF92EF92FF920F931F9378
:102E9000CF93DF93EC018D8181110EC080E0DF9133
:102EA000CF911F910F91FF90EF90DF90CF90BF9047
:102EB000AF909F908F9008950B891C892D893E8932
:102EC000041715072607370748F34A015B018230CC
:102ED00031F48A869B86AC86BD8681E0E0CF811482
:102EE0009104A104B10449F41E821F821886198638
:102EF0001A861B861C861D86F0CF0A851B852C85AD
:102F00003D85EB8DFC8D858590E00996B901A80182
:102F10004150510961097109082E04C076956795E1
:102F2000579547950A94D2F775016401E1E0CE1AEE
:102F3000D108E108F10804C0F694E794D794C79447
:102F40008A95D2F7C416D506E606F70620F0012BBF
:102F5000022B032B11F58F89988DA98DBA8D8E8345
:102F60009F83A887B9878E010A5F1F4FC114D104C0
:102F7000E104F10409F4ADCF4E815F816885798564
:102F800098018B8D9C8D0E94FE1591E0C91AD10885
:102F9000E108F1088111EACF81CFC41AD50AE60A07
:102FA000F70AE1CF3F924F925F926F927F928F929A
:102FB0009F92AF92BF92CF92DF92EF92FF920F93C8
:102FC0001F93CF93DF93CDB7DEB72C970FB6F8944E
:102FD000DEBF0FBECDBF5C01DC015B968D909C9087
:102FE0005C9716964D905D906D907C90199741146A
:102FF00051046104710409F468C0BFEF4B1A5B0A05
:103000006B0A7B0A312CF40181859285A385B485F6
:103010009C01AD012F5F3F4F4F4F5F4F29873A878C
:103020004B875C87730162011D821E821F82188696
:10303000F40181859285A385B4852D813E814F81E0
:103040005885281739074A075B0708F056C0898555
:103050009A85AB85BC858C159D05AE05BF0550F4E2
:1030600082E0C82ED12CE12CF12C92E0492E512C7B
:10307000612C712C9E012F5F3F4FB701A601C40147
:103080000E94FE158823C9F189819A81AB81BC8198
:10309000892B8A2B8B2B09F1260137019FEF491AC7
:1030A000590A690A790A2D813E814F8158852F5F1F
:1030B0003F4F4F4F5F4F2D833E834F8358873FEFE6
:1030C000C31AD30AE30AF30AB3CFF4014080518054
:1030D000628073803324339496CFC414D504E604FD
:1030E000F70409F70FEF1FEF2FEF3FE0B701A6013D
:1030F000C4010E945C15811119C080E02C960FB6A6
:10310000F894DEBF0FBECDBFDF91CF911F910F911D
:10311000FF90EF90DF90CF90BF90AF909F908F90F7
:103120007F906F905F904F903F900895D5011696D5
:103130004D915D916D917C911997411551056105F6
:10314000710539F097018601C4010E945C1588233E
:10315000A1F2D5011696CD92DD92ED92FC921997CF
:10316000332051F0D701C6010196A11DB11DF40114
:1031700080839183A283B383F5018789908DA18D8C
:10318000B28D892B8A2B8B2B39F48481C78AD08E00
:10319000E18EF28E80688483F5018481806284836D
:1031A00081E0ACCF2F923F924F925F926F927F92CD
:1031B0008F929F92AF92BF92CF92DF92EF92FF9247
:1031C0000F931F93CF93DF93EC015B012A018D8155
:1031D000811115C08FEF9FEFDF91CF911F910F915C
:1031E000FF90EF90DF90CF90BF90AF909F908F9027
:1031F0007F906F905F904F903F902F9008958C81BB
:1032000080FFE8CF0B891C892D893E894A855B8523
:103210006C857D85C201B0E0A0E068017901C41A27
:10322000D50AE60AF70AC816D906EA06FB0618F414
:103230002801441A550A42011E0126E0220E311CC3
:103240008114910409F4B3C04A855B856C857D8542
:103250006A0181E0D8228B8D9C8D8A019B01E9E077
:103260003695279517950795EA95D1F7ED81E230C8
:10327000E1F5FC01628D738D848D958D600F711F5A
:10328000821F931F612C22E0722E6C187D08861419
:10329000970408F434012C8126FD04C06114F2E087
:1032A0007F0671F4009108011091090120910A0133
:1032B00030910B01061717072807390709F053C08B
:1032C00040E00E94E913882309F484CFC6018F5F90
:1032D0009D4FD5019C01260D371DFC012E173F0780
:1032E00009F460C041914D93F9CFFC0174807A9448
:1032F0007022C114D10471F471100CC0452B462BFF
:10330000472B39F58F89988DA98DBA8D8E839F8330
:10331000A887B987EB8DFC8D6E817F818885998523
:103320006250710981099109258504C0660F771FD4
:10333000881F991F2A95D2F706851785208931891C
:10334000600F711F821F931F670D711D811D911DDD
:1033500099CF4E815F816885798591010E94FE1524
:103360008111D8CF37CF750183019601AB01BC0124
:103370008091FE019091FF010E948A12882309F436
:1033800029CFA60CB71C8A859B85AC85BD85860D8B
:10339000971DA11DB11D8A879B87AC87BD878618A5
:1033A00097084ECF281B390BA20EB31EECCFC201DB
:1033B00013CFCF93DF931F92CDB7DEB741E050E03C
:1033C000BE016F5F7F4F0E94D218019731F489814F
:1033D00090E00F90DF91CF9108958FEF9FEFF9CF9D
:1033E000FC01818D928D009711F00C94D9198FEF0B
:1033F0009FEF08950F931F93CF93DF93EC01898D77
:103400009A8D10E000E0009799F00E94D9198C0184
:103410000F3F100769F0898D9A8DFC014285538515
:103420006485758541505109610971090E943E17F3
:10343000C801DF91CF911F910F9108951F93CF93F2
:10344000DF93FC0125812223D1F1162FEC01848129
:1034500087FF2AC0668577858089918941E00E942F
:10346000E913882361F1EA8980E2E89FF0011124E1
:10347000EF5FFD4F309719F18D81823040F48B89D9
:103480009C89AD89BE89848F958FA68FB78F8F89D0
:10349000988D938F828F8F89988DA98DBA8DB58BDA
:1034A000A48B8C818F778C83111103C08C818F7ECC
:1034B0008C83812FDF91CF911F910C94BE1380E0FC
:1034C000DF91CF911F910895FF920F931F93CF9398
:1034D000DF93EC018D81813041F090E080E0DF915D
:1034E000CF911F910F91FF9008958C8181FFF5CFAF
:1034F00082FD1BC00091FE011091FF01C8010E94D6
:1035000017120E94EA10F82EC8010E94D8108FEFFF
:10351000F812E3CF8C8185FF1BC060E0CE010E94D2
:103520001E1A8C818F7D8C83D8CF4B895C896D89E5
:103530007E898A859B85AC85BD8584179507A607FE
:10354000B707C1F2CE010E943E178111D3CFC5CF7C
:1035500040918001509181016091820170918301BD
:10356000452B462B472B21F080E00E949A13B5CFC4
:1035700080618C832A853B85317080E092E0821BDC
:10358000930BADCFCF93DF93EC0161E00E941E1A45
:10359000882311F01D8281E0DF91CF910895FC0115
:1035A000818D928D009719F061E00C941E1A089598
:1035B0002F923F924F925F926F927F928F929F9243
:1035C000AF92BF92CF92DF92EF92FF920F931F9331
:1035D000CF93DF9300D000D01F92CDB7DEB77C0130
:1035E0005B01342E5D83DC0115968C91159781303B
:1035F00009F0CEC014962C9021FECAC022FCB4C0A3
:10360000C32CDD8022947FE027222094B22DB1705C
:103610002B2ED7011A964D915D916D917C911D973E
:10362000C114D10409F428C15B968D919C915C97DB
:10363000FC0174807A948A019B0169E03695279594
:10364000179507956A95D1F770228A01117071104C
:1036500020C001151105E9F416964D915D916D910B
:103660007C911997411551056105710509F099C0C3
:1036700057968D919D910D90BC91A02D0097A1051D
:10368000B10509F0B0C0C7010E94D217882309F420
:103690007FC080E092E0801B910B46018C159D0558
:1036A00008F44C01D7015B964D915C915C9716969E
:1036B0008D919D910D90BC91A02D0297A109B1090A
:1036C000FA01258504C0880F991FAA1FBB1F2A95E0
:1036D000D2F74685578560897189840F951FA61F8B
:1036E000B71F9C01AD01270D311D411D511D290141
:1036F0003A01811432E0930609F07BC08091080101
:1037000090910901A0910A01B0910B0184159505D2
:10371000A605B70559F48FEF9FEFDC0180930801F0
:1037200090930901A0930A01B0930B01022D95011A
:10373000B301A2018091FE019091FF010E942C1320
:10374000882331F19EEFB91AC818D908F70182858C
:103750009385A485B585880D991DA11DB11D82870E
:103760009387A487B58755CFF70143895489658925
:10377000768982859385A485B585481759076A0798
:103780007B0709F43DCFC7010E943E17811138CF56
:1037900081E090E0D70113969C938E93129780E07E
:1037A00007C09E012F5F3F4F0E94FE15811102C08E
:1037B00090E079C089819A81AB81BC81F701238D2A
:1037C000348DF901278948EF5FEF60E070E0203128
:1037D00021F048EF5FEF6FEF7FE084179507A607B2
:1037E000B70708F050CFF70186839783A087B1878A
:1037F00050CF0115110599F5D7011A964D915D919C
:103800006D917C911D9753968D919D910D90BC91DA
:10381000A02D481759076A077B0708F181E00E942D
:10382000BE13882309F4B4CF4092080150920901D5
:1038300060920A0170920B01809100028160809376
:103840000002C8018F5F9D4FD5019C01280D391DD5
:10385000FC012E173F0759F04D914193FACF41E0FB
:10386000C301B2010E94E9138111EBCF91CF281B54
:10387000390BA20EB31E68CFF70183899489A589FD
:10388000B68984179507A607B70738F48481438B58
:10389000548B658B768B80688483F701848183FDEC
:1038A0001AC0832D9D810F900F900F900F900F9055
:1038B000DF91CF911F910F91FF90EF90DF90CF900C
:1038C000BF90AF909F908F907F906F905F904F9040
:1038D0003F902F90089561E0C7010E941E1A88232F
:1038E00009F456CFDECFCF93DF931F92CDB7DEB76B
:1038F000698341E050E0BE016F5F7F4F0E94D81A9C
:103900000F90DF91CF910895CF93DF93EC01E98D74
:10391000FA8D309749F481E090E09B838A8390E0B0
:1039200080E0DF91CF91089513821282898D9A8D64
:103930000E94D81AE98DFA8D22813381232B59F701
:10394000F0CF8F929F92AF92BF920F931F93CF931E
:10395000DF93CDB7DEB7A1970FB6F894DEBF0FBEE9
:10396000CDBF19A2423008F44AE08E010F5D1F4F0F
:10397000842E912CB12CA12CA50194010E94F72436
:10398000E62FB901CA01EA3044F5E05DD801EE93B3
:103990008D01232B242B252B79F790E080E01097C5
:1039A00069F0FD0101900020E9F73197AF014A1B52
:1039B0005B0BBD0181E094E00E943D04A1960FB62F
:1039C000F894DEBF0FBECDBFDF91CF911F910F9155
:1039D000BF90AF909F908F900895E95CD7CF42E061
:1039E00050E062E771E081E094E00C943D04CF93F5
:1039F000DF930E942A05EC010E94EF1C8C0F9D1F93
:103A0000DF91CF9108950F931F93CF93DF93EC0134
:103A100080E2689FF0011124EF5FFD4F6A8B809177
:103A2000080190910901A0910A01B0910B018E87C4
:103A30009F87A88BB98B0489158930E020E0980115
:103A4000112700270F8B188F298F3A8F828D938D26
:103A5000B0E0A0E0AC01BD01402B512B622B732BD9
:103A60004F8B588F698F7A8F83858871A9F4848DE5
:103A7000958DA68DB78D8B8B9C8BAD8BBE8B81E08E
:103A80008D8381E08C831E821F82188619861A8698
:103A90001B861C861D8603C0803131F080E0DF91DB
:103AA000CF911F910F9108959E012D5E3F4F8B8DF9
:103AB0009C8D0E947F16882389F384E0E1CFAF922A
:103AC000BF92CF92DF92EF92FF920F931F93CF930B
:103AD000DF93CDB7DEB72B970FB6F894DEBF0FBEDE
:103AE000CDBF6C01FE013196CE010C967F0120E224
:103AF0002193E817F907E1F7DA0120E037E09D911B
:103B0000B92E9923A9F19E32B9F43A3091F480E0AC
:103B10002B960FB6F894DEBF0FBECDBFDF91CF91CD
:103B20001F910F91FF90EF90DF90CF90BF90AF90DB
:103B3000089528E03AE0E3CFE1E2F6E084918823BB
:103B400021F031969813FACFE2CF321700F38FEDC0
:103B5000890F8E35E0F68FE9890F8A3118F440EE2F
:103B6000B42EB90EF701E20FF11DB0822F5FC7CF5F
:103B70008981803261F28B01FB01838D948DF60186
:103B8000948F838FFB01168217821086118612860E
:103B9000138614861586F80182859385A485B585DC
:103BA000438954896589768984179507A607B707DD
:103BB00008F0ADCF25E0B695A795979587952A95FE
:103BC000D1F7F82FFF70AF2EF8018581823008F40D
:103BD0009ECFC8010E94D91997FD99CFF80182851F
:103BE0009385A485B5854F96A11DB11D82879387C6
:103BF000A487B587F0E2AF9EB00111246F5F7D4FBF
:103C00006115710509F483CFFB018081882309F1D7
:103C1000853E19F4B11032C01EC04BE050E0C70120
:103C20000E947226892B09F0B6CF6A2DC6012B9609
:103C30000FB6F894DEBF0FBECDBFDF91CF911F91BD
:103C40000F91FF90EF90DF90CF90BF90AF900C94CA
:103C5000031DB1105CCFF601A28A809108019091FA
:103C60000901A0910A01B0910B0186879787A08B6B
:103C7000B18BFB018081882309F449CFBB24B39425
:103C80008ACF0E946D26CF92DF92EF92FF920F9320
:103C90001F93CF93DF93EC016A017B01C114D10420
:103CA000E104F10431F4C12C22E1D22E2AE7E22E04
:103CB000F12C8FA987FD07C061E00E94A90361E094
:103CC0008FA90E945D0361E088AD0E94A90361E0B5
:103CD00088AD0E945D038DA9811172C040E052E160
:103CE0006AE770E0C416D506E606F70640F4769556
:103CF0006795579547958F5F8630A1F787E0982F96
:103D0000906A969599A3809581708AA31BA21CA2A4
:103D10001DA21EA20E9496108EA987FD21C061E0FF
:103D20000E94A90361E08EA90E945D0364E670E031
:103D300080E090E00E94FF0360E08EA90E945D0396
:103D400064E670E080E090E00E94FF0361E08EA9ED
:103D50000E945D0368EC70E080E090E00E94FF0349
:103D60008EA987FF0DC020E050E040E061E0CE0169
:103D70000E949D1166E970E080E090E00E94FF03E0
:103D800008E615E0C8010196F8016491662309F47C
:103D900063C00E5F1F4FFC01F490EF2CE894E7F82E
:103DA0002E2DA801CE010E949D110E0D111DF7FEB2
:103DB000E9CF66E970E080E090E00E94FF03E2CF87
:103DC0000FE416E0F12C8130B9F461E08AA50E947D
:103DD000A90360E08AA50E945D0361E08CA50E94B2
:103DE000A90360E08CA50E945D038BA587FD94CF9D
:103DF00060E00E94A90390CFF8018491E82FF0E0E1
:103E0000EE0FFF1FEB5BF94F859194912F8D38A139
:103E10002817390741F461E08F2D0E94A90360E063
:103E20008F2D0E945D03F3940F5F1F4FF4E1FF128B
:103E3000E3CF61E08EA50E94A90361E08EA50E94F8
:103E40005D038FA587FD68CF61E00E94A90361E053
:103E50008FA50E945D0360CF80EF90E099878887EF
:103E600080E491E09B878A87DF91CF911F910F912A
:103E7000FF90EF90DF90CF9008951F93CF93DF9343
:103E800085ED8093BC008091870190918801A0917D
:103E90008901B0918A010796A11DB11D23E0B69555
:103EA000A795979587952A95D1F72091BC0024FD79
:103EB00003C01092CF0152C04091870150918801F8
:103EC0006091890170918A01452B462B472B69F33C
:103ED0000097A105B10541F02AE22A95F1F700C04B
:103EE0000197A109B109E1CF80918601C1E0C0939A
:103EF0008501882399F1D091B8001091BA00809182
:103F0000BC008A7B8093BC0060E082E10E945D037C
:103F100060E083E10E945D031092CF01C093D10164
:103F20001092D00161E082E10E945D0361E083E1D3
:103F30000E945D038091B9008E7F8093B9008091CB
:103F4000B9008D7F8093B90088E48093B80085E440
:103F50008093BC001093BA00D093B800DF91CF914A
:103F60001F910895EF92FF920F931F93CF93DF93CA
:103F7000EC017B018A011B821A8288EE93E0A0E0AB
:103F8000B0E08C839D83AE83BF8386E191E099830B
:103F900088838DE190E00E9448259A8F898F009751
:103FA00079F02DE1F701DC0101900D922A95E1F7FE
:103FB0004CE050E0B801CE010C960E947F26188E8E
:103FC000DF91CF911F910F91FF90EF9008951F9275
:103FD0000F920FB60F9211242F933F938F939F93BD
:103FE000AF93BF938091F6019091F701A091F801F2
:103FF000B091F9013091F50123E0230F2D3758F5E9
:104000000196A11DB11D2093F5018093F6019093B7
:10401000F701A093F801B093F9018091FA01909112
:10402000FB01A091FC01B091FD010196A11DB11D04
:104030008093FA019093FB01A093FC01B093FD01E2
:10404000BF91AF919F918F913F912F910F900FBE94
:104050000F901F90189526E8230F0296A11DB11D01
:10406000D2CF1F920F920FB60F9211242F933F932E
:104070004F935F936F937F938F939F93AF93BF9370
:10408000EF93FF9381E094E00E94BB04FF91EF91D6
:10409000BF91AF919F918F917F916F915F914F9160
:1040A0003F912F910F900FBE0F901F9018951F9268
:1040B0000F920FB60F9211242F938F939F93EF932C
:1040C000FF93E0911104F09112048081E0911704B4
:1040D000F091180482FD1BC0908180911A048F5FBB
:1040E0008F7320911B04821741F0E0911A04F0E0D5
:1040F000EF5FFB4F958F80931A04FF91EF919F9193
:104100008F912F910F900FBE0F901F901895808167
:10411000F4CF1F920F920FB60F9211242F933F935B
:104120004F935F936F937F938F939F93AF93BF93BF
:10413000EF93FF938091B900887F803609F44AC0DD
:10414000F0F5883209F4A5C018F5803109F499C05A
:10415000B8F4882309F4F5C0883009F492C0FF91BF
:10416000EF91BF91AF919F918F917F916F915F91EF
:104170004F913F912F910F900FBE0F901F90189568
:10418000883109F486C0803251F78093CE0114C083
:10419000803409F49BC040F48033B9F38833F9F6D6
:1041A0008093CE0185ECAEC0803509F483C088359C
:1041B00009F494C0883499F60E943D1FD0CF883905
:1041C00009F48AC038F5883729F050F4883611F0A0
:1041D000803729F683E08093CF011092CD0155C03E
:1041E000883809F479C0803919F0803809F0B7CFE0
:1041F0008091CD01803208F06FC0E091CD0181E067
:104200008E0F8093CD018091BB00F0E0E355FE4F0F
:1042100080833BC0803B39F0D0F4803A09F477C00A
:10422000883A09F09CCF84E08093CF011092AC01D2
:104230001092AB01F0E0E0E009958091AB018111B3
:104240000FC081E08093AB0110928B0109C0803CCC
:1042500009F4A8CF883C09F4A5CF883B09F07FCFAB
:10426000E091AC0181E08E0F8093AC01F0E0E55766
:10427000FE4F80818093BB009091AC018091AB0197
:1042800029C08091F4018093BB0085EC8093BC0031
:1042900066CF9091F3018091F201981758F5E09163
:1042A000F30181E08E0F8093F301F0E0EE52FE4FB8
:1042B0008081E9CFE091F30181E08E0F8093F301DB
:1042C0008091BB00F0E0EE52FE4F80839091F301AD
:1042D0008091F2019817C8F285E8D8CFE091F301F8
:1042E00081E08E0F8093F3018091BB00F0E0EE52ED
:1042F000FE4F80838091D10181115ECF81E0809358
:10430000D00184EA8093BC001092CF0128CF85ECC5
:104310008093BC001092CF018091CD01803230F4A7
:10432000E091CD01F0E0E355FE4F10826091CD01A8
:1043300070E08DEA91E0F0E0E0E009951092CD01A7
:104340000ECF1092CE0138CFE1E0F4E0138212825A
:1043500088EE93E0A0E0B0E084839583A683B783E2
:1043600088E291E09183808385EC90E09587848753
:1043700084EC90E09787868780EC90E0918B808B2F
:1043800081EC90E0938B828B82EC90E0958B848B18
:1043900086EC90E0978B868B118E128E138E148E86
:1043A000EEE9F4E080E580831182E0EAF4E0158232
:1043B00016821186138682E090E0A0E0B0E0848748
:1043C0009587A687B78713A215A614A68AE391E05E
:1043D00093A782A717A6AAEEB4E013961C921E928A
:1043E000129720EF30E015963C932E93149780E4BB
:1043F00091E017969C938E93169719963C932E9363
:1044000018971B969C938E931A9756961C925697C4
:104410001D961C921E921C971F961C921E921E9710
:1044200081E055968C93559754968C9354972FEF23
:104430003FEF53963C932E93529751963C932E9375
:10444000509757968C93579758961C9258975A9610
:104450001C921E925997D5961C92D5978FEFD6969F
:104460008C93D6978AE0D7968C93D79789E0D89685
:104470008C93D897DA961C921E92D997DC961C9250
:104480001E92DB97DD961C92DD97DE961C92DE97DE
:104490001092290510922A0510922B0510922C05D6
:1044A00089EE94E090969C938E935F97E8E5F6E012
:1044B000E491F0E0EE0FFF1FEB5BF94F85919491D3
:1044C0005E969C938E935D97EAE3F6E08491D39693
:1044D0008C93D397E9E5F6E0E491F0E0EE0FFF1F4F
:1044E000EB5BF94F259134915C963C932E935B974F
:1044F000EBE3F6E0E491D196EC93D197E095D29678
:10450000EC93D297E82FE095D496EC93D49786E479
:1045100091E08D939C930895CF93DF93CDB7DEB751
:10452000C557D1090FB6F894DEBF0FBECDBF789442
:1045300084B5826084BD84B5816084BD85B58260A8
:1045400085BD85B5816085BD80916E008160809359
:104550006E001092810080918100826080938100C2
:1045600080918100816080938100809180008160D2
:10457000809380008091B10084608093B10080912D
:10458000B00081608093B00080917A008460809355
:104590007A0080917A00826080937A0080917A001C
:1045A000816080937A0080917A00806880937A009D
:1045B0001092C100E0911104F091120482E0808316
:1045C000E0910D04F0910E041082E0910F04F0913F
:1045D000100480E1808310921904E0911504F09199
:1045E000160486E08083E0911304F0911404808126
:1045F00080618083E0911304F091140480818860CD
:104600008083E0911304F09114048081806880839A
:10461000E0911304F091140480818F7D808361E028
:1046200084E00E94A90361E084E00E945D0340E011
:1046300050E0BA018AEE94E00E94431E8FEF95E0AD
:104640000E94F71C80E590E00E9408118AE50E9414
:10465000E310182F89EF95E00E942A05612F70E082
:1046600090E080E040E10E94A11C0E94EF1C80913C
:10467000CF04882321F08AEC94E00E94C21A1092A1
:10468000AB041092A9041092A6041092A50484E031
:104690008093A4040E9431048B0161E08091A40402
:1046A0000E94A90361E08091A4040E945D030E941E
:1046B000961082E580939E0410929F0480919E0440
:1046C00090919F040E9408113AE0F32E8FEF0E9410
:1046D000E310FA94F110FACF80EA94E00E941712E6
:1046E00020E030E0A90160E080EA94E00E942D1211
:1046F000F82E8093AA0481E0F816F1F00E943104AC
:10470000601B710B613D774058F381E08093A504F5
:1047100080EA94E00E94D81081EF95E00E94F71C97
:1047200000E010E001151105E9F30E94A7048823B9
:10473000C9F30E940000F6CF2AEA31E040E050E0E1
:1047400068E080EA94E00E942D1282FF2AC0F09275
:10475000AB048091AB04C12CD12C7601823029F4BA
:10476000C12CD12CE12C90E4F92E20E030E0A901FD
:1047700067E380EA94E00E942D12A701960169E2A6
:1047800080EA94E00E942D128093AA048823D1F03D
:104790000E943104601B710B613D774030F388E06B
:1047A000B5CF24E0F22E0E94EA108093AA04FA9476
:1047B000F110F9CF8A3A11F082E0A8CF82E080931D
:1047C000AB04C7CF8091AB048230D1F420E030E05D
:1047D000A9016AE380EA94E00E942D12882311F077
:1047E00086E094CF0E94EA10807C803C19F483E03C
:1047F0008093AB040E94EA100E94EA100E94EA1023
:1048000080EA94E00E94D81080E580939E04109284
:104810009F0481E00E943314882309F44EC08AEC7F
:1048200094E00E94EA16882309F476CF8BEE95E097
:104830000E94F71C1C821B820AE311E01A83098381
:104840001E82CE0101960E94EA16BE016F5F7F4F65
:10485000CE01CE960E94FF0F1CA21BA21AA309A391
:104860001EA224968FAD249781112EC06F961FAE85
:104870001EAE6F9788EE93E0A0E0B0E0A3968CAFF9
:104880009DAFAEAFBFAFA39786E191E06D969FAFAE
:104890008EAF6D97E6961FAE1EAEE697A8961FAE3A
:1048A000A897E696EEADFFADE697309719F08581B3
:1048B00081112BC081EE95E031CF80E00E9433144E
:1048C000882309F429CFABCF45E751E0BE01625CF4
:1048D0007F4FCE0181960E945F1D882339F2CE0161
:1048E000CE960E94C21ABE016F5D7F4FCE01019627
:1048F0000E94FF0F45E751E0BE016F5F7F4FCE0181
:10490000855A9F4F0E94B21FCCCF8AEE94E00E943E
:10491000061200E210E020E230E04CE350E068E2F2
:1049200070E08AEE94E00E944B068AEE94E00E94CA
:10493000CD1080E4E82EF12C412C512C32015E0187
:10494000F1E2AF0EB11CE6968EAD9FADE6970097F3
:1049500039F040E250E0BE016F5F7F4F0E94D218F5
:10496000CE0101966C018C01F801819191918F012A
:10497000480E591E611C711CAE16BF06A9F78AEEBF
:1049800094E00E9406120C151D0549F0F601619194
:1049900071916F018AEE94E00E94C405F4CF8AEE13
:1049A00094E00E94CD10F1E0EF1AF10861F6E6966E
:1049B0008EAD9FADE697009761F00E94C21AE69611
:1049C0008EAD9FADE6970E94E425E6961FAE1EAE23
:1049D000E6978CED95E00E942A054AE0C301B201FA
:1049E0000E94A11C0E94EF1C87ED95E097CEA1E2EA
:1049F0001A2EAA1BBB1BFD010DC0AA1FBB1FEE1F59
:104A0000FF1FA217B307E407F50720F0A21BB30BA3
:104A1000E40BF50B661F771F881F991F1A9469F71F
:104A200060957095809590959B01AC01BD01CF017B
:104A300008950E942125332312F48A1B9B0B0C94AA
:104A40003225A29FB001B39FC001A39F700D811DAD
:104A50001124911DB29F700D811D1124911D089587
:104A60000E942125B7FF0895821B930B08950E9491
:104A70002125A59F900DB49F900DA49F800D911DA1
:104A800011240895EE0FFF1F0590F491E02D099475
:104A90000F931F93CF93DF938230910510F482E040
:104AA00090E0E0912F05F091300530E020E0B0E09B
:104AB000A0E0309799F42115310509F44AC0281B6C
:104AC000390B24303105D8F58A819B816115710538
:104AD00089F1FB0193838283FE0111C040815181E2
:104AE0000281138148175907E0F04817590799F4D4
:104AF000109761F012960C93129713961C933296AE
:104B0000CF01DF91CF911F910F91089500932F0551
:104B100010933005F4CF2115310551F0421753079A
:104B200038F0A901DB019A01BD01DF01F801C1CF15
:104B3000EF01F9CF9093300580932F05CDCFFE0183
:104B4000E20FF31F81939193225031093983288317
:104B5000D7CF20912D0530912E05232B41F42091A4
:104B60000E0130910F0130932E0520932D052091D9
:104B70000C0130910D012115310541F42DB73EB7DF
:104B80004091100150911101241B350BE0912D052E
:104B9000F0912E05E217F307A0F42E1B3F0B281708
:104BA000390778F0AC014E5F5F4F2417350748F0A6
:104BB0004E0F5F1F50932E0540932D0581939193C7
:104BC0009FCFF0E0E0E09CCFCF93DF930097E9F038
:104BD000FC01329713821282A0912F05B09130050B
:104BE000ED0130E020E01097A1F420813181820FA7
:104BF000931F20912D0530912E052817390709F0B4
:104C000061C0F0932E05E0932D05DF91CF910895BB
:104C1000EA01CE17DF07E8F54A815B819E01411565
:104C20005105B1F7E901FB83EA8349915991C40F1A
:104C3000D51FEC17FD0761F4808191810296840FE6
:104C4000951FE90199838883828193819B838A835D
:104C5000F0E0E0E012968D919C9113970097B9F5E2
:104C60002D913C911197CD010296820F931F2091B7
:104C70002D0530912E052817390739F6309751F553
:104C80001092300510922F05B0932E05A0932D059C
:104C9000BCCFD383C28340815181840F951FC81735
:104CA000D90761F44E5F5F4F88819981480F591F82
:104CB000518340838A819B819383828321153105AF
:104CC00009F0B0CFF0933005E0932F059ECFFD01A2
:104CD000DC01C0CF13821282D7CF81E090E0F8943C
:104CE0000C948E26FB01DC0104C08D91019080198B
:104CF00021F441505040C8F7881B990B0895FB01DF
:104D0000DC014150504048F001900D920020C9F75D
:104D100001C01D9241505040E0F70895F894FFCF34
:104D2000FFFFFFFFFFFFFFFFFFFFFFFF0000310559
:104D30008000000000008010841C7010CF1A5010FA
:104D4000F019FA1900000000DD043D046A0445056D
:104D50009B0479048D0400000000731C3D04641A58
:104D60004F1000000000A30C3D04FC0F4F10D006B4
:104D70000612360ACD094C098D094F0FCD101411BA
:104D8000FC11DE074F08C0084C0ED40D750D431EF4
:0E4D90004B060D0A00696D672E7261770000F8
:00000001FF
