:100000000C947C000C94A4000C94A4000C94A40008
:100010000C94A4000C94A4000C94A4000C94A400D0
:100020000C94A4000C94A4000C94A4000C94A400C0
:100030000C94A4000C94A4000C94A4000C94A400B0
:100040000C94D40D0C94A4000C94440E0C941E0E2D
:100050000C94A4000C94A4000C94A4000C94A40090
:100060000C94760E0C94A40020503D0020543D00CA
:10007000424547494E3D4F4B00424547494E3D465C
:1000800041494C00424F4F5400464F524345443D76
:100090004641494C00464F52434544004E4F524D55
:1000A000414C0000000000240027002A000000004E
:1000B00000250028002B00040404040404040402A6
:1000C00002020202020303030303030102040810F5
:1000D00020408001020408102001020408102000C2
:1000E00000000800020100000304070000000000F7
:1000F00000000000950F3A1211241FBECFEFD8E088
:10010000DEBFCDBF11E0A0E0B1E0E0E4F0E302C06B
:1001100005900D92AC35B107D9F722E0ACE5B1E01E
:1001200001C01D92AB3FB207E1F710E0CBE7D0E092
:1001300004C02197FE010E94CA16CA37D107C9F729
:100140000E9400100C9413180C94000090E0FC0125
:10015000E152FF4F2491FC01E553FF4F3491FC0124
:10016000E954FF4FE491EE23C9F0222339F0233004
:1001700001F1A8F4213019F1223029F1F0E0EE0F5D
:10018000FF1FE355FF4FA591B4918FB7F894EC9101
:10019000611126C030953E233C938FBF08952730D0
:1001A000A9F02830C9F0243049F7809180008F7D74
:1001B00003C0809180008F7780938000DFCF84B56B
:1001C0008F7784BDDBCF84B58F7DFBCF8091B0006E
:1001D0008F778093B000D2CF8091B0008F7DF9CF20
:1001E0003E2BDACFCF93DF9390E0FC01E553FF4F36
:1001F000249189549F4FFC0184918823D1F090E091
:10020000880F991FFC01ED55FF4FA591B491FC019A
:10021000E355FF4FC591D49161110EC09FB7F8947B
:100220008C91E22FE0958E238C932881E223E88342
:100230009FBFDF91CF9108958FB7F894EC91E22B97
:10024000EC938FBFF6CF8230910538F0880F991F5D
:10025000880F991F05970197F1F708953FB7F89414
:100260008091AB019091AC01A091AD01B091AE0134
:1002700026B5A89B05C02F3F19F00196A11DB11D01
:100280003FBFBA2FA92F982F8827BC01CD01620F3D
:10029000711D811D911D42E0660F771F881F991FF8
:1002A0004A95D1F708958F929F92AF92BF92CF92C5
:1002B000DF92EF92FF924B015C010E942E016B01D5
:1002C0007C010E942E016C197D098E099F09683EF0
:1002D000734081059105A8F321E0821A9108A108D5
:1002E000B10888EEC80E83E0D81EE11CF11C811411
:1002F0009104A104B10429F7FF90EF90DF90CF9013
:10030000BF90AF909F908F90089508950895AF92F9
:10031000BF92CF92DF92EF92FF920F931F93CF93F2
:10032000DF936C017B018B01040F151FEB015E0154
:10033000AE18BF08C017D10759F06991D601ED91E9
:10034000FC910190F081E02DC6010995892B79F788
:10035000C501DF91CF911F910F91FF90EF90DF903A
:10036000CF90BF90AF900895FC01538D448D252F01
:1003700030E0842F90E0821B930B541710F0CF963F
:10038000089501970895FC01918D828D981761F071
:10039000A28DAE0FBF2FB11D5D968C91928D9F5F88
:1003A0009F73928F90E008958FEF9FEF0895FC0167
:1003B000918D828D981731F0828DE80FF11D858D1A
:1003C00090E008958FEF9FEF0895FC01918D228DAD
:1003D000892F90E0805C9F4F821B91098F73992732
:1003E000089581E292E00E94E50121E0892B09F461
:1003F00020E0822F089580E090E0892B29F00E9470
:10040000F10181110C9400000895FC01A48DA80F46
:10041000B92FB11DA35ABF4F2C91848D90E0019646
:100420008F739927848FA689B7892C93A089B18966
:100430008C91837080648C93938D848D981306C007
:100440000288F389E02D80818F7D80830895EF926B
:10045000FF920F931F93CF93DF93EC0181E0888F7E
:100460009B8D8C8D98131AC0E889F989808185FF4E
:1004700015C09FB7F894EE89FF896083E889F989F0
:1004800080818370806480839FBF81E090E0DF91F2
:10049000CF911F910F91FF90EF900895F62E0B8D45
:1004A00010E00F5F1F4F0F731127E02E8C8D8E1100
:1004B0000CC00FB607FCFACFE889F989808185FF67
:1004C000F5CFCE010E940502F1CFEB8DEC0FFD2F91
:1004D000F11DE35AFF4FF0829FB7F8940B8FEA8922
:1004E000FB8980818062CFCF0F931F93CF93DF93DF
:1004F0008C01D0E0C0E0F801EC0FFD1F6491662391
:1005000041F081E292E00E942702892B11F02196AE
:10051000F2CFCE01DF91CF911F910F910895CF932C
:10052000DF93EC01888D8823B9F0AA89BB89E8891B
:10053000F9898C9185FD03C0808186FD0DC00FB6C1
:1005400007FCF7CF8C9185FFF2CF808185FFEDCF3F
:10055000CE010E940502E9CFDF91CF910895FC0101
:1005600083858F3F19F061E00C94A6000895FC018B
:1005700080819181892B39F0A281B3819C91119660
:100580008C919CBD8DBD83858F3F19F060E00C94EC
:10059000A6000895BF92CF92DF92EF92FF920F9341
:1005A0001F93CF93DF93EC0188819981892B81F090
:1005B0006EBD0DB407FEFDCF0EB5802FDF91CF913C
:1005C0001F910F91FF90EF90DF90CF90BF90089513
:1005D0008885998511E0892B09F010E8BB24B39434
:1005E000862F812309F0B12CF62E2C813D814E817E
:1005F0005F8160E271EA87E090E00E941215E22ECE
:1006000000E0C22ED12CEE2019F0C6010E94230179
:100610008A85982F977F09F044C08D858F3F89F098
:100620009F2D912381E009F480E08B1551F0EF8537
:10063000F8898F89992379F19081892B8083BB2454
:10064000B394E989FA898081998D892B8083EE2082
:1006500019F0C6010E9423018E858F3F39F0EB8986
:10066000FC898081988D892309F0012BE989FA8919
:100670009081898D80958923808388859985892BB0
:1006800009F067C0110F1111BECF8E858F3F09F0A1
:1006900094CF0F2D92CF9081809589238083B12CA8
:1006A000D0CF8C3099F58D858F3F49F0EF85F88953
:1006B0008F899F2D912331F19081892B8083E98946
:1006C000FA899081898D809589238083EE2019F0A5
:1006D000C6010E942301E989FA898081998D892BBD
:1006E0008083EE2019F0C6010E9423018E858F3F82
:1006F00021F2EB89FC898081988D892309F4BDCF93
:10070000012BBBCF908180958923D8CFE989FA89C5
:100710008081998D892B8083EE2019F0C6010E947B
:1007200023018D858F3F49F0EF85F8898F899F2DB3
:10073000912359F09081892B8083E989FA899081EE
:10074000898D809589238083D1CF9081809589235D
:10075000F3CF169598CFCF92DF92EF92FF920F933F
:100760001F93CF93DF938C01EB016A0179010E9403
:10077000B7026881C8010E94CA02E601EC0CFD1CA8
:100780006FEFC8010E94CA028993CE15DF05C1F739
:10079000C8010E94AF0281E0DF91CF911F910F91BC
:1007A000FF90EF90DF90CF900895089508952091E5
:1007B0007D01260F3327331F21323105ECF42091C0
:1007C000F701FC0190E080E0243069F082E00895B8
:1007D000A0917D012191AC01435A5E4FA40FB52F2A
:1007E000B11D2C930196861798F380917D01680FB7
:1007F00060937D0180E0089581E008951092F701F3
:1008000081E08093F6011092D10161E082E10E94C3
:10081000A60061E083E10E94A600E9EBF0E08081A0
:100820008E7F808380818D7F808388E48093B80071
:1008300085E48093BC000895CF93DF9391E090937B
:100840005C018823B9F0C091B800D091BA008091C2
:10085000BC008A7B8093BC0060E082E10E94A6001D
:1008600060E083E10E94A6000E94FE03D093BA00DC
:10087000C093B800DF91CF9108958F929F92AF926D
:10088000BF92CF92DF92EF92FF920F931F93CF937D
:10089000DF93D0912002D13208F0D7C0182FC09139
:1008A0001F020E942E016B017C018091F7018111D2
:1008B0006BC082E08093F7011093F6018FEF809375
:1008C000F5011092F401D093F301AFEFB1E0E3ED45
:1008D000F1E080E0D81391C01092D2018091D20152
:1008E000CC0FC82BC093D2018091D101813009F087
:1008F00088C01092D1010E942E016B017C01809171
:10090000D2018093BB008091F9019091FA01A091EE
:10091000FB01B091FC01892B8A2B8B2BA1F00E944B
:100920002E010091F9011091FA012091FB01309103
:10093000FC016C197D098E099F0906171707280706
:10094000390708F442C08091BC0083FDD8CF85EC04
:100950008093BC000E942E016B017C018091F70105
:10096000823009F450C08091F5018F3F09F46FC0C7
:100970008091F501803209F46CC08091F5018033DB
:1009800009F469C084E026C08091F9019091FA01D0
:10099000A091FB01B091FC01892B8A2B8B2B09F4D0
:1009A00084CF0E942E018090F9019090FA01A090CE
:1009B000FB01B090FC016C197D098E099F09861618
:1009C0009706A806B90608F070CF8091F8010E943A
:1009D0001C0485E01092FE01109220021092FD018D
:1009E000DF91CF911F910F91FF90EF90DF90CF900B
:1009F000BF90AF909F908F9008959D9191938F5F3E
:100A000069CF85EEA5CF8091F9019091FA01A0916F
:100A1000FB01B091FC01892B8A2B8B2B09F49ECF13
:100A20000E942E010091F9011091FA012091FB0121
:100A30003091FC016C197D098E099F090617170773
:100A40002807390708F08ACFC0CF81E0C3CF80E004
:100A5000C1CF82E0BFCF83E0BDCF1F93CF93DF93A1
:100A6000EA01122FDC0111968D919C91DC01ED9130
:100A7000FC910280F381E02D0995C817D90729F46C
:100A8000812F0E943D0491E0811190E0892FDF9138
:100A9000CF911F910895CF93DF93EC018B81882331
:100AA000A1F0888191E09093FD0180931F02109244
:100AB000FE011092200281E00E943D0491E081112C
:100AC00090E0892FDF91CF9108951092B00110929C
:100AD000AF011092FE01109220020E94FE0385E8F1
:100AE00091E09093A2018093A10186E891E0909318
:100AF000A4018093A30181E08B83CE010E944B056A
:100B0000982F8111CECFDDCF0895E091B001809173
:100B1000AF01E81730F4F0E0EF54FE4F808190E031
:100B200008958FEF9FEF08959091B0018091AF01EC
:100B30002FEF3FEF981748F4E92FF0E0EF54FE4F06
:100B4000208130E09F5F9093B001C90108958091AA
:100B5000AF019091B001891B990B0895CF92DF925C
:100B6000EF92FF920F931F93CF93DF937C01CB0102
:100B70008A012091FD01222389F0EB016B01C40E53
:100B8000D51ECC15DD0569F06991D701ED91FC9179
:100B90000190F081E02DC7010995F3CF642F0E94E9
:100BA000D703C801DF91CF911F910F91FF90EF9074
:100BB000DF90CF900895CF93DF931F92CDB7DEB72C
:100BC00069832091FD012223F9F020912002203237
:100BD00058F021E030E0FC013383228390E080E094
:100BE0000F90DF91CF9108958091FE01E82FF0E002
:100BF000E150FE4F998190838F5F8093FE01809337
:100C0000200281E090E0ECCF61E0CE0101960E94ED
:100C1000D703F7CF90E080E00895FC010190002019
:100C2000E9F73197AF01481B590BBC0181E292E013
:100C30000C9487018F929F92AF92BF920F931F9354
:100C4000CF93DF93CDB7DEB7A1970FB6F894DEBF91
:100C50000FBECDBF19A2423008F44AE08E010F5DED
:100C60001F4F842E912CB12CA12CA50194010E9420
:100C70001215E62FB901CA01EA30F4F4E05DD8019B
:100C8000EE938D01232B242B252B79F790E080E028
:100C9000109719F0CD010E940D06A1960FB6F89499
:100CA000DEBF0FBECDBFDF91CF911F910F91BF90DF
:100CB000AF909F908F900895E95CE1CFCF93DF9341
:100CC0000E947402EC0186E491E00E940D068C0FF4
:100CD0009D1FDF91CF9108954F925F926F927F9207
:100CE0008F929F92AF92BF92CF92DF92EF92FF923C
:100CF0000F931F93CF936B017C01742EAC019B016A
:100D00000E94FD14882399F089E491E0CF911F910E
:100D10000F91FF90EF90DF90CF90BF90AF909F909A
:100D20008F907F906F905F904F900C940D064601CE
:100D30005701E894B7F82FEF3FEF4FE75FE7C501A2
:100D4000B4010E94FD1481110DC02FEF3FEF4FE75A
:100D50005FE7C501B4010E94DF1218161CF48DE490
:100D600091E0D4CF2FEF3FEF4FE75FE4C701B6012B
:100D70000E948B1418161CF481E591E0C7CF2FEF69
:100D80003FEF4FE75FECC701B6010E94DF1287FD1E
:100D9000F3CF20E030E0A901C701B6010E94DF12C5
:100DA00010E000E087FF0AC06DE281E292E00E945D
:100DB00027028C01F7FAF094F7F8F094C0E060E0B5
:100DC00070E080E09FE37C1641F020E030E040E2FC
:100DD00051E40E94E412CF5FF6CFA70196010E9472
:100DE00073122B013C010E9456134B015C014AE037
:100DF0000E941A067C01E00EF11ECC23C1F1C50150
:100E0000B4010E948B139B01AC01C301B2010E948B
:100E100072124B015C016EE281E292E00E942702B5
:100E2000E80EF91EC15018F120E030E040E251E434
:100E3000C501B4010E9490142B013C010E9456137D
:100E40004B01B12CA12C4AE0C501B4010E941A0645
:100E5000E80EF91EC501B4010E948B139B01AC0181
:100E6000C301B2010E9472124B015C01DBCFC701CA
:100E7000CF911F910F91FF90EF90DF90CF90BF9097
:100E8000AF909F908F907F906F905F904F9008955C
:100E90000F931F93CF93DF9300D0CDB7DEB76A8354
:100EA000E091CC02F091CD023097F9F089838481F2
:100EB0009581029798F0808191E09093FD01809355
:100EC0001F021092FE011092200221E042E050E049
:100ED000BE016F5F7F4FCF010E942D050F900F90D5
:100EE000DF91CF911F910F9108958F7789830091A2
:100EF000CE021091CF02C8010E94B7026981C801D9
:100F00000E94CA026A81C8010E94CA02C8010E94E6
:100F1000AF02E4CF0F931F93CF93DF93C6EFD2E0DE
:100F20008295880F880F807C67704770440F440F4C
:100F3000440F862B842B8883E5EFF2E0922F977085
:100F4000990F990F990F8081807C402F4770892BD2
:100F5000842B8083B80195E0660F771F9A95E1F79F
:100F600087FB882780F9682B220F331F220F331F3E
:100F7000622B85EF0E9448078881682F677090E296
:100F8000699FB0011124282F269526952695277054
:100F900094E0299F90011124622B82958695869575
:100FA0008370682B84EFDF91CF911F910F910C9488
:100FB00048072F923F924F925F926F927F928F924B
:100FC0009F92AF92BF92CF92DF92EF92FF920F93D8
:100FD0001F93CF93DF93DC011496ED91FC9115974D
:100FE000EF2B09F425C169012A01EC01888191E008
:100FF0009093FD0180931F021092FE011092200237
:1010000020E041E050E0CD010E942D05782E88239C
:1010100009F40EC1F12CE12C332433948C819D8191
:1010200086010E191F098017910708F48C0128808A
:101030000E942E014B015C018091F701811173C068
:10104000602EB0E2B01710F480E2682E3092F70103
:1010500021E0C601801B910BE816F90608F420E098
:101060002093F601EFEFE093F5011092F4018FEF7A
:10107000860D8093F3013092D2018091D201220C2F
:10108000282A2092D2018091D101813009F090C0AC
:101090001092D1010E942E014B015C018091D2017E
:1010A0008093BB008091F9019091FA01A091FB011E
:1010B000B091FC01892B8A2B8B2BA1F00E942E0171
:1010C0002091F9013091FA014091FB015091FC010E
:1010D000681979098A099B092617370748075907AC
:1010E00008F442C08091BC0083FDD8CFF5ECF093AA
:1010F000BC000E942E014B015C018091F701813000
:1011000009F45AC08091F401861510F46090F4013E
:10111000A3EDB1E0E1EBF1E080E0861551F19D91A6
:1011200091938F5FFACF8091F9019091FA01A0918C
:10113000FB01B091FC01892B8A2B8B2B09F47CCF0E
:101140000E942E012091F9013091FA014091FB019A
:101150005091FC01681979098A099B0926173707FC
:101160004807590708F068CF8091F8010E941C04D5
:10117000612C1092B0016092AF016016110609F067
:1011800057C042018E0C9F1C5401C5018819990952
:101190008017910798F589819A81DC01ED91FC9186
:1011A0000284F385E02D0995F50181935F01EDCF70
:1011B00085EE8093BC009DCF8091F9019091FA015A
:1011C000A091FB01B091FC01892B8A2B8B2B09F498
:1011D00094CF0E942E012091F9013091FA014091A3
:1011E000FB015091FC01681979098A099B092617AE
:1011F00037074807590708F080CFB6CFE00EF11E39
:10120000EC14FD0408F40ACF872DDF91CF911F91D4
:101210000F91FF90EF90DF90CF90BF90AF909F9095
:101220008F907F906F905F904F903F902F90089598
:10123000712CEACFCF93DF931F92CDB7DEB7E09149
:10124000CC02F091CD02898321E030E0AE014F5F06
:101250005F4FBA01309741F0CF010E94D9078981D1
:101260000F90DF91CF9108958091CE029091CF029F
:101270000E94AB03F4CFCF93DF9300D0CDB7DEB79E
:10128000E091CC02F091CD02898322E030E0AE0102
:101290004F5F5F4FBA01309751F0CF010E94D907DD
:1012A00089819A810F900F90DF91CF91089580915D
:1012B000CE029091CF020E94AB03F2CFCF93DF9387
:1012C00000D01F92CDB7DEB7FC0182819381698384
:1012D00023E030E0AE014F5F5F4FBA010097A1F00D
:1012E0000E94D90729816A8170E090E080E0982F00
:1012F000872F762F6627822B2B81622B0F900F90E2
:101300000F90DF91CF910895848195810E94AB0366
:10131000E9CF8F929F92AF92BF92CF92DF92EF92DE
:10132000FF920F931F93CF93DF93EC016AEF0E941C
:101330005E090B891C8930E020E0C72ED82EE92EEB
:10134000FF24E7FCFA94C01AD10AE20AF30A57E034
:1013500095958795779567955A95D1F7000F111F49
:10136000221F331F4B015C01801A910AA20AB30AA3
:10137000A5019401AD89BE890E943F154B015C0116
:10138000FBE0B594A79497948794FA95D1F7A701B9
:101390009601C701B6010E9402159B01AC01ACE0A9
:1013A0005595479537952795AA95D1F7AF89B88D6B
:1013B0000E943F159B01AC01BEE0559547953795BE
:1013C0002795BA95D1F7280D391D4A1D5B1D2F872A
:1013D000388B498B5A8BA5E0B0E00E9434156058D9
:1013E0007F4F8F4F9F4F672F782F892F992787FD2A
:1013F0009A950E948D1320E030E048EC52E40E9460
:10140000E412DF91CF911F910F91FF90EF90DF9049
:10141000CF90BF90AF909F908F9008952F923F9262
:101420004F925F926F927F928F929F92AF92BF92F4
:10143000CF92DF92EF92FF920F931F93CF93DF93A0
:10144000CDB7DEB76D970FB6F894DEBF0FBECDBF38
:101450009D8F8C8FFC0183859485A585B685892B0E
:101460008A2B8B2B19F0CF010E94890967EF8C8D95
:101470009D8D0E945E09688F798F8A8F9B8FEC8D7E
:10148000FD8D87859089A189B2896C017D01FF0C52
:10149000CC08DC2C76019C01AD016C2D7C2D8C2DB3
:1014A0009C2D345F414051096109710981099109FD
:1014B00029873A874B875C873B014C0159016A01B8
:1014C0007B018C010E944715322E232E4A8B5B8BA9
:1014D0006C8B7D8B8E8B9F8BAC8DBD8D5C963C9188
:1014E0005C975B962C91932F990F990B492F592F4D
:1014F000692F792F892F0E9447150CE00E947616DC
:10150000522E39834D875E876F87788B898B492E62
:10151000EC8DFD8D368D258D932F990F990BA32C76
:10152000B22CCA88DB88EC88FD880E891F89492F78
:10153000592F692F792F892F0E94471508E00E94A3
:101540008F16A52CB980CD84DE84EF84F8880989B4
:10155000142D0E94AC1670588F4F9F4FAC8DBD8DCF
:101560005996ED91FC915F01D12CC12CE12CF12C0D
:101570008701E983BA82CB82DC82ED82FE820F830F
:101580001887C12CD12CE12CF12C00E010E00E9436
:10159000471501E20E948F162983532E4D875E87DF
:1015A0006F87788B898B492EA0E00E94BE1609F4C4
:1015B0003DC1AC8DBD8D94963C91949793962C91A2
:1015C000932F990F990BA32CB22CCA88DB88EC8837
:1015D000FD880E891F89492F592F692F792F892F4F
:1015E0000E94471519014A8B5B8B6C8B7D8B8E8B10
:1015F0009F8BEC8DFD8D32A121A1932F990F990B1B
:10160000A984BA84CB84DC8473018401492F592FC7
:10161000692F792F892F0E94471501E10E947616C4
:101620005101CA88DB88EC88FD880E891F890E94D9
:10163000AC1659016A017B01282E192F488D598D4E
:101640006A8D7B8D84E075956795579547958A954A
:10165000D1F780E090E0A0E1B0E0841B950BA60BF1
:10166000B70B3C014D01990C6608762C43019C0197
:10167000AD01662D762D862D962D0FE10E947616F2
:10168000722E832E942E652EB62FA72F382E998773
:10169000EC8DFD8D30A1278D932F990F990B492F3C
:1016A000592F692F792F892F03E20E947616022D78
:1016B0000E94AC1659016A017B018C01272D382D3F
:1016C000492D562D6B2F7A2F832D99850E94B516A3
:1016D000E5E3AE2EFCE0BF2EC12CD12CE12CF12C89
:1016E00000E010E00E944715A980B52CCD84DE846F
:1016F000EF84F8880989142D0E94A11529873A875B
:101700004B875C8769837D878E879F870DE00E946A
:101710008F16922E832E742E652E562E472E382E1F
:10172000292EAC8DBD8D9A963C919A9799962C91C5
:10173000932F990F990BA92CB82CC72CD62CE52CDC
:10174000F42C032D122D492F592F692F792F892F12
:101750000E9447150E94471509E10E948F16A9842F
:10176000BA84CB84DC84E980FD840E851F850E94C9
:10177000AC1619012A013B014C01EC8DFD8D30A501
:1017800027A1932F990F990B492F592F692F792F43
:10179000892F0E94471503E10E948F1659016A01A3
:1017A0007B018C019101A201B301C4010E94AC161E
:1017B00008E00E948F1659016A017B01E82F192F5A
:1017C000AC8DBD8D96963C91969795962C91932FC6
:1017D000990F990B492F592F692F792F892F04E0E1
:1017E0000E9476160E2F0E94AC160E94851320E0F0
:1017F00030E040E85BE30E9490146D960FB6F894D9
:10180000DEBF0FBECDBFDF91CF911F910F91FF9033
:10181000EF90DF90CF90BF90AF909F908F907F9090
:101820006F905F904F903F902F90089560E070E030
:10183000CB01E3CF0E9474028CE690E00E94740218
:101840008091D5029091D602A091D702B091D80292
:10185000892B8A2B8B2B11F18AEC92E00E9489094B
:1018600042E00E946C0688E690E00E94740280913B
:10187000D5029091D602A091D702B091D802892BBF
:101880008A2B8B2B81F08AEC92E00E940E0A40E0BA
:101890000E946C0686E491E00C940D0660E070E016
:1018A00080EC9FE7DDCF60E070E080EC9FE7EFCF5A
:1018B0000C947B170C947B17CF93DF93EB01FB0108
:1018C000349620E2DF011D922A95E9F744E250E0C8
:1018D00060E070E0488359836A837B83FC01428126
:1018E0005381052E000C660B770B4C835D836E8352
:1018F0007F8346E050E060E070E0488759876A8760
:101900007B872FB7F8944091A7015091A80160916F
:10191000A9017091AA012FBF488B598B6A8B7B8BD1
:1019200084819581FC014385548565857685452BA9
:10193000462B472B81F00E940E0A20E030E048EC55
:1019400052E40E94E4126C8B7D8B8E8B9F8B81E026
:10195000DF91CF91089560E070E080EC9FE7EDCFDC
:10196000CF93DF93EB01FB01349620E2DF011D9260
:101970002A95E9F744E250E060E070E0488359833B
:101980006A837B83FC0142815381052E000C660B28
:10199000770B4C835D836E837F834DE050E060E086
:1019A00070E0488759876A877B872FB7F894409102
:1019B000A7015091A8016091A9017091AA012FBFC0
:1019C000488B598B6A8B7B8B84819581FC01438585
:1019D000548565857685452B462B472B51F00E9413
:1019E00089096C8B7D8B8E8B9F8B81E0DF91CF91F2
:1019F000089560E070E080EC9FE7F3CF0F931F93B2
:101A0000CF93DF938C01EB0188E2FB0111928A9561
:101A1000E9F74BE050E065E571E0CE010E94041863
:101A20001B8681E090E0A0E0B0E08C879D87AE87C8
:101A3000BF87F80182819381092E000CAA0BBB0B92
:101A4000888B998BAA8BBB8B86E090E0A0E0B0E0FE
:101A50008C8B9D8BAE8BBF8B1CA21DA21EA21FA2C6
:101A600080E090E0A6E9B3E48C8F9D8FAE8FBF8FAE
:101A700080E090E8A9E8B4E4888F998FAA8FBB8FA3
:101A800086EA9BE9A4E4BCE388A399A3AAA3BBA329
:101A9000DF91CF911F910F9108950F931F93CF93D3
:101AA000DF938C01EB0188E2FB0111928A95E9F743
:101AB0004BE050E065E571E0CE010E9404181B8602
:101AC00081E090E0A0E0B0E08C879D87AE87BF8783
:101AD000F80182819381092E000CAA0BBB0B888B25
:101AE000998BAA8BBB8B8DE090E0A0E0B0E08C8B53
:101AF0009D8BAE8BBF8B1CA21DA21EA21FA280E0DD
:101B000090E0A0E2B2EC8C8F9D8FAE8FBF8F80E013
:101B100090E0AAEAB2E4888F998FAA8FBB8F8AE0FF
:101B200097EDA3E2BCE388A399A3AAA3BBA3DF918B
:101B3000CF911F910F91089585ED8093BC00809106
:101B4000F9019091FA01A091FB01B091FC01079677
:101B5000A11DB11D23E0B695A795979587952A9568
:101B6000D1F72091BC0024FD03C01092F701089525
:101B70004091F9015091FA016091FB017091FC01D3
:101B8000452B462B472B69F30097A105B10541F082
:101B90002AE22A95F1F700C00197A109B109E1CF26
:101BA0008091F8010C941C041F920F920FB60F92B3
:101BB00011242F933F938F939F93AF93BF93809163
:101BC000A7019091A801A091A901B091AA0130911B
:101BD000A60123E0230F2D3758F50196A11DB11D55
:101BE0002093A6018093A7019093A801A093A90137
:101BF000B093AA018091AB019091AC01A091AD018D
:101C0000B091AE010196A11DB11D8093AB019093DF
:101C1000AC01A093AD01B093AE01BF91AF919F9184
:101C20008F913F912F910F900FBE0F901F9018959D
:101C300026E8230F0296A11DB11DD2CF1F920F924D
:101C40000FB60F9211242F933F934F935F936F938F
:101C50007F938F939F93AF93BF93EF93FF9381E213
:101C600092E00E940502FF91EF91BF91AF919F9189
:101C70008F917F916F915F914F913F912F910F9035
:101C80000FBE0F901F9018951F920F920FB60F92D4
:101C900011242F938F939F93EF93FF93E091310241
:101CA000F09132028081E0913702F091380282FD9A
:101CB0001BC0908180913A028F5F8F7320913B020D
:101CC000821741F0E0913A02F0E0EF5DFD4F958F11
:101CD00080933A02FF91EF919F918F912F910F90F6
:101CE0000FBE0F901F9018958081F4CF1F920F9216
:101CF0000FB60F9211242F933F934F935F936F93DF
:101D00007F938F939F93AF93BF93EF93FF938091B4
:101D1000B900887F803609F44AC0F0F5883209F4AA
:101D2000A7C018F5803109F49BC0B8F4882309F4E2
:101D3000F9C0883009F494C0FF91EF91BF91AF9141
:101D40009F918F917F916F915F914F913F912F91D3
:101D50000F900FBE0F901F901895883109F488C01E
:101D6000803251F78093F50114C0803409F49DC08E
:101D700040F48033B9F38833F9F68093F50185ECAC
:101D8000B0C0803509F485C0883509F496C0883420
:101D900099F60E949C0DD0CF883909F48CC038F593
:101DA000883729F050F4883611F0803729F683E01F
:101DB0008093F70110929F0157C0883809F47BC0C7
:101DC000803919F0803809F0B7CF80919F018032B7
:101DD00008F071C0E0919F0181E08E0F80939F0118
:101DE0008091BB00F0E0E158FE4F80833DC0803B16
:101DF00039F0E0F4803A09F479C0883A09F09CCFD0
:101E000084E08093F70110927E0110927D01E091B1
:101E1000A101F091A201099580917D0181110FC06E
:101E200081E080937D0110925D0109C0803C09F43E
:101E3000A6CF883C09F4A3CF883B09F07DCFE09181
:101E40007E0181E08E0F80937E01F0E0E35AFE4F29
:101E500080818093BB0090917E0180917D0129C09B
:101E60008091D2018093BB0085EC8093BC0064CF4D
:101E70009091F4018091F301981758F5E091F401E5
:101E800081E08E0F8093F401F0E0ED52FE4F8081EF
:101E9000E9CFE091F40181E08E0F8093F40180910D
:101EA000BB00F0E0ED52FE4F80839091F4018091F1
:101EB000F3019817C8F285E8D8CFE091F40181E0EA
:101EC0008E0F8093F4018091BB00F0E0ED52FE4F45
:101ED00080838091F60181115CCF81E08093D101F4
:101EE00084EA8093BC001092F70126CF85EC8093A2
:101EF000BC001092F70180919F01803230F4E09194
:101F00009F01F0E0E158FE4F108260919F0170E068
:101F1000E091A301F091A4018FE791E0099510925F
:101F20009F010ACF1092F50134CFCF93DF93E1E206
:101F3000F2E01382128288EE93E0A0E0B0E08483A6
:101F40009583A683B7832AE031E03183208325EC93
:101F500030E03587248724EC30E03787268720EC73
:101F600030E0318B208B21EC30E0338B228B22EC64
:101F700030E0358B248B26EC30E0378B268B118EAE
:101F8000128E138E148EEEEBF2E013821282848393
:101F90009583A683B7838CE191E091838083CAEC1B
:101FA000D2E01B821A821D821C821B861C861D8623
:101FB0001E861BA61CA6F983E88386E090E00E949B
:101FC000DF16FC018CE391E09183808388E191E04E
:101FD00093838283D583C483FF83EE8386E090E07E
:101FE0000E94DF16FC018EE291E0918380831382D0
:101FF0001282D583C483F987E887DF91CF91089552
:10200000789484B5826084BD84B5816084BD85B5D3
:10201000826085BD85B5816085BD80916E008160DF
:1020200080936E0010928100809181008260809385
:102030008100809181008160809381008091800087
:102040008160809380008091B10084608093B100B2
:102050008091B00081608093B00080917A008460AC
:1020600080937A0080917A00826080937A008091D8
:102070007A00816080937A0080917A0080688093F2
:102080007A001092C100E0913102F091320282E0B8
:102090008083E0912D02F0912E021082E0912F02B8
:1020A000F091300280E1808310923902E091350294
:1020B000F091360286E08083E0913302F0913402A1
:1020C000808180618083E0913302F09134028081CD
:1020D00088608083E0913302F091340280818068CF
:1020E0008083E0913302F091340280818F7D808380
:1020F00084E890E00E945E06C091CE02D091CF02AB
:10210000209709F046C08091CC029091CD020097B3
:1021100011F00E947B1786E090E00E94DF16EC0130
:102120008091CA029091CB0226E728839A83898303
:102130001B8280E290E09D838C83D093CD02C0937C
:10214000CC021092B0011092AF011092FE011092D9
:1021500020020E94FE0385E891E09093A201809303
:10216000A10186E891E09093A4018093A30181E00E
:102170008B83CE010E944B0581114FC089E790E00F
:102180000E945E066AE070E080E090E00E945301E9
:10219000F9CF8B858F3F39F061E00E94F20061E05A
:1021A0008B850E94A60088819981892B09F410C132
:1021B0001FB7F8948091A001811127C0E1ECF0E0F5
:1021C0008491E5EDF0E09491E82FF0E0EE0FFF1F31
:1021D000ED55FF4FA591B491EC91E92321F461E015
:1021E0008AE00E94A60061E08AE00E94F2008CB5BD
:1021F00080618CBD8CB580648CBD61E08DE00E94F7
:10220000F20061E08BE00E94F2008091A0018F5FFC
:102210008093A0011FBF81E08B8F80ED0E941A097F
:1022200090E0B0E0A0E08093D5029093D602A09316
:10223000D702B093D80288359105A105B10509F000
:102240009DCF88E80E943B099093DE028093DD02D7
:102250008AE80E943B099093E0028093DF028CE8B9
:102260000E943B099093E2028093E1028EE80E9473
:102270003B099093E4028093E30280E90E943B09CA
:102280009093E6028093E50282E90E943B099093D5
:10229000E8028093E70284E90E943B099093EA02F6
:1022A0008093E90286E90E943B099093EC028093B7
:1022B000EB0288E90E943B099093EE028093ED02C5
:1022C0008AE90E943B099093F0028093EF028CE927
:1022D0000E943B099093F2028093F1028EE90E94E2
:1022E0003B099093F4028093F3028091D502909180
:1022F000D602A091D702B091D802892B8A2B8B2BC2
:1023000061F010E000E030E020E045E050E065E002
:1023100070E083E090E00E948A0764E670E080E06D
:1023200090E00E94530180E790E00E945E06809159
:10233000D5029091D602A091D702B091D802892BF4
:102340008A2B8B2B61F004E010E024E030E045E0C4
:1023500050E062E070E083E090E00E948A07C0E015
:10236000D0E08091A501863008F050C08CE990E063
:102370000E941A0C8091A5018F5F8093A501863081
:10238000C1F48091D5029091D602A091D702B0916C
:10239000D802892B8A2B8B2B61F010E000E030E013
:1023A00020E041E050E061E070E081E090E00E94D8
:1023B0008A0764E170E080E090E00E94530120977A
:1023C00081F20E94F101882361F20E940000C9CFCE
:1023D00061E08C850E94F2008A858B7F60E009F0C5
:1023E00061E08C850E94A6008D858F3F39F061E009
:1023F0000E94F20061E08D850E94A6008E858F3FCD
:1024000009F409CF60E00E94F20005CF8091F60246
:10241000982F907C903421F5682F677090E2699F27
:10242000B0011124282F269526952695277094E033
:10243000299F90011124622B829586958695837041
:10244000682B84EF0E94480783EF0E941A0983FFDC
:102450000CC061E070E080E090E00E945301F4CF96
:1024600089E890E00E945E06A4CF85E990E00E9492
:102470001A0C9FCFCF93DF93C091CE02D091CF02A1
:10248000209749F08A819B81009711F00E947B1769
:10249000CE010E947B178091CC029091CD020097D3
:1024A00011F00E947B178091D0029091D102009789
:1024B00039F0DC01ED91FC910280F381E02D09956A
:1024C0008091D2029091D302009749F0DC01ED9106
:1024D000FC910280F381E02DDF91CF910994DF918F
:1024E000CF9108955058BB27AA270E948A120C94B6
:1024F00051140E94431438F00E944A1420F039F419
:102500009F3F19F426F40C9430140EF4E095E7FB89
:102510000C942A14E92F0E94621458F3BA17620728
:1025200073078407950720F079F4A6F50C948414BA
:102530000EF4E0950B2EBA2FA02D0B01B9019001DE
:102540000C01CA01A0011124FF27591B99F0593F22
:1025500050F4503E68F11A16F040A22F232F342F6A
:102560004427585FF3CF469537952795A795F040B8
:102570005395C9F77EF41F16BA0B620B730B840BCD
:10258000BAF09150A1F0FF0FBB1F661F771F881F85
:10259000C2F70EC0BA0F621F731F841F48F48795DD
:1025A00077956795B795F7959E3F08F0B0CF9395CF
:1025B000880F08F09927EE0F9795879508950E9448
:1025C000061408F481E008950E94F8120C94511446
:1025D0000E944A1458F00E94431440F029F45F3FCF
:1025E00029F00C942A1451110C9485140C94301475
:1025F0000E94621468F39923B1F3552391F3951B5C
:10260000550BBB27AA2762177307840738F09F5F13
:102610005F4F220F331F441FAA1FA9F335D00E2E80
:102620003AF0E0E832D091505040E695001CCAF7ED
:102630002BD0FE2F29D0660F771F881FBB1F2617B0
:1026400037074807AB07B0E809F0BB0B802DBF0187
:10265000FF2793585F4F3AF09E3F510578F00C9456
:102660002A140C9485145F3FE4F3983ED4F38695C6
:1026700077956795B795F7959F5FC9F7880F911D77
:102680009695879597F90895E1E0660F771F881F63
:10269000BB1F621773078407BA0720F0621B730B16
:1026A000840BBA0BEE1F88F7E09508950E946A1418
:1026B00088F09F5798F0B92F9927B751B0F0E1F003
:1026C000660F771F881F991F1AF0BA95C9F714C0B3
:1026D000B13091F00E948414B1E008950C948414F8
:1026E000672F782F8827B85F39F0B93FCCF38695EC
:1026F00077956795B395D9F73EF490958095709549
:1027000061957F4F8F4F9F4F089597FB16F40E945E
:1027100033140C94C913E89409C097FB3EF49095C8
:102720008095709561957F4F8F4F9F4F9923A9F0AA
:10273000F92F96E9BB279395F69587957795679539
:10274000B795F111F8CFFAF4BB0F11F460FF1BC07D
:102750006F5F7F4F8F4F9F4F16C0882311F096E910
:1027600011C0772321F09EE8872F762F05C06623BE
:1027700071F096E8862F70E060E02AF09A95660F77
:10278000771F881FDAF7880F9695879597F9089530
:10279000E894F92F96EBFF2381F012161306140626
:1027A000440B9395F6958795779567955795404097
:1027B000FF23B9F71BC099270895882351F4985037
:1027C000D2F7872B762F652F542F432F322F20E0FF
:1027D000B1F3121613061406440B88233AF09A95A7
:1027E000440F551F661F771F881FCAF755234AF4E9
:1027F000440F551F11F460FF04C06F5F7F4F8F4F70
:102800009F4F880F9695879597F90895990F00081F
:10281000550FAA0BE0E8FEEF16161706E807F907B2
:10282000C0F012161306E407F50798F0621B730B4D
:10283000840B950B39F40A2661F0232B242B252BCE
:1028400021F408950A2609F4A140A6958FEF811D71
:10285000811D089597F99F6780E870E060E0089512
:102860009FEF80EC089590958095709560955095B8
:102870004095309521953F4F4F4F5F4F6F4F7F4FA2
:102880008F4F9F4F089500240A94161617061806B6
:102890000906089500240A94121613061406050664
:1028A0000895092E0394000C11F4882352F0BB0FF5
:1028B00040F4BF2B11F460FF04C06F5F7F4F8F4F58
:1028C0009F4F089557FD9058440F551F59F05F3F93
:1028D00071F04795880F97FB991F61F09F3F79F042
:1028E00087950895121613061406551FF2CF4695C4
:1028F000F1DF08C0161617061806991FF1CF869546
:102900007105610508940895E894BB276627772729
:10291000CB0197F908950E94061408F48FEF0895EB
:102920000E94A3140C9451140E94431438F00E9486
:102930004A1420F0952311F00C942A140C943014AE
:1029400011240C9485140E94621470F3959FC1F3B6
:10295000950F50E0551F629FF001729FBB27F00D4D
:10296000B11D639FAA27F00DB11DAA1F649F6627A2
:10297000B00DA11D661F829F2227B00DA11D621FF1
:10298000739FB00DA11D621F839FA00D611D221FAB
:10299000749F3327A00D611D231F849F600D211D8F
:1029A000822F762F6A2F11249F5750409AF0F1F012
:1029B00088234AF0EE0FFF1FBB1F661F771F881F7B
:1029C00091505040A9F79E3F510580F00C942A1475
:1029D0000C9485145F3FE4F3983ED4F38695779585
:1029E0006795B795F795E7959F5FC1F7FE2B880F21
:1029F000911D9695879597F908950E940614880B66
:102A0000990B0895DB018F939F930E943415BF911A
:102A1000AF91A29F800D911DA39F900DB29F900D2D
:102A200011240895A1E21A2EAA1BBB1BFD010DC0A3
:102A3000AA1FBB1FEE1FFF1FA217B307E407F5076E
:102A400020F0A21BB30BE40BF50B661F771F881F4A
:102A5000991F1A9469F760957095809590959B01E0
:102A6000AC01BD01CF0108950E94D016A59F900D25
:102A7000B49F900DA49F800D911D11240895B7FF60
:102A80000C9434150E943415821B930B0895DF9328
:102A9000CF931F930F939A9DF02D219FF00D8B9D47
:102AA000F00D8A9DE02DF10D039FF00D029FE00DCA
:102AB000F11D4E9DE00DF11D5E9DF00D4F9DF00D41
:102AC0007F936F93BF92AF925F934F93D5010E9414
:102AD000D0168B01AC01D7010E94D016EB01E80F94
:102AE000F91FD6010E9496152F913F91D6010E94A1
:102AF000D016C60FD71FE81FF91FAF91BF910E94D4
:102B000096152F913F910E94D016C60FD71FE81F30
:102B1000F91FD6010E94D016E60FF71F9801BE01DB
:102B2000CF010F911F91CF91DF9108950E94D01690
:102B3000460F571FC81FD91F08F43196089568948F
:102B400001C0E894F92FF12B12F00C94D315A0E0FA
:102B5000B0E0EDEAF5E10C944516092E059422F457
:102B60000E942F16112392F4F0E80F26FFEFE09455
:102B7000F09400951095B094C094D094A194BF0A9D
:102B8000CF0ADF0AEF0AFF0A0F0B1F0B0E94DE15A8
:102B900007FC0E942F16CDB7DEB7ECE00C9461164F
:102BA000689401C0E8948F929F92CF93DF930E9424
:102BB000DE15DF91CF919F908F90089588249924FE
:102BC000F401E401B0E49F93AA279A158B049C04B6
:102BD000ED05FE05CF05D007A10798F4AD2FDC2F3A
:102BE000CF2FFE2FE92D982C892E982F872F762F07
:102BF000652F542F432F322F2227B85031F7BF9122
:102C000027C01B2EBF91BB27220F331F441F551F08
:102C1000661F771F881F991F881C991CEE1FFF1FB6
:102C2000CC1FDD1FAA1FBB1F8A149B04EC05FD05EA
:102C3000CE05DF05A007B10748F08A189B08EC090C
:102C4000FD09CE09DF09A00BB10B21601A94E1F652
:102C50002EF49401AF01BE01CD01000C08956095E2
:102C600070958095909530954095509521953F4F62
:102C70004F4F5F4F6F4F7F4F8F4F9F4F08952F9252
:102C80003F924F925F926F927F928F929F92AF92FC
:102C9000BF92CF92DF92EF92FF920F931F93CF9349
:102CA000DF93CDB7DEB7CA1BDB0B0FB6F894DEBFE0
:102CB0000FBECDBF09942A88398848885F846E8406
:102CC0007D848C849B84AA84B984C884DF80EE8050
:102CD000FD800C811B81AA81B981CE0FD11D0FB659
:102CE000F894DEBF0FBECDBFED010895002E083071
:102CF00090F0982F872F762F652F542F432F322F48
:102D000022270850F4CF220F331F441F551F661F80
:102D1000771F881F991F0A95B2F7002D089597FD18
:102D20001094002E083098F00850232F342F452F90
:102D3000562F672F782F892F912DF4CF15949795C3
:102D400087957795679557954795379527950A9570
:102D5000AAF71124002D08952A0D3B1D4C1D5D1D61
:102D60006E1D7F1D801F911F08952A193B094C0974
:102D70005D096E097F09800B910B08950024A7FD62
:102D800000942A1730054005500560057005800540
:102D900090050895EE0FFF1F0590F491E02D099422
:102DA000A29FB001B39FC001A39F700D811D11248C
:102DB000911DB29F700D811D1124911D08950F93D7
:102DC0001F93CF93DF938230910510F482E090E05F
:102DD000E091F902F091FA0230E020E0B0E0A0E0EA
:102DE000309799F42115310509F44AC0281B390B95
:102DF00024303105D8F58A819B816115710589F1EF
:102E0000FB0193838283FE0111C0408151810281C5
:102E1000138148175907E0F04817590799F410979C
:102E200061F012960C93129713961C933296CF0171
:102E3000DF91CF911F910F9108950093F9021093A4
:102E4000FA02F4CF2115310551F04217530738F03B
:102E5000A901DB019A01BD01DF01F801C1CFEF013A
:102E6000F9CF9093FA028093F902CDCFFE01E20FE1
:102E7000F31F819391932250310939832883D7CF4F
:102E80002091F7023091F802232B41F420910201A6
:102E9000309103013093F8022093F7022091000152
:102EA000309101012115310541F42DB73EB7409114
:102EB000040150910501241B350BE091F702F091BC
:102EC000F802E217F307A0F42E1B3F0B281739076F
:102ED00078F0AC014E5F5F4F2417350748F04E0F76
:102EE0005F1F5093F8024093F702819391939FCF15
:102EF000F0E0E0E09CCFCF93DF930097E9F0FC0196
:102F0000329713821282A091F902B091FA02ED0178
:102F100030E020E01097A1F420813181820F931FCF
:102F20002091F7023091F8022817390709F061C0A3
:102F3000F093F802E093F702DF91CF910895EA0150
:102F4000CE17DF07E8F54A815B819E0141155105E7
:102F5000B1F7E901FB83EA8349915991C40FD51F69
:102F6000EC17FD0761F4808191810296840F951F13
:102F7000E90199838883828193819B838A83F0E02E
:102F8000E0E012968D919C9113970097B9F52D91E1
:102F90003C911197CD010296820F931F2091F70269
:102FA0003091F8022817390739F6309751F5109209
:102FB000FA021092F902B093F802A093F702BCCF84
:102FC000D383C28340815181840F951FC817D907CD
:102FD00061F44E5F5F4F88819981480F591F51837B
:102FE00040838A819B81938382832115310509F077
:102FF000B0CFF093FA02E093F9029ECFFD01DC011D
:10300000C0CF13821282D7CFFB01DC014150504068
:1030100048F001900D920020C9F701C01D92415067
:103020005040E0F7089510E0CBE7D0E004C0FE0187
:103030000E94CA162196CC37D107C9F7F894FFCF62
:103040000000FB0280000000000027028701B4019D
:103050008F02E501C301D70100000000DB05AE05CA
:103060000A068405A7059405850500000000D50320
:103070005A0CD6035C0CFE0C00000000D503580C63
:10308000D603B00C4D0D0D0A006E616E00696E66C0
:0C309000006F766600424D503238300070
:00000001FF
