:100000000C942D010C945E010C945E010C945E0125
:100010000C945E010C945E010C945E010C945E01E4
:100020000C945E010C945E010C945E010C945E01D4
:100030000C945E010C945E010C945E010C945E01C4
:100040000C945E010C945E010C945E010C945E01B4
:100050000C945E010C945E010C945E010C94EB0513
:100060000C945E010C945F060C9435060C945E01B2
:100070000C945E010C945E010C945E010C945E0184
:100080000C945E010C945E010C945E010C945E0174
:100090000C945E010C945E010C945E010C94950628
:1000A0000C945E010C945E010C945E010C945E0154
:1000B0000C945E010C945E010C945E010C945E0144
:1000C0000C945E010C945E010C945E010C945E0134
:1000D0000C945E010C945E010C945E010C945E0124
:1000E0000C945E010C9428050C9412020C9490015F
:1000F0000C94E2010C9463020C94C6010C949501DB
:100100000C94E6010C94D4010C94AB010C94CC0437
:100110000C94FB020C94CA010C94C5040C94B9070E
:100120000C94BC010C94C0010C94D8010C941102E5
:100130000C94A3040C94B2040C94B3010C94DC0151
:100140000C944F020C94AF010C94A7010C94130271
:100150000C9471020C9440020C94CE010C94A204F5
:100160000C94B6010C94A9020C94F904000022002E
:10017000250028002B002E00310034000201000071
:10018000050108010B010505050507050808080814
:10019000020202020A0A080804040404010101011F
:1001A000010101010303030303030303040707071A
:1001B0000C0C0C0C0C0C0C0C0202020206060606BF
:1001C000060606060B0B0B0B0B0B0B0B010210208C
:1001D000200808102040102040800201020108047D
:1001E0000201010204081020408080402010080411
:1001F000020180040201804020100804020108046A
:1002000002010102040810204080010204081020AD
:10021000408000000A0B02090C0D0E0807030401C0
:1002200000000000000000000000000000000000CE
:10023000000000000000000000000000000012119B
:10024000100000000000000000000000000000009E
:100250000000000000000000B90711241FBECFEF0E
:10026000D1E2DEBFCDBF00E00CBF25E0A0E3B2E0ED
:1002700001C01D92A03BB207E1F712E0A0E0B2E09E
:10028000EAE0F8E100E00BBF02C007900D92A03356
:10029000B107D9F711E0CDE2D1E000E006C0219727
:1002A0000109802FFE010E94FB0BCC32D10780E0B8
:1002B0000807A9F70E94F2070C94030C0C940000A5
:1002C000282F30E0F901EE5EFD4F9491F901E453DF
:1002D000FE4F44912A573E4FF9012491222309F4FD
:1002E00035C0992311F191509231F8F4E92FF0E0E3
:1002F0008827E258FE4F8F4F0C94FB0BAF01B301E0
:100300009001A701AB019501B601BC01C001C60176
:10031000CA01CE01D401D8019501DC01E201E60158
:10032000809180008F7780938000E22FF0E0EE0FC5
:10033000FF1FE459FE4FA591B4918FB7F894EC914B
:10034000611148C040954E234C938FBF0895809112
:1003500080008F7DE8CF80918000877FE4CF84B5D7
:100360008F7784BDE2CF84B58F7DFBCF8091B000C5
:100370008F778093B000D9CF8091B0008F7DF9CF77
:10038000809190008F7780939000CFCF80919000E4
:100390008F7DF9CF80919000877FF5CF8091A0006D
:1003A0008F778093A000C1CF8091A0008F7DF9CF7F
:1003B0008091A000877FF5CF809120018F77809377
:1003C0002001B3CF809120018F7DF9CF8091200152
:1003D000877FF5CF4E2BB8CF3FB7F8948091B1040B
:1003E0009091B204A091B304B091B40426B5A89B37
:1003F00005C02F3F19F00196A11DB11D3FBFBA2FB7
:10040000A92F982F8827BC01CD01620F711D811D76
:10041000911D42E0660F771F881F991F4A95D1F7FB
:10042000089508950895AF92BF92CF92DF92EF9210
:10043000FF920F931F93CF93DF936C017B018B018E
:10044000040F151FEB015E01AE18BF08C017D107DE
:1004500059F06991D601ED91FC910190F081E02D68
:10046000C6011995892B79F7C501DF91CF911F91AD
:100470000F91FF90EF90DF90CF90BF90AF900895D5
:10048000FC01538D448D252F30E0842F90E0821B9A
:10049000930B541710F0CF96089501970895FC011F
:1004A000918D828D981761F0A28DAE0FBF2FB11D77
:1004B0005D968C91928D9F5F9F73928F90E00895CF
:1004C0008FEF9FEF0895FC01918D828D981731F089
:1004D000828DE80FF11D858D90E008958FEF9FEFDD
:1004E0000895FC01918D228D892F90E0805C9F4FB3
:1004F000821B91098F739927089585E095E00E94EA
:10050000710221E0892B09F420E0822F0895FC017B
:10051000A48DA80FB92FB11DA35ABF4F2C91848D64
:1005200090E001968F739927848FA689B7892C93C1
:10053000A089B1898C91837080648C93938D848D14
:10054000981306C00288F389E02D80818F7D808317
:100550000895EF92FF920F931F93CF93DF93EC01D7
:1005600081E0888F9B8D8C8D98131AC0E889F9895A
:10057000808185FF15C09FB7F894EE89FF8960835D
:10058000E889F98980818370806480839FBF81E0DE
:1005900090E0DF91CF911F910F91FF90EF90089520
:1005A000F62E0B8D10E00F5F1F4F0F731127E02EFB
:1005B0008C8D8E110CC00FB607FCFACFE889F98933
:1005C000808185FFF5CFCE010E948702F1CFEB8DB0
:1005D000EC0FFD2FF11DE35AFF4FF0829FB7F89407
:1005E0000B8FEA89FB8980818062CFCF682F85E0FD
:1005F00095E00C94A902CF93DF93EC01888D8823BA
:10060000B9F0AA89BB89E889F9898C9185FD03C075
:10061000808186FD0DC00FB607FCF7CF8C9185FF5A
:10062000F2CF808185FFEDCFCE010E948702E9CF16
:10063000DF91CF91089580E090E0892B29F00E940E
:100640007D0281110E94000080E090E0892B49F03A
:1006500080E090E0892B29F00E94000081110E9427
:10066000000080E090E0892B49F080E090E0892B49
:1006700029F00E94000081110E94000080E090E0BB
:10068000892B49F080E090E0892B29F00E9400003E
:1006900081110C940000089520915102260F3327F8
:1006A000331F21323105ECF42091DB04FC0190E092
:1006B00080E0243069F082E00895A09151022191F8
:1006C000AC014F5C5D4FA40FB52FB11D2C9301966B
:1006D000861798F380915102680F6093510280E071
:1006E000089581E008951092DB0481E08093DA049C
:1006F0001092B50461E084E10E94600161E085E14F
:100700000E946001E9EBF0E080818E7F8083808130
:100710008D7F808388E48093B80085E48093BC005B
:100720000895CF93DF9391E0909330028823B9F03E
:10073000C091B800D091BA008091BC008A7B8093B0
:10074000BC0060E084E10E94600160E085E10E94FD
:1007500060010E947303D093BA00C093B800DF9188
:10076000CF9108958F929F92AF92BF92CF92DF92D6
:10077000EF92FF920F931F93CF93DF93D0910405D5
:10078000D13208F0D7C0182FC09103050E94EC01A8
:100790006B017C018091DB0481116BC082E080934E
:1007A000DB041093DA048FEF8093D9041092D804FD
:1007B000D093D704A3EEB4E0E7EBF4E080E0D813E5
:1007C00091C01092B6048091B604CC0FC82BC09390
:1007D000B6048091B504813009F088C01092B50448
:1007E0000E94EC016B017C018091B6048093BB00F8
:1007F0008091DD049091DE04A091DF04B091E004CB
:10080000892B8A2B8B2BA1F00E94EC010091DD0437
:100810001091DE042091DF043091E0046C197D0911
:100820008E099F09061717072807390708F442C0E1
:100830008091BC0083FDD8CF85EC8093BC000E94E2
:10084000EC016B017C018091DB04823009F450C023
:100850008091D9048F3F09F46FC08091D904803210
:1008600009F46CC08091D904803309F469C084E034
:1008700026C08091DD049091DE04A091DF04B09148
:10088000E004892B8A2B8B2B09F484CF0E94EC0186
:100890008090DD049090DE04A090DF04B090E0042E
:1008A0006C197D098E099F0986169706A806B90658
:1008B00008F070CF8091DC040E94910385E01092D3
:1008C000E204109204051092E104DF91CF911F9190
:1008D0000F91FF90EF90DF90CF90BF90AF909F90DF
:1008E0008F9008959D9191938F5F69CF85EEA5CFED
:1008F0008091DD049091DE04A091DF04B091E004CA
:10090000892B8A2B8B2B09F49ECF0E94EC0100913E
:10091000DD041091DE042091DF043091E0046C19B5
:100920007D098E099F09061717072807390708F060
:100930008ACFC0CF81E0C3CF80E0C1CF82E0BFCFFC
:1009400083E0BDCF0895E091790280917802E817A5
:1009500030F4F0E0E658FD4F808190E008958FEF8D
:100960009FEF089590917902809178022FEF3FEFE9
:10097000981748F4E92FF0E0E658FD4F208130E069
:100980009F5F90937902C9010895809178029091B8
:100990007902891B990B0895CF92DF92EF92FF9213
:1009A0000F931F93CF93DF937C01CB018A0120919A
:1009B000E104222389F0EB016B01C40ED51ECC1596
:1009C000DD0569F06991D701ED91FC910190F0810D
:1009D000E02DC7011995F3CF642F0E944C03C80185
:1009E000DF91CF911F910F91FF90EF90DF90CF900B
:1009F0000895CF93DF931F92CDB7DEB7698320911F
:100A0000E1042223F9F020910405203258F021E07E
:100A100030E0FC013383228390E080E00F90DF918F
:100A2000CF9108958091E204E82FF0E0ED51FB4F63
:100A3000998190838F5F8093E2048093040581E025
:100A400090E0ECCF61E0CE0101960E944C03F7CF1D
:100A500090E080E00895FC0101900020E9F73197D3
:100A6000AF01481B590BBC0185E095E00C941302C3
:100A70008F929F92AF92BF920F931F93CF93DF936A
:100A8000CDB7DEB7A1970FB6F894DEBF0FBECDBFCE
:100A900019A2423008F44AE08E010F5D1F4F842EE8
:100AA000912CB12CA12CA50194010E94BF0BE62F23
:100AB000B901CA01EA30F4F4E05DD801EE938D018A
:100AC000232B242B252B79F790E080E0109719F049
:100AD000CD010E942B05A1960FB6F894DEBF0FBE84
:100AE000CDBFDF91CF911F910F91BF90AF909F909D
:100AF0008F900895E95CE1CFCF92DF92EF92FF9261
:100B0000CF93DF936C01990FEE08FF08F7FE1DC02D
:100B10008DE20E94F602EC0166277727CB016C1963
:100B20007D098E099F094AE00E943805C80FD91F28
:100B300084E292E00E942B058C0F9D1FDF91CF91E4
:100B4000FF90EF90DF90CF9008954AE0C701B60183
:100B50000E943805EC01ECCFAB01BC01FC018081A7
:100B600091810C94750A85ED8093BC008091DD0421
:100B70009091DE04A091DF04B091E0040796A11DDE
:100B8000B11D23E0B695A795979587952A95D1F73E
:100B90002091BC0024FD03C01092DB040895409115
:100BA000DD045091DE046091DF047091E004452B78
:100BB000462B472B69F30097A105B10541F02AE2C6
:100BC0002A95F1F700C00197A109B109E1CF809101
:100BD000DC040C9491031F920F920FB60F92112414
:100BE0002F933F938F939F93AF93BF938091AD04C7
:100BF0009091AE04A091AF04B091B0043091AC04D8
:100C000023E0230F2D3758F50196A11DB11D209328
:100C1000AC048093AD049093AE04A093AF04B09362
:100C2000B0048091B1049091B204A091B304B0914A
:100C3000B4040196A11DB11D8093B1049093B20438
:100C4000A093B304B093B404BF91AF919F918F91DF
:100C50003F912F910F900FBE0F901F90189526E88F
:100C6000230F0296A11DB11DD2CF1F920F920FB676
:100C70000F9211240BB60F922F933F934F935F93D4
:100C80006F937F938F939F93AF93BF93EF93FF9354
:100C900085E095E00E948702FF91EF91BF91AF91AF
:100CA0009F918F917F916F915F914F913F912F9184
:100CB0000F900BBE0F900FBE0F901F9018951F92B4
:100CC0000F920FB60F9211240BB60F922F938F93A2
:100CD0009F93EF93FF93E0911505F09116058081A6
:100CE000E0911B05F0911C0582FD1DC09081809153
:100CF0001E058F5F8F7320911F05821741F0E091D1
:100D00001E05F0E0EB5FFA4F958F80931E05FF9173
:100D1000EF919F918F912F910F900BBE0F900FBE6F
:100D20000F901F9018958081F2CF1F920F920FB6EF
:100D30000F9211240BB60F922F933F934F935F9313
:100D40006F937F938F939F93AF93BF93EF93FF9393
:100D50008091B900887F803609F44DC008F040C00A
:100D6000883209F4A9C028F5803109F49DC0C8F47F
:100D7000882309F4FBC0883009F496C0FF91EF91F5
:100D8000BF91AF919F918F917F916F915F914F91A3
:100D90003F912F910F900BBE0F900FBE0F901F90A1
:100DA0001895883109F488C0803241F78093D904BE
:100DB00014C0803409F49DC040F48033B9F3883303
:100DC000E9F68093D90485ECB0C0803509F485C07C
:100DD000883509F496C0883489F60E94B305CECFD1
:100DE000883909F48CC038F5883729F050F48836F2
:100DF00011F0803719F683E08093DB0410927302C0
:100E000057C0883809F47BC0803919F0803809F060
:100E1000B5CF80917302803208F071C0E091730207
:100E200081E08E0F809373028091BB00F0E0ED5A59
:100E3000FD4F80833DC0803B39F0E0F4803A09F4F7
:100E400079C0883A09F09ACF84E08093DB0410924D
:100E5000520210925102E0917602F09177021995B8
:100E60008091510281110FC081E080935102109254
:100E7000310209C0803C09F4A6CF883C09F4A3CF15
:100E8000883B09F07BCFE091520281E08E0F809386
:100E90005202F0E0EF5CFD4F80818093BB009091A7
:100EA00052028091510229C08091B6048093BB0008
:100EB00085EC8093BC0062CF9091D8048091D704D8
:100EC000981758F5E091D80481E08E0F8093D804EC
:100ED000F0E0E954FB4F8081E9CFE091D80481E054
:100EE0008E0F8093D8048091BB00F0E0E954FB4F53
:100EF00080839091D8048091D7049817C8F285E830
:100F0000D8CFE091D80481E08E0F8093D8048091EF
:100F1000BB00F0E0E954FB4F80838091DA0481113B
:100F20005CCF81E08093B50484EA8093BC0010928A
:100F3000DB0424CF85EC8093BC001092DB0480910D
:100F40007302803230F4E0917302F0E0ED5AFD4F0D
:100F500010826091730270E0E0917402F09175026A
:100F600083E592E019951092730208CF1092D9048C
:100F700034CFE5E0F5E01382128288EE93E0A0E042
:100F8000B0E084839583A683B78324E032E0318385
:100F9000208325EC30E03587248724EC30E0378748
:100FA000268720EC30E0318B208B21EC30E0338B36
:100FB000228B22EC30E0358B248B26EC30E0378B13
:100FC000268B118E128E138E148EE2EAF5E01382B8
:100FD000128284839583A683B78386E192E091830E
:100FE00080830895CF93DF9300D01F92CDB7DEB7F3
:100FF000789484B5826084BD84B5816084BD85B5F4
:10100000826085BD85B5816085BD80916E008160FF
:1010100080936E00109281008091810082608093A5
:1010200081008091810081608093810080918000A7
:101030008160809380008091B10084608093B100D2
:101040008091B00081608093B000809191008260B7
:1010500080939100809191008160809391008091B4
:1010600090008160809390008091A10082608093C5
:10107000A1008091A10081608093A1008091A000D7
:1010800081608093A0008091210182608093210182
:1010900080912101816080932101809120018160F4
:1010A0008093200180917A00846080937A008091FF
:1010B0007A00826080937A0080917A0081608093C8
:1010C0007A0080917A00806880937A001092C10043
:1010D000E0911505F091160582E08083E0911105FD
:1010E000F09112051082E0911305F091140580E152
:1010F000808310921D05E0911905F0911A0586E094
:101100008083E0911705F0911805808180618083CC
:10111000E0911705F0911805808188608083E09147
:101120001705F0911805808180688083E09117058C
:10113000F091180580818F7D808310927902109242
:1011400078021092E204109204050E94730381E178
:1011500092E0909377028093760282E192E09093FE
:1011600075028093740287E292E00E942B0584E26C
:1011700092E00E942B0535EEE32E45EC942E5BE1C8
:10118000C52E53E0D52EFF24F39488248A9485E05D
:1011900095E00E947102892B09F4A4C185E095E0D5
:1011A0000E944F028D3099F32091AA043091AB0434
:1011B0008A3009F086C1F901E65EFC4F1082232BCC
:1011C00009F461C010911A03DC82CB828DE30E9486
:1011D000F602183741F01A3709F454C18DE292E053
:1011E0000E942B054AC16AE070E0CE0103960E947E
:1011F000AC0560E170E0CE0103960E94AC05762E4E
:101200006AE070E0CE0103960E94AC05162F2AED2D
:10121000A22E22E0B22E00E040E150E0BE016F5F5E
:101220007F4F8B819C810E94750A89819A812B81D5
:101230003C818217930749F0003449F09C838B83EB
:101240000F5FF50161935F01E7CF002309F1F09291
:10125000E104709203051092E20410920405402FFD
:1012600050E06AED72E082EA95E00E94CC0481E0F1
:10127000111180E00E94B20390E0009711F4111167
:1012800007C00E947C051092AB041092AA047FCF85
:101290000E94EC011B012C018091DB04811166C0CE
:1012A000113208F010E2F092DB04F092DA0480923E
:1012B000D9041092D8048FEF810F8093D704F09255
:1012C000B6048091B604770C782A7092B6048091A7
:1012D000B504813009F07EC01092B5040E94EC0183
:1012E0002B013C018091B6048093BB008091DD040A
:1012F0009091DE04A091DF04B091E004892B8A2B49
:101300008B2BA1F00E94EC012091DD043091DE04D2
:101310004091DF045091E00464197509860997092A
:10132000261737074807590708F441C08091BC00C9
:1013300083FDD8CF9092BC000E94EC012B013C01B0
:101340008091DB04813009F448C08091D804811772
:1013500010F41091D804E7EBF4E0AAE7B2E080E0E3
:10136000811751F191919D938F5FFACF8091DD04A8
:101370009091DE04A091DF04B091E004892B8A2BC8
:101380008B2B09F489CF0E94EC012091DD04309170
:10139000DE044091DF045091E0046219730984096E
:1013A0009509261737074807590708F075CF809128
:1013B000DC040E94910310E01092790210937802ED
:1013C0009AE9A92E92E0B92E00E0111128C082E01E
:1013D00090E057CFE092BC00AFCF8091DD049091B8
:1013E000DE04A091DF04B091E004892B8A2B8B2BC3
:1013F00009F4A6CF0E94EC012091DD043091DE04B7
:101400004091DF045091E004641975098609970939
:10141000261737074807590708F092CFC8CF82EA46
:1014200095E00E94B204F50181935F010F5F011303
:10143000F6CF10E04AE060E070E0CB010E94380592
:101440008AE9A82E82E0B82E80E20E94F602F50119
:1014500071905F01FFE0F71518F080E30E94F6023B
:10146000672D70E090E080E040E10E943805C50102
:101470008A599240801791073CF384E292E00E94DF
:101480002B0501CF6AE070E0CE0103960E94AC0507
:1014900060E170E0CE0103960E94AC05F092E10499
:1014A000609303051092E2041092040581E00E940B
:1014B000B203682F70E090E080E04AE00E943805B7
:1014C000DCCF2F3891E0390708F061CEA9014F5FDA
:1014D0005F4F5093AB044093AA04265E3C4FF90142
:1014E000808355CE0E941B0352CE3F924F925F9253
:1014F0006F927F928F929F92AF92BF92CF92DF9224
:10150000EF92FF920F931F93CF93DF935C016B01D8
:101510007A016115710519F0FB0191838083E11453
:10152000F10451F0C7010297839730F040E030E0BA
:1015300020E090E06BC05E01E5012196F50110818D
:10154000812F90E00E94A30B892BA9F71D3201F592
:101550002196F501118101E0E114F10409F4E6C0DE
:10156000F0E1EF16F10409F088C0103359F48881D6
:101570008F7D883509F07CC0198122960260F0E1E8
:10158000EF2EF12C812C912CA12C88E0B82E92C04A
:101590001B3221F4E5012296F501118100E0DCCF38
:1015A000EAE0EE16F10409F4C7C0F0E1EF16F10429
:1015B00009F073C0E7CF78E0E72EF12C812C912C55
:1015C000A12C60E1B62E76C021E0ADC0302F317085
:1015D000C114D10431F0222371F12197F601D18396
:1015E000C08327FF2EC060E070E080E090E83111FA
:1015F00004C06FEF7FEF8FEF9FE722E230E0309380
:10160000AF052093AE05462F372F282F642F732F59
:10161000822FDF91CF911F910F91FF90EF90DF907C
:10162000CF90BF90AF909F908F907F906F905F9082
:101630004F903F90089501FF04C02297F601D18397
:10164000C083332341F090958095709561957F4FCD
:101650008F4F9F4FD8CF97FFD6CF82E290E09093E5
:10166000AF058093AE056FEF7FEF8FEF9FE7CBCF96
:1016700010E3E114F10409F49ECF28E0E216F1042E
:1016800009F49CCF0CF08CCF812C912CA12CE0E4A0
:10169000BE2E82E0E816F10469F060E070E080E0C0
:1016A00090E897010F2C000C440B550B0E94BF0BC8
:1016B00049015A0120E060E070E0CB0127010F2CC6
:1016C000000C66087708FE0150ED352E310E39E02A
:1016D000331570F43FEB310F49EC342E3A3138F0CA
:1016E0003FE9310F3A3108F071CF39EA332E310E2C
:1016F0003E141F040CF06ACF27FD15C0861697060E
:10170000A806B90678F0A30192010E94AF0B630D01
:10171000711D811D911D61307105810520E89207C1
:1017200008F452CF2FEF21961081CDCF103309F45A
:101730001ECF2AE0E22EF12C9CEC892E982CA82CAE
:101740009CE0B92EB7CF91110C94AC0B803219F0FC
:1017500089508550C8F70895992788270895DB0197
:101760008F939F930E94E10BBF91AF91A29F800D39
:10177000911DA39F900DB29F900D11240895A1E299
:101780001A2EAA1BBB1BFD010DC0AA1FBB1FEE1FFB
:10179000FF1FA217B307E407F50720F0A21BB30B46
:1017A000E40BF50B661F771F881F991F1A9469F7C2
:1017B00060957095809590959B01AC01BD01CF011E
:1017C00008950E94EC0BA59F900DB49F900DA49FCF
:1017D000800D911D11240895A29FB001B39FC001F7
:1017E000A39F700D811D1124911DB29F700D811D4D
:1017F0001124911D0895EE0FFF1F881F8BBF0790C6
:0A180000F691E02D1994F894FFCF43
:10180A0000000000A90213024002FB0271024F020B
:10181A00630200000000F904CC042805A204C504F0
:10182A00B204A3040D0A005245414459003F000086
:00000001FF
