:100000000C9458000C9480000C9480000C94800098
:100010000C9480000C9480000C9480000C94800060
:100020000C9480000C9480000C9480000C94800050
:100030000C9480000C9480000C9480000C94800040
:100040000C94A3040C9480000C9413050C94ED0400
:100050000C9480000C9480000C9480000C94800020
:100060000C9445050C948000000000002500280039
:100070002B00040404040404040402020202020229
:10008000030303030303010204081020408001025C
:1000900004081020010204081020000000080002DB
:1000A00001000003040700000000000000006406D7
:1000B00011241FBECFEFD8E0DEBFCDBF11E0A0E01E
:1000C000B1E0E6E2F0E102C005900D92AE34B10776
:1000D000D9F722E0AEE4B1E001C01D92A83CB2071E
:1000E000E1F710E0C8E5D0E004C02197FE010E94CE
:1000F0000B08C735D107C9F70E94B7060C94110841
:100100000C94000090E0FC01E656FF4F2491FC01A6
:10011000EA57FF4F3491FC01EE58FF4FE491EE2374
:10012000C9F0222339F0233001F1A8F4213019F16C
:10013000223029F1F0E0EE0FFF1FE859FF4FA591A3
:10014000B4918FB7F894EC91611126C030953E239D
:100150003C938FBF08952730A9F02830C9F0243090
:1001600049F7809180008F7D03C0809180008F7758
:1001700080938000DFCF84B58F7784BDDBCF84B5DB
:100180008F7DFBCF8091B0008F778093B000D2CF6E
:100190008091B0008F7DF9CF3E2BDACF3FB7F89436
:1001A00080910D0290910E02A0910F02B091100269
:1001B00026B5A89B05C02F3F19F00196A11DB11DC2
:1001C0003FBFBA2FA92F982F8827BC01CD01620FFE
:1001D000711D811D911D42E0660F771F881F991FB9
:1001E0004A95D1F7089508950895AF92BF92CF929E
:1001F000DF92EF92FF920F931F93CF93DF936C01E7
:100200007B018B01040F151FEB015E01AE18BF08C7
:10021000C017D10759F06991D601ED91FC91019079
:10022000F081E02DC6010995892B79F7C501DF9191
:10023000CF911F910F91FF90EF90DF90CF90BF90E3
:10024000AF900895FC01538D448D252F30E0842F0D
:1002500090E0821B930B541710F0CF9608950197EE
:100260000895FC01918D828D981761F0A28DAE0FDB
:10027000BF2FB11D5D968C91928D9F5F9F73928F62
:1002800090E008958FEF9FEF0895FC01918D828D8E
:10029000981731F0828DE80FF11D858D90E008955B
:1002A0008FEF9FEF0895FC01918D228D892F90E0B3
:1002B000805C9F4F821B91098F739927089581E17C
:1002C00092E00E94530121E0892B09F420E0822F63
:1002D000089580E090E0892B29F00E945F01811150
:1002E0000C9400000895FC01A48DA80FB92FB11D36
:1002F000A35ABF4F2C91848D90E001968F7399275C
:10030000848FA689B7892C93A089B1898C91837039
:1003100080648C93938D848D981306C00288F38932
:10032000E02D80818F7D80830895EF92FF920F935F
:100330001F93CF93DF93EC0181E0888F9B8D8C8D91
:1003400098131AC0E889F989808185FF15C09FB785
:10035000F894EE89FF896083E889F9898081837048
:10036000806480839FBF81E090E0DF91CF911F91F7
:100370000F91FF90EF900895F62E0B8D10E00F5F18
:100380001F4F0F731127E02E8C8D8E110CC00FB6EE
:1003900007FCFACFE889F989808185FFF5CFCE0186
:1003A0000E947301F1CFEB8DEC0FFD2FF11DE35A8D
:1003B000FF4FF0829FB7F8940B8FEA89FB89808109
:1003C0008062CFCFCF93DF93EC01888D8823B9F083
:1003D000AA89BB89E889F9898C9185FD03C0808150
:1003E00086FD0DC00FB607FCF7CF8C9185FFF2CFCD
:1003F000808185FFEDCFCE010E947301E9CFDF91AF
:10040000CF910895089520918F01260F3327331F30
:1004100021323105ECF42091D801FC0190E080E01C
:10042000243069F082E00895A0918F012191AC0100
:1004300041595E4FA40FB52FB11D2C93019686171D
:1004400098F380918F01680F60938F0180E0089589
:1004500081E008951092D80181E08093D701109235
:10046000B20161E082E10E94820061E083E10E94CA
:100470008200E9EBF0E080818E7F808380818D7F38
:10048000808388E48093B80085E48093BC0008955D
:10049000CF93DF9391E090936E018823B9F0C091E0
:1004A000B800D091BA008091BC008A7B8093BC00D8
:1004B00060E082E10E94820060E083E10E948200AD
:1004C0000E942A02D093BA00C093B800DF91CF9166
:1004D0000895CF92DF92EF92FF920F931F93CF93E5
:1004E000DF93FC01A481B581868191E09093DE01C8
:1004F0008093FF011092050210920402ED91FC918D
:1005000011970190F081E02DCD010995D091040261
:10051000D13208F094C0C091FF010E94CE006B015F
:100520007C018091D801811165C082E08093D8015F
:1005300081E08093D7018FEF8093D6011092D5018F
:10054000D093D401AFEDB1E0E4EBF1E080E0D8135B
:1005500085C01092B3018091B301CC0FC82BC0931A
:10056000B3018091B201813009F07CC01092B201D8
:100570000E94CE006B017C018091B3018093BB008F
:100580008091DA019091DB01A091DC01B091DD0155
:10059000892B8A2B8B2B99F00E94CE000091DA01D7
:1005A0001091DB012091DC013091DD016C197D0996
:1005B0008E099F090617170728073907E0F1809170
:1005C000BC0083FDD9CF85EC8093BC000E94CE0097
:1005D0006B017C018091D801823009F445C0809183
:1005E000D6018F3F61F18091D601803241F1809137
:1005F000D60125C08091DA019091DB01A091DC0148
:10060000B091DD01892B8A2B8B2B09F48ACF0E94B4
:10061000CE000091DA011091DB012091DC013091D4
:10062000DD016C197D098E099F0906171707280738
:10063000390708F076CF8091D9010E9448021092C4
:100640000502109204021092DE01DF91CF911F91FA
:100650000F91FF90EF90DF90CF9008959D9191932F
:100660008F5F75CF85EEB0CF8091DA019091DB017D
:10067000A091DC01B091DD01892B8A2B8B2B09F431
:10068000A9CF0E94CE000091DA011091DB012091E8
:10069000DC013091DD016C197D098E099F09061777
:1006A00017072807390708F095CFC5CF0895E091BF
:1006B000070280910602E81730F4F0E0E25BFE4F9B
:1006C000808190E008958FEF9FEF08959091070249
:1006D000809106022FEF3FEF981748F4E92FF0E0E2
:1006E000E25BFE4F208130E09F5F90930702C901DB
:1006F00008958091060290910702891B990B089535
:10070000CF92DF92EF92FF920F931F93CF93DF93DD
:100710007C01CB018A012091DE01222389F0EB01CB
:100720006B01C40ED51ECC15DD0569F06991D701AA
:10073000ED91FC910190F081E02DC7010995F3CF77
:10074000642F0E940302C801DF91CF911F910F9186
:10075000FF90EF90DF90CF900895CF93DF931F929B
:10076000CDB7DEB769832091DE012223F9F0209115
:100770000402203258F021E030E0FC013383228370
:1007800090E080E00F90DF91CF9108958091050275
:10079000E82FF0E0E152FE4F998190838F5F8093C4
:1007A00005028093040281E090E0ECCF61E0CE018D
:1007B00001960E940302F7CF90E080E00895FB01CC
:1007C00001900020E9F73197AF01461B570BDC0180
:1007D000ED91FC910280F381E02D09941F93CF935A
:1007E000DF93EC01162F107F8B8584606C85660F7C
:1007F000682B8D8528E0829FC0011124682B612B16
:10080000CE010E9469026C85660F8D8528E0829F6B
:10081000C0011124682B8B85682B612BCE01DF91E1
:10082000CF911F910C9469020F931F93CF93DF9385
:10083000EC01062F0E94EE038FE890E00197F1F79C
:1008400020E1029F800111246B85602B862F84603C
:100850006C85660F682B8D8528E0829FC00111246E
:10086000682BCE010E9469026B85062B6C85660F92
:10087000602B8D8528E0829FC0011124682BCE015A
:10088000DF91CF911F910F910C9469021092C502D4
:100890001092C6029091C202981708F480E0E82FE7
:1008A000F0E0E050FF4F608160688AEB92E00E94C8
:1008B00014048FE890E00197F1F7089521E0FC011E
:1008C000238714860E9414048FE990E00197F1F7C2
:1008D00081E090E0089585ED8093BC008091DA017D
:1008E0009091DB01A091DC01B091DD010796A11D83
:1008F000B11D23E0B695A795979587952A95D1F7D1
:100900002091BC0024FD03C01092D80108954091AD
:10091000DA015091DB016091DC017091DD01452B22
:10092000462B472B69F30097A105B10541F02AE258
:100930002A95F1F700C00197A109B109E1CF809193
:10094000D9010C9448021F920F920FB60F921124F6
:100950002F933F938F939F93AF93BF9380910902FF
:1009600090910A02A0910B02B0910C023091080202
:1009700023E0230F2D3758F50196A11DB11D2093BB
:1009800008028093090290930A02A0930B02B0938D
:100990000C0280910D0290910E02A0910F02B09175
:1009A00010020196A11DB11D80930D0290930E02BD
:1009B000A0930F02B0931002BF91AF919F918F91BE
:1009C0003F912F910F900FBE0F901F90189526E822
:1009D000230F0296A11DB11DD2CF1F920F920FB609
:1009E0000F9211242F933F934F935F936F937F93B5
:1009F0008F939F93AF93BF93EF93FF9381E192E027
:100A00000E947301FF91EF91BF91AF919F918F91E0
:100A10007F916F915F914F913F912F910F900FBEFA
:100A20000F901F9018951F920F920FB60F921124DE
:100A30002F938F939F93EF93FF93E0912102F09177
:100A400022028081E0912702F091280282FD1BC0E2
:100A5000908180912A028F5F8F7320912B028217E1
:100A600041F0E0912A02F0E0EF5EFD4F958F809318
:100A70002A02FF91EF919F918F912F910F900FBEBE
:100A80000F901F9018958081F4CF1F920F920FB690
:100A90000F9211242F933F934F935F936F937F9304
:100AA0008F939F93AF93BF93EF93FF938091B90080
:100AB000887F803609F44AC0F0F5883209F4A7C06F
:100AC00018F5803109F49BC0B8F4882309F4F9C003
:100AD000883009F494C0FF91EF91BF91AF919F913D
:100AE0008F917F916F915F914F913F912F910F90D7
:100AF0000FBE0F901F901895883109F488C080327E
:100B000051F78093D60114C0803409F49DC040F49D
:100B10008033B9F38833F9F68093D60185ECB0C001
:100B2000803509F485C0883509F496C0883499F673
:100B30000E946B04D0CF883909F48CC038F588370F
:100B400029F050F4883611F0803729F683E080933D
:100B5000D8011092B10157C0883809F47BC08039A0
:100B600019F0803809F0B7CF8091B101803208F0D8
:100B700071C0E091B10181E08E0F8093B10180914D
:100B8000BB00F0E0EF56FE4F80833DC0803B39F064
:100B9000E0F4803A09F479C0883A09F09CCF84E007
:100BA0008093D8011092900110928F01E09102027F
:100BB000F0910302099580918F0181110FC081E0AE
:100BC00080938F0110926F0109C0803C09F4A6CF79
:100BD000883C09F4A3CF883B09F07DCFE0919001D8
:100BE00081E08E0F80939001F0E0E159FE4F80810B
:100BF0008093BB009091900180918F0129C08091DA
:100C0000B3018093BB0085EC8093BC0064CF9091CE
:100C1000D5018091D401981758F5E091D50181E074
:100C20008E0F8093D501F0E0EC54FE4F8081E9CF28
:100C3000E091D50181E08E0F8093D5018091BB00BA
:100C4000F0E0EC54FE4F80839091D5018091D40167
:100C50009817C8F285E8D8CFE091D50181E08E0FD2
:100C60008093D5018091BB00F0E0EC54FE4F80836F
:100C70008091D70181115CCF81E08093B20184EA39
:100C80008093BC001092D80126CF85EC8093BC00E5
:100C90001092D8018091B101803230F4E091B1011D
:100CA000F0E0EF56FE4F10826091B10170E0E091EC
:100CB0000002F091010281E991E009951092B101E1
:100CC0000ACF1092D60134CFE1E1F2E01382128212
:100CD00048EE53E060E070E0448355836683778399
:100CE00088E091E09183808385EC90E0958784870C
:100CF00084EC90E09787868780EC90E0918B808BE6
:100D000081EC90E0938B828B82EC90E0958B848BCE
:100D100086EC90E0978B868B118E128E138E148E3C
:100D2000AEEAB2E013961C921E92129714964D935F
:100D30005D936D937C9317978AE191E011969C9354
:100D40008E93EAEBF2E0138212828CE291E09183BF
:100D50008083B583A48387E286838FE0878381E0E5
:100D600080871186128613861486158608957894D6
:100D700084B5826084BD84B5816084BD85B58260A0
:100D800085BD85B5816085BD80916E008160809351
:100D90006E001092810080918100826080938100BA
:100DA00080918100816080938100809180008160CA
:100DB000809380008091B10084608093B100809125
:100DC000B00081608093B00080917A00846080934D
:100DD0007A0080917A00826080937A0080917A0014
:100DE000816080937A0080917A00806880937A0095
:100DF0001092C100E0912102F091220282E08083F2
:100E0000E0911D02F0911E021082E0911F02F0910C
:100E1000200280E1808310922902E0912502F09166
:100E2000260286E08083E0912302F09124028081F3
:100E300080618083E0912302F091240280818860A8
:100E40008083E0912302F091240280818068808376
:100E5000E0912302F091240280818F7D808364E3FE
:100E600071E081E192E00E94DF036AE371E081E1D9
:100E700092E00E94DF031092070210920602109285
:100E80000502109204020E942A0283EF90E09093E0
:100E900003028093020284EF90E09093010280931A
:100EA000000260E08AEB92E00E9469020E94CE009C
:100EB0004B015C0182E3C82ED12CE12CF12C0E9465
:100EC000CE00681979098A099B09683E734081053B
:100ED0009105A8F321E0C21AD108E108F10888EED3
:100EE000880E83E0981EA11CB11CC114D104E1043A
:100EF000F10429F71092C5021092C60260E38AEB52
:100F000092E00E94EE038BE991E40197F1F760E330
:100F10008AEB92E00E94EE0383E592E00197F1F7FD
:100F200060E38AEB92E00E94EE03CFE8D0E0CE01CE
:100F30000197F1F760E28AEB92E00E94EE03CE01A6
:100F40000197F1F768E28AEB92E00E941404CE0167
:100F50000197F1F71092C5021092C6026091C30288
:100F6000862F84608093C3026C608AEB92E00E94BB
:100F70001404CE010197F1F71092C5021092C60237
:100F800061E08AEB92E00E9414048BEF98E10197F4
:100F9000F1F71092C5021092C6026091C402862F2A
:100FA00082608093C40266608AEB92E00E9414041F
:100FB0002197F1F781E08093C70268E08AEB92E025
:100FC0000E94690280E00E9446046DE371E08AEBB2
:100FD00092E00E94DF0381E00E94460463E471E036
:100FE0008AEB92E00E94DF0369E471E081E192E024
:100FF0000E94DF036AE371E081E192E00E94DF0377
:10100000C0E0D0E02097F1F30E945F018823D1F384
:101010000E940000F7CFEE0FFF1F0590F491E02D26
:061020000994F894FFCFD3
:1010260000401454000000009501F5002201E20181
:1010360053013101450100000000AD038003DC03CC
:101046005603790366035703000000005E04F500AB
:10105600DC030202424547494E000D0A0048656C12
:0E1066006C6F00576F726C6400444F4E450073
:00000001FF
