:100000000C9435010C9466010C9466010C94660105
:100010000C9466010C9466010C9466010C946601C4
:100020000C9466010C9466010C9466010C946601B4
:100030000C9466010C9466010C9466010C946601A4
:100040000C9466010C9466010C9466010C94660194
:100050000C9466010C9466010C9466010C94E903FF
:100060000C9466010C945D040C9433040C946601AA
:100070000C9466010C9466010C9466010C94660164
:100080000C9466010C9466010C9466010C94660154
:100090000C9466010C9466010C9466010C94660144
:1000A0000C9466010C9466010C9466010C94660134
:1000B0000C9466010C9466010C9466010C94660124
:1000C0000C9466010C9466010C9466010C94660114
:1000D0000C9466010C9466010C9466010C94660104
:1000E0000C9466010C94A5010C9490010C94C10130
:1000F0000C9416030C942E020C9494010C94B301EE
:100100000C94A1010C949B010C948C020C94C601DC
:100110000C948C010C9498010C94C4020C94BD01B5
:100120000C94B9010C94CB010C94AB010C94C70155
:100130000C946A020C9486010C94AF010C94A606F0
:100140000C945B020C947E02000020002300260029
:1001500029002C002F0032000001000003010601DD
:10016000090100002100240027002A002D00300092
:10017000330001010000040107010A010000220010
:10018000250028002B002E00310034000201000061
:10019000050108010B010505050507050808080804
:1001A000020202020A0A080804040404010101010F
:1001B000010101010303030303030303040707070A
:1001C0000C0C0C0C0C0C0C0C0202020206060606AF
:1001D000060606060B0B0B0B0B0B0B0B010210207C
:1001E000200808102040102040800201020108046D
:1001F0000201010204081020408080402010080401
:100200000201800402018040201008040201080459
:10021000020101020408102040800102040810209D
:10022000408000000A0B02090C0D0E0807030401B0
:1002300000000000000000000000000000000000BE
:10024000000000000000000000000000000012118B
:10025000100000000000000000000000000000008E
:100260000000000000000000A60611241FBECFEF12
:10027000D1E2DEBFCDBF00E00CBF24E0A0E2B2E0DF
:1002800001C01D92A433B207E1F712E0A0E0B2E092
:10029000E6ECF0E100E00BBF02C007900D92A03247
:1002A000B107D9F711E0C5E3D1E000E006C021971E
:1002B0000109802FFE010E945908C433D10780E054
:1002C0000807A9F70E9493040C9461080C9400009D
:1002D0008150823108F05AC0E82FF0E08827EC58AE
:1002E000FE4F8F4F0C9459089401980186018C01A0
:1002F0009001C6019B01A101A501AB01AF01B301B2
:10030000B901BD01C601C101C701CB0180918000C7
:100310008F77809380000895809180008F7DF9CF42
:1003200080918000877FF5CF84B58F7784BD089555
:1003300084B58F7DFBCF8091B0008F778093B00024
:1003400008958091B0008F7DF9CF809190008F77D4
:10035000809390000895809190008F7DF9CF8091D7
:100360009000877FF5CF8091A0008F778093A000C9
:1003700008958091A0008F7DF9CF8091A000877FA4
:10038000F5CF809120018F7780932001089580918F
:1003900020018F7DF9CF80912001877FF5CF1F93BA
:1003A000CF93DF93282F30E0F901EE5DFD4F84916C
:1003B000F901E452FE4FD491F901EA56FE4FC4917F
:1003C000CC23A9F0162F81110E946801EC2FF0E0D8
:1003D000EE0FFF1FE458FE4FA591B4918FB7F8942C
:1003E000EC91111108C0D095DE23DC938FBFDF9113
:1003F000CF911F910895DE2BF8CFCF93DF9390E03C
:10040000FC01E452FE4F24918A569E4FFC018491D8
:100410008823D1F090E0880F991FFC01EE59FE4F20
:10042000A591B491FC01E458FE4FC591D49161119E
:100430000EC09FB7F8948C91E22FE0958E238C9399
:100440002881E223E8839FBFDF91CF9108958FB782
:10045000F894EC91E22BEC938FBFF6CFAF92BF9262
:10046000CF92DF92EF92FF920F931F93CF93DF9380
:100470006C017B018B01040F151FEB015E01AE18AF
:10048000BF08C017D10759F06991D601ED91FC91D1
:100490000190F081E02DC6011995892B79F7C501EE
:1004A000DF91CF911F910F91FF90EF90DF90CF9050
:1004B000BF90AF900895FC01538D448D252F30E0FF
:1004C000842F90E0821B930B541710F0CF96089561
:1004D00001970895FC01918D828D981761F0A28D8E
:1004E000AE0FBF2FB11D5D968C91928D9F5F9F7354
:1004F000928F90E008958FEF9FEF0895FC01918D0A
:10050000828D981731F0828DE80FF11D858D90E076
:1005100008958FEF9FEF0895FC01918D228D892F13
:1005200090E0805C9F4F821B91098F7399270895FB
:1005300085E993E00E948C0221E0892B09F420E0F8
:10054000822F0895FC01A48DA80FB92FB11DA35AC5
:10055000BF4F2C91848D90E001968F739927848FE3
:10056000A689B7892C93A089B1898C918370806406
:100570008C93938D848D981306C00288F389E02DA7
:1005800080818F7D80830895EF92FF920F931F9358
:10059000CF93DF93EC0181E0888F9B8D8C8D981336
:1005A0001AC0E889F989808185FF15C09FB7F89442
:1005B000EE89FF896083E889F9898081837080648E
:1005C00080839FBF81E090E0DF91CF911F910F91D9
:1005D000FF90EF900895F62E0B8D10E00F5F1F4FE8
:1005E0000F731127E02E8C8D8E110CC00FB607FCF7
:1005F000FACFE889F989808185FFF5CFCE010E9485
:10060000A202F1CFEB8DEC0FFD2FF11DE35AFF4F4E
:10061000F0829FB7F8940B8FEA89FB898081806212
:10062000CFCF682F85E993E00C94C402CF93DF937A
:10063000EC01888D8823B9F0AA89BB89E889F989FA
:100640008C9185FD03C0808186FD0DC00FB607FC2F
:10065000F7CF8C9185FFF2CF808185FFEDCFCE0162
:100660000E94A202E9CFDF91CF91089580E090E04F
:10067000892B29F00E94980281110E94000080E0DD
:1006800090E0892B49F080E090E0892B29F00E94CE
:10069000000081110E94000080E090E0892B49F069
:1006A00080E090E0892B29F00E94000081110E94D7
:1006B000000080E090E0892B49F080E090E0892BF9
:1006C00029F00E94000081110C94000008958CBD57
:1006D0009DBD0895FC0101900020E9F73197AF011D
:1006E000481B590BBC0185E993E00C942E028F92B4
:1006F0009F92AF92BF920F931F93CF93DF93CDB78B
:10070000DEB7A1970FB6F894DEBF0FBECDBF19A21A
:10071000423008F44AE08E010F5D1F4F842E912C69
:10072000B12CA12CA50194010E941D08E62FB9014E
:10073000CA01EA30F4F4E05DD801EE938D01232B79
:10074000242B252B79F790E080E0109719F0CD014C
:100750000E946A03A1960FB6F894DEBF0FBECDBF0C
:10076000DF91CF911F910F91BF90AF909F908F908D
:100770000895E95CE1CFCF92DF92EF92FF920F9361
:10078000FC01C12C92E1D92E9AE7E92EF12C90E0E0
:100790004C155D056E057F0540F4F694E794D794FB
:1007A000C7949F5F9630A1F797E031E0392780E545
:1007B000211101C080E7232F2695022B082B0083EF
:1007C0009095917091830F91FF90EF90DF90CF9073
:1007D00008951F920F920FB60F9211242F933F93FB
:1007E0008F939F93AF93BF938091910390919203C6
:1007F000A0919303B09194033091900323E0230FD1
:100800002D3758F50196A11DB11D209390038093BB
:10081000910390939203A0939303B09394038091D8
:100820008C0390918D03A0918E03B0918F0301965C
:10083000A11DB11D80938C0390938D03A0938E0313
:10084000B0938F03BF91AF919F918F913F912F9163
:100850000F900FBE0F901F90189526E8230F029659
:10086000A11DB11DD2CF1F920F920FB60F9211246E
:100870000BB60F922F933F934F935F936F937F939A
:100880008F939F93AF93BF93EF93FF9385E993E08B
:100890000E94A202FF91EF91BF91AF919F918F9122
:1008A0007F916F915F914F913F912F910F900BBE70
:1008B0000F900FBE0F901F9018951F920F920FB6BA
:1008C0000F9211240BB60F922F938F939F93EF9358
:1008D000FF93E091A503F091A6038081E091AB0323
:1008E000F091AC0382FD1DC090818091AE038F5FBB
:1008F0008F732091AF03821741F0E091AE03F0E0D7
:10090000EB56FC4F958F8093AE03FF91EF919F9133
:100910008F912F910F900BBE0F900FBE0F901F90D5
:1009200018958081F2CFCF93DF9300D01F92CDB77F
:10093000DEB7789484B5826084BD84B5816084BD5F
:1009400085B5826085BD85B5816085BD80916E006D
:10095000816080936E00109281008091810082609E
:1009600080938100809181008160809381008091DB
:1009700080008160809380008091B10084608093CA
:10098000B1008091B00081608093B00080919100AF
:1009900082608093910080919100816080939100AA
:1009A000809190008160809390008091A10082608E
:1009B0008093A1008091A10081608093A10080912B
:1009C000A00081608093A0008091210182608093CB
:1009D000210180912101816080932101809120017A
:1009E00081608093200180917A00846080937A00F6
:1009F00080917A00826080937A0080917A00816091
:100A000080937A0080917A00806880937A001092B7
:100A1000C100E091A503F091A60382E08083E091FC
:100A2000A103F091A2031082E091A303F091A4032B
:100A300080E180831092AD03E091A903F091AA03B5
:100A400086E08083E091A703F091A8038081806114
:100A50008083E091A703F091A80380818860808360
:100A6000E091A703F091A803808180688083E091E2
:100A7000A703F091A80380818F7D80831FB7F8942E
:100A800080912002811127C0EBECF1E08491E1E13B
:100A9000F2E09491E82FF0E0EE0FFF1FEE59FE4FC9
:100AA000A591B491EC91E92321F461E085E30E94E2
:100AB000CF0161E085E30E94FD018CB580618CBDB2
:100AC0008CB580648CBD61E084E30E94FD0161E02F
:100AD00083E30E94FD01809120028F5F80932002BA
:100AE0001FBF87E192E00E946A038DE192E00E94BD
:100AF0006A032BE7E22E22E0F22E85E993E00E94C2
:100B00008C02892B09F41FC185E993E00E946A02D7
:100B10008D3099F320918A0330918B038A3009F04C
:100B200001C1F901E658FD4F1082232B09F4F1C0F1
:100B300010917A02FC82EB828DE30E94110312373E
:100B400009F4A9C0183791F11D3609F0E7C04AE051
:100B500050E0BE016D5F7F4F8B819C810E94D30668
:100B60006370609321024AE050E0BE016D5F7F4FE9
:100B70008B819C810E94D30621E0672B682B692B17
:100B800009F420E0209304024AE050E0BE016D5FCA
:100B90007F4F8B819C810E94D306609300027093EB
:100BA00001028093020290930302AFC04AE050E03A
:100BB000BE016D5F7F4F8B819C810E94D306162FF3
:100BC00061E0812F0E94CF0161E0812F0E94FD0131
:100BD0002091040280912102409100025091010273
:100BE000609102027091030208E0823039F00CE05B
:100BF000833021F004E0813009F000E0CE0101965D
:100C00000E94BB0389819A810E94670360E0812F63
:100C10000E94CF0192E2C92E92E0D92E560100E047
:100C200040E150E0BE016F5F7F4F8B819C810E944D
:100C3000D30689819A812B813C818217930779F0B1
:100C4000083569F09C838B830F5F6EBD00000DB487
:100C500007FEFDCF8EB5F50181935F01E1CF61E025
:100C6000812F0E94CF01B12C0B1509F44EC0F60163
:100C700011916F01103118F480E30E941103612F6C
:100C800070E090E080E040E10E94770380E20E9403
:100C90001103B394E9CF4AE050E0BE016D5F7F4F8E
:100CA0008B819C810E94D306162F60E0812F0E94C9
:100CB000FD01612F70E0FB01EE5DFD4F8491FB01B2
:100CC000E452FE4F0491FB01EA56FE4F149170E08E
:100CD00060E0112399F081110E946801E12FF0E09A
:100CE000EE0FFF1FE85BFE4FA591B491EC910E2330
:100CF00091E080E009F490E0692F782F072E000C36
:100D0000880B990B4AE00E9477038DE192E00E94E4
:100D10006A0310928B0310928A03EFCE8FE30E9436
:100D20001103F3CF2F30F1E03F0708F0E6CEA90121
:100D30004F5F5F4F50938B0340938A0326583D4F7C
:100D4000F9018083DACE0E943603D7CEE5E9F3E0DD
:100D50001382128288EE93E0A0E0B0E08483958352
:100D6000A683B78389E092E09183808385EC90E04D
:100D70009587848784EC90E09787868780EC90E065
:100D8000918B808B81EC90E0938B828B82EC90E056
:100D9000958B848B86EC90E0978B868B118E128ED0
:100DA000138E148E08953F924F925F926F927F92AE
:100DB0008F929F92AF92BF92CF92DF92EF92FF926B
:100DC0000F931F93CF93DF935C016B017A01611541
:100DD000710519F0FB0191838083E114F10451F056
:100DE000C7010297839730F040E030E020E090E0C8
:100DF0006BC05E01E5012196F5011081812F90E025
:100E00000E940108892BA9F71D3201F52196F501F1
:100E1000118101E0E114F10409F4E6C0F0E1EF16FC
:100E2000F10409F088C0103359F488818F7D88352A
:100E300009F07CC0198122960260F0E1EF2EF12CBE
:100E4000812C912CA12C88E0B82E92C01B3221F469
:100E5000E5012296F501118100E0DCCFEAE0EE1613
:100E6000F10409F4C7C0F0E1EF16F10409F073C012
:100E7000E7CF78E0E72EF12C812C912CA12C60E1BA
:100E8000B62E76C021E0ADC0302F3170C114D10430
:100E900031F0222371F12197F601D183C08327FF1E
:100EA0002EC060E070E080E090E8311104C06FEF88
:100EB0007FEF8FEF9FE722E230E0309333042093FF
:100EC0003204462F372F282F642F732F822FDF9164
:100ED000CF911F910F91FF90EF90DF90CF90BF9037
:100EE000AF909F908F907F906F905F904F903F90CA
:100EF000089501FF04C02297F601D183C0833323F4
:100F000041F090958095709561957F4F8F4F9F4FE1
:100F1000D8CF97FFD6CF82E290E0909333048093AE
:100F200032046FEF7FEF8FEF9FE7CBCF10E3E11439
:100F3000F10409F49ECF28E0E216F10409F49CCFF5
:100F40000CF08CCF812C912CA12CE0E4BE2E82E001
:100F5000E816F10469F060E070E080E090E8970145
:100F60000F2C000C440B550B0E941D0849015A011F
:100F700020E060E070E0CB0127010F2C000C660838
:100F80007708FE0150ED352E310E39E0331570F43F
:100F90003FEB310F49EC342E3A3138F03FE9310F55
:100FA0003A3108F071CF39EA332E310E3E141F0466
:100FB0000CF06ACF27FD15C086169706A806B9065D
:100FC00078F0A30192010E940D08630D711D811D2F
:100FD000911D61307105810520E8920708F452CF18
:100FE0002FEF21961081CDCF103309F41ECF2AE0C8
:100FF000E22EF12C9CEC892E982CA82C9CE0B92E8A
:10100000B7CF91110C940A08803219F0895085509D
:10101000C8F70895992788270895DB018F939F9338
:101020000E943F08BF91AF91A29F800D911DA39F89
:10103000900DB29F900D11240895A1E21A2EAA1BC3
:10104000BB1BFD010DC0AA1FBB1FEE1FFF1FA21778
:10105000B307E407F50720F0A21BB30BE40BF50B75
:10106000661F771F881F991F1A9469F760957095FE
:10107000809590959B01AC01BD01CF0108950E9420
:101080004A08A59F900DB49F900DA49F800D911DBF
:1010900011240895A29FB001B39FC001A39F700DBA
:1010A000811D1124911DB29F700D811D1124911D70
:1010B0000895EE0FFF1F881F8BBF0790F691E02D5C
:0610C0001994F894FFCF23
:1010C60000093D000100000000C4022E025B02166A
:1010D600038C026A027E025245414459000D0A0001
:00000001FF
