:100000000C9462000C948A000C948A000C948A0070
:100010000C948A000C948A000C948A000C948A0038
:100020000C948A000C948A000C948A000C948A0028
:100030000C948A000C948A000C948A000C948A0018
:100040000C94F4010C948A000C9464020C943E020B
:100050000C948A000C948A000C948A000C948A00F8
:100060000C948A000C948A000000000024002700F1
:100070002A0000000000250028002B0000000000DE
:1000800023002600290004040404040404040202DA
:100090000202020203030303030301020408102007
:1000A0004080010204081020010204081020000012
:1000B0000008000201000003040700000000000027
:1000C0000000500411241FBECFEFD8E0DEBFCDBF2B
:1000D00011E0A0E0B1E0EEE4F9E002C005900D927D
:1000E000AE31B107D9F721E0AEE1B1E001C01D9218
:1000F000AF3CB207E1F710E0C2E6D0E004C02197C0
:10010000FE010E949F04C136D107C9F70E949602E2
:100110000C94A5040C940000833081F028F4813005
:1001200099F08230A9F008958730A9F08830C9F09D
:100130008430B1F4809180008F7D03C08091800075
:100140008F7780938000089584B58F7784BD08955C
:1001500084B58F7DFBCF8091B0008F778093B00006
:1001600008958091B0008F7DF9CF3FB7F8948091CA
:100170002E0190912F01A0913001B091310126B54F
:10018000A89B05C02F3F19F00196A11DB11D3FBFCF
:10019000BA2FA92F982F8827BC01CD01620F711D9E
:1001A000811D911D42E0660F771F881F991F4A9598
:1001B000D1F70895AF92BF92CF92DF92EF92FF9264
:1001C0000F931F93CF93DF936C017B018B01040F7F
:1001D000151FEB015E01AE18BF08C017D10759F01B
:1001E0006991D601ED91FC910190F081E02DC6015D
:1001F0000995892B79F7C501DF91CF911F910F9157
:10020000FF90EF90DF90CF90BF90AF900895FC01EA
:10021000538D448D252F30E0842F90E0821B930B6B
:10022000541710F0CF96089501970895FC01918D11
:10023000828D981761F0A28DAE0FBF2FB11D5D9614
:100240008C91928D9F5F9F73928F90E008958FEFB6
:100250009FEF0895FC01918D828D981731F0828D6A
:10026000E80FF11D858D90E008958FEF9FEF0895C1
:10027000FC01918D228D892F90E0805C9F4F821B25
:1002800091098F739927089582E391E00E943801C4
:1002900021E0892B09F420E0822F089580E090E08E
:1002A000892B29F00E94440181110C9400000895CB
:1002B000FC01A48DA80FB92FB11DA35ABF4F2C91DB
:1002C000848D90E001968F739927848FA689B789D2
:1002D0002C93A089B1898C91837080648C93938DC9
:1002E000848D981306C00288F389E02D80818F7D6C
:1002F00080830895EF92FF920F931F93CF93DF9324
:10030000EC0181E0888F9B8D8C8D98131AC0E88951
:10031000F989808185FF15C09FB7F894EE89FF8920
:100320006083E889F98980818370806480839FBFBE
:1003300081E090E0DF91CF911F910F91FF90EF90BE
:100340000895F62E0B8D10E00F5F1F4F0F731127CE
:10035000E02E8C8D8E110CC00FB607FCFACFE88909
:10036000F989808185FFF5CFCE010E945801F1CF38
:10037000EB8DEC0FFD2FF11DE35AFF4FF0829FB77D
:10038000F8940B8FEA89FB8980818062CFCFCF936D
:10039000DF93EC01888D8823B9F0AA89BB89E889AD
:1003A000F9898C9185FD03C0808186FD0DC00FB653
:1003B00007FCF7CF8C9185FFF2CF808185FFEDCFD1
:1003C000CE010E945801E9CFDF91CF910895FC0141
:1003D00001900020E9F73197AF01481B590BBC0190
:1003E00082E391E00C94DA001F920F920FB60F9205
:1003F00011242F933F938F939F93AF93BF9380913B
:100400002A0190912B01A0912C01B0912D013091E6
:10041000290123E0230F2D3758F50196A11DB11DA9
:100420002093290180932A0190932B01A0932C0102
:10043000B0932D0180912E0190912F01A091300158
:10044000B09131010196A11DB11D80932E019093B1
:100450002F01A0933001B0933101BF91AF919F91D3
:100460008F913F912F910F900FBE0F901F90189575
:1004700026E8230F0296A11DB11DD2CF1F920F9225
:100480000FB60F9211242F933F934F935F936F9367
:100490007F938F939F93AF93BF93EF93FF9382E3E9
:1004A00091E00E945801FF91EF91BF91AF919F9110
:1004B0008F917F916F915F914F913F912F910F900D
:1004C0000FBE0F901F9018951F920F920FB60F92AC
:1004D00011242F938F939F93EF93FF93E091420109
:1004E000F09143018081E0914801F091490182FD42
:1004F0001BC0908180914B018F5F8F7320914C01C5
:10050000821741F0E0914B01F0E0EE5CFE4F958FD9
:1005100080934B01FF91EF919F918F912F910F90BD
:100520000FBE0F901F9018958081F4CFCF93DF936B
:10053000CDB7DEB7A1970FB6F894DEBF0FBECDBF23
:10054000789484B5826084BD84B5816084BD85B5AE
:10055000826085BD85B5816085BD80916E008160BA
:1005600080936E0010928100809181008260809360
:100570008100809181008160809381008091800062
:100580008160809380008091B10084608093B1008D
:100590008091B00081608093B00080917A00846087
:1005A00080937A0080917A00826080937A008091B3
:1005B0007A00816080937A0080917A0080688093CD
:1005C0007A001092C100E0914201F091430182E073
:1005D0008083E0913E01F0913F011082E091400163
:1005E000F091410180E1808310924A01E09146013F
:1005F000F091470186E08083E0914401F09145014C
:10060000808180618083E0914401F0914501808187
:1006100088608083E0914401F09145018081806889
:100620008083E0914401F091450180818F7D80833A
:10063000EDE9F0E02491E9E8F0E08491882399F075
:1006400090E0880F991FFC01E859FF4FA591B491E4
:10065000FC01EE58FF4F859194918FB7F8949C91CF
:10066000292B2C938FBF5CE9652E50E0752EF3018A
:100670002491E8E8F0E084918823C9F090E0880FA5
:10068000991FFC01E859FF4FA591B491FC01EE5868
:10069000FF4F459154913FB7F8949C91822F8095DC
:1006A00098239C93FA019081892380833FBF84E142
:1006B00091E00E94E7010E94B500609325017093CC
:1006C000260180932701909328012AE0222E312CC5
:1006D000412C512C30E0C32E30E0D32E0E94B500C7
:1006E0004B015C018091250190912601A091270189
:1006F000B0912801B501A401481B590B6A0B7B0B73
:10070000403157426105710508F431C0805F984D52
:10071000AF4FBF4F8093250190932601A0932701EF
:10072000B0932801F090240121E0F226F0922401F8
:10073000E1EBF0E08491EDE9F0E00491E9E8F0E02C
:1007400014911123A1F081110E948C00E12FF0E09F
:10075000EE0FFF1FEE58FF4FA591B4918FB7F8949D
:100760009C91F1109BC0009509230C938FBFE0EB87
:10077000F0E08491F3010491E8E8F0E01491F12CA9
:10078000E12C112399F081110E948C00E12FF0E0FF
:10079000EE0FFF1FE458FF4FA591B4918C910823F1
:1007A00091E080E009F490E0E92EF82E80910001BC
:1007B00090910101892B09F061C0F1E0EF16F1047D
:1007C00009F05CC08091200190912101A09122014B
:1007D000B0912301892B8A2B8B2B09F447C0809180
:1007E0001E0190911F0108970CF040C08BE191E031
:1007F0000E94E7018091200190912101A0912201A6
:10080000B0912301A5019401281B390B4A0B5B0B06
:1008100019A28E010F5D1F4FCA01B901A2019101FA
:100820000E947D04605DF80162938F0121153105FE
:100830004105510589F7309761F001900020E9F7F3
:100840003197AF01401B510BB80182E391E00E9448
:10085000DA0089E191E00E94E70180911E01909108
:100860001F01019690931F0180931E018092200129
:1008700090922101A0922201B0922301F0920101F5
:10088000E0920001C114D10409F428CF0E94440170
:10089000882309F423CF0E94000020CF092B65CFC5
:1008A000E2E3F1E01382128288EE93E0A0E0B0E090
:1008B00084839583A683B78386E091E091838083C8
:1008C00085EC90E09587848784EC90E09787868715
:1008D00080EC90E0918B808B81EC90E0938B828B0D
:1008E00082EC90E0958B848B86EC90E0978B868BE6
:1008F000118E128E138E148E0895A1E21A2EAA1B49
:10090000BB1BFD010DC0AA1FBB1FEE1FFF1FA217BF
:10091000B307E407F50720F0A21BB30BE40BF50BBC
:10092000661F771F881F991F1A9469F76095709545
:10093000809590959B01AC01BD01CF010895EE0F0C
:0E094000FF1F0590F491E02D0994F894FFCF6D
:10094E00FFFF000000007A01DA000701C70138013D
:0E095E0016012A0152454144590A00503D003D
:00000001FF
