:100000000C9459000C9481000C9481000C94810094
:100010000C9481000C9481000C9481000C9481005C
:100020000C9481000C9481000C9481000C9481004C
:100030000C9481000C9481000C9481000C9481003C
:100040000C94C90F0C9481000C9439100C9413106B
:100050000C9481000C9481000C9481000C9481001C
:100060000C946B100C948100000000002500280007
:100070002B00040404040404040402020202020229
:10008000030303030303010204081020408001025C
:1000900004081020010204081020000000080002DB
:1000A00001000003040700000000000000008A11A6
:1000B000901411241FBECFEFD8E0DEBFCDBF11E0FA
:1000C000A0E0B1E0E6EDF0E302C005900D92AA3A9F
:1000D000B107D9F723E0AAEAB1E001C01D92A43527
:1000E000B207E1F710E0C8E5D0E004C02197FE01B7
:1000F0000E942417C735D107C9F70E94D1110C946B
:100100005E180C94000090E0FC01E656FF4F24912D
:10011000FC01EA57FF4F3491FC01EE58FF4FE49188
:10012000EE23C9F0222339F0233001F1A8F4213065
:1001300019F1223029F1F0E0EE0FFF1FE859FF4FCF
:10014000A591B4918FB7F894EC91611126C03095C8
:100150003E233C938FBF08952730A9F02830C9F083
:10016000243049F7809180008F7D03C0809180000A
:100170008F7780938000DFCF84B58F7784BDDBCF0E
:1001800084B58F7DFBCF8091B0008F778093B000D6
:10019000D2CF8091B0008F7DF9CF3E2BDACF823065
:1001A000910538F0880F991F880F991F05970197BF
:1001B000F1F708953FB7F8948091190290911A02CF
:1001C000A0911B02B0911C0226B5A89B05C02F3F31
:1001D00019F00196A11DB11D3FBFBA2FA92F982F6D
:1001E0008827BC01CD01620F711D811D911D42E068
:1001F000660F771F881F991F4A95D1F708958F9230
:100200009F92AF92BF92CF92DF92EF92FF924B01FB
:100210005C010E94DA006B017C010E94DA006C191B
:100220007D098E099F09683E734081059105A8F3F9
:1002300021E0821A9108A108B10888EEC80E83E077
:10024000D81EE11CF11C81149104A104B10429F70A
:10025000FF90EF90DF90CF90BF90AF909F908F90E6
:10026000089508950895AF92BF92CF92DF92EF92D2
:10027000FF920F931F93CF93DF936C017B018B0150
:10028000040F151FEB015E01AE18BF08C017D107A0
:1002900059F06991D601ED91FC910190F081E02D2A
:1002A000C6010995892B79F7C501DF91CF911F917F
:1002B0000F91FF90EF90DF90CF90BF90AF90089597
:1002C000FC01538D448D252F30E0842F90E0821B5C
:1002D000930B541710F0CF96089501970895FC01E1
:1002E000918D828D981761F0A28DAE0FBF2FB11D39
:1002F0005D968C91928D9F5F9F73928F90E0089591
:100300008FEF9FEF0895FC01918D828D981731F04A
:10031000828DE80FF11D858D90E008958FEF9FEF9E
:100320000895FC01918D228D892F90E0805C9F4F74
:10033000821B91098F73992708958DE692E00E94A0
:10034000910121E0892B09F420E0822F089580E0BB
:1003500090E0892B29F00E949D0181110C940000EE
:100360000895FC01A48DA80FB92FB11DA35ABF4F4A
:100370002C91848D90E001968F739927848FA689A4
:10038000B7892C93A089B1898C91837080648C93F8
:10039000938D848D981306C00288F389E02D8081A7
:1003A0008F7D80830895EF92FF920F931F93CF93D9
:1003B000DF93EC0181E0888F9B8D8C8D98131AC0A0
:1003C000E889F989808185FF15C09FB7F894EE8987
:1003D000FF896083E889F9898081837080648083E4
:1003E0009FBF81E090E0DF91CF911F910F91FF902F
:1003F000EF900895F62E0B8D10E00F5F1F4F0F73D7
:100400001127E02E8C8D8E110CC00FB607FCFACF91
:10041000E889F989808185FFF5CFCE010E94B1017D
:10042000F1CFEB8DEC0FFD2FF11DE35AFF4FF08262
:100430009FB7F8940B8FEA89FB8980818062CFCFC8
:10044000CF93DF93EC01888D8823B9F0AA89BB890B
:10045000E889F9898C9185FD03C0808186FD0DC0F6
:100460000FB607FCF7CF8C9185FFF2CF808185FF17
:10047000EDCFCE010E94B101E9CFDF91CF91089578
:100480002091EB01260F3327331F21323105ECF485
:1004900020914302FC0190E080E0243069F082E08A
:1004A0000895A091EB012191AC0145535E4FA40F3B
:1004B000B52FB11D2C930196861798F38091EB010F
:1004C000680F6093EB0180E0089581E00895109239
:1004D000430281E08093420210921D0261E082E1BA
:1004E0000E94830061E083E10E948300E9EBF0E079
:1004F00080818E7F808380818D7F808388E480935C
:10050000B80085E48093BC000895CF93DF9391E019
:100510009093CA018823B9F0C091B800D091BA0075
:100520008091BC008A7B8093BC0060E082E10E94E5
:10053000830060E083E10E9483000E946702D09301
:10054000BA00C093B800DF91CF9108958F929F9227
:10055000AF92BF92CF92DF92EF92FF920F931F93D1
:10056000CF93DF93D0916C02D13208F0D7C0182F0F
:10057000C0916B020E94DA006B017C018091430202
:1005800081116BC082E080934302109342028FEF8F
:100590008093410210924002D0933F02ABE4B2E05C
:1005A000EFE1F2E080E0D81391C010921E0280913A
:1005B0001E02CC0FC82BC0931E0280911D028130F9
:1005C00009F088C010921D020E94DA006B017C01C4
:1005D00080911E028093BB0080914502909146025B
:1005E000A0914702B0914802892B8A2B8B2BA1F056
:1005F0000E94DA00009145021091460220914702C4
:10060000309148026C197D098E099F09061717075A
:100610002807390708F442C08091BC0083FDD8CF79
:1006200085EC8093BC000E94DA006B017C01809114
:100630004302823009F450C0809141028F3F09F497
:100640006FC080914102803209F46CC080914102F8
:10065000803309F469C084E026C0809145029091FE
:100660004602A0914702B0914802892B8A2B8B2B1E
:1006700009F484CF0E94DA008090450290904602EF
:10068000A0904702B09048026C197D098E099F091D
:1006900086169706A806B90608F070CF8091440226
:1006A0000E94850285E010924A0210926C0210921C
:1006B0004902DF91CF911F910F91FF90EF90DF9052
:1006C000CF90BF90AF909F908F9008959D91919300
:1006D0008F5F69CF85EEA5CF80914502909146024C
:1006E000A0914702B0914802892B8A2B8B2B09F4E9
:1006F0009ECF0E94DA00009145021091460220919F
:100700004702309148026C197D098E099F0906172E
:1007100017072807390708F08ACFC0CF81E0C3CF79
:1007200080E0C1CF82E0BFCF83E0BDCF0895E091EC
:10073000130280911202E81730F4F0E0E655FE4F04
:10074000808190E008958FEF9FEF089590911302BC
:10075000809112022FEF3FEF981748F4E92FF0E055
:10076000E655FE4F208130E09F5F90931302C90150
:1007700008958091120290911302891B990B08959C
:10078000CF92DF92EF92FF920F931F93CF93DF935D
:100790007C01CB018A0120914902222389F0EB01DF
:1007A0006B01C40ED51ECC15DD0569F06991D7012A
:1007B000ED91FC910190F081E02DC7010995F3CFF7
:1007C000642F0E944002C801DF91CF911F910F91C9
:1007D000FF90EF90DF90CF900895CF93DF931F921B
:1007E000CDB7DEB76983209149022223F9F0209129
:1007F0006C02203258F021E030E0FC013383228388
:1008000090E080E00F90DF91CF91089580914A02AF
:10081000E82FF0E0E55BFD4F998190838F5F809337
:100820004A0280936C0281E090E0ECCF61E0CE015F
:1008300001960E944002F7CF90E080E00895FC010D
:1008400083858F3F19F061E00C9483000895FC01CB
:1008500080819181892B39F0A281B3819C9111967D
:100860008C919CBD8DBD83858F3F19F060E00C9409
:1008700083000895BF92CF92DF92EF92FF920F9381
:100880001F93CF93DF93EC0188819981892B81F0AD
:100890006EBD0DB407FEFDCF0EB5802FDF91CF9159
:1008A0001F910F91FF90EF90DF90CF90BF90089530
:1008B0008885998511E0892B09F010E8BB24B39451
:1008C000862F812309F0B12CF62E2C813D814E819B
:1008D0005F8160E271EA87E090E00E940217E22EF9
:1008E00000E0C22ED12CEE2019F0C6010E94CF00EC
:1008F0008A85982F977F09F044C08D858F3F89F0B6
:100900009F2D912381E009F480E08B1551F0EF8554
:10091000F8898F89992379F19081892B8083BB2471
:10092000B394E989FA898081998D892B8083EE209F
:1009300019F0C6010E94CF008E858F3F39F0EB89F8
:10094000FC898081988D892309F0012BE989FA8936
:100950009081898D80958923808388859985892BCD
:1009600009F067C0110F1111BECF8E858F3F09F0BE
:1009700094CF0F2D92CF9081809589238083B12CC5
:10098000D0CF8C3099F58D858F3F49F0EF85F88970
:100990008F899F2D912331F19081892B8083E98963
:1009A000FA899081898D809589238083EE2019F0C2
:1009B000C6010E94CF00E989FA898081998D892B2F
:1009C0008083EE2019F0C6010E94CF008E858F3FF4
:1009D00021F2EB89FC898081988D892309F4BDCFB0
:1009E000012BBBCF908180958923D8CFE989FA89E3
:1009F0008081998D892B8083EE2019F0C6010E9499
:100A0000CF008D858F3F49F0EF85F8898F899F2D25
:100A1000912359F09081892B8083E989FA8990810B
:100A2000898D809589238083D1CF9081809589237A
:100A3000F3CF169598CF8F929F92AF92BF92CF929D
:100A4000DF92EF92FF920F931F93CF93DF937C017E
:100A50004B016A01B22EA32E0E942704E401C80CA8
:100A6000D91CCC15DD0569F4CB2DDA2D0C0F1D1F1B
:100A7000C017D10759F06FEFC7010E943A0489935C
:100A8000F7CF6991C7010E943A04EBCFC7010E94DA
:100A90001F0481E0DF91CF911F910F91FF90EF90A4
:100AA000DF90CF90BF90AF909F908F9008958F92DE
:100AB0009F92AF92BF92CF92DF92EF92FF920F93ED
:100AC0001F93CF93DF937C01B62EA72E6A014901B5
:100AD0000E942704E401080D191DC017D10761F415
:100AE000CB2DDA2DCC0EDD1ECC15DD0551F0699134
:100AF000C7010E943A04F8CF6991C7010E943A04E5
:100B0000ECCFC7010E941F0481E0DF91CF911F91BC
:100B10000F91FF90EF90DF90CF90BF90AF909F909C
:100B20008F9008951F93CF93DF93EA01122FDC017A
:100B300011968D919C91DC01ED91FC910280F381E5
:100B4000E02D0995C817D90729F4812F0E94A60224
:100B500091E0811190E0892FDF91CF911F9108954D
:100B6000CF93DF93EC018B818823A1F0888191E002
:100B70009093490280936B0210924A0210926C0289
:100B800081E00E94A60291E0811190E0892FDF911F
:100B9000CF910895109213021092120210924A02FD
:100BA00010926C020E94670281E391E090930F0221
:100BB00080930E0282E391E09093110280931002E1
:100BC00081E08B83CE010E94B005982F8111CECF9A
:100BD000DDCFAF92BF92CF92DF92EF92FF920F9351
:100BE0001F93CF93DF9300D0CDB7DEB7DC01211187
:100BF00003C01A962C911A97253008F043C05196DD
:100C00004D935D936D937C93549790E080E0E22E3A
:100C1000F12C8E159F05B4F41C962C911C97211174
:100C20000AC0FD01E80FF91F4587452F562F672F92
:100C300077270196EECFF701E81BF90BEA0FFB1FB0
:100C40004487F3CF6D018DE0C80ED11C18969C919E
:100C5000189719968C91199799838A83AD90BC90B7
:100C60001197A114B10409F441C01B960C9110E036
:100C700098012E0D3F1DD50114968D919C918217E0
:100C8000930710F480E016C0F501818192812081E4
:100C900031E03093490220936B0210924A02109285
:100CA0006C020115110599F421E0A701B601C501F7
:100CB0000E9492050F900F90DF91CF911F910F919D
:100CC000FF90EF90DF90CF90BF90AF900895DC0140
:100CD000ED91FC910280F381E02DA801BE016F5FD0
:100CE0007F4F09950817190769F6DECF1296ED9127
:100CF000FC911397309749F116962D913C911797D7
:100D00001B960C9110E02330310571F48E7F89839E
:100D10009A830F5F1F4F9E012F5F3F4FA701B601C0
:100D2000CF010E945705C6CF2115310519F49F77D1
:100D30009983F1CF2230310511F49068F9CF213039
:100D4000310549F79F779064F3CF1496ED91FC91AC
:100D50001597309709F496CF8085882309F492CFB0
:100D6000A680B780A114B10409F48CCF8701960145
:100D70001B964C91BE016F5F7F4F81859285F50177
:100D8000099598CF08950895FC0101900020E9F796
:100D90003197AF01481B590BBC018DE692E00C94D2
:100DA00033018F929F92AF92BF920F931F93CF9375
:100DB000DF93CDB7DEB7A1970FB6F894DEBF0FBEB5
:100DC000CDBF19A2423008F44AE08E010F5D1F4FDB
:100DD000842E912CB12CA12CA50194010E94021704
:100DE000E62FB901CA01EA30F4F4E05DD801EE93D0
:100DF0008D01232B242B252B79F790E080E0109791
:100E000019F0CD010E94C406A1960FB6F894DEBF7A
:100E10000FBECDBFDF91CF911F910F91BF90AF90CB
:100E20009F908F900895E95CE1CFCF93DF930E946C
:100E3000C406EC018AE591E00E94C4068C0F9D1F58
:100E4000DF91CF9108954F925F926F927F928F9230
:100E50009F92AF92BF92CF92DF92EF92FF920F9349
:100E60001F93CF936B017C01742EAC019B010E94F8
:100E7000FD16882399F08DE591E0CF911F910F9198
:100E8000FF90EF90DF90CF90BF90AF909F908F90AA
:100E90007F906F905F904F900C94C406460157016D
:100EA000E894B7F82FEF3FEF4FE75FE7C501B401D4
:100EB0000E94FD1681110DC02FEF3FEF4FE75FE756
:100EC000C501B4010E94331518161CF481E691E0A7
:100ED000D4CF2FEF3FEF4FE75FE4C701B6010E9489
:100EE0008B1618161CF485E691E0C7CF2FEF3FEF65
:100EF0004FE75FECC701B6010E94331587FDF3CFC2
:100F000020E030E0A901C701B6010E94331510E0CE
:100F100000E087FF0AC06DE28DE692E00E94D301F7
:100F20008C01F7FAF094F7F8F094C0E060E070E01C
:100F300080E09FE37C1641F020E030E040E251E4A5
:100F40000E943815CF5FF6CFA70196010E94C71403
:100F50002B013C010E94AA154B015C014AE00E9452
:100F6000D1067C01E00EF11ECC23C1F1C501B40114
:100F70000E94D9159B01AC01C301B2010E94C614A5
:100F80004B015C016EE28DE692E00E94D301E80E17
:100F9000F91EC15018F120E030E040E251E4C501F3
:100FA000B4010E9490162B013C010E94AA154B012E
:100FB000B12CA12C4AE0C501B4010E94D106E80E73
:100FC000F91EC501B4010E94D9159B01AC01C301F2
:100FD000B2010E94C6144B015C01DBCFC701CF9167
:100FE0001F910F91FF90EF90DF90CF90BF90AF9047
:100FF0009F908F907F906F905F904F9008952F9269
:101000003F924F925F926F927F928F929F92AF9298
:10101000BF92CF92DF92EF92FF920F931F93CF93E5
:10102000DF9300D000D0CDB7DEB7DC014B01042F39
:1010300018969C91189719968C91199799838A8381
:101040002D903C9011972114310409F43AC11B965C
:101050004C9150E0D10114968D919C918417950785
:10106000C8F4D12C8D2D0F900F900F900F90DF9121
:10107000CF911F910F91FF90EF90DF90CF90BF9095
:10108000AF909F908F907F906F905F904F903F9028
:101090002F900895F101808191E09093490280930F
:1010A0006B0210924A0210926C0220E0BE016F5F48
:1010B0007F4FC1010E949205D82E882391F2802F84
:1010C00090E09C838B83B12CA12C01E0AB81BC818F
:1010D000AA16BB0638F6F101848195817D01EA18D4
:1010E000FB088E159F0508F47C01D101CC900E946D
:1010F000DA002B013C0180914302811172C01E2D48
:10110000113208F010E20093430221E08B819C81B0
:101110008E199F09A816B90608F420E02093420210
:10112000BFEFB0934102109240028FEF810F809386
:101130003F0200931E0280911E02CC0CC82AC0926E
:101140001E0280911D02813009F092C010921D0292
:101150000E94DA002B013C0180911E028093BB00AB
:101160008091450290914602A0914702B0914802B9
:10117000892B8A2B8B2BA1F00E94DA00209145024B
:101180003091460240914702509148026419750916
:1011900086099709261737074807590708F442C0F8
:1011A0008091BC0083FDD8CFE5ECE093BC000E94A9
:1011B000DA002B013C0180914302813009F45CC0CC
:1011C00080914002811710F410914002AFE1B2E02B
:1011D000EAEAF1E080E0811751F19D9191938F5FF0
:1011E000FACF8091450290914602A0914702B091BA
:1011F0004802892B8A2B8B2B09F47DCF0E94DA00C1
:101200002091450230914602409147025091480298
:10121000641975098609970926173707480759077A
:1012200008F069CF809144020E94850210E010927C
:101230001302109312021E151F0409F012CF34017D
:101240006A0C7B1C2301C201861997098E159F0524
:10125000A8F5D10111968D919C91DC01ED91FC9145
:101260000284F385E02D0995F20181932F01EBCFE4
:10127000F5EEF093BC009BCF809145029091460221
:10128000A0914702B0914802892B8A2B8B2B09F43D
:1012900092CF0E94DA00209145023091460240919F
:1012A0004702509148026419750986099709261763
:1012B00037074807590708F07ECFB4CFAE0CBF1CE4
:1012C00005CF1296ED91FC911397309749F1169640
:1012D0002D913C91179710E01B964C9150E02330D4
:1012E000310571F4816089839A834F5F5F4F940168
:1012F000BE016F5F7F4FCF010E941B05D82EB2CE7B
:101300002115310519F490689983F1CF2230310508
:1013100011F49F77F9CF2130310549F7906CF4CF64
:101320001496ED91FC911597309709F49ACE80852B
:10133000882309F496CEE480F580E114F10409F4E1
:1013400090CE10E09B011B964C91BE016F5F7F4FCA
:1013500081859285F7010995D1CFCF93DF93EC0179
:10136000BC01635F7F4F4A850E94FF07882301F11C
:101370004A8550E030E020E060E070E0CB012417C7
:101380003507CCF4982F872F762F6627EC85E1114F
:101390000AC0FA01E21BF30BEC0FFD1FE4856E2B74
:1013A0002F5F3F4FECCFFE01E20FF31FE585F7CF34
:1013B0006FEF7FEFCB01DF91CF9108958F929F92D6
:1013C000AF92BF92CF92DF92EF92FF920F931F9353
:1013D000CF93DF93EC014A015B01888199810E94E0
:1013E000AD092A8101E010E002C0000F111F2A950B
:1013F000E2F701501109012E000C220B330BAB81D7
:10140000680179010A2E04C0CC0CDD1CEE1CFF1C07
:101410000A94D2F7C094D094E094F094C622D722D4
:10142000E822F922E881F981B901A801482159216E
:101430006A217B2104C0440F551F661F771FAA95A0
:10144000D2F74C295D296E297F292285CF01DF91B2
:10145000CF911F910F91FF90EF90DF90CF90BF90B1
:10146000AF909F908F900C94E9050F931F93CF93AB
:10147000DF93EC01888199810E94AD09AB01BC0129
:101480002A8181E090E002C0880F991F2A95E2F737
:101490000197092E000CAA0BBB0B2B8104C076957B
:1014A0006795579547952A95D2F78C019D0104239E
:1014B000152326233723C901B801DF91CF911F914E
:1014C0000F910895AF92BF92CF92DF92EF92FF9269
:1014D0000F931F93CF93DF93CDB7DEB7EC970FB683
:1014E000F894DEBF0FBECDBF8C01FC01868D978DB9
:1014F0001FA218A619A61AA69F8B8E8B198E188E5E
:10150000FF24F394F9A28BE390E09F8F8E8F1AA2B1
:101510008EE088A34EE0BE01655D7F4FCE0146960A
:101520000E94FF078BA59CA5982789279827F8017B
:1015300095A784A78DA59EA598278927982797A763
:1015400086A78FA598A998278927982791AB80AB64
:1015500069A97AA976276727762773AB62AB8BA92F
:101560009CA998278927982795AB84AB8DA99EA91C
:1015700098278927982797AB86AB8FA998AD98278E
:101580008927982791AF80AF072E000C880B990B05
:101590000E94DB1520E030E04AEA53E40E9438154F
:1015A00028EB3EE142E152E40E94C714F801628355
:1015B000738384839583868D978D1A8A1B8A1C8AF0
:1015C0001D8A9A8389831C821B82FC868CE190E0B1
:1015D0009A8789871D86FB86CE0101965C019AAFAA
:1015E00089AF82E08BAF83E08CAFCE01C9960E94B9
:1015F000350AC12CD12CE12CE5E4FE2E63307105B7
:10160000E1F06230710599F06130710509F4D6C0DE
:10161000C12CD12CF0E8EF2EFFE3FF2E672B69F4ED
:10162000C12CD12C50E8E52E56E4F52E06C0C12C75
:10163000D12C70E8E72E75E4F72EF80164A575A5A6
:10164000072E000C880B990B0E94DB15A701960151
:101650000E943815F801668377838087918766A595
:1016600077A5072E000C880B990B0E94DB15A701AC
:1016700096010E943815F8016287738784879587E1
:1016800060A971A9072E000C880B990B0E94DB152D
:10169000A70196010E943815F80166877787808B2D
:1016A000918B868D978D1A8A1B8A1C8A1D8A9A8334
:1016B00089831C821B8281E08C872BE130E03A8792
:1016C00029871D868B87BAAEA9AE82E08BAF83E0F7
:1016D0008CAFCE01C9960E94350AC12CD12C33E0C3
:1016E000E32E33E4F32E6115710519F1C12CD12CD1
:1016F00023E8E22E22E4F22E61307105D1F093E36B
:10170000C92EDC2C93E0E92E92E4F92E62307105AB
:1017100081F0C12CD12C40E8E42E4FE3F42E63304D
:10172000710539F483E3C82EDC2C83E8E82E81E4CC
:10173000F82EF80164A975A9072E000C880B990BE7
:101740000E94DB15A70196010E943815F801628BF3
:10175000738B848B958B66A977A9072E000C880B59
:10176000990B0E94DB15A70196010E943815F8011C
:10177000668B778B808F918F60AD71AD072E000CDB
:10178000880B990B0E94DB15A70196010E94381562
:10179000F801628F738F848F958FEC960FB6F89453
:1017A000DEBF0FBECDBFDF91CF911F910F91FF9094
:1017B000EF90DF90CF90BF90AF900895C12CD12CC7
:1017C000E12C66E4F62E39CF0F931F93CF93DF936E
:1017D0008C01EB01DC0114968D919C910E94620AB0
:1017E000D8011496ED91FC918FB7F89440911502B1
:1017F0005091160260911702709118028FBF9E01DE
:101800002C5F3F4F80E2D9011D928A95E9F784E26F
:1018100090E0A0E0B0E088839983AA83BB8382A58F
:1018200093A5B0E0A0E08C839D83AE83BF838DE061
:1018300090E0A0E0B0E088879987AA87BB87488BB3
:10184000598B6A8B7B8B82819381A481B5818C8B30
:101850009D8BAE8BBF8B81E0DF91CF911F910F915C
:101860000895CF92DF92EF92FF920F931F93CF9341
:10187000DF938C01EB01DC0114968D919C910E9409
:10188000620AF801048115818FB7F894C09015029F
:10189000D0901602E0901702F09018028FBFFE0160
:1018A000349680E2DF011D928A95E9F741E050E02D
:1018B00060E070E0488359836A837B83F80186A1E6
:1018C00097A1B0E0A0E08C839D83AE83BF8348875F
:1018D00059876A877B87C88AD98AEA8AFB8A2AE07D
:1018E00038EE4CE151E466817781808591850E94D4
:1018F00090166C8B7D8B8E8B9F8B2AE038EE4CE1A3
:1019000051E4D8011A966D917D918D919C911D970E
:101910000E949016688F798F8A8F9B8F2AE038EE0D
:101920004CE151E4F80166857785808991890E94B0
:1019300090166C8F7D8F8E8F9F8F81E0DF91CF917E
:101940001F910F91FF90EF90DF90CF9008950F932C
:101950001F93CF93DF938C01EB01DC0114968D91E3
:101960009C910E94620AF801048115818FB7F89456
:101970004091150250911602609117027091180261
:101980008FBFFE01349680E2DF011D928A95E9F750
:1019900081E090E0A0E0B0E088839983AA83BB83D4
:1019A000F80180A591A5B0E0A0E08C839D83AE8373
:1019B000BF8384E090E0A0E0B0E088879987AA87A1
:1019C000BB87488B598B6A8B7B8B25E33AEF4EE8BC
:1019D0005CE362897389848995890E9490166C8B77
:1019E0007D8B8E8B9F8B25E33AEF4EE85CE3D8012D
:1019F00056966D917D918D919C9159970E9490166C
:101A0000688F798F8A8F9B8F25E33AEF4EE85CE3EE
:101A1000F801628D738D848D958D0E9490166C8F68
:101A20007D8F8E8F9F8F81E0DF91CF911F910F91DE
:101A300008950C94C6170C94C6170C94C6179F9261
:101A4000AF92BF92CF92DF92EF92FF920F931F93CC
:101A5000CF93DF93CDB7DEB7AE970FB6F894DEBF66
:101A60000FBECDBF8C01DC0197965C934E93969789
:101A7000CA01019699969C938E9398974E5F5F4FFB
:101A80009B965C934E939A975E962D913C911FA2E4
:101A900018A619A61AA63F8B2E8B198E188E81E0D8
:101AA00089A34BE650E05F8F4E8F1AA288A31A8A53
:101AB0001B8A1C8A1D8A3A8329831C821B828C877D
:101AC00028E630E03A8729871D868B875E01B6E1DC
:101AD000AB0EB11CBCA6ABA68DA787E08EA741E0DC
:101AE00050E060E070E0CE018B960E94DE09CE01EE
:101AF0008B960E94350A613071058105910539F494
:101B000061E070E080E090E00E94FF00F0CF64E6CA
:101B100070E080E090E00E94FF0020E047E050E0AD
:101B200060E070E0FE0131966F01CF010E94E9058F
:101B300064E670E080E090E00E94FF00D8015E96CD
:101B40008D919C911A8A1B8A1C8A1D8A9A8389838B
:101B50001C821B82FF24F394FC8689E190E09A8723
:101B600089871D86FB8620E040E050E0BA01C6016F
:101B70000E94E905F801868D978D1A8A1B8A1C8AB6
:101B80001D8A9A8389831C821B82FC868AE190E0ED
:101B90009A8789871D86FB86DF8ACE8A83E0E82EB6
:101BA000E88E198E40E050E0BA01C5010E94DE09BE
:101BB000D8015E968D919C911A8A1B8A1C8A1D8A77
:101BC0009A8389831C821B82FC868BE190E09A8732
:101BD00089871D86FB86DF8ACE8A92E0992E988EB1
:101BE000E98E41E050E060E070E0C5010E94DE094E
:101BF000F801868D978D1A8A1B8A1C8A1D8A9A8302
:101C000089831C821B82FC868CE190E09A878987FD
:101C10001D86FB86DF8ACE8A988EE98E40E050E0F2
:101C2000BA01C5010E94DE09D8015E968D919C9192
:101C30001A8A1B8A1C8A1D8A9A8389831C821B82AA
:101C4000FC868BE690E09A8789871D86FB8620E0DC
:101C500041E050E060E070E0C6010E94E90564E602
:101C600070E080E090E00E94FF00F80180A191A167
:101C7000009739F0DC01ED91FC910280F381E02DB9
:101C80000995F80182A193A1009739F0DC01ED914B
:101C9000FC910280F381E02D0995F80184A195A1C2
:101CA000009739F0DC01ED91FC910280F381E02D89
:101CB000099586E090E00E942A17FC0186E291E0F7
:101CC0009183808380E596E09383828315830483E8
:101CD000D8019196FC93EE93909786E090E00E9455
:101CE0002A17FC0188E191E09183808381E596E0E9
:101CF0009383828315830483D8019396FC93EE9398
:101D0000929786E090E00E942A17FC018AE091E019
:101D10009183808382E596E0938382831583048395
:101D2000D8019596FC93EE93949781E0AE960FB60A
:101D3000F894DEBF0FBECDBFDF91CF911F910F9101
:101D4000FF90EF90DF90CF90BF90AF909F9008955D
:101D500085ED8093BC008091450290914602A09150
:101D60004702B09148020796A11DB11D23E0B69528
:101D7000A795979587952A95D1F72091BC0024FDCA
:101D800003C01092430208954091450250914602CB
:101D90006091470270914802452B462B472B69F30F
:101DA0000097A105B10541F02AE22A95F1F700C09C
:101DB0000197A109B109E1CF809144020C948502F9
:101DC0000F931F93CF93DF938C01EB0188E2FB010C
:101DD00011928A95E9F74BE050E069E671E0CE0197
:101DE0000E944F181B8681E090E0A0E0B0E08C8755
:101DF0009D87AE87BF87F80182819381092E000CF1
:101E0000AA0BBB0B888B998BAA8BBB8B8DE090E0C8
:101E1000A0E0B0E08C8B9D8BAE8BBF8B1CA21DA273
:101E20001EA21FA280E090E0A0E2B2EC8C8F9D8FFA
:101E3000AE8FBF8F80E090E0A2EDB2E4888F998FE3
:101E4000AA8FBB8F84E09DEAA0E4BBE388A399A39B
:101E5000AAA3BBA3DF91CF911F910F9108950F9378
:101E60001F93CF93DF938C01EB0188E2FB0111926A
:101E70008A95E9F74BE050E063E771E0CE010E94FC
:101E80004F181B8641E050E060E070E04C875D87B2
:101E90006E877F87F80182819381092E000CAA0B3F
:101EA000BB0B888B998BAA8BBB8B4C8B5D8B6E8B02
:101EB0007F8B1CA21DA21EA21FA28AE098EEACE19D
:101EC000B3EC8C8F9D8FAE8FBF8F8AE098EEACE124
:101ED000B3E4888F998FAA8FBB8F83E29BEDA9E72C
:101EE000BDE388A399A3AAA3BBA3DF91CF911F91C0
:101EF0000F9108950F931F93CF93DF938C01EB0104
:101F000088E2FB0111928A95E9F74BE050E06DE71A
:101F100071E0CE010E944F181B8681E090E0A0E0A6
:101F2000B0E08C879D87AE87BF87F801828193815F
:101F3000092E000CAA0BBB0B888B998BAA8BBB8B31
:101F400084E090E0A0E0B0E08C8B9D8BAE8BBF8BEB
:101F50001CA21DA21EA21FA287ED93EAABE0B2EC69
:101F60008C8F9D8FAE8FBF8F87ED93EAABE0B2E48D
:101F7000888F998FAA8FBB8F8AE99BEAABE0B9E380
:101F800088A399A3AAA3BBA3DF91CF911F910F911F
:101F900008951F920F920FB60F9211242F933F9323
:101FA0008F939F93AF93BF938091150290911602E8
:101FB000A0911702B09118023091140223E0230F70
:101FC0002D3758F50196A11DB11D20931402809361
:101FD000150290931602A0931702B09318028091F5
:101FE000190290911A02A0911B02B0911C02019655
:101FF000A11DB11D8093190290931A02A0931B0298
:10200000B0931C02BF91AF919F918F913F912F91FF
:102010000F900FBE0F901F90189526E8230F029681
:10202000A11DB11DD2CF1F920F920FB60F92112496
:102030002F933F934F935F936F937F938F939F93D0
:10204000AF93BF93EF93FF938DE692E00E94B101AF
:10205000FF91EF91BF91AF919F918F917F916F9180
:102060005F914F913F912F910F900FBE0F901F9056
:1020700018951F920F920FB60F9211242F938F93E2
:102080009F93EF93FF93E0917D02F0917E02808118
:10209000E0918302F091840282FD1BC090818091C7
:1020A00086028F5F8F7320918702821741F0E09143
:1020B0008602F0E0E359FD4F958F80938602FF91F1
:1020C000EF919F918F912F910F900FBE0F901F90C6
:1020D00018958081F4CF1F920F920FB60F921124A2
:1020E0002F933F934F935F936F937F938F939F9320
:1020F000AF93BF93EF93FF938091B900887F8036B1
:1021000009F44AC0F0F5883209F4A7C018F5803107
:1021100009F49BC0B8F4882309F4F9C0883009F4A5
:1021200094C0FF91EF91BF91AF919F918F917F915B
:102130006F915F914F913F912F910F900FBE0F9034
:102140001F901895883109F488C0803251F7809328
:10215000410214C0803409F49DC040F48033B9F3C7
:102160008833F9F68093410285ECB0C0803509F4DC
:1021700085C0883509F496C0883499F60E94A80E67
:10218000D0CF883909F48CC038F5883729F050F45D
:10219000883611F0803729F683E08093430210924D
:1021A0000D0257C0883809F47BC0803919F0803897
:1021B00009F0B7CF80910D02803208F071C0E09134
:1021C0000D0281E08E0F80930D028091BB00F0E044
:1021D000E351FE4F80833DC0803B39F0E0F4803A0C
:1021E00009F479C0883A09F09CCF84E080934302D7
:1021F0001092EC011092EB01E0910E02F0910F02AF
:1022000009958091EB0181110FC081E08093EB0172
:102210001092CB0109C0803C09F4A6CF883C09F498
:10222000A3CF883B09F07DCFE091EC0181E08E0FD8
:102230008093EC01F0E0E553FE4F80818093BB007A
:102240009091EC018091EB0129C080911E02809356
:10225000BB0085EC8093BC0064CF909140028091DC
:102260003F02981758F5E091400281E08E0F80936D
:102270004002F0E0E15EFD4F8081E9CFE091400255
:1022800081E08E0F809340028091BB00F0E0E15E20
:10229000FD4F80839091400280913F029817C8F2D1
:1022A00085E8D8CFE091400281E08E0F8093400214
:1022B0008091BB00F0E0E15EFD4F8083809142029F
:1022C00081115CCF81E080931D0284EA8093BC0081
:1022D0001092430226CF85EC8093BC0010924302FB
:1022E00080910D02803230F4E0910D02F0E0E35174
:1022F000FE4F108260910D0270E0E0911002F091AB
:1023000011028DEE91E0099510920D020ACF109204
:10231000410234CFEDE6F2E01382128288EE93E0C0
:10232000A0E0B0E084839583A683B78324E331E003
:102330003183208325EC30E03587248724EC30E09E
:102340003787268720EC30E0318B208B21EC30E082
:10235000338B228B22EC30E0358B248B26EC30E063
:10236000378B268B118E128E138E148EEAE0F3E0DB
:102370001382128284839583A683B78386E491E0D7
:1023800091838083E6E1F3E088E591E091838083A7
:10239000178E168E11A210A213A212A215A214A2B9
:1023A0000895CF93DF93CDB7DEB7C257D1090FB6EB
:1023B000F894DEBF0FBECDBF789484B5826084BD33
:1023C00084B5816084BD85B5826085BD85B5816039
:1023D00085BD80916E00816080936E0010928100B7
:1023E0008091810082608093810080918100816072
:1023F0008093810080918000816080938000809133
:10240000B10084608093B1008091B00081608093BE
:10241000B00080917A00846080937A0080917A0085
:10242000826080937A0080917A00816080937A0044
:1024300080917A00806880937A001092C100E091C8
:102440007D02F0917E0282E08083E0917902F0913A
:102450007A021082E0917B02F0917C0280E180831D
:1024600010928502E0918102F091820286E08083E1
:10247000E0917F02F0918002808180618083E09111
:102480007F02F0918002808188608083E0917F02EA
:10249000F0918002808180688083E0917F02F091DA
:1024A000800280818F7D808387E891E00E941507FC
:1024B0008091340390913503009711F00E94C61764
:1024C00086E090E00E942A17FC0188E680838AE07B
:1024D00093E092838183138280E290E095838483EA
:1024E000F0933503E093340305E041E3C42E41E06B
:1024F000D42E52E3A52E51E0B52E11E0E090340326
:10250000F0903503109213021092120210924A02B8
:1025100010926C020E946702D0920F02C0920E02CB
:10252000B0921102A0921002D70113961C93C7011A
:102530000E94B005811113C06AE070E080E090E075
:102540000E94FF000150D1F68DE891E00E9415072E
:102550006AE070E080E090E00E94FF00F9CF809197
:102560003403909135031A8A1B8A1C8A1D8A9A8328
:1025700089831C821B821C8785E790E09A87898764
:102580001D861B87CE0101967C010E94AD0968362D
:10259000710581059105C1F640E050E0BA0186E180
:1025A00093E00E941F0D882379F28091340390916B
:1025B00035031A8A1B8A1C8A1D8A9A8389831C8286
:1025C0001B821C878CE190E09A8789871D861B8778
:1025D000FEA2EDA282E0D82EDFA203E008A742E02F
:1025E00050E060E070E0CE0185960E94DE098091A7
:1025F0003403909135031A8A1B8A1C8A1D8A9A8398
:1026000089831C821B821C878BE190E09A878987D3
:102610001D861B87FEA2EDA2DFA208A741E050E0C5
:1026200060E070E0CE0185960E94DE09809134035F
:10263000909135031A8A1B8A1C8A1D8A9A83898382
:102640001C821B821C878AE190E09A8789871D86FD
:102650001B87FEA2EDA20FA318A644E050E060E0A5
:1026600070E0CE0185960E94DE0987E991E00E9424
:102670001507FE013D96AF96FFAFEEAFAF9718E19D
:1026800089E490E08C0F9D1F0C96E3969FAF8EAF70
:10269000E397C12CD12C7601C394DE01D196E1964B
:1026A000BFAFAEAFE19724E0422E512C612C712CCC
:1026B00030E0232E30E0332E8FB7F894809015024F
:1026C00090901602A0901702B09018028FBF86E17A
:1026D00093E00E94620AAF96EEADFFADAF97812FF7
:1026E00011928A95E9F784E290E0A0E0B0E0898356
:1026F0009A83AB83BC838091400390914103B0E007
:10270000A0E08D839E83AF83B8878DE090E0A0E04A
:10271000B0E089879A87AB87BC87898A9A8AAB8A17
:10272000BC8A8091180390911903A0911A03B0916B
:102730001B038D8B9E8BAF8BB88FE396AEADBFAD79
:10274000E397E12F1D92EA95E9F72D96CCAEDDAE29
:10275000EEAEFFAE2D9780913C0390913D03B0E02B
:10276000A0E061968CAF9DAFAEAFBFAF61976596AD
:10277000CCAEDDAEEEAEFFAE65976D968CAE9DAE87
:10278000AEAEBFAE6D972AE038EE4CE151E46091F9
:102790001C0370911D0380911E0390911F030E94E2
:1027A0009016A1966CAF7DAF8EAF9FAFA1972AE038
:1027B00038EE4CE151E46091200370912103809147
:1027C0002203909123030E949016A5966CAF7DAFD3
:1027D0008EAF9FAFA5972AE038EE4CE151E46091AF
:1027E00024037091250380912603909127030E9472
:1027F0009016A9966CAF7DAF8EAF9FAFA997E1966B
:10280000AEADBFADE197E12F1D92EA95E9F7CDA2FC
:10281000DEA2EFA2F8A680913E0390913F03B0E0C4
:10282000A0E089A79AA7ABA7BCA74DA65EA66FA6F6
:1028300078AA8DAA9EAAAFAAB8AE25E33AEF4EE8D1
:102840005CE3609128037091290380912A039091A1
:102850002B030E94901669AF7AAF8BAF9CAF25E334
:102860003AEF4EE85CE360912C0370912D03809168
:102870002E0390912F030E94901621966CAF7DAF8E
:102880008EAF9FAF219725E33AEF4EE85CE360916E
:1028900030037091310380913203909133030E9491
:1028A000901625966CAF7DAF8EAF9FAF25978DE9C3
:1028B00091E00E94C406A9966CAD7DAD8EAD9FAD32
:1028C000A99742E00E94230781EA91E00E94C40692
:1028D00069AD7AAD8BAD9CAD43E00E94230786EADB
:1028E00091E00E94C4066D897E898F89988D42E0AF
:1028F0000E9423078AE591E00E94C40664E670E026
:1029000080E090E00E94FF002114310409F4D4CE4D
:102910000E949D01882309F4CFCE0E940000CCCEF6
:1029200088E591E090931703809316038091360316
:1029300090913703009739F0DC01ED91FC91028012
:10294000F381E02D09958091380390913903009728
:1029500039F0DC01ED91FC910280F381E02D0995C5
:1029600080913A0390913B03009739F0DC01ED919F
:10297000FC910280F381E02D0995809134039091C0
:102980003503009711F00C94C61708955058BB27D3
:10299000AA270E94DE140C9451160E94431638F0A8
:1029A0000E944A1620F039F49F3F19F426F40C9443
:1029B00040160EF4E095E7FB0C943A16E92F0E94BE
:1029C000621658F3BA17620773078407950720F059
:1029D00079F4A6F50C9484160EF4E0950B2EBA2F1C
:1029E000A02D0B01B90190010C01CA01A001112415
:1029F000FF27591B99F0593F50F4503E68F11A16C1
:102A0000F040A22F232F342F4427585FF3CF469551
:102A100037952795A795F0405395C9F77EF41F1673
:102A2000BA0B620B730B840BBAF09150A1F0FF0F3D
:102A3000BB1F661F771F881FC2F70EC0BA0F621F29
:102A4000731F841F48F4879577956795B795F79519
:102A50009E3F08F0B0CF9395880F08F09927EE0FAE
:102A60009795879508950E94161608F481E00895B9
:102A70000E944C150C9451160E944A1658F00E9460
:102A8000431640F029F45F3F29F00C943A16511197
:102A90000C9485160C9440160E94621668F39923D4
:102AA000B1F3552391F3951B550BBB27AA2762174A
:102AB0007307840738F09F5F5F4F220F331F441F57
:102AC000AA1FA9F335D00E2E3AF0E0E832D091508B
:102AD0005040E695001CCAF72BD0FE2F29D0660F78
:102AE000771F881FBB1F261737074807AB07B0E8BB
:102AF00009F0BB0B802DBF01FF2793585F4F3AF0C1
:102B00009E3F510578F00C943A160C9485165F3F61
:102B1000E4F3983ED4F3869577956795B795F79546
:102B20009F5FC9F7880F911D9695879597F908952E
:102B3000E1E0660F771F881FBB1F621773078407CA
:102B4000BA0720F0621B730B840BBA0BEE1F88F7D9
:102B5000E09508950E946A1688F09F5798F0B92F63
:102B60009927B751B0F0E1F0660F771F881F991FC2
:102B70001AF0BA95C9F714C0B13091F00E948416CA
:102B8000B1E008950C948416672F782F8827B85FDA
:102B900039F0B93FCCF3869577956795B395D9F71A
:102BA0003EF490958095709561957F4F8F4F9F4F24
:102BB0000895E89409C097FB3EF490958095709530
:102BC00061957F4F8F4F9F4F9923A9F0F92F96E979
:102BD000BB279395F695879577956795B795F111EE
:102BE000F8CFFAF4BB0F11F460FF1BC06F5F7F4F8B
:102BF0008F4F9F4F16C0882311F096E911C077239D
:102C000021F09EE8872F762F05C0662371F096E8A5
:102C1000862F70E060E02AF09A95660F771F881F74
:102C2000DAF7880F9695879597F90895990F000818
:102C3000550FAA0BE0E8FEEF16161706E807F9078E
:102C4000C0F012161306E407F50798F0621B730B29
:102C5000840B950B39F40A2661F0232B242B252BAA
:102C600021F408950A2609F4A140A6958FEF811D4D
:102C7000811D089597F99F6780E870E060E00895EE
:102C80009FEF80EC089500240A9416161706180684
:102C90000906089500240A94121613061406050660
:102CA0000895092E0394000C11F4882352F0BB0FF1
:102CB00040F4BF2B11F460FF04C06F5F7F4F8F4F54
:102CC0009F4F089557FD9058440F551F59F05F3F8F
:102CD00071F04795880F97FB991F61F09F3F79F03E
:102CE00087950895121613061406551FF2CF4695C0
:102CF000F1DF08C0161617061806991FF1CF869542
:102D00007105610508940895E894BB276627772725
:102D1000CB0197F908950E94161608F48FEF0895D5
:102D20000E94A3160C9451160E94431638F00E947C
:102D30004A1620F0952311F00C943A160C94401684
:102D400011240C9485160E94621670F3959FC1F3AE
:102D5000950F50E0551F629FF001729FBB27F00D49
:102D6000B11D639FAA27F00DB11DAA1F649F66279E
:102D7000B00DA11D661F829F2227B00DA11D621FED
:102D8000739FB00DA11D621F839FA00D611D221FA7
:102D9000749F3327A00D611D231F849F600D211D8B
:102DA000822F762F6A2F11249F5750409AF0F1F00E
:102DB00088234AF0EE0FFF1FBB1F661F771F881F77
:102DC00091505040A9F79E3F510580F00C943A165F
:102DD0000C9485165F3FE4F3983ED4F3869577957F
:102DE0006795B795F795E7959F5FC1F7FE2B880F1D
:102DF000911D9695879597F908950E941616880B50
:102E0000990B0895A1E21A2EAA1BBB1BFD010DC050
:102E1000AA1FBB1FEE1FFF1FA217B307E407F5078A
:102E200020F0A21BB30BE40BF50B661F771F881F66
:102E3000991F1A9469F760957095809590959B01FC
:102E4000AC01BD01CF010895EE0FFF1F0590F49175
:102E5000E02D09940F931F93CF93DF938230910558
:102E600010F482E090E0E0915203F091530330E0DF
:102E700020E0B0E0A0E0309799F42115310509F485
:102E80004AC0281B390B24303105D8F58A819B8133
:102E90006115710589F1FB0193838283FE0111C0E5
:102EA000408151810281138148175907E0F048178A
:102EB000590799F4109761F012960C931297139694
:102EC0001C933296CF01DF91CF911F910F910895FE
:102ED0000093520310935303F4CF2115310551F0A1
:102EE0004217530738F0A901DB019A01BD01DF0148
:102EF000F801C1CFEF01F9CF9093530380935203B0
:102F0000CDCFFE01E20FF31F81939193225031093F
:102F100039832883D7CF2091500330915103232B3D
:102F200041F4209102013091030130935103209329
:102F3000500320910001309101012115310541F428
:102F40002DB73EB74091040150910501241B350B6C
:102F5000E0915003F0915103E217F307A0F42E1B08
:102F60003F0B2817390778F0AC014E5F5F4F2417ED
:102F7000350748F04E0F5F1F5093510340935003A5
:102F8000819391939FCFF0E0E0E09CCFCF93DF93CC
:102F90000097E9F0FC01329713821282A09152034C
:102FA000B0915303ED0130E020E01097A1F42081AF
:102FB0003181820F931F20915003309151032817C4
:102FC000390709F061C0F0935103E0935003DF919A
:102FD000CF910895EA01CE17DF07E8F54A815B81BA
:102FE0009E0141155105B1F7E901FB83EA8349913F
:102FF0005991C40FD51FEC17FD0761F480819181B1
:103000000296840F951FE9019983888382819381B9
:103010009B838A83F0E0E0E012968D919C91139758
:103020000097B9F52D913C911197CD010296820F31
:10303000931F20915003309151032817390739F617
:10304000309751F51092530310925203B0935103ED
:10305000A0935003BCCFD383C28340815181840F9E
:10306000951FC817D90761F44E5F5F4F888199811A
:10307000480F591F518340838A819B8193838283A8
:103080002115310509F0B0CFF0935303E0935203BB
:103090009ECFFD01DC01C0CF13821282D7CFFB018E
:1030A000DC014150504048F001900D920020C9F7DA
:1030B00001C01D9241505040E0F7089510E0C8E56E
:1030C000D0E004C0FE010E9424172196C935D10723
:0630D000C9F7F894FFCFE0
:1030D60000005403800000000000C206190DC3065C
:1030E600A70C7A0F00000000C2061B0DC306310CA8
:1030F6002F0F00000000C2061D0DC306E40BE00EF4
:1031060000000000D30133016001200291016F012C
:10311600830100000000ED03C0031C049603B903FD
:10312600A6039703000000001F0D0D0A006E616ED6
:1031360000696E66006F7666004D50553630353044
:103146005F54004D5055363035305F41004D505577
:10315600363035305F4700424547494E004E4F54A2
:1031660020464F554E4400524541445900415A3D70
:0A317600002047583D0020543D00A2
:00000001FF
