:100000000C9477000C949F000C949F000C949F001C
:100010000C949F000C949F000C949F000C949F00E4
:100020000C949F000C949F000C949F000C949F00D4
:100030000C949F000C949F000C949F000C949F00C4
:100040000C94CC0F0C949F000C943C100C94161044
:100050000C949F000C949F000C949F000C949F00A4
:100060000C949F000C949F00444F4E450043484918
:10007000503A0053554D3A0053443A4F4B005344C5
:100080003A4641494C00434849503A0000000008B4
:10009000000201000003040700000000000000004F
:1000A00000000000250028002B00000000002400B4
:1000B00027002A00040404040404040402020202C7
:1000C000020203030303030301020408102040801B
:1000D0000102040810200102040810207C3C3E5E4E
:1000E0002B3D3F2F5B5D3B2C2A225C006E101124C0
:1000F0001FBECFEFD8E0DEBFCDBF11E0A0E0B1E082
:10010000E4EDF8E202C005900D92A634B107D9F7EC
:1001100024E0A6E4B1E001C01D92A434B207E1F7E7
:1001200010E0C7E7D0E004C02197FE010E9412133F
:10013000C637D107C9F70E94B6100C9468140C9406
:10014000000090E0FC01E853FF4F24918C549F4F36
:10015000FC018491882399F090E0880F991FFC019D
:10016000E655FF4FA591B491FC01E056FF4F8591F4
:1001700094918FB7F894EC91E22BEC938FBF089594
:1001800090E0FC01E457FF4F2491FC01E853FF4F3E
:100190003491FC01EC54FF4FE491EE23C9F022238B
:1001A00039F0233001F1A8F4213019F1223029F17E
:1001B000F0E0EE0FFF1FE056FF4FA591B4918FB70F
:1001C000F894EC91611126C030953E233C938FBF8B
:1001D00008952730A9F02830C9F0243049F78091DC
:1001E00080008F7D03C0809180008F778093800096
:1001F000DFCF84B58F7784BDDBCF84B58F7DFBCF18
:100200008091B0008F778093B000D2CF8091B00002
:100210008F7DF9CF3E2BDACF2FB7F8946091510143
:100220007091520180915301909154012FBF089514
:10023000AF92BF92CF92DF92EF92FF920F931F93F4
:10024000CF93DF936C017B018B01040F151FEB0132
:100250005E01AE18BF08C017D10759F06991D601E9
:10026000ED91FC910190F081E02DC6010995892B5B
:1002700079F7C501DF91CF911F910F91FF90EF901A
:10028000DF90CF90BF90AF900895FC01538D448DC7
:10029000252F30E0842F90E0821B930B541710F031
:1002A000CF96089501970895FC01918D828D98173E
:1002B00061F0A28DAE0FBF2FB11D5D968C91928D16
:1002C0009F5F9F73928F90E008958FEF9FEF089547
:1002D000FC01918D828D981731F0828DE80FF11D10
:1002E000858D90E008958FEF9FEF0895FC01918D2B
:1002F000228D892F90E0805C9F4F821B91098F7324
:100300009927089588E593E00E94760121E0892BE2
:1003100009F420E0822F089580E090E0892B29F0F5
:100320000E94820181110C9400000895FC01A48DAB
:10033000A80FB92FB11DA35ABF4F2C91848D90E007
:1003400001968F739927848FA689B7892C93A089EA
:10035000B1898C91837080648C93938D848D981374
:1003600006C00288F389E02D80818F7D8083089507
:10037000EF92FF920F931F93CF93DF93EC0181E0F5
:10038000888F9B8D8C8D98131AC0E889F98980819C
:1003900085FF15C09FB7F894EE89FF896083E889CF
:1003A000F98980818370806480839FBF81E090E0C1
:1003B000DF91CF911F910F91FF90EF900895F62E4E
:1003C0000B8D10E00F5F1F4F0F731127E02E8C8DE8
:1003D0008E110CC00FB607FCFACFE889F98980812D
:1003E00085FFF5CFCE010E949601F1CFEB8DEC0F8A
:1003F000FD2FF11DE35AFF4FF0829FB7F8940B8F4A
:10040000EA89FB8980818062CFCF0F931F93CF93BE
:10041000DF938C01D0E0C0E0F801EC0FFD1F649188
:10042000662341F088E593E00E94B801892B11F022
:100430002196F2CFCE01DF91CF911F910F910895B8
:10044000CF93DF93EC01888D8823B9F0AA89BB890B
:10045000E889F9898C9185FD03C0808186FD0DC0F6
:100460000FB607FCF7CF8C9185FFF2CF808185FF17
:10047000EDCFCE010E949601E9CFDF91CF91089593
:100480008EBD00000DB407FEFDCF8EB508958FEF31
:100490000C9440020F931F93CF93DF93EC010E94C3
:1004A0000C018B010E9447028F3F69F00E940C01F2
:1004B000601B710B6C177D07A8F380E0DF91CF9173
:1004C0001F910F91089581E0F9CFFC01DB01129695
:1004D0008D919C9113979383828382E391E0918322
:1004E000808314968C911497848315968C9115971C
:1004F000858316964D915D916D917C9119974683F8
:100500005783608771871A964D915D916D917C91AB
:100510001D9742875387648775871E964D915D911D
:100520006D917C91519746875787608B718B52965E
:100530008C915297828B53964D915D916D917C91E8
:100540005697438B548B658B768B57964D915D9167
:100550006D917C915A97478B508F618F728F5B960C
:100560008D919C91948F838F08950895DC01599605
:10057000ED91FC913097B9F083899489A589B6896A
:100580004285538564857585841B950BA60BB70B37
:10059000811520E89207A105B10538F08FEF9FE79C
:1005A000A0E0B0E0089590E080E00895DC01599665
:1005B0008D919C91009739F0DC01ED91FC910480C4
:1005C000F581E02D099490E080E00895CF93DF93CA
:1005D0001F92CDB7DEB76983DC01ED91FC910280FB
:1005E000F381E02D41E050E0BE016F5F7F4F099540
:1005F0000F90DF91CF910895CF93CFB7F89480916A
:100600004601811124C0EEEBF0E08491E2EDF0E0D0
:100610009491E82FF0E0EE0FFF1FE655FF4FA591F4
:10062000B491EC91E92321F461E08AE00E94C000DA
:100630008AE00E94A1008CB580618CBD8CB580647D
:100640008CBD8DE00E94A1008BE00E94A1008091F2
:1006500046018F5F80934601CFBFCF9108950895E3
:1006600061E0FC0184810E94C000809147018111FA
:100670001092470108958CBD9DBD0895CF93DF93DF
:10068000EC0180914701811109C081E0809347010D
:100690008091F5039091F6030E943B0360E08C810A
:1006A000DF91CF910C94C0008F929F92AF92BF9236
:1006B000FF920F931F93CF93DF93EC01F62E490126
:1006C0005A018E81882389F08F8198859C012F5F44
:1006D0003F4F38872F838230924018F40E944702A0
:1006E000F3CFCE010E9430031E82CE010E943E0352
:1006F0008CE291E00E944A028F2D80640E944002A9
:1007000008E110E0D501C401002E04C0B695A795FC
:10071000979587950A94D2F70E94400208501109D4
:10072000083F8FEF180771F785E9FF2021F028E0D7
:1007300087E8F2128FEF0E94400210E00E94470209
:100740008A8787FF04C01F3F11F01F5FF7CFDF913B
:10075000CF911F910F91FF90BF90AF909F908F907E
:100760000895AF92BF92CF92DF92EF92FF920F93D4
:100770001F93CF93DF93EC016901C801820F931F90
:100780008130924050F58E81882379F0888199815B
:10079000AA81BB8184179507A607B70731F48F811B
:1007A0009885C816D90608F042C0488359836A83E1
:1007B0007B838B85833039F089E0440F551F661F9A
:1007C000771F8A95D1F79A01AB0161E1CE010E94B2
:1007D0005403882389F083E08D83CE010E94300387
:1007E00080E0DF91CF911F910F91FF90EF90DF900C
:1007F000CF90BF90AF9008950E940C015B010E94C2
:1008000047028A878F3F69F40E940C016A197B09AD
:100810006D327140A0F38FE08D83CE010E943003D2
:10082000DCCF8E3F89F418861F8281E08E838F8112
:1008300098858C159D0550F40E9447028F819885FC
:10084000019698878F83F3CF8DE0E6CF6701E00EA6
:10085000F11E0E944702F60181936F01EE15FF051C
:10086000C1F78F819885080F191F18870F83898515
:10087000882319F001151240A0F08E81882389F099
:100880008F8198859C012F5F3F4F38872F8382305F
:10089000924018F40E944702F3CFCE010E94300329
:1008A0001E8281E09ECFCF92DF92EF92FF920F9354
:1008B000CF93DF93EC01690182E141155105610598
:1008C000710599F08B85833039F089E0440F551F0D
:1008D000661F771F8A95D1F79A01AB0168E1CE01B7
:1008E0000E945403882319F084E08D832DC08EEF7D
:1008F0000E94400276018EEFD81AF70181917F01A4
:100900000E944002EC14FD04C1F78FEF0E944002E8
:100910008FEF0E9440020E9447028A878F718530C4
:1009200071F4011116C0CE010E94300381E0DF9105
:10093000CF910F91FF90EF90DF90CF90089581E1DC
:100940008D83CE010E943003CE010E94300380E0EF
:10095000EECF88E592E00E944A02811102C085E153
:10096000C4CF20E030E0A9016DE0CE010E94540325
:10097000882311F084E1B9CF0E9447028111FACF98
:10098000D2CF0F93409148015091490160914A01A3
:1009900070914B01411551056105710599F0082FC2
:1009A00028E531E080915501909156010E94530451
:1009B000882349F0109248011092490110924A018F
:1009C00010924B0181E00F9108950F93CF93C82FA0
:1009D00080915701811105C0C1E08C2FCF910F91FB
:1009E00008954091000150910101609102017091C0
:1009F00003010C2F28E531E08091550190915601BB
:100A00000E945304811102C0C0E0E7CFCC2321F340
:100A100081E00E94C1048823B9F310925701DDCF11
:100A20008F929F92AF92BF92EF92FF920F931F937C
:100A3000CF934B015C01C42F809100019091010183
:100A4000A0910201B091030188159905AA05BB0583
:100A500051F181E00E94E50481110BC080E0CF914B
:100A60001F910F91FF90EF90BF90AF909F908F904C
:100A7000089588E5E82E81E0F82E00E012E030E0ED
:100A800020E0B501A40180915501909156010E948A
:100A9000B103882319F38092000190920101A09282
:100AA0000201B0920301409157014C2B4093570132
:100AB00081E0D5CF8F929F92AF92BF92CF92DF927B
:100AC000EF92FF92CF9327EF33E0309356012093BC
:100AD0005501882309F46DC040E060E070E0CB016F
:100AE0000E94100581110BC080E0CF91FF90EF9024
:100AF000DF90CF90BF90AF909F908F90089580919E
:100B000016038F7789F78091220390912303A09198
:100B10002403B091250384369105A105B10520F386
:100B2000C0901E03D0901F03E0902003F09021039B
:100B3000C114D104E104F104B9F240E0C701B601E7
:100B40000E941005882381F28091630190916401D5
:100B50008115924049F6A0916801AA2329F260917B
:100B60006601709167016115710509F4BDCF20918F
:100B70006501222309F4B8CFA0931504209307043C
:100B800090E080E030E0E1E0F0E0C82FAF01082E17
:100B900002C0440F551F0A94E2F72417350769F085
:100BA00041E0480F01968930910579F74093100490
:100BB0009BCFC12CD12C7601C0CF80931004209103
:100BC0006E0130916F0150E040E02115310541F494
:100BD00020917C0130917D0140917E0150917F01F7
:100BE000209308043093090440930A0450930B04A3
:100BF00046015701860E971EA11CB11C8092160457
:100C000090921704A0921804B0921904E09169011F
:100C1000F0916A01F0931C04E0931B04B0E00E9481
:100C20000713DC01CB01880D991DAA1DBB1D809304
:100C30001D0490931E04A0931F04B093200425E08C
:100C4000EE0FFF1F2A95E1F7E150FE4FEF2FFF2730
:100C5000E6958E0F9F1FA11DB11D809311049093E7
:100C60001204A0931304B093140480906B0190902D
:100C70006C01B12CA12C8114910441F48090780175
:100C800090907901A0907A01B0907B01C81AD90A9E
:100C9000EA0AFB0AC80CD91CEA1CFB1C04C0F69427
:100CA000E794D794C794CA95D2F7C0920C04D09217
:100CB0000D04E0920E04F0920F0485EFC8168FE049
:100CC000D806E104F10428F48CE080931A0481E052
:100CD0000CCF80E125EFC2162FEFD206E104F1041C
:100CE000A0F38091840190918501A0918601B0913B
:100CF000870180931D0490931E04A0931F04B0935A
:100D0000200480E2E2CF4F925F926F927F928F92A7
:100D10009F92AF92BF92CF92DF92EF92FF920F938A
:100D20001F93CF93DF93EC014230510561057105AC
:100D300090F480E0DF91CF911F910F91FF90EF90A1
:100D4000DF90CF90BF90AF909F908F907F906F90EB
:100D50005F904F90089589859A85AB85BC850196F3
:100D6000A11DB11D84179507A607B70710F3CB88FF
:100D7000DC88ED88FE888F89803109F042C0BB276E
:100D8000A72F962F852F480159012A013B01C80E34
:100D9000D91EEA1EFB1E8091000190910101A091D5
:100DA0000201B0910301C816D906EA06FB0699F5BF
:100DB0008F898031C1F5B301A201552766277727B6
:100DC000440F551F485A5E4FFA01918280828091EC
:100DD00057018160809357018A89823080F08D812C
:100DE0009E81AF81B8858C0D9D1DAE1DBF1D80936A
:100DF000480190934901A0934A01B0934B0181E0CF
:100E000099CFDB01CA01E7E0B695A795979587953D
:100E1000EA95D1F7B8CF40E0C701B6010E941005AE
:100E20008111C6CF86CFB301A2014F775527662720
:100E30007727440F551F440F551F485A5E4FFA013C
:100E400080829182A282B382C2CF8F929F92AF9210
:100E5000BF92CF92DF92EF92FF920F931F93CF93A7
:100E6000DF93FC0181859285A385B4850196A11D40
:100E7000B11D84179507A607B70770F480E0DF91CE
:100E8000CF911F910F91FF90EF90DF90CF90BF9087
:100E9000AF909F908F90089583889488A588B68896
:100EA0008789803189F5BB27A72F962F852FE901E8
:100EB0006A017B018F01BC01CD01680D791D8A1D7E
:100EC0009B1D8090000190900101A0900201B090C4
:100ED000030186169706A806B90601F5F801878969
:100EE000803111F5DD24EE24FF24F601EE0FFF1F03
:100EF000E85AFE4F80819181B0E0A0E08883998319
:100F0000AA83BB8381E0BBCFDB01CA01C7E0B695F2
:100F1000A79597958795CA95D1F7C9CF40E00E94CC
:100F200010058111DBCFAACFE894C7F8DD24EE24A9
:100F3000FF24F601EE0FFF1FEE0FFF1FE85AFE4FD2
:100F400080819181A281B381BF70D8CF4F925F928F
:100F50006F927F92AF92BF92CF92DF92EF92FF9209
:100F60000F931F93CF93DF9300D000D0CDB7DEB7A0
:100F70008C0149835A836B837C835901C12CD12C0A
:100F80007601412C82E0582E612C712C49815A81C6
:100F90006B817C819E012F5F3F4FC8010E94250716
:100FA000882339F1F8018585A301920104C0220F3D
:100FB000331F441F551F8A95D2F7DA01C901C80EA5
:100FC000D91EEA1EFB1E49815A816B817C8187896B
:100FD000803111F188EF9FEFAFEFBFE0481759075D
:100FE0006A077B0798F2F501C082D182E282F38220
:100FF00081E00F900F900F900F90DF91CF911F9194
:101000000F91FF90EF90DF90CF90BF90AF907F90C7
:101010006F905F904F90089588EF9FEFA0E0B0E051
:10102000DDCFCF93DF93FC012581222321F080E0E7
:10103000DF91CF910895EC0180911A04803159F528
:1010400082E08583178A108E118E128E80911B0488
:1010500090911C04B0E0A0E025E0880F991FAA1F22
:10106000BB1F2A95D1F7838B948BA58BB68B83E01E
:1010700094E09C8F8B8F81E08C831E821F82188668
:1010800019861A861B861C861D861E861F86188A50
:10109000198A1A8ACDCF803251F683E08583409138
:1010A0001D0450911E0460911F0470912004478B11
:1010B000508F618F728F9F012D5E3F4F83E094E0D0
:1010C0000E94A6078111D3CFB2CF8F929F92AF9289
:1010D000BF92CF92DF92EF92FF920F931F93CF9325
:1010E000DF93EC018D8181110EC080E0DF91CF9103
:1010F0001F910F91FF90EF90DF90CF90BF90AF9036
:101100009F908F9008950B891C892D893E89041723
:1011100015072607370748F34A015B01823031F48F
:101120008A869B86AC86BD8681E0E0CF81149104DF
:10113000A104B10449F41E821F82188619861A86FA
:101140001B861C861D86F0CF0A851B852C853D8558
:10115000EB8DFC8D858590E00996B901A801415081
:10116000510961097109082E04C076956795579554
:1011700047950A94D2F775016401E1E0CE1AD108CF
:10118000E108F10804C0F694E794D794C7948A95CF
:10119000D2F7C416D506E606F70620F0012B022B7F
:1011A000032B11F58F89988DA98DBA8D8E839F831E
:1011B000A887B9878E010A5F1F4FC114D104E104CB
:1011C000F10409F4ADCF4E815F816885798598017E
:1011D0008B8D9C8D0E94250791E0C91AD108E108EA
:1011E000F1088111EACF81CFC41AD50AE60AF70ABD
:1011F000E1CF3F924F925F926F927F928F929F9238
:10120000AF92BF92CF92DF92EF92FF920F931F9314
:10121000CF93DF93CDB7DEB72C970FB6F894DEBF30
:101220000FBECDBF5C01DC015B968D909C905C97FE
:1012300016964D905D906D907C90199741145104D5
:101240006104710409F468C0BFEF4B1A5B0A6B0AB2
:101250007B0A312CF40181859285A385B4859C019C
:10126000AD012F5F3F4F4F4F5F4F29873A874B8725
:101270005C87730162011D821E821F821886F40141
:1012800081859285A385B4852D813E814F815885C6
:10129000281739074A075B0708F056C089859A85E1
:1012A000AB85BC858C159D05AE05BF0550F482E06D
:1012B000C82ED12CE12CF12C92E0492E512C612C1E
:1012C000712C9E012F5F3F4FB701A601C4010E9400
:1012D00025078823C9F189819A81AB81BC81892B3B
:1012E0008A2B8B2B09F1260137019FEF491A590AE6
:1012F000690A790A2D813E814F8158852F5F3F4FC2
:101300004F4F5F4F2D833E834F8358873FEFC31A64
:10131000D30AE30AF30AB3CFF4014080518062801C
:1013200073803324339496CFC414D504E604F704B1
:1013300009F70FEF1FEF2FEF3FE0B701A601C40140
:101340000E948306811119C080E02C960FB6F89494
:10135000DEBF0FBECDBFDF91CF911F910F91FF90E8
:10136000EF90DF90CF90BF90AF909F908F907F9045
:101370006F905F904F903F900895D50116964D91D4
:101380005D916D917C91199741155105610571052C
:1013900039F097018601C4010E9483068823A1F2D7
:1013A000D5011696CD92DD92ED92FC9219973320DD
:1013B00051F0D701C6010196A11DB11DF401808332
:1013C0009183A283B383F5018789908DA18DB28D1E
:1013D000892B8A2B8B2B39F48481C78AD08EE18E9E
:1013E000F28E80688483F50184818062848381E049
:1013F000ACCF2F923F924F925F926F927F928F92DB
:101400009F92AF92BF92CF92DF92EF92FF920F9393
:101410001F93CF93DF93EC015B012A018D81811132
:1014200015C08FEF9FEFDF91CF911F910F91FF902C
:10143000EF90DF90CF90BF90AF909F908F907F9074
:101440006F905F904F903F902F9008958C8180FF18
:10145000E8CF0B891C892D893E894A855B856C857F
:101460007D85C201B0E0A0E068017901C41AD50A07
:10147000E60AF70AC816D906EA06FB0618F4280198
:10148000441A550A42011E0126E0220E311C811425
:10149000910409F4B3C04A855B856C857D856A013A
:1014A00081E0D8228B8D9C8D8A019B01E9E03695E5
:1014B000279517950795EA95D1F7ED81E230E1F58B
:1014C000FC01628D738D848D958D600F711F821F5D
:1014D000931F612C22E0722E6C187D0886149704ED
:1014E00008F434012C8126FD04C06114F2E07F066B
:1014F00071F40091000110910101209102013091DD
:101500000301061717072807390709F053C040E001
:101510000E941005882309F484CFC601885A9E4F83
:10152000D5019C01260D371DFC012E173F0709F43C
:1015300060C041914D93F9CFFC0174807A94702280
:10154000C114D10471F471100CC0452B462B472BEC
:1015500039F58F89988DA98DBA8D8E839F83A88741
:10156000B987EB8DFC8D6E817F818885998562506E
:10157000710981099109258504C0660F771F881FAD
:10158000991F2A95D2F70685178520893189600F22
:10159000711F821F931F670D711D811D911D99CFB2
:1015A0004E815F816885798591010E9425078111AF
:1015B000D8CF37CF750183019601AB01BC01809173
:1015C0005501909156010E94B103882309F429CF57
:1015D000A60CB71C8A859B85AC85BD85860D971D9D
:1015E000A11DB11D8A879B87AC87BD878618970888
:1015F0004ECF281B390BA20EB31EECCFC20113CF66
:10160000CF93DF931F92CDB7DEB741E050E0BE012C
:101610006F5F7F4F0E94F909019731F4898190E053
:101620000F90DF91CF9108958FEF9FEFF9CFFC01DD
:10163000818D928D009711F00C94000B8FEF9FEF2E
:1016400008950F931F93CF93DF93EC01898D9A8DAB
:1016500010E000E0009799F00E94000B8C010F3F12
:10166000100769F0898D9A8DFC0142855385648548
:10167000758541505109610971090E946508C801C9
:10168000DF91CF911F910F9108951F93CF93DF9317
:10169000FC0125812223D1F1162FEC01848187FFE3
:1016A0002AC0668577858089918941E00E9410056E
:1016B000882361F1EA8980E2E89FF0011124E85A69
:1016C000FE4F309719F18D81823040F48B899C89CF
:1016D000AD89BE89848F958FA68FB78F8F89988D9E
:1016E000938F828F8F89988DA98DBA8DB58BA48B9E
:1016F0008C818F778C83111103C08C818F7E8C83BA
:10170000812FDF91CF911F910C94E50480E0DF9150
:10171000CF911F910895FF920F931F93CF93DF9363
:10172000EC018D81813041F090E080E0DF91CF913C
:101730001F910F91FF9008958C8181FFF5CF82FD5D
:101740001BC00091550110915601C8010E943E0333
:101750000E944702F82EC8010E9430038FEFF81252
:10176000E3CF8C8185FF1BC060E0CE010E94450B5A
:101770008C818F7D8C83D8CF4B895C896D897E89E4
:101780008A859B85AC85BD8584179507A607B70715
:10179000C1F2CE010E9465088111D3CFC5CF40911F
:1017A00048015091490160914A0170914B01452BCC
:1017B000462B472B21F080E00E94C104B5CF806109
:1017C0008C832A853B85317080E092E0821B930BED
:1017D000ADCFCF93DF93EC0161E00E94450B8823EE
:1017E00011F01D8281E0DF91CF910895FC01818D80
:1017F000928D009719F061E00C94450B08952F929B
:101800003F924F925F926F927F928F929F92AF9290
:10181000BF92CF92DF92EF92FF920F931F93CF93DD
:10182000DF9300D000D01F92CDB7DEB77C015B0103
:10183000342E5D83DC0115968C911597813009F06B
:10184000CEC014962C9021FECAC022FCB4C0C32C7A
:10185000DD8022947FE027222094B22DB1702B2EC0
:10186000D7011A964D915D916D917C911D97C11490
:10187000D10409F428C15B968D919C915C97FC0181
:1018800074807A948A019B0169E0369527951795B3
:1018900007956A95D1F770228A011170711020C0E6
:1018A00001151105E9F416964D915D916D917C91AC
:1018B0001997411551056105710509F099C05796B1
:1018C0008D919D910D90BC91A02D0097A105B10522
:1018D00009F0B0C0C7010E94F908882309F47FC04D
:1018E00080E092E0801B910B46018C159D0508F469
:1018F0004C01D7015B964D915C915C9716968D914A
:101900009D910D90BC91A02D0297A109B109FA01FA
:10191000258504C0880F991FAA1FBB1F2A95D2F7DF
:101920004685578560897189840F951FA61FB71F4B
:101930009C01AD01270D311D411D511D29013A01A9
:10194000811432E0930609F07BC0809100019091F0
:101950000101A0910201B091030184159505A6052E
:10196000B70559F48FEF9FEFDC018093000190934E
:101970000101A0930201B0930301022D9501B3016F
:10198000A20180915501909156010E945304882331
:1019900031F19EEFB91AC818D908F70182859385ED
:1019A000A485B585880D991DA11DB11D82879387DA
:1019B000A487B58755CFF70143895489658976890E
:1019C00082859385A485B585481759076A077B07E3
:1019D00009F43DCFC7010E946508811138CF81E02D
:1019E00090E0D70113969C938E93129780E007C0E6
:1019F0009E012F5F3F4F0E942507811102C090E09A
:101A000079C089819A81AB81BC81F701238D348DA6
:101A1000F901278948EF5FEF60E070E0203121F0A5
:101A200048EF5FEF6FEF7FE084179507A607B707D2
:101A300008F050CFF70186839783A087B18750CFF6
:101A40000115110599F5D7011A964D915D916D918A
:101A50007C911D9753968D919D910D90BC91A02DD9
:101A6000481759076A077B0708F181E00E94E504DF
:101A7000882309F4B4CF4092000150920101609292
:101A80000201709203018091570181608093570198
:101A9000C801885A9E4FD5019C01280D391DFC01B3
:101AA0002E173F0759F04D914193FACF41E0C30102
:101AB000B2010E9410058111EBCF91CF281B390B89
:101AC000A20EB31E68CFF70183899489A589B689D0
:101AD00084179507A607B70738F48481438B548B86
:101AE000658B768B80688483F701848183FD1AC0BF
:101AF000832D9D810F900F900F900F900F90DF918D
:101B0000CF911F910F91FF90EF90DF90CF90BF90FA
:101B1000AF909F908F907F906F905F904F903F908D
:101B20002F90089561E0C7010E94450B882309F4B6
:101B300056CFDECFCF93DF931F92CDB7DEB7698349
:101B400041E050E0BE016F5F7F4F0E94FF0B0F909E
:101B5000DF91CF910895CF93DF93EC01E98DFA8D5A
:101B6000309749F481E090E09B838A8390E080E0A5
:101B7000DF91CF91089513821282898D9A8D0E94F0
:101B8000FF0BE98DFA8D22813381232B59F7F0CF9A
:101B9000CF93DF9381E590E00E943B0360E087E014
:101BA0000E94C0000CB405FC15C01EBC00000DB4A2
:101BB00007FEFDCFCEB51EBC00000DB407FEFDCF65
:101BC000DEB561E087E00E94C0008D2F9C2FDF9181
:101BD000CF9108951EBC00000DB407FEFDCFDEB509
:101BE0001EBC00000DB407FEFDCFCEB5EACF8F922C
:101BF0009F92AF92BF920F931F93CF93DF93CDB776
:101C0000DEB7A1970FB6F894DEBF0FBECDBF19A205
:101C1000423008F44AE08E010F5D1F4F842E912C54
:101C2000B12CA12CA50194010E94E512E62FB90167
:101C3000CA01EA3044F5E05DD801EE938D01232B13
:101C4000242B252B79F790E080E0109769F0FD01B7
:101C500001900020E9F73197AF014A1B5B0BBD01F2
:101C600088E593E00E941801A1960FB6F894DEBFB4
:101C70000FBECDBFDF91CF911F910F91BF90AF905D
:101C80009F908F900895E95CD7CF42E050E06AE3DF
:101C900071E088E593E00C941801CF93DF930E94E4
:101CA0000502EC010E94450E8C0F9D1FDF91CF9124
:101CB00008950F931F93CF93DF93EC0180E2689F09
:101CC000F0011124E85AFE4F6A8B80910001909137
:101CD0000101A0910201B09103018E879F87A88B1B
:101CE000B98B0489158930E020E09801112700277D
:101CF0000F8B188F298F3A8F828D938DB0E0A0E0E3
:101D0000AC01BD01402B512B622B732B4F8B588F95
:101D1000698F7A8F83858871A9F4848D958DA68DBE
:101D2000B78D8B8B9C8BAD8BBE8B81E08D8381E0DF
:101D30008C831E821F82188619861A861B861C8633
:101D40001D8603C0803131F080E0DF91CF911F917B
:101D50000F9108959E012D5E3F4F8B8D9C8D0E94AB
:101D6000A607882389F384E0E1CFAF92BF92CF9298
:101D7000DF92EF92FF920F931F93CF93DF93CDB734
:101D8000DEB72B970FB6F894DEBF0FBECDBF6C0148
:101D9000FE013196CE010C967F0120E22193E817D7
:101DA000F907E1F7DA0120E037E09D91B92E992398
:101DB000A9F19E32B9F43A3091F480E02B960FB637
:101DC000F894DEBF0FBECDBFDF91CF911F910F9171
:101DD000FF90EF90DF90CF90BF90AF90089528E0F4
:101DE0003AE0E3CFECEDF0E08491882321F03196E6
:101DF0009813FACFE2CF321700F38FED890F8E35AB
:101E0000E0F68FE9890F8A3118F440EEB42EB90E4E
:101E1000F701E20FF11DB0822F5FC7CF89818032B9
:101E200061F28B01FB01838D948DF601948F838F7A
:101E3000FB0116821782108611861286138614867D
:101E40001586F80182859385A485B58543895489D3
:101E50006589768984179507A607B70708F0ADCF7F
:101E600025E0B695A795979587952A95D1F7F82FF0
:101E7000FF70AF2EF8018581823008F49ECFC80133
:101E80000E94000B97FD99CFF80182859385A48568
:101E9000B5854F96A11DB11D82879387A487B5870D
:101EA000F0E2AF9EB0011124685A7E4F61157105B2
:101EB00009F483CFFB018081882309F1853E19F461
:101EC000B11032C01EC04BE050E0C7010E944C145C
:101ED000892B09F0B6CF6A2DC6012B960FB6F89460
:101EE000DEBF0FBECDBFDF91CF911F910F91FF904D
:101EF000EF90DF90CF90BF90AF900C94590EB1103F
:101F00005CCFF601A28A8091000190910101A0911D
:101F10000201B091030186879787A08BB18BFB01EB
:101F20008081882309F449CFBB24B3948ACFEF92F0
:101F3000FF920F931F93CF93DF93EC017B018A01F4
:101F40001B821A8288EE93E0A0E0B0E08C839D8330
:101F5000AE83BF838EE091E0998388838DE190E02A
:101F60000E9427139A8F898F009779F02DE1F7014E
:101F7000DC0101900D922A95E1F74CE050E0B801A8
:101F8000CE010C960E945914188EDF91CF911F91AB
:101F90000F91FF90EF9008951F920F920FB60F923E
:101FA00011242F933F938F939F93AF93BF9380916F
:101FB000510190915201A0915301B091540130917F
:101FC000500123E0230F2D3758F50196A11DB11DB7
:101FD000209350018093510190935201A09353019B
:101FE000B093540180914C0190914D01A0914E010C
:101FF000B0914F010196A11DB11D80934C019093AA
:102000004D01A0934E01B0934F01BF91AF919F91AD
:102010008F913F912F910F900FBE0F901F901895A9
:1020200026E8230F0296A11DB11DD2CF1F920F9259
:102030000FB60F9211242F933F934F935F936F939B
:102040007F938F939F93AF93BF93EF93FF9388E515
:1020500093E00E949601FF91EF91BF91AF919F9104
:102060008F917F916F915F914F913F912F910F9041
:102070000FBE0F901F9018951F920F920FB60F92E0
:1020800011242F938F939F93EF93FF93E091680315
:10209000F09169038081E0916E03F0916F0382FDFE
:1020A0001BC09081809171038F5F8F7320917203A9
:1020B000821741F0E0917103F0E0E85AFC4F958FF0
:1020C00080937103FF91EF919F918F912F910F90CA
:1020D0000FBE0F901F9018958081F4CFE8E5F3E0D4
:1020E0001382128288EE93E0A0E0B0E084839583AF
:1020F000A683B78380E291E09183808385EC90E0B2
:102100009587848784EC90E09787868780EC90E0C1
:10211000918B808B81EC90E0938B828B82EC90E0B2
:10212000958B848B86EC90E0978B868B118E128E2C
:10213000138E148EE5EFF3E080E580831182E7EFE4
:10214000F3E0158216821186138682E090E0A0E00B
:10215000B0E084879587A687B78713A215A614A633
:1021600082E391E093A782A717A60895CF93DF9308
:10217000CDB7DEB7C257D1090FB6F894DEBF0FBE98
:10218000CDBF789484B5826084BD84B5816084BD00
:1021900085B5826085BD85B5816085BD80916E0005
:1021A000816080936E001092810080918100826036
:1021B0008093810080918100816080938100809173
:1021C00080008160809380008091B1008460809362
:1021D000B1008091B00081608093B00080917A005E
:1021E000846080937A0080917A00826080937A0084
:1021F00080917A00816080937A0080917A00806873
:1022000080937A001092C100E0916803F091690315
:1022100082E08083E0916403F09165031082E09195
:102220006603F091670380E1808310927003E09170
:102230006C03F0916D0386E08083E0916A03F09176
:102240006B03808180618083E0916A03F0916B036E
:10225000808188608083E0916A03F0916B038081C4
:1022600080688083E0916A03F0916B0380818F7DA9
:10227000808384E00E94A10061E084E00E94C000AD
:1022800087E00E94A10061E087E00E94C0000E94F8
:10229000FC0286E890E00E9405020E94C80DBC0185
:1022A00090E080E040E10E94F70D0E94450E809191
:1022B0002604882321F081E294E00E94E90B109229
:1022C0000204109200041092FD031092FC0384E0BB
:1022D0008093FB030E940C018B018091FB030E9401
:1022E000A10061E08091FB030E94C0000E94FC02FB
:1022F00082E58093F5031092F6038091F5039091A7
:10230000F6030E943B032AE0F22E8FEF0E94400268
:10231000FA94F110FACF87EF93E00E943E0320E099
:1023200030E0A90160E087EF93E00E945403F82EAB
:102330008093010481E0F816F1F00E940C01601B0B
:10234000710B613D774058F381E08093FC0387EF88
:1023500093E00E9430038EE790E00E944D0E00E073
:1023600010E001151105E9F30E9482018823C9F3E9
:102370000E940000F6CF2AEA31E040E050E068E039
:1023800087EF93E00E94540382FF2AC0F092020478
:1023900080910204C12CD12C7601823029F4C12C09
:1023A000D12CE12C80E4F82E20E030E0A90167E395
:1023B00087EF93E00E945403A701960169E287EF3B
:1023C00093E00E945403809301048823D1F00E947B
:1023D0000C01601B710B613D774030F388E0B5CF95
:1023E00094E0F92E0E94470280930104FA94F110C0
:1023F000F9CF8A3A11F082E0A8CF82E080930204FC
:10240000C7CF809102048230D1F420E030E0A901EE
:102410006AE387EF93E00E945403882311F086E07B
:1024200094CF0E944702807C803C19F483E0809323
:1024300002040E9447020E9447020E94470287EF5F
:1024400093E00E94300380E58093F5031092F60339
:1024500081E00E945A05882309F462C081E294E079
:102460000E941108882309F476CF88E790E00E9443
:102470004D0E1C821B8202E311E01A8309831E8227
:10248000CE0101960E941108BE016F5F7F4FCE0101
:10249000CB960E94650219A218A21F8F0E8F1BA255
:1024A00021968FAD2197811142C06C961FAE1EAE52
:1024B0006C9788EE93E0A0E0B0E0A0968CAF9DAF63
:1024C000AEAFBFAFA0978EE091E06A969FAF8EAFA0
:1024D0006A97E3961FAE1EAEE397A5961FAEA5972B
:1024E000C12CD12C7601CE01885A9F4F0E94B60292
:1024F000E3962EAD3FADE3970297DCF12115310550
:1025000041F042E050E0BE016F5F7F4FC9010E9481
:10251000F90989819A81C80ED91EE11CF11CE3CF0B
:1025200080E00E945A05882309F415CF97CF4DE328
:1025300051E0BE01655C7F4FCE014E960E94B50E04
:10254000882309F4B2CFCE01CB960E94E90BBE01DD
:10255000625E7F4FCE0101960E9465024DE351E01D
:10256000BE016F5F7F4FCE01885A9F4F0E94970F29
:10257000B7CF2115310569F0C9010E94E90BE39637
:102580008EAD9FADE3970E94C313E3961FAE1EAEC0
:10259000E39783E790E00E9405024AE0C701B60195
:1025A0000E94F70D0E94450E8DE690E00E94050204
:1025B0000E94C80DBC0190E080E040E10E94F70D50
:1025C0000E94450E88E690E0C8CEA1E21A2EAA1B12
:1025D000BB1BFD010DC0AA1FBB1FEE1FFF1FA217D3
:1025E000B307E407F50720F0A21BB30BE40BF50BD0
:1025F000661F771F881F991F1A9469F76095709559
:10260000809590959B01AC01BD01CF0108950E947A
:102610001813A59F900DB49F900DA49F800D911D40
:1026200011240895EE0FFF1F0590F491E02D0994F9
:10263000A29FB001B39FC001A39F700D811D112403
:10264000911DB29F700D811D1124911D08950F934E
:102650001F93CF93DF938230910510F482E090E0D6
:10266000E0914204F091430430E020E0B0E0A0E0CB
:10267000309799F42115310509F44AC0281B390B0C
:1026800024303105D8F58A819B816115710589F166
:10269000FB0193838283FE0111C04081518102813D
:1026A000138148175907E0F04817590799F4109714
:1026B00061F012960C93129713961C933296CF01E9
:1026C000DF91CF911F910F910895009342041093D1
:1026D0004304F4CF2115310551F04217530738F068
:1026E000A901DB019A01BD01DF01F801C1CFEF01B2
:1026F000F9CF9093430480934204CDCFFE01E20FC3
:10270000F31F819391932250310939832883D7CFC6
:102710002091400430914104232B41F42091060183
:10272000309107013093410420934004209104012B
:10273000309105012115310541F42DB73EB7409187
:10274000080150910901241B350BE0914004F091E0
:102750004104E217F307A0F42E1B3F0B281739079B
:1027600078F0AC014E5F5F4F2417350748F04E0FED
:102770005F1F5093410440934004819391939FCFF6
:10278000F0E0E0E09CCFCF93DF930097E9F0FC010D
:10279000329713821282A0914204B0914304ED015A
:1027A00030E020E01097A1F420813181820F931F47
:1027B00020914004309141042817390709F061C085
:1027C000F0934104E0934004DF91CF910895EA0132
:1027D000CE17DF07E8F54A815B819E01411551055F
:1027E000B1F7E901FB83EA8349915991C40FD51FE1
:1027F000EC17FD0761F4808191810296840F951F8B
:10280000E90199838883828193819B838A83F0E0A5
:10281000E0E012968D919C9113970097B9F52D9158
:102820003C911197CD010296820F931F2091400495
:10283000309141042817390739F6309751F5109235
:10284000430410924204B0934104A0934004BCCFCF
:10285000D383C28340815181840F951FC817D90744
:1028600061F44E5F5F4F88819981480F591F5183F2
:1028700040838A819B81938382832115310509F0EE
:10288000B0CFF0934304E09342049ECFFD01DC01FE
:10289000C0CF13821282D7CFFB01DC0104C08D911F
:1028A0000190801921F441505040C8F7881B990BC2
:1028B0000895FB01DC014150504048F001900D9219
:1028C0000020C9F701C01D9241505040E0F7089523
:0428D000F894FFCFAA
:1028D400FFFFFFFF00004404800000000000E60248
:1028E400AB0DD602F60BB602170B210B000000004D
:1028F400B801180145012002760154016801000065
:1029040000009A0D18018B0BB5020D0A00696D6762
:062914002E726177000045
:00000001FF
