:100000000C9462000C9463030C943C030C948A00DF
:100010000C948A000C948A000C948A000C948A0038
:100020000C948A000C948A000C948A000C948A0028
:100030000C948A000C948A000C948A000C948A0018
:100040000C94F2020C948A000C94B0030C948A0372
:100050000C948A000C948A000C948A000C948A00F8
:100060000C948A000C948A000000000024002700F1
:100070002A0000000000250028002B0000000000DE
:1000800023002600290004040404040404040202DA
:100090000202020203030303030301020408102007
:1000A0004080010204081020010204081020000012
:1000B0000008000201000003040700000000000027
:1000C0000000000511241FBECFEFD8E0DEBFCDBF7A
:1000D00011E0A0E0B1E0EEEAFAE002C005900D9276
:1000E000A033B107D9F721E0A0E3B1E001C01D9230
:1000F000A83DB207E1F710E0C2E6D0E004C02197C6
:10010000FE010E944F05C136D107C9F70E94E203E4
:100110000C9455050C940000833081F028F4813054
:1001200099F08230A9F008958730A9F08830C9F09D
:100130008430B1F4809180008F7D03C08091800075
:100140008F7780938000089584B58F7784BD08955C
:1001500084B58F7DFBCF8091B0008F778093B00006
:1001600008958091B0008F7DF9CFCF93DF93E0EBBE
:10017000F0E08491ECE9F0E0D491E8E8F0E0C4919B
:10018000CC23A1F081110E948C00EC2FF0E0EE0F47
:10019000FF1FE458FF4FA591B491EC91ED2381E04E
:1001A00090E009F480E0DF91CF91089580E090E045
:1001B000FACF1F93CF93DF93E1EBF0E09491EDE959
:1001C000F0E0D491E9E8F0E0C491CC23B9F0182F25
:1001D000992319F0892F0E948C00EC2FF0E0EE0F8C
:1001E000FF1FEE58FF4FA591B4918FB7F894EC9193
:1001F000111108C0D095DE23DC938FBFDF91CF9122
:100200001F910895DE2BF8CF3FB7F8948091370106
:1002100090913801A0913901B0913A0126B5A89B7F
:1002200005C02F3F19F00196A11DB11D3FBFBA2F88
:10023000A92F982F8827BC01CD01620F711D811D48
:10024000911D42E0660F771F881F991F4A95D1F7CD
:1002500008958F929F92AF92BF92CF92DF92EF92CA
:10026000FF920E9404016B017C0192E0892E912C87
:10027000A12CB12C0E9404016C197D098E099F09E3
:10028000683E734081059105A8F328EEC20E23E075
:10029000D21EE11CF11C8A9489288A288B2829F017
:1002A000812C912C54018394E5CFFF90EF90DF9047
:1002B000CF90BF90AF909F908F9008958091300124
:1002C000909131010196909331018093300108950E
:1002D0000895AF92BF92CF92DF92EF92FF920F9369
:1002E0001F93CF93DF936C017B018B01040F151FCC
:1002F000EB015E01AE18BF08C017D10759F0699134
:10030000D601ED91FC910190F081E02DC601099597
:10031000892B79F7C501DF91CF911F910F91FF9044
:10032000EF90DF90CF90BF90AF900895FC01538D78
:10033000448D252F30E0842F90E0821B930B5417BF
:1003400010F0CF96089501970895FC01918D828D4C
:10035000981761F0A28DAE0FBF2FB11D5D968C91E5
:10036000928D9F5F9F73928F90E008958FEF9FEF24
:100370000895FC01918D828D981731F0828DE80FE0
:10038000F11D858D90E008958FEF9FEF0895FC019A
:10039000918D228D892F90E0805C9F4F821B910967
:1003A0008F73992708958BE391E00E94C70121E0A4
:1003B000892B09F420E0822F089580E090E0892BBA
:1003C00029F00E94D30181110C9400000895FC01D2
:1003D000A48DA80FB92FB11DA35ABF4F2C91848DA6
:1003E00090E001968F739927848FA689B7892C9303
:1003F000A089B1898C91837080648C93938D848D56
:10040000981306C00288F389E02D80818F7D808358
:100410000895EF92FF920F931F93CF93DF93EC0118
:1004200081E0888F9B8D8C8D98131AC0E889F9899B
:10043000808185FF15C09FB7F894EE89FF8960839E
:10044000E889F98980818370806480839FBF81E01F
:1004500090E0DF91CF911F910F91FF90EF90089561
:10046000F62E0B8D10E00F5F1F4F0F731127E02E3C
:100470008C8D8E110CC00FB607FCFACFE889F98974
:10048000808185FFF5CFCE010E94E701F1CFEB8D92
:10049000EC0FFD2FF11DE35AFF4FF0829FB7F89448
:1004A0000B8FEA89FB8980818062CFCFCF93DF9366
:1004B000EC01888D8823B9F0AA89BB89E889F9897C
:1004C0008C9185FD03C0808186FD0DC00FB607FCB1
:1004D000F7CF8C9185FFF2CF808185FFEDCFCE01E4
:1004E0000E94E701E9CFDF91CF9108958F929F920B
:1004F000AF92BF920F931F93CF93DF93CDB7DEB729
:10050000A1970FB6F894DEBF0FBECDBF19A242303F
:1005100008F44AE08E010F5D1F4F842E912CB12C00
:10052000A12CA50194010E942D05E62FB901CA0155
:10053000EA3044F5E05DD801EE938D01232B242BA6
:10054000252B79F790E080E0109769F0FD0101908C
:100550000020E9F73197AF014A1B5B0BBD018BE32C
:1005600091E00E946901A1960FB6F894DEBF0FBE1C
:10057000CDBFDF91CF911F910F91BF90AF909F9012
:100580008F900895E95CD7CFCF92DF92EF92FF92E0
:10059000CF93DF936B017C016DE28BE391E00E94CE
:1005A0000902EC0166277727CB016C197D098E09BA
:1005B0009F094AE00E9476028C0F9D1FDF91CF9128
:1005C000FF90EF90DF90CF900895FC010190002004
:1005D000E9F73197AF01481B590BBC018BE391E060
:1005E0000C9469011F920F920FB60F9211242F9352
:1005F0003F938F939F93AF93BF93809133019091DB
:100600003401A0913501B09136013091320123E0DF
:10061000230F2D3758F50196A11DB11D20933201EE
:100620008093330190933401A0933501B093360148
:100630008091370190913801A0913901B0913A0130
:100640000196A11DB11D8093370190933801A093AD
:100650003901B0933A01BF91AF919F918F913F9132
:100660002F910F900FBE0F901F90189526E8230F23
:100670000296A11DB11DD2CF1F920F920FB60F92FD
:1006800011242F933F934F935F936F937F938F9397
:100690009F93AF93BF93EF93FF93E0910201F0918B
:1006A00003010995FF91EF91BF91AF919F918F91B8
:1006B0007F916F915F914F913F912F910F900FBE5E
:1006C0000F901F9018951F920F920FB60F92112442
:1006D0002F933F934F935F936F937F938F939F934A
:1006E000AF93BF93EF93FF93E0910001F09101016D
:1006F0000995FF91EF91BF91AF919F918F917F915C
:100700006F915F914F913F912F910F900FBE0F907E
:100710001F9018951F920F920FB60F9211242F93CE
:100720003F934F935F936F937F938F939F93AF9379
:10073000BF93EF93FF938BE391E00E94E701FF915A
:10074000EF91BF91AF919F918F917F916F915F9149
:100750004F913F912F910F900FBE0F901F901895C2
:100760001F920F920FB60F9211242F938F939F9386
:10077000EF93FF93E0914B01F0914C018081E09168
:100780005101F091520182FD1BC090818091540172
:100790008F5F8F7320915501821741F0E0915401D2
:1007A000F0E0E55CFE4F958F80935401FF91EF914F
:1007B0009F918F912F910F900FBE0F901F901895C2
:1007C0008081F4CF789484B5826084BD84B58160E3
:1007D00084BD85B5826085BD85B5816085BD80910C
:1007E0006E00816080936E00109281008091810084
:1007F000826080938100809181008160809381007C
:10080000809180008160809380008091B10084603D
:100810008093B1008091B00081608093B00080919E
:100820007A00846080937A0080917A00826080935D
:100830007A0080917A00816080937A0080917A00BA
:10084000806880937A001092C100E0914B01F09192
:100850004C0182E08083E0914701F09148011082D1
:10086000E0914901F0914A0180E1808310925301A7
:10087000E0914F01F091500186E08083E0914D01BD
:10088000F0914E01808180618083E0914D01F09173
:100890004E01808188608083E0914D01F0914E018E
:1008A000808180688083E0914D01F0914E018081CC
:1008B0008F7D8083ECE9F0E02491E8E8F0E084911A
:1008C0008823C1F090E0880F991FFC01E859FF4F81
:1008D000C591D491FC01EE58FF4FA591B4919FB7FB
:1008E000F8943881822F809583238883EC91E22BC2
:1008F000EC939FBFEDE9F0E02491E9E8F0E084910A
:10090000882399F090E0880F991FFC01E859FF4F68
:10091000A591B491FC01EE58FF4F859194918FB74A
:10092000F894EC91E22BEC938FBF80E00E94D90009
:100930008EE591E090930101809300018091690020
:100940008C7F826080936900E89A86E191E00E9442
:10095000E5020E94290105E010E081E00E94D90033
:100960000E9429010E94B5007C0180E00E94D9000C
:100970000E9429010E94B500EC018DE191E00E94E6
:10098000E502B701FF0C880B990B97FF31C00E945D
:10099000C40283E291E00E94E502BE01DD0F880BF4
:1009A000990B97FF29C00E94C4028BE191E00E943D
:1009B000E5020150110989F689E291E00E94E50201
:1009C000609130017091310190E080E04AE00E9436
:1009D00076028BE191E00E94E502C0E0D0E0209732
:1009E000F1F30E94D3018823D1F30E940000F7CFD6
:1009F0004AE00E947602CDCF4AE00E947602D5CF2F
:100A0000EBE3F1E01382128288EE93E0A0E0B0E025
:100A100084839583A683B78388E091E09183808364
:100A200085EC90E09587848784EC90E097878687B3
:100A300080EC90E0918B808B81EC90E0938B828BAB
:100A400082EC90E0958B848B86EC90E0978B868B84
:100A5000118E128E138E148E0895A1E21A2EAA1BE7
:100A6000BB1BFD010DC0AA1FBB1FEE1FFF1FA2175E
:100A7000B307E407F50720F0A21BB30BE40BF50B5B
:100A8000661F771F881F991F1A9469F760957095E4
:100A9000809590959B01AC01BD01CF010895EE0FAB
:0E0AA000FF1F0590F491E02D0994F894FFCF0C
:100AAE006801680100000000090269019601560202
:100ABE00C701A501B90152454144590A0068656C48
:100ACE00643D002072656C3D00697271733D0000DB
:00000001FF
