:100000000C9462000C948A000C948A000C948A0070
:100010000C948A000C948A000C948A000C948A0038
:100020000C948A000C948A000C948A000C948A0028
:100030000C948A000C948A000C948A000C948A0018
:100040000C94F4010C948A000C9464020C943E020B
:100050000C948A000C948A000C948A000C948A00F8
:100060000C948A000C948A000000000025002800EF
:100070002B0000000000240027002A0000000000E0
:1000800023002600290004040404040404040202DA
:100090000202020203030303030301020408102007
:1000A0004080010204081020010204081020000012
:1000B0000008000201000003040700000000000027
:1000C00000000D0411241FBECFEFD8E0DEBFCDBF6E
:1000D00011E0A0E0B1E0E8ECF8E002C005900D927C
:1000E000A232B107D9F721E0A2E2B1E001C01D922E
:1000F000AF3CB207E1F710E0C2E6D0E004C02197C0
:10010000FE010E945C04C136D107C9F70E94960225
:100110000C9462040C940000AF92BF92CF92DF92D5
:10012000EF92FF920F931F93CF93DF936C017B01AC
:100130008B01040F151FEB015E01AE18BF08C0173D
:10014000D10759F06991D601ED91FC910190F081B0
:10015000E02DC6010995892B79F7C501DF91CF9173
:100160001F910F91FF90EF90DF90CF90BF90AF90D5
:100170000895FC01538D448D252F30E0842F90E0AD
:10018000821B930B541710F0CF9608950197089592
:10019000FC01918D828D981761F0A28DAE0FBF2F5B
:1001A000B11D5D968C91928D9F5F9F73928F90E0B1
:1001B00008958FEF9FEF0895FC01918D828D981720
:1001C00031F0828DE80FF11D858D90E008958FEF5D
:1001D0009FEF0895FC01918D228D892F90E0805C26
:1001E0009F4F821B91098F739927089582E391E0B5
:1001F0000E94EA0021E0892B09F420E0822F089573
:1002000080E090E0892B29F00E94F60081110C9487
:1002100000000895FC01A48DA80FB92FB11DA35AA9
:10022000BF4F2C91848D90E001968F739927848F16
:10023000A689B7892C93A089B1898C918370806439
:100240008C93938D848D981306C00288F389E02DDA
:1002500080818F7D80830895EF92FF920F931F938B
:10026000CF93DF93EC0181E0888F9B8D8C8D981369
:100270001AC0E889F989808185FF15C09FB7F89475
:10028000EE89FF896083E889F989808183708064C1
:1002900080839FBF81E090E0DF91CF911F910F910C
:1002A000FF90EF900895F62E0B8D10E00F5F1F4F1B
:1002B0000F731127E02E8C8D8E110CC00FB607FC2A
:1002C000FACFE889F989808185FFF5CFCE010E94B8
:1002D0000A01F1CFEB8DEC0FFD2FF11DE35AFF4F1B
:1002E000F0829FB7F8940B8FEA89FB898081806246
:1002F000CFCFCF93DF93EC01888D8823B9F0AA8903
:10030000BB89E889F9898C9185FD03C0808186FDD0
:100310000DC00FB607FCF7CF8C9185FFF2CF80811F
:1003200085FFEDCFCE010E940A01E9CFDF91CF9189
:1003300008958F929F92AF92BF920F931F93CF9386
:10034000DF93CDB7DEB7A1970FB6F894DEBF0FBE2F
:10035000CDBF19A2423008F44AE08E010F5D1F4F55
:10036000842E912CB12CA12CA50194010E943A0459
:10037000E62FB901CA01EA3044F5E05DD801EE93F9
:100380008D01232B242B252B79F790E080E010970B
:1003900069F0FD0101900020E9F73197AF014A1B98
:1003A0005B0BBD0182E391E00E948C00A1960FB629
:1003B000F894DEBF0FBECDBFDF91CF911F910F919B
:1003C000BF90AF909F908F900895E95CD7CFFC01CC
:1003D00001900020E9F73197AF01481B590BBC0190
:1003E00082E391E00C948C001F920F920FB60F9253
:1003F00011242F933F938F939F93AF93BF9380913B
:100400002E0190912F01A0913001B09131013091D6
:100410002D0123E0230F2D3758F50196A11DB11DA5
:1004200020932D0180932E0190932F01A0933001F2
:10043000B09331018091290190912A01A0912B0163
:10044000B0912C010196A11DB11D809329019093BB
:100450002A01A0932B01B0932C01BF91AF919F91E2
:100460008F913F912F910F900FBE0F901F90189575
:1004700026E8230F0296A11DB11DD2CF1F920F9225
:100480000FB60F9211242F933F934F935F936F9367
:100490007F938F939F93AF93BF93EF93FF9382E3E9
:1004A00091E00E940A01FF91EF91BF91AF919F915E
:1004B0008F917F916F915F914F913F912F910F900D
:1004C0000FBE0F901F9018951F920F920FB60F92AC
:1004D00011242F938F939F93EF93FF93E091420109
:1004E000F09143018081E0914801F091490182FD42
:1004F0001BC0908180914B018F5F8F7320914C01C5
:10050000821741F0E0914B01F0E0EE5CFE4F958FD9
:1005100080934B01FF91EF919F918F912F910F90BD
:100520000FBE0F901F9018958081F4CF789484B5FA
:10053000826084BD84B5816084BD85B5826085BDDF
:1005400085B5816085BD80916E00816080936E006D
:10055000109281008091810082608093810080915F
:100560008100816080938100809180008160809310
:1005700080008091B10084608093B1008091B000D0
:1005800081608093B00080917A00846080937A00CB
:1005900080917A00826080937A0080917A008160F5
:1005A00080937A0080917A00806880937A0010921C
:1005B000C100E0914201F091430182E08083E0912B
:1005C0003E01F0913F011082E0914001F091410124
:1005D0008FEC808310924A01E0914601F09147012F
:1005E00086E08083E0914401F09145018081806143
:1005F0008083E0914401F09145018081886080838F
:10060000E0914401F0914501808180688083E09110
:100610004401F091450180818F7D80830CE910E0D9
:10062000F8012491C8E8D0E0FE0184918823C9F044
:1006300090E0880F991FFC01EE58FF4FA591B491EF
:10064000FC01E859FF4F459154913FB7F8949C91B4
:10065000822F809598239C93FA019081892380832F
:100660003FBF84E191E00E94E701E0EBF0E084917C
:10067000F8010491FE01C491C1113AC067E482E31C
:1006800091E00E942C012FB7F89480912E01909157
:100690002F01A0913001B09131012FBF8093220131
:1006A00090932301A0932401B0932501C0E0D0E0F2
:1006B00011E082E391E00E94EA00892B09F44FC027
:1006C00082E391E00E94C800209100013091010175
:1006D00037FF04C0909301018093000180912701AE
:1006E0009091280101969093280180932701E1CFF2
:1006F000882339F08330E1F088F48130F9F08230DA
:1007000009F1EC2FF0E0EE0FFF1FE458FF4FA59129
:10071000B4918C91082309F4B1CFB5CF8730A9F0FB
:100720008830C9F0843069F7809180008F7D03C0E4
:10073000809180008F7780938000E3CF84B58F779E
:1007400084BDDFCF84B58F7DFBCF8091B0008F77E4
:100750008093B000D6CF8091B0008F7DF9CF80918B
:10076000260181114FC02FB7F89480912E019091EE
:100770002F01A0913001B09131012FBF4091220192
:10078000509123016091240170912501841B950BE8
:10079000A60BB70B8C329140A105B10598F11093CF
:1007A00026018BE191E00E94E701609127017091A1
:1007B000280190E080E04AE00E9499018EE191E0FA
:1007C0000E94E701C0900001D09001010D2C000CA7
:1007D000EE08FF084AE0C701B601F7FE0DC06DE262
:1007E00082E391E00E942C0166277727CB016C19E8
:1007F0007D098E099F094AE00E94990189E191E0F3
:100800000E94E701209709F454CF0E94F600882344
:1008100009F44FCF0E9400004CCFE2E3F1E01382D5
:10082000128288EE93E0A0E0B0E084839583A683F3
:10083000B78386E091E09183808385EC90E0958793
:10084000848784EC90E09787868780EC90E0918B9A
:10085000808B81EC90E0938B828B82EC90E0958B87
:10086000848B86EC90E0978B868B118E128E138E84
:10087000148E0895A1E21A2EAA1BBB1BFD010DC008
:10088000AA1FBB1FEE1FFF1FA217B307E407F50740
:1008900020F0A21BB30BE40BF50B661F771F881F1C
:1008A000991F1A9469F760957095809590959B01B2
:1008B000AC01BD01CF010895EE0FFF1F0590F4912B
:0808C000E02D0994F894FFCF2C
:1008C800FFFF000000002C018C00B9007901EA004C
:1008D800C800DC0072656164790A006E3D0020661C
:0208E8003D00D1
:00000001FF
