:100000000C946D000C9495000C9495000C94950044
:100010000C9495000C9495000C9495000C9495000C
:100020000C9495000C9495000C9495000C949500FC
:100030000C9495000C9495000C9495000C949500EC
:100040000C9440020C9495000C94B0020C948A021B
:100050000C9495000C9495000C9495000C949500CC
:100060000C9495000C949500524541445900AED52E
:1000700080A83FD300408D14A1C8DA1281CFD9F1F6
:10008000DB40A4A6AF463A000000000800020100D1
:100090000003040700000000000000000000000052
:1000A000250028002B0000000000240027002A0063
:1000B000040404040404040402020202020203030E
:1000C0000303030301020408102040800102040816
:1000D0001020010204081020450411241FBECFEF98
:1000E000D8E0DEBFCDBF11E0A0E0B1E0E0E5F9E08F
:1000F00002C005900D92A631B107D9F721E0A6E123
:10010000B1E001C01D92AE3BB207E1F710E0CDE6D1
:10011000D0E004C02197FE010E94A004CC36D10794
:10012000C9F70E94E2020C94A6040C94000090E02F
:10013000FC01EC53FF4F249180559F4FFC018491AB
:10014000882399F090E0880F991FFC01EA55FF4F32
:10015000A591B491FC01E456FF4F859194918FB71E
:10016000F894EC91E22BEC938FBF089590E0FC01A2
:10017000E857FF4F2491FC01EC53FF4F3491FC01F1
:10018000E055FF4FE491EE23C9F0222339F02330EC
:1001900001F1A8F4213019F1223029F1F0E0EE0F3D
:1001A000FF1FE456FF4FA591B4918FB7F894EC91DF
:1001B000611126C030953E233C938FBF08952730B0
:1001C000A9F02830C9F0243049F7809180008F7D54
:1001D00003C0809180008F7780938000DFCF84B54B
:1001E0008F7784BDDBCF84B58F7DFBCF8091B0004E
:1001F0008F778093B000D2CF8091B0008F7DF9CF00
:100200003E2BDACFAF92BF92CF92DF92EF92FF9266
:100210000F931F93CF93DF936C017B018B01040F2E
:10022000151FEB015E01AE18BF08C017D10759F0CA
:100230006991D601ED91FC910190F081E02DC6010C
:100240000995892B79F7C501DF91CF911F910F9106
:10025000FF90EF90DF90CF90BF90AF900895FC019A
:10026000538D448D252F30E0842F90E0821B930B1B
:10027000541710F0CF96089501970895FC01918DC1
:10028000828D981761F0A28DAE0FBF2FB11D5D96C4
:100290008C91928D9F5F9F73928F90E008958FEF66
:1002A0009FEF0895FC01918D828D981731F0828D1A
:1002B000E80FF11D858D90E008958FEF9FEF089571
:1002C000FC01918D228D892F90E0805C9F4F821BD5
:1002D00091098F739927089581E291E00E9460014E
:1002E00021E0892B09F420E0822F089580E090E03E
:1002F000892B29F00E946C0181110C940000089553
:10030000FC01A48DA80FB92FB11DA35ABF4F2C918A
:10031000848D90E001968F739927848FA689B78981
:100320002C93A089B1898C91837080648C93938D78
:10033000848D981306C00288F389E02D80818F7D1B
:1003400080830895EF92FF920F931F93CF93DF93D3
:10035000EC0181E0888F9B8D8C8D98131AC0E88901
:10036000F989808185FF15C09FB7F894EE89FF89D0
:100370006083E889F98980818370806480839FBF6E
:1003800081E090E0DF91CF911F910F91FF90EF906E
:100390000895F62E0B8D10E00F5F1F4F0F7311277E
:1003A000E02E8C8D8E110CC00FB607FCFACFE889B9
:1003B000F989808185FFF5CFCE010E948001F1CFC0
:1003C000EB8DEC0FFD2FF11DE35AFF4FF0829FB72D
:1003D000F8940B8FEA89FB8980818062CFCF0F93DD
:1003E0001F93CF93DF938C01D0E0C0E0F801EC0FB6
:1003F000FD1F6491662341F081E291E00E94A20119
:10040000892B11F02196F2CFCE01DF91CF911F9170
:100410000F910895CF93DF93EC01888D8823B9F075
:10042000AA89BB89E889F9898C9185FD03C08081FF
:1004300086FD0DC00FB607FCF7CF8C9185FFF2CF7C
:10044000808185FFEDCFCE010E948001E9CFDF9151
:10045000CF910895CF93C82F60E089E00E94B60045
:10046000CEBD00000DB407FEFDCF8EB5CF9108952F
:1004700042E050E062E171E081E291E00C9402011F
:100480001F920F920FB60F9211242F933F938F93C9
:100490009F93AF93BF9380911D0190911E01A091F6
:1004A0001F01B091200130911C0123E0230F2D3753
:1004B00058F50196A11DB11D20931C0180931D01CB
:1004C00090931E01A0931F01B09320018091180109
:1004D00090911901A0911A01B0911B010196A11DE3
:1004E000B11D8093180190931901A0931A01B09344
:1004F0001B01BF91AF919F918F913F912F910F90D1
:100500000FBE0F901F90189526E8230F0296A11D8D
:10051000B11DD2CF1F920F920FB60F9211242F93BD
:100520003F934F935F936F937F938F939F93AF937B
:10053000BF93EF93FF9381E291E00E948001FF91CE
:10054000EF91BF91AF919F918F917F916F915F914B
:100550004F913F912F910F900FBE0F901F901895C4
:100560001F920F920FB60F9211242F938F939F9388
:10057000EF93FF93E0913101F09132018081E0919E
:100580003701F091380182FD1BC0908180913A01C2
:100590008F5F8F7320913B01821741F0E0913A0108
:1005A000F0E0EF5DFE4F958F80933A01FF91EF9160
:1005B0009F918F912F910F900FBE0F901F901895C4
:1005C0008081F4CFCF93DF93CDB7DEB7A1970FB67D
:1005D000F894DEBF0FBECDBF789484B5826084BD31
:1005E00084B5816084BD85B5826085BD85B5816037
:1005F00085BD80916E00816080936E0010928100B5
:10060000809181008260809381008091810081606F
:100610008093810080918000816080938000809130
:10062000B10084608093B1008091B00081608093BC
:10063000B00080917A00846080937A0080917A0083
:10064000826080937A0080917A00816080937A0042
:1006500080917A00806880937A001092C100E091C6
:100660003101F091320182E08083E0912D01F0911F
:100670002E011082E0912F01F091300180E1808302
:1006800010923901E0913501F091360186E08083C6
:10069000E0913301F0913401808180618083E091A9
:1006A0003301F0913401808188608083E0913301CF
:1006B000F0913401808180688083E0913301F09172
:1006C000340180818F7D80838AE00E94970060E002
:1006D0008AE00E94B6001FB7F8948091160181113C
:1006E00024C0EAEBF0E08491EEECF0E09491E82F86
:1006F000F0E0EE0FFF1FEA55FF4FA591B491EC918A
:10070000E92321F461E08AE00E94B6008AE00E94B9
:1007100097008CB580618CBD8CB580648CBD8DE0FC
:100720000E9497008BE00E949700809116018F5FD6
:10073000809316011FBF89E00E94970088E00E9405
:10074000970060E088E00E94B60083E290E00197A5
:10075000F1F761E088E00E94B60080E58CBD81E0A1
:100760008DBD0EE610E045E8E42E40E0F42EF801E1
:1007700084910E942A020F5F1F4FE016F106B9F71D
:1007800088E690E00E94EF010E94380281E291E049
:100790000E940A028FE0E82E91E1F92E2AE0822ED3
:1007A000912CA12CB12C30E0C32E30E0D32E8091BF
:1007B00017018F5F809317016E2D0E9472041F2D09
:1007C0009F9D100D112480E20E942A0280E00E9469
:1007D0002A0281E20E942A0280E00E942A028FE718
:1007E0000E942A0282E20E942A0280E00E942A02DB
:1007F00087E00E942A0261E089E00E94B60080E062
:1008000094E01EBD00000DB407FEFDCF2EB501978C
:10081000C1F785E890E00E94EF012091170130E0D8
:1008200050E040E019A28E010F5D1F4FCA01B901CF
:10083000A50194010E947E04605DF80162938F011E
:10084000211531054105510589F7309761F0019077
:100850000020E9F73197AF01401B510BB80181E24D
:1008600091E00E9402010E94380281E291E00E9420
:100870000A02C114D10409F49ACF0E946C018823A2
:1008800009F495CF0E94000092CFE1E2F1E01382DB
:10089000128288EE93E0A0E0B0E084839583A68383
:1008A000B78384E091E09183808385EC90E0958725
:1008B000848784EC90E09787868780EC90E0918B2A
:1008C000808B81EC90E0938B828B82EC90E0958B17
:1008D000848B86EC90E0978B868B118E128E138E14
:1008E000148E0895991B79E004C0991F961708F09B
:1008F000961B881F7A95C9F780950895A1E21A2E54
:10090000AA1BBB1BFD010DC0AA1FBB1FEE1FFF1FB3
:10091000A217B307E407F50720F0A21BB30BE40B03
:10092000F50B661F771F881F991F1A9469F760954A
:100930007095809590959B01AC01BD01CF01089504
:10094000EE0FFF1F0590F491E02D0994F894FFCF6E
:1009500000000000A20102012F010A0260013E0115
:0609600052010D0A000027
:00000001FF
