:100000000C9483000C94B4000C94B4000C94B400D1
:100010000C94B4000C94B4000C94B4000C94B40090
:100020000C94B4000C94B4000C94B4000C94B40080
:100030000C94B4000C94B4000C94B4000C94B40070
:100040000C94B4000C94B4000C94B4000C94B40060
:100050000C94B4000C94B4000C94B4000C9466029C
:100060000C94B4000C943A030C9410030C94B40058
:100070000C94B4000C94B4000C94B4000C94B40030
:100080000C94B4000C94B4000C94B4000C94B40020
:100090000C94DA020C94B0020C94B4000C94B400EA
:1000A0000C94B4000C94B4000C94B4000C94B40000
:1000B0000C94B4000C94B4000C94B4000C94B400F0
:1000C0000C94B4000C94B4000C94B4000C94B400E0
:1000D0000C94B4000C94B4000C94B4000C94B400D0
:1000E0000C94B4000C94DB000C942B010C9439019B
:1000F0000C94C8010C9408010C9417010C947B011A
:100100000C947003700311241FBECFEFD1E2DEBF49
:10011000CDBF00E00CBF12E0A0E0B2E0ECEBFAE0F3
:1001200000E00BBF02C007900D92A433B107D9F7CE
:1001300023E0A4E3B2E001C01D92A737B207E1F7C4
:1001400010E0C3E8D0E000E006C021970109802F4D
:10015000FE010E945405C238D10780E00807A9F7C4
:100160000E94C3030C945C050C9400003FB7F89404
:100170008091390290913A02A0913B02B0913C02E9
:1001800026B5A89B05C02F3F19F00196A11DB11DF2
:100190003FBFBA2FA92F982F8827BC01CD01620F2E
:1001A000711D811D911D42E0660F771F881F991FE9
:1001B0004A95D1F70895AF92BF92CF92DF92EF9216
:1001C000FF920F931F93CF93DF936C017B018B0101
:1001D000040F151FEB015E01AE18BF08C017D10751
:1001E00059F06991D601ED91FC910190F081E02DDB
:1001F000C6011995892B79F7C501DF91CF911F9120
:100200000F91FF90EF90DF90CF90BF90AF90089547
:10021000FC01538D448D252F30E0842F90E0821B0C
:10022000930B541710F0CF96089501970895FC0191
:10023000918D828D981761F0A28DAE0FBF2FB11DE9
:100240005D968C91928D9F5F9F73928F90E0089541
:100250008FEF9FEF0895FC01918D828D981731F0FB
:10026000828DE80FF11D858D90E008958FEF9FEF4F
:100270000895FC01918D228D892F90E0805C9F4F25
:10028000821B91098F73992708958DE392E00E9454
:10029000390121E0892B09F420E0822F08958AEDAD
:1002A00092E00E94390121E0892B09F420E0822F9D
:1002B0000895FC01A48DA80FB92FB11DA35ABF4FFB
:1002C0002C91848D90E001968F739927848FA68955
:1002D000B7892C93A089B1898C91837080648C93A9
:1002E000938D848D981306C00288F389E02D808158
:1002F0008F7D80830895EF92FF920F931F93CF938A
:10030000DF93EC0181E0888F9B8D8C8D98131AC050
:10031000E889F989808185FF15C09FB7F894EE8937
:10032000FF896083E889F989808183708064808394
:100330009FBF81E090E0DF91CF911F910F91FF90DF
:10034000EF900895F62E0B8D10E00F5F1F4F0F7387
:100350001127E02E8C8D8E110CC00FB607FCFACF42
:10036000E889F989808185FFF5CFCE010E94590186
:10037000F1CFEB8DEC0FFD2FF11DE35AFF4FF08213
:100380009FB7F8940B8FEA89FB8980818062CFCF79
:10039000CF93DF93EC01888D8823B9F0AA89BB89BC
:1003A000E889F9898C9185FD03C0808186FD0DC0A7
:1003B0000FB607FCF7CF8C9185FFF2CF808185FFC8
:1003C000EDCFCE010E945901E9CFDF91CF91089581
:1003D00080E090E0892B29F00E944F0181110E945A
:1003E000000080E090E0892B29F00E9445018111F6
:1003F0000E94000080E090E0892B49F080E090E0CE
:10040000892B29F00E94000081110E94000080E0E9
:1004100090E0892B49F080E090E0892B29F00E9440
:10042000000081110C9400000895FC01019000204F
:10043000E9F73197AF01481B590BBC018AED92E0F7
:100440000C94DB008F929F92AF92BF920F931F93F9
:10045000CF93DF93CDB7DEB7A1970FB6F894DEBF89
:100460000FBECDBF19A2423008F44AE08E010F5DE5
:100470001F4F842E912CB12CA12CA50194010E9418
:100480003205E62FB901CA01EA30F4F4E05DD80183
:10049000EE938D01232B242B252B79F790E080E020
:1004A000109719F0CD010E941502A1960FB6F8948D
:1004B000DEBF0FBECDBFDF91CF911F910F91BF90D7
:1004C000AF909F908F900895E95CE1CF1F920F92BB
:1004D0000FB60F9211242F933F938F939F93AF9357
:1004E000BF938091350290913602A0913702B0916E
:1004F00038023091340223E0230F2D3758F501964E
:10050000A11DB11D209334028093350290933602D1
:10051000A0933702B09338028091390290913A0249
:10052000A0913B02B0913C020196A11DB11D8093A8
:10053000390290933A02A0933B02B0933C02BF91E0
:10054000AF919F918F913F912F910F900FBE0F9080
:100550001F90189526E8230F0296A11DB11DD2CF3A
:100560001F920F920FB60F9211240BB60F922F937A
:100570003F934F935F936F937F938F939F93AF932B
:10058000BF93EF93FF938DE392E00E945901FF9197
:10059000EF91BF91AF919F918F917F916F915F91FB
:1005A0004F913F912F910F900BBE0F900FBE0F9068
:1005B0001F9018951F920F920FB60F9211240BB631
:1005C0000F922F938F939F93EF93FF93E0914D02A0
:1005D000F0914E028081E0915302F091540282FD2D
:1005E0001DC09081809156028F5F8F7320915702BA
:1005F000821741F0E0915602F0E0E35CFD4F958FE9
:1006000080935602FF91EF919F918F912F910F90C0
:100610000BBE0F900FBE0F901F9018958081F2CFE8
:100620001F920F920FB60F9211240BB60F922F93B9
:100630003F934F935F936F937F938F939F93AF936A
:10064000BF93EF93FF938AED92E00E945901FF91CF
:10065000EF91BF91AF919F918F917F916F915F913A
:100660004F913F912F910F900BBE0F900FBE0F90A7
:100670001F9018951F920F920FB60F9211240BB670
:100680000F922F938F939F93EF93FF93E091EA0242
:10069000F091EB028081E091F002F091F10282FD95
:1006A0001DC090818091F3028F5F8F732091F402BF
:1006B000821741F0E091F302F0E0E652FD4F958F92
:1006C0008093F302FF91EF919F918F912F910F9063
:1006D0000BBE0F900FBE0F901F9018958081F2CF28
:1006E000EDE3F2E01382128248EE53E060E070E046
:1006F00044835583668377838DE092E09183808382
:100700002DEC30E0358724872CEC30E037872687C6
:1007100028EC30E0318B208B29EC30E0338B228BBE
:100720002AEC30E0358B248B2EEC30E0378B268B97
:10073000118E128E138E148EEAEDF2E01382128265
:1007400044835583668377839183808385EC90E02F
:100750009587848784EC90E09787868780EC90E08B
:10076000918B808B81EC90E0938B828B82EC90E07C
:10077000958B848B86EC90E0978B868B118E128EF6
:10078000138E148E0895CF93DF9300D000D000D045
:10079000CDB7DEB7789484B5826084BD84B58160BE
:1007A00084BD85B5826085BD85B5816085BD80913C
:1007B0006E00816080936E001092810080918100B4
:1007C00082608093810080918100816080938100AC
:1007D000809180008160809380008091B10084606E
:1007E0008093B1008091B00081608093B0008091CF
:1007F000910082608093910080919100816080934C
:100800009100809190008160809390008091A10080
:1008100082608093A1008091A10081608093A100FB
:100820008091A00081608093A0008091210182606E
:100830008093210180912101816080932101809129
:10084000200181608093200180917A0084608093F0
:100850007A0080917A00826080937A0080917A0099
:10086000816080937A0080917A00806880937A001A
:100870001092C100E091EA02F091EB0222E02083A5
:10088000E091E602F091E7021082E091E802F09137
:10089000E90280E180831092F202E091EE02F09191
:1008A000EF0296E09083E091EC02F091ED028081FE
:1008B00080618083E091EC02F091ED02808188609C
:1008C0008083E091EC02F091ED028081806880836A
:1008D000E091EC02F091ED0280818F7D8083E091C8
:1008E0004D02F0914E022083E0914902F0914A02BC
:1008F0001082E0914B02F0914C028FEC80831092B9
:100900005502E0915102F09152029083E0914F0222
:10091000F0915002808180618083E0914F02F091DC
:100920005002808188608083E0914F02F0915002F4
:10093000808180688083E0914F02F0915002808135
:100940008F7D80838BE192E00E94150281E292E02C
:100950000E94150249E050E060E072E08DE392E011
:100960000E94DB008FB7F894809035029090360299
:10097000A0903702B09038028FBFCE0101967C0163
:1009800010E0193021F12FB7F89480913502909141
:100990003602A0913702B09138022FBF8819990909
:1009A000AA09BB0984369105A105B10508F053C019
:1009B0008DE392E00E943901892B19F38DE392E0D7
:1009C0000E9417011F5FF70181937F01DACF8981B0
:1009D0008F3F09F040C08A818638E9F584E292E0D1
:1009E0000E9415026B81862F90E0982F88276C81DA
:1009F000680F792F711D90E080E04AE00E9422028A
:100A000081E292E00E9415020E94B6004B015C0157
:100A100084E1C82ED12CE12CF12C0E94B60068197B
:100A200079098A099B09683E734081059105A8F3FD
:100A3000F1E0CF1AD108E108F10828EE820E23E098
:100A4000921EA11CB11CC114D104E104F10429F7C8
:100A50000E94E8017FCF89E292E00E941502612F97
:100A600070E0C9CFA1E21A2EAA1BBB1BFD010DC06D
:100A7000AA1FBB1FEE1FFF1FA217B307E407F5074E
:100A800020F0A21BB30BE40BF50B661F771F881F2A
:100A9000991F1A9469F760957095809590959B01C0
:100AA000AC01BD01CF010895EE0FFF1F881F8BBF62
:0C0AB0000790F691E02D1994F894FFCF08
:100ABC00FF0186000000000079000000007B01DBD4
:100ACC00000801C801390117012B01524541445955
:100ADC00000D0A00434F323D004E4F4652414D45EA
:040AEC00206E3D003B
:00000001FF
