:100000000C9462000C948A000C948A000C948A0070
:100010000C948A000C948A000C948A000C948A0038
:100020000C948A000C948A000C948A000C948A0028
:100030000C948A000C948A000C948A000C948A0018
:100040000C94DF0D0C948A000C944F0E0C94290E26
:100050000C948A000C948A000C948A000C948A00F8
:100060000C94810E0C948A000000000023002600EE
:10007000290000000000240027002A0000000000E2
:10008000250028002B0004040404040404040202D4
:100090000202020203030303030301020408102007
:1000A0004080010204081020010204081020000012
:1000B0000008000201000003040700000000000027
:1000C0000000A00F11241FBECFEFD8E0DEBFCDBFD0
:1000D00011E0A0E0B1E0ECECF3E202C005900D927B
:1000E000AA3BB107D9F727E0AAEBB1E001C01D9206
:1000F000A13EB207E1F710E0C2E6D0E004C02197CC
:10010000FE010E94C811C136D107C9F70E94A11093
:100110000C94E4110C940000662329F06A3019F065
:10012000862F90E008958FEF9FEF0895AF92BF92D2
:10013000CF92DF92EF92FF920F93CF93DF93EC0178
:10014000DA017901942F9770E1E0F0E09F01092E28
:1001500001C0220F0A94EAF7522F6E018AE8C80EF6
:10016000D11CF601808140E0823018F4422F8130AA
:1001700049F15D01F8EFAF22E8ADF9AD2881398191
:10018000D90150968C918A9D90018B9D300D112440
:10019000620F731FDF01A60FB71F01111AC0EA0E0D
:1001A000FB1E8C91842B85278D93AE15BF05C9F757
:1001B000DF91CF910F91FF90EF90DF90CF90BF90A4
:1001C000AF90089550E0D5CF440F550FE114F104DE
:1001D00079F33C91342B35273C939F5F9770E1E096
:1001E000EE1AF1089111F0CF2CAD3DADA20FB31F67
:1001F000F6018081823028F4813009F051E041E03D
:10020000E5CF51E0E3CF80E0089590E080E00895ED
:10021000CF93DF93CBE4D7E08FAFEAADFBAD019096
:10022000F081E02D8FE497E00995EAADFBAD028007
:10023000F381E02D8FE497E0DF91CF9109949B014A
:10024000DC011896ED91FC9141E067E1099483305F
:1002500081F028F4813099F08230A9F00895873038
:10026000A9F08830C9F08430B1F4809180008F7D8E
:1002700003C0809180008F7780938000089584B5BB
:100280008F7784BD089584B58F7DFBCF8091B000BA
:100290008F778093B00008958091B0008F7DF9CF63
:1002A0001F93CF93DF93282F30E0F901E255FF4FE2
:1002B0008491F901E656FF4FD491F901EA57FF4FB7
:1002C000C491CC23A9F0162F81110E942701EC2F95
:1002D000F0E0EE0FFF1FE458FF4FA591B4918FB7E8
:1002E000F894EC91111108C0D095DE23DC938FBFF8
:1002F000DF91CF911F910895DE2BF8CFCF93DF933D
:1003000090E0FC01E656FF4F24918A579F4FFC0175
:1003100084918823D1F090E0880F991FFC01EE585A
:10032000FF4FA591B491FC01E458FF4FC591D491C2
:10033000623071F49FB7F8943C91822F80958323AB
:100340008C93E8812E2B28839FBFDF91CF91089556
:100350008FB7F894EC912E2B2C938FBFF6CF3FB72D
:10036000F89480919E0290919F02A091A002B0917A
:10037000A10226B5A89B05C02F3F19F00196A11D2B
:10038000B11D3FBFBA2FA92F982F8827BC01CD01DF
:10039000620F711D811D911D42E0660F771F881F3E
:1003A000991F4A95D1F70895AF92BF92CF92DF92ED
:1003B000EF92FF920F931F93CF93DF936C017B011A
:1003C0008B01040F151FEB015E01AE18BF08C017AB
:1003D000D10759F06991D601ED91FC910190F0811E
:1003E000E02DC6010995892B79F7C501DF91CF91E1
:1003F0001F910F91FF90EF90DF90CF90BF90AF9043
:100400000895FC01538D448D252F30E0842F90E01A
:10041000821B930B541710F0CF96089501970895FF
:10042000FC01918D828D981761F0A28DAE0FBF2FC8
:10043000B11D5D968C91928D9F5F9F73928F90E01E
:1004400008958FEF9FEF0895FC01918D828D98178D
:1004500031F0828DE80FF11D858D90E008958FEFCA
:100460009FEF0895FC01918D228D892F90E0805C93
:100470009F4F821B91098F739927089582EA92E01A
:100480000E94320221E0892B09F420E0822F089596
:1004900080E090E0892B29F00E943E0281110C94AB
:1004A00000000895FC01A48DA80FB92FB11DA35A17
:1004B000BF4F2C91848D90E001968F739927848F84
:1004C000A689B7892C93A089B1898C9183708064A7
:1004D0008C93938D848D981306C00288F389E02D48
:1004E00080818F7D80830895EF92FF920F931F93F9
:1004F000CF93DF93EC0181E0888F9B8D8C8D9813D7
:100500001AC0E889F989808185FF15C09FB7F894E2
:10051000EE89FF896083E889F9898081837080642E
:1005200080839FBF81E090E0DF91CF911F910F9179
:10053000FF90EF900895F62E0B8D10E00F5F1F4F88
:100540000F731127E02E8C8D8E110CC00FB607FC97
:10055000FACFE889F989808185FFF5CFCE010E9425
:100560005202F1CFEB8DEC0FFD2FF11DE35AFF4F3F
:10057000F0829FB7F8940B8FEA89FB8980818062B3
:10058000CFCFCF93DF93EC01888D8823B9F0AA8970
:10059000BB89E889F9898C9185FD03C0808186FD3E
:1005A0000DC00FB607FCF7CF8C9185FFF2CF80818D
:1005B00085FFEDCFCE010E945202E9CFDF91CF91AE
:1005C0000895DC011A96ED91FC9130E020E0099449
:1005D000DC011496ED91FC9130E020E040E060E118
:1005E0000994DC011696ED91FC9130E020E040E0AA
:1005F00069E10994DC011696ED91FC9130E020E070
:1006000040E068E109949A01DC011696ED91FC91B5
:10061000462F67E10994EF92FF920F931F93CF93B8
:10062000DF931F92CDB7DEB77C018B01D8016C91AF
:10063000673129F150F46531A0F40F90DF91CF912B
:100640001F910F91FF90EF9008956A3118F16E3F5E
:10065000A1F7F8014181498369E2C7010E94E102E3
:100660000BC0F80141814983D7011696ED91FC91A9
:1006700030E020E0C70109950E5F1F4FD7CFF8018A
:1006800081818983AE014F5F5F4F61E0C7010E94A6
:100690000303F2CF0F5F1F4FD7011696ED91FC9128
:1006A00030E020E040E0C7010995C0CF462FDC01D3
:1006B0001696ED91FC9130E020E066E10994462F1A
:1006C000DC011696ED91FC9130E020E065E10994A3
:1006D000EF92FF920F931F93CF93DF93EC01042FC0
:1006E00079016D3009F446C050F46B30C9F16930BE
:1006F00009F49FC06A3009F465C080E046C06E30DE
:1007000009F452C06F3099F70E94FA02F701138181
:10071000110F110F110F6C89160F60E4CE010E94AA
:100720005F03612F62956F706061CE010E945F036D
:10073000612F6F70CE010E945603F7016481606BD8
:10074000CE010E945603F701408151816281660FFC
:10075000660F660FCE010E9403030150A1F72EC061
:1007600063E171E0442311F06EE071E0CE010E947C
:100770000B030AC0411110C067E071E00E940B0337
:10078000E881F98182898C8B81E0DF91CF911F9183
:100790000F91FF90EF90089560E071E00E940B03CD
:1007A000E881F9818389EFCF0E94FA0261E8CE01E6
:1007B0000E945F03602FCE010E945603CE010E946B
:1007C000F102E2CFEA85FB8530E020E040E068E21C
:1007D000CE010995EE81FF8130E020E040E064E148
:1007E000CE01099541E06BE4CE010E94E102E8816F
:1007F000F981448169E2CE010E94E10240E06BE4AC
:10080000CE010E94E102E881F981448169E2CE01D2
:100810000E94E10241E06BE4CE010E94E102E88126
:10082000F981458169E2CE010E94E10268E171E04F
:100830009DCF8DE491E0998388831C8AA5CFDC014C
:100840001896ED91FC9130E020E040E069E10994D8
:10085000DC011896ED91FC9130E020E040E068E189
:100860000994CF93DF931F92CDB7DEB76983BE01A2
:100870006F5F7F4F0E941F010F90DF91CF9108950E
:10088000EF92FF921F93CF93DF93EC01162F7A0123
:100890000E94280460E4CE010E943104E885F985B5
:1008A0009701412F67E1CE010995CE01DF91CF91EC
:1008B0001F91FF90EF900C941F04EF92FF921F93F3
:1008C000CF93DF93EC01142F7901663181F138F475
:1008D000643109F44BC0653179F080E022C06831A1
:1008E000C9F150F16931C9F780919802882391F1DB
:1008F000CE010E941F042EC080919802882319F017
:10090000CE010E941F04CE010E94280460E0CE01A7
:100910000E943104612FCE010E94310481E0809356
:100920009802DF91CF911F91FF90EF900895642F6F
:100930000E94310481E0F5CF80919802882319F05C
:10094000CE010E941F04A701193138F4612FCE0196
:100950000E94400410929802EDCF68E1CE010E94FF
:100960004004185188E1E80EF11CEDCF8E898F3FCD
:1009700011F488E78E8BE885F9859701412F64E1B2
:10098000CE01DF91CF911F91FF90EF9009940F93CB
:10099000FC01E05CFF4F0190F081E02D4E1B5F0BEE
:1009A000DC01D496ED91FC9109950F910895CF93B8
:1009B000DF93FC01A081B18182AD90E09C0143E016
:1009C000220F331F4A95E1F737AF26AF50962C918F
:1009D000509748E0249F9001112435AF24AF23ADF8
:1009E00030E0B90153E0660F771F5A95E1F7EF0148
:1009F000C05CDF4F7983688351964C915197E90130
:100A0000C80FD91F50E04C175D0718F4CA01821BAC
:100A1000930BEF01CE5BDF4F79836883229623E04F
:100A2000880F991F2A95E1F7860F971F998388836E
:100A3000229654968D919C91559799838883E85B73
:100A4000FF4F56968D919C9191838083DF91CF913A
:100A500008950F931F93FC01E25BFF4F0190F0811B
:100A6000E02DDC01A05BBF4F0D90BC91A02D4A177B
:100A70005B0740F4E017F10748F00417150730F062
:100A800080E019C0E017F107C0F3FACFFC01E65B84
:100A9000FF4F40815181845B9F4FFC018081918198
:100AA0006817790758F481E04217530720F081E076
:100AB0002617370728F71F910F91089542175307FC
:100AC000B0F3DECF2F923F924F925F926F927F9260
:100AD0008F929F92AF92BF92CF92DF92EF92FF924E
:100AE0000F931F93CF93DF93CDB7DEB72A970FB63F
:100AF000F894DEBF0FBECDBF9A878987865B9F4F74
:100B00009A838983FC0111821082E985FA85EA5B68
:100B1000FF4F4080518029853A85245B3F4F3C83BD
:100B20002B83F90151824082E985FA85EE5BFF4F04
:100B30002080318029853A85225B3F4F3E832D837B
:100B4000F90131822082E985FA85EC5BFF4F6080F4
:100B5000718029853A85205B3F4F38872F83F901C3
:100B600071826082E985FA85E85AFF4FE080F18062
:100B7000E985FA85EC5AFF4FA080B180E985FA85B6
:100B8000EA5AFF4FC080D180E985FA85EE5AFF4FBF
:100B90008080918087019501A601B40189859A859D
:100BA0000E94290529853A852C573F4F3A87298786
:100BB00081111BC0F90110822A960FB6F894DEBF8E
:100BC0000FBECDBFDF91CF911F910F91FF90EF909E
:100BD000DF90CF90BF90AF909F908F907F906F905D
:100BE0005F904F903F902F90089581E0E985FA85BE
:100BF00080838114910421F0E981FA8191828082BD
:100C0000A414B50420F4EB81FC81B182A0822C14E1
:100C10003D0420F4ED81FE81D182C082E614F70408
:100C200058F6EF81F885F182E082C6CF0F93CF931B
:100C3000DF93E02FDC01AC57BF4FFC91FF2309F499
:100C400060C02115310509F45CC02230310538F04F
:100C5000023009F04AC06F5F7F4F621B730B0E2F8B
:100C60000170E0FD52C0FC01E25BFF4F0190F0819A
:100C7000E02D4E175F0708F444C0FC01E05BFF4F16
:100C80000190F081E02D4E175F07D8F5FC01E45B81
:100C9000FF4F0190F081E02DDC01A65BBF4F0D906E
:100CA000BC91A02D260F371F2617370738F56E1772
:100CB0007F0718F59F0121503109A217B30708F5E6
:100CC0006A177B0708F4BD012E173F0708F4F901E6
:100CD000E61BF70BEC01AEA9BFA914960D90BC91D1
:100CE000A02D9F01FD0109950CC0033009F0B7CF7D
:100CF0004F5F5F4F421B530BB2CFBD016E177F0793
:100D0000E0F2DF91CF910F910895FC01E65BFF4F78
:100D10000190F081E02D6E177F0798F3FC01E45BF2
:100D2000FF4F0190F081E02D6E177F0750F7FC0117
:100D3000E05BFF4F0190F081E02DDC01A25BBF4F33
:100D40000D90BC91A02D240F351F24173507A8F452
:100D50004E175F0788F49F0121503109A217B3078E
:100D600080F64A175B0708F4AD012E173F0708F419
:100D7000F901E41BF50BAECFAD014E175F0708F686
:100D8000EDCFCF92DF92EF92FF920F931F93CF930D
:100D9000DF937C01EB016B0180E2C80ED11C97014F
:100DA000205C3F4F8601AB01B7018FE497E00E94C2
:100DB0002905882369F000E020E430E0AE01B701A6
:100DC0008FE497E00E9416062196CC16DD0699F76F
:100DD000DF91CF911F910F91FF90EF90DF90CF9017
:100DE0000895213069F038F0223079F0840F911D98
:100DF00047FD9A950895860F911D67FD9A95089570
:100E0000841B910947FD93950895861B910967FD01
:100E100093950895213069F038F0223079F0861BDF
:100E2000910967FD93950895840F911D47FD9A954B
:100E30000895860F911D67FD9A950895841B910969
:100E400047FD939508953F924F925F926F927F92E4
:100E50008F929F92AF92BF92CF92DF92EF92FF92CA
:100E60000F931F93CF93DF937C01162F442EEC0139
:100E7000C25ADF4F5E806F806C018AE8C80ED11CB9
:100E800078847518312E711608F4372C8C809D806B
:100E90000E85202F462D652D8A819B810E94F106AB
:100EA0005C01202F462D652DC4010E940A07AC016C
:100EB000442079F08C85F6018083232D30E0B50144
:100EC000C7010E941606171548F017196394512C94
:100ED000D7CF8B858111F7CF8D85EDCF150D1E8373
:100EE0006F82DF91CF911F910F91FF90EF90DF9074
:100EF000CF90BF90AF909F908F907F906F905F90BA
:100F00004F903F900895DC011A964C911A97ED91FD
:100F1000FC911197249130E0042E02C0359527955D
:100F20000A94E2F7842F860F883068F03196119684
:100F3000FC93EE93E49198E0941B01C0EE0F9A9518
:100F4000EAF72E2B88501A968C938FEF9FEF01C0F3
:100F5000880F6A95EAF7809582230895FC01E60FD1
:100F6000F11D849190E0982F88273196E4918E0F9F
:100F7000911D0895AF92BF92CF92DF92EF92FF92B0
:100F80000F931F93CF93DF9300D000D01F92CDB764
:100F9000DEB78C01DC01DA96AC90DA97DB96EC9048
:100FA000DB97ED91FC91B188FE2CD12CC12CD8019E
:100FB000ED91FC9111978089D8962D913C911C82DE
:100FC000FD828B83B8E08B9FC00111248C9DA00112
:100FD0008D9D500D9C9D500D1124240F351F3A837B
:100FE0002983D8011496ED91FC919E012F5F3F4F0C
:100FF00041E06FE0C8010995F3948F2D8E198A1591
:1010000028F4BFEFCB1ADB0AFB1488F20F900F9085
:101010000F900F900F90DF91CF911F910F91FF9044
:10102000EF90DF90CF90BF90AF900895089508950E
:101030008F929F92AF92BF92CF92DF92EF92FF92E8
:101040001F93CF93DF93EC016C32C8F46A3208F03F
:1010500040C0683259F1693209F448C080E0603418
:10106000C8F16F73FE01E60FF11D868D8F3F89F188
:10107000603108F06DC0642F0E9450012AC06D32AB
:1010800009F458C058F384EB860F823038F76F7339
:10109000C60FD11D8E8D62E0411105C060E00E9437
:1010A000500161E08E8D0E947E0113C07C012EE113
:1010B000E20EF11CD0E0F70181917F018F3F31F00A
:1010C00061E0D03108F062E00E947E01DF5FD6313E
:1010D00091F781E0DF91CF911F91FF90EF90DF902A
:1010E000CF90BF90AF909F908F900895C42ED12C39
:1010F000F12CE12C0E94AF014B015C01C114D10421
:10110000E104F10431F30E94AF01681979098A09F9
:101110009B09683E73408105910580F3F1E0CF1A89
:10112000D108E108F10828EE820E23E0921EA11CEE
:10113000B11CE4CF85E090E0433010F082E090E015
:10114000880F991F880F991F05970197F1F7C1CF55
:10115000282F30E0F901E255FF4F8491F901E6565E
:10116000FF4FF490F901EA57FF4F1491112379F0E2
:1011700081110E942701E12FF0E0EE0FFF1FE859D7
:10118000FF4FA591B491EC91FE2281E009F480E03B
:10119000898F9FCF20911F02260F3327331F2132C3
:1011A0003105ECF420916E02FC0190E080E02430E7
:1011B00069F082E00895A0911F022191AC01415095
:1011C0005E4FA40FB52FB11D2C930196861798F38F
:1011D00080911F02680F60931F0280E0089581E0F4
:1011E000089510926E0281E080936D021092480281
:1011F00061E082E10E94500161E083E10E945001C0
:10120000E9EBF0E080818E7F808380818D7F808319
:1012100088E48093B80085E48093BC000895CF9360
:10122000DF9391E09093FE018823B9F0C091B8005C
:10123000D091BA008091BC008A7B8093BC0060E0B2
:1012400082E10E94500160E083E10E9450010E940F
:10125000F108D093BA00C093B800DF91CF91089500
:101260000895E091470280914602E81730F4F0E0DB
:10127000E252FE4F808190E008958FEF9FEF089536
:1012800090914702809146022FEF3FEF981748F464
:10129000E92FF0E0E252FE4F208130E09F5F909313
:1012A0004702C90108958091460290914702891B27
:1012B000990B0895CF92DF92EF92FF920F931F93B5
:1012C000CF93DF937C01CB018A012091740222230A
:1012D00089F0EB016B01C40ED51ECC15DD0569F05C
:1012E0006991D701ED91FC910190F081E02DC7014A
:1012F0000995F3CF642F0E94CA08C801DF91CF91EE
:101300001F910F91FF90EF90DF90CF900895CF92B3
:10131000DF92EF92FF920F931F93CF93DF93EC0135
:10132000962F683109F44BC0B901993130F49431EA
:10133000C9F0973189F080E006C0993109F461C0A5
:101340009032C9F781E0DF91CF911F910F91FF900B
:10135000EF90DF90CF90089550E08FE393E00E94EC
:101360005A09F0CF8C859D85AE85BF85892B8A2B48
:101370008B2B71F4E881F981A585B0E020EA36E88D
:1013800041E050E00E94BD116C877D878E879F876A
:101390001092470210924602109275021092970224
:1013A0000E94F10886E198E0909345028093440200
:1013B00087E198E09093430280934202C3CF2C854B
:1013C0003D854E855F8560E074E284EF90E00E9489
:1013D0009B1120513109410951095695479537957F
:1013E00027952093B8008E8990E09595879591E098
:1013F0009093740280939602109275021092970255
:10140000A1CFD0919702D13208F093C0C09196023B
:101410000E94AF016B017C0180916E02811164C05A
:1014200082E080936E0281E080936D028FEF809363
:101430006C0210926B02D0936A02A6E7B2E0EAE473
:10144000F2E080E0D8137CC01092490280914902FA
:10145000CC0FC82BC093490280914802813009F01B
:1014600073C0109248020E94AF016B017C01809111
:1014700049028093BB008091700290917102A0910B
:101480007202B0917302892B8A2B8B2B99F00E94E8
:10149000AF0100917002109171022091720230919F
:1014A00073026C197D098E099F0906171707280713
:1014B0003907D8F18091BC0083FDD9CF85EC8093AA
:1014C000BC000E94AF016B017C0180916E028230F2
:1014D000E9F180916C028F3F61F180916C02803262
:1014E00041F180916C0225C080917002909171024F
:1014F000A0917202B0917302892B8A2B8B2B09F475
:101500008BCF0E94AF010091700210917102209167
:101510007202309173026C197D098E099F090617BA
:1015200017072807390708F077CF80916F020E94CC
:101530000F0910927502109297021092740202CF56
:101540009D9191938F5F7ECF85EEB9CF8091700290
:1015500090917102A0917202B0917302892B8A2B33
:101560008B2B09F4B2CF0E94AF0100917002109151
:10157000710220917202309173026C197D098E09FB
:101580009F09061717072807390708F09ECFCDCF08
:10159000CF93DF931F92CDB7DEB76983209174029A
:1015A0002223F9F020919702203258F021E030E018
:1015B000FC013383228390E080E00F90DF91CF9194
:1015C000089580917502E82FF0E0EA58FD4F998167
:1015D00090838F5F809375028093970281E090E003
:1015E000ECCF61E0CE0101960E94CA08F7CFCF92FE
:1015F000DF92EF92FF920F931F93CF93DF936C01D3
:10160000EB017B01E40EF51E10E000E0CE15DF05D6
:1016100061F06991D601ED91FC910190F081E02D8E
:10162000C6010995080F191FF1CFC801DF91CF91AD
:101630001F910F91FF90EF90DF90CF9008952F9220
:101640003F924F925F926F927F928F929F92AF9252
:10165000BF92CF92DF92EF92FF920F931F93CF939F
:10166000DF93CDB7DEB728970FB6F894DEBF0FBE75
:10167000CDBF7C016C0124E0C20ED11CFC01E057FF
:10168000FF4F0190F081E02DC60109958C018E3F3E
:101690009F4F08F061C0370184E9680E711CF301A7
:1016A0000190F081E02DFD83EC835701F2E9AF0E4C
:1016B000B11CF50180809180970120593F4F3B83F9
:1016C0002A83F9018081813009F470C008F45FC079
:1016D000823009F476C0833009F482C0F701EC59F6
:1016E000FF4F9182808232962C813D81318320830D
:1016F00038978081918147969D838C830F3F110598
:1017000011F008F020C1B6960136110530F401340D
:10171000110558F0F701EE57FF4F808191812C8120
:101720003D81280F391F3D832C838C819D8101963B
:10173000FC01249121115FC090E080E0EA81FB81EF
:101740002081213009F4C1C108F4B7C1223009F465
:10175000BEC1233009F4C3C181E090E028960FB6E2
:10176000F894DEBF0FBECDBFDF91CF911F910F91D7
:10177000FF90EF90DF90CF90BF90AF909F908F90B1
:101780007F906F905F904F903F902F900895F7015A
:10179000E05AFF4F0190F081E02DC60109952C81A0
:1017A0003D81280F391F3D832C8398CFF701E05AE4
:1017B000FF4F0190F081E02DC6010995881A990A22
:1017C0008DCFF701E05AFF4F0190F081E02DC60167
:1017D0000995EC81FD81E81BF90BFD83EC837ECF3D
:1017E000F701E05AFF4F0190F081E02DC601099505
:1017F000880E991E73CFEC81FD812491201711066C
:1018000009F09AC0CF010296009709F495CFF7012D
:10181000EE59FF4FF887EF8391838083128673968A
:1018200060818F8198850E948307EF81F88580878A
:10183000F701EA58FF4F60818F8198850E948307E6
:10184000582EEF81F8858187970122573F4F3D83BE
:101850002C83F9019081EF81F885948781E09111C3
:1018600080E0EF81F8858587F701E958FF4F808098
:10187000682D8F8198850E948307382EF701E858DC
:10188000FF4F2080622D8F8198850E948307982EBC
:10189000F701E758FF4F1081612F8F8198850E94D3
:1018A00083079FEF910F01E010E0980101C0220F24
:1018B0009A95EAF7821B8E83EF81F8854084141491
:1018C0000CF0C4C08A94C80101C0880F8A94EAF75A
:1018D000381AF685F983950C2A94C80101C0880F3F
:1018E0002A94EAF7282E29182F2F422D632DEF81F5
:1018F000F885828193810E94F1064C01EF81F88581
:10190000938382832981422D632D848195810E9456
:101910000A07EF81F88595838483F981F13009F412
:101920009AC008F44EC0F23009F4A4C0F33009F4B0
:10193000B5C0BC0194014FC0FC0184912C813D8154
:10194000280F311DF0CEF701EA57FF4F80819181BA
:10195000EC81FD81E80FF91FFD83EC834F0160E00E
:10196000C4010E94AE072C813D81280F391F3D83A1
:101970002C8362E0C4010E94AE0734E0830E911C08
:101980008017910760F3EC81FD81849190E0982F9E
:1019900088273196E4918E2B009709F4CDCE081755
:1019A000190721F48C819D8103962ECFEC81FD8156
:1019B0003296E4912C813D812E0F311D3D832C8385
:1019C000E2CF9401240D311D47FC3A95BC01650D11
:1019D000711D57FC7A958B01AC01B401C6010E94C0
:1019E0002905882399F1EF81F8851682178247012E
:1019F000F3E78F0E911C24E7E20EF11CF4016081E5
:101A00008F8198850E948307082FF70160818F815D
:101A100098850E948307182F40E0602FC6010E941E
:101A2000230741E0612FC6010E94230761E08F81F7
:101A300098850E9483078111EFCFEF81F885878118
:101A40008515E4F28485EC81FD818083FE818F2FF2
:101A5000FF0F990B73CE0519110957FC13959401CB
:101A60002F5F3F4FBC01640D711D47FC7A95800EBE
:101A7000911EB1CFA8014419510947FC5395940117
:101A80002F5F3F4F0519110957FC1395BC016F5F7C
:101A90007F4F800F911F840E951E9DCF9401250DC1
:101AA000311D57FC3A950419110947FC1395BC01E7
:101AB0006F5F7F4F800F911F8ECFF50120813181A5
:101AC000820F931F9183808347CEF301F7CFF501F7
:101AD00020813181281B390B318320833DCEF301D6
:101AE000F7CF089590E080E00895CF93DF93FC0155
:101AF00001900020E9F73197AF01481B590BBC0159
:101B000082EA92E00E94D401EC0142E050E06BE9ED
:101B100071E082EA92E00E94D4018C0F9D1FDF9158
:101B2000CF910895FC01A081B18150962C9182AD96
:101B300038E0839FC0011124289FA001299F500DE8
:101B4000112470E060E080AD91AD0C94DD1185ED65
:101B50008093BC008091700290917102A0917202FA
:101B6000B09173020796A11DB11D23E0B695A7950C
:101B7000979587952A95D1F72091BC0024FD03C045
:101B800010926E020895409170025091710260911E
:101B9000720270917302452B462B472B69F3009715
:101BA000A105B10541F02AE22A95F1F700C001979D
:101BB000A109B109E1CF80916F020C940F091F9226
:101BC0000F920FB60F9211242F933F938F939F93F1
:101BD000AF93BF9380919A0290919B02A0919C0237
:101BE000B0919D023091990223E0230F2D3758F5D3
:101BF0000196A11DB11D2093990280939A029093A2
:101C00009B02A0939C02B0939D0280919E029091B2
:101C10009F02A091A002B091A1020196A11DB11D49
:101C200080939E0290939F02A093A002B093A10282
:101C3000BF91AF919F918F913F912F910F900FBEC8
:101C40000F901F90189526E8230F0296A11DB11D35
:101C5000D2CF1F920F920FB60F9211242F933F9362
:101C60004F935F936F937F938F939F93AF93BF93A4
:101C7000EF93FF9382EA92E00E945202FF91EF916C
:101C8000BF91AF919F918F917F916F915F914F9194
:101C90003F912F910F900FBE0F901F9018951F929C
:101CA0000F920FB60F9211242F938F939F93EF9360
:101CB000FF93E091B202F091B3028081E091B8020B
:101CC000F091B90282FD1BC090818091BB028F5FB1
:101CD0008F732091BC02821741F0E091BB02F0E0CB
:101CE000EE55FD4F958F8093BB02FF91EF919F9131
:101CF0008F912F910F900FBE0F901F90189580819C
:101D0000F4CF1F920F920FB60F9211242F933F938F
:101D10004F935F936F937F938F939F93AF93BF93F3
:101D2000EF93FF938091B900887F803609F44AC011
:101D3000F0F5883209F4A7C018F5803109F49BC08A
:101D4000B8F4882309F4F9C0883009F494C0FF91ED
:101D5000EF91BF91AF919F918F917F916F915F9123
:101D60004F913F912F910F900FBE0F901F9018959C
:101D7000883109F488C0803251F780936C0214C016
:101D8000803409F49DC040F48033B9F38833F9F608
:101D900080936C0285ECB0C0803509F485C088352D
:101DA00009F496C0883499F60E94A70DD0CF8839DF
:101DB00009F48CC038F5883729F050F4883611F0D2
:101DC000803729F683E080936E021092410257C05B
:101DD000883809F47BC0803919F0803809F0B7CF12
:101DE00080914102803208F071C0E091410281E0AF
:101DF0008E0F809341028091BB00F0E0EF5DFD4FBC
:101E000080833DC0803B39F0E0F4803A09F479C02A
:101E1000883A09F09CCF84E080936E0210922002F1
:101E200010921F02E0914402F091450209958091C1
:101E30001F0281110FC081E080931F021092FF01E9
:101E400009C0803C09F4A6CF883C09F4A3CF883BA5
:101E500009F07DCFE091200281E08E0F8093200277
:101E6000F0E0E150FE4F80818093BB009091200212
:101E700080911F0229C0809149028093BB0085ECAC
:101E80008093BC0064CF90916B0280916A02981796
:101E900058F5E0916B0281E08E0F80936B02F0E0C9
:101EA000E65BFD4F8081E9CFE0916B0281E08E0F10
:101EB00080936B028091BB00F0E0E65BFD4F808376
:101EC00090916B0280916A029817C8F285E8D8CF8A
:101ED000E0916B0281E08E0F80936B028091BB00DA
:101EE000F0E0E65BFD4F808380916D0281115CCF55
:101EF00081E08093480284EA8093BC0010926E02D5
:101F000026CF85EC8093BC0010926E028091410236
:101F1000803230F4E0914102F0E0EF5DFD4F10823D
:101F20006091410270E0E0914202F091430281E24F
:101F300092E00995109241020ACF10926C0234CFC0
:101F4000CF931092A5021092A40288EE93E0A0E035
:101F5000B0E08093A6029093A702A093A802B0934A
:101F6000A90229E631E03093A3022093A20225ECD6
:101F700030E03093AF022093AE0224EC30E0309397
:101F8000B1022093B00220EC30E03093B3022093F2
:101F9000B20221EC30E03093B5022093B40222EC7F
:101FA00030E03093B7022093B60226EC30E0309355
:101FB000B9022093B8021092BB021092BC02109298
:101FC000BD021092BE021092420310924103809310
:101FD000430390934403A0934503B09346038BE7D8
:101FE00091E09093400380933F0310924E0710922C
:101FF0004D078CE890E09093DC078093DB0710920C
:10200000DE071092DD071092E0071092DF071092B2
:1020100067078DE891E090934C0780934B071092EF
:10202000500710924F071092640710925B071092AE
:102030005C0710925D0710925E078FEF8093650733
:1020400080936907EDE6F7E083E897E0CFEFC1936F
:102050008E179F07E1F788E693E0909354078093EB
:1020600053078DE594E0909356078093550787E8D2
:1020700099E0909358078093570788E198E09093F0
:102080005A078093590730E020E040E069E08FE490
:1020900097E00E9468031092AA071092A90786E9A8
:1020A00090E090938407809383078BE493E0909370
:1020B00088078093870788E08093890710928A07B2
:1020C0001092B8071092D8071092D40781E080933D
:1020D000D9078093DA0785E991E09093860780938A
:1020E00085078FE497E00E94D7041092A207109210
:1020F000A1071092A6071092A5078FEF9FEF90936C
:10210000A4078093A3079093A8078093A707E09163
:102110008507F09186070280F381E02D8FE497E038
:10212000099585E091E09093AC078093AB071092FE
:10213000BB07C0937807C0937907C0937A07CF9104
:102140000895789484B5826084BD84B5816084BD2F
:1021500085B5826085BD85B5816085BD80916E0045
:10216000816080936E001092810080918100826076
:1021700080938100809181008160809381008091B3
:1021800080008160809380008091B10084608093A2
:10219000B1008091B00081608093B00080917A009E
:1021A000846080937A0080917A00826080937A00C4
:1021B00080917A00816080937A0080917A008068B3
:1021C00080937A001092C100E091B202F091B302C4
:1021D00082E08083E091AE02F091AF021082E09144
:1021E000B002F091B10280E180831092BA02E091D6
:1021F000B602F091B70286E08083E091B402F091DC
:10220000B502808180618083E091B402F091B502D3
:10221000808188608083E091B402F091B502808172
:1022200080688083E091B402F091B50280818F7D57
:1022300080838EE991E00E94750DE0915307F09143
:10224000540730E020E040E06AE08FE497E0099531
:102250008091DA07882321F08FE497E00E94920DA5
:1022600080E00E9408018FE497E00E94BA07C091C5
:102270008A0780918907C80FE0914F07F0915007B6
:102280008189C81708F44DC08FE497E00E94E802E6
:1022900080E00E940801E0915307F091540730E07C
:1022A00020E040E06BE08FE497E009958FE497E051
:1022B0000E94920D70E060E090E080E00E94C10614
:1022C0008FE497E00E94BA078FE497E00E94E8024B
:1022D00084EA91E00E94750D8FE497E00E94920DD0
:1022E00060E270E080E490E00E94C1068FE497E035
:1022F0000E94BA078FE497E00E94E8028CEA91E01E
:102300000E94750D84EB91E00E94750DC0E0D0E055
:102310002097F1F30E943E028823D1F30E9400002F
:10232000F7CF8091DA07882321F08FE497E00E94AD
:10233000920D8C2F96CFA1E21A2EAA1BBB1BFD017A
:102340000DC0AA1FBB1FEE1FFF1FA217B307E40794
:10235000F50720F0A21BB30BE40BF50B661F771FEC
:10236000881F991F1A9469F76095709580959095CC
:102370009B01AC01BD01CF0108950E94CE11A59F24
:10238000900DB49F900DA49F800D911D1124089570
:10239000EE0FFF1F0590F491E02D0994A29FB0016C
:1023A000B39FC001A39F700D811D1124911DB29F89
:1023B000700D811D1124911D0895DC0101C06D93E4
:0C23C00041505040E0F70895F894FFCF22
:1023CC001815A015C019FF1815A115C819FF181557
:1023DC00AE19FF1815AF19FF1815AE15D5168015C7
:1023EC00A8163F15D316001540158D16141520167A
:1023FC000015A115C815DA1612158116CF15D916A8
:10240C00F115DB1640152E15A415A619FF000114A5
:10241C000A6464323200127A000004289610080014
:10242C000080004000000000007402D4010102C1D1
:10243C000232021002240200000000C80A5A09727B
:10244C000D3009530940093109000000001F0BF73A
:10245C000A720D710DD7046205C7040D0A004245BE
:10246C0047494E004652414D452030004652414DA1
:0A247C0045203100444F4E4500009A
:00000001FF
