:100000000C9462000C948A000C948A000C948A0070
:100010000C948A000C948A000C948A000C948A0038
:100020000C948A000C948A000C948A000C948A0028
:100030000C948A000C948A000C948A000C948A0018
:100040000C942B0E0C948A000C949B0E0C94750E41
:100050000C948A000C948A000C948A000C948A00F8
:100060000C94CD0E0C948A000000000023002600A2
:10007000290000000000240027002A0000000000E2
:10008000250028002B0004040404040404040202D4
:100090000202020203030303030301020408102007
:1000A0004080010204081020010204081020000012
:1000B0000008000201000003040700000000000027
:1000C0000000EC0F11241FBECFEFD8E0DEBFCDBF84
:1000D00011E0A0E0B1E0E0E4F4E202C005900D928E
:1000E000A23CB107D9F724E0A2ECB1E001C01D9217
:1000F000A936B207E1F710E0C2E6D0E004C02197CC
:10010000FE010E940212C136D107C9F70E94EC100D
:100110000C941E120C940000662329F06A3019F02A
:10012000862F90E008958FEF9FEF0895AF92BF92D2
:10013000CF92DF92EF92FF920F93CF93DF93EC0178
:10014000DA017901942F9770E1E0F0E09F01092E28
:1001500001C0220F0A94EAF7522F6E018AE8C80EF6
:10016000D11CF601808140E0823018F4422F8130AA
:1001700049F15D01F8EFAF22E8ADF9AD2881398191
:10018000D90150968C918A9D90018B9D300D112440
:10019000620F731FDF01A60FB71F01111AC0EA0E0D
:1001A000FB1E8C91842B85278D93AE15BF05C9F757
:1001B000DF91CF910F91FF90EF90DF90CF90BF90A4
:1001C000AF90089550E0D5CF440F550FE114F104DE
:1001D00079F33C91342B35273C939F5F9770E1E096
:1001E000EE1AF1089111F0CF2CAD3DADA20FB31F67
:1001F000F6018081823028F4813009F051E041E03D
:10020000E5CF51E0E3CF80E0089590E080E00895ED
:100210009B01DC011896ED91FC9141E067E10994A6
:10022000833081F028F4813099F08230A9F008956C
:100230008730A9F08830C9F08430B1F48091800013
:100240008F7D03C0809180008F7780938000089518
:1002500084B58F7784BD089584B58F7DFBCF809161
:10026000B0008F778093B00008958091B0008F7DAB
:10027000F9CF1F93CF93DF93282F30E0F901E25598
:10028000FF4F8491F901E656FF4FD491F901EA57E7
:10029000FF4FC491CC23A9F0162F81110E941001A9
:1002A000EC2FF0E0EE0FFF1FE458FF4FA591B49143
:1002B0008FB7F894EC91111108C0D095DE23DC9330
:1002C0008FBFDF91CF911F910895DE2BF8CFCF9391
:1002D000DF9390E0FC01E656FF4F24918A579F4F31
:1002E000FC0184918823D1F090E0880F991FFC01D4
:1002F000EE58FF4FA591B491FC01E458FF4FC59112
:10030000D491623071F49FB7F8943C91822F80951C
:1003100083238C93E8812E2B28839FBFDF91CF917D
:1003200008958FB7F894EC912E2B2C938FBFF6CFB6
:100330003FB7F8948091A6029091A702A091A802DD
:10034000B091A90226B5A89B05C02F3F19F00196D0
:10035000A11DB11D3FBFBA2FA92F982F8827BC011F
:10036000CD01620F711D811D911D42E0660F771F47
:10037000881F991F4A95D1F708958F929F92AF9247
:10038000BF92CF92DF92EF92FF926B017C010E94AD
:1003900098014B015C01C114D104E104F104B9F0EE
:1003A0000E949801681979098A099B09683E73407F
:1003B0008105910580F321E0C21AD108E108F10816
:1003C00088EE880E83E0981EA11CB11CE4CFFF903C
:1003D000EF90DF90CF90BF90AF909F908F90089557
:1003E000AF92BF92CF92DF92EF92FF920F931F9343
:1003F000CF93DF936C017B018B01040F151FEB0181
:100400005E01AE18BF08C017D10759F06991D60137
:10041000ED91FC910190F081E02DC6010995892BA9
:1004200079F7C501DF91CF911F910F91FF90EF9068
:10043000DF90CF90BF90AF900895FC01538D448D15
:10044000252F30E0842F90E0821B930B541710F07F
:10045000CF96089501970895FC01918D828D98178C
:1004600061F0A28DAE0FBF2FB11D5D968C91928D64
:100470009F5F9F73928F90E008958FEF9FEF089595
:10048000FC01918D828D981731F0828DE80FF11D5E
:10049000858D90E008958FEF9FEF0895FC01918D79
:1004A000228D892F90E0805C9F4F821B91098F7372
:1004B000992708958AEA92E00E944E0221E0892B52
:1004C00009F420E0822F089580E090E0892B29F044
:1004D0000E945A0281110C9400000895FC01A48D21
:1004E000A80FB92FB11DA35ABF4F2C91848D90E056
:1004F00001968F739927848FA689B7892C93A08939
:10050000B1898C91837080648C93938D848D9813C2
:1005100006C00288F389E02D80818F7D8083089555
:10052000EF92FF920F931F93CF93DF93EC0181E043
:10053000888F9B8D8C8D98131AC0E889F9898081EA
:1005400085FF15C09FB7F894EE89FF896083E8891D
:10055000F98980818370806480839FBF81E090E00F
:10056000DF91CF911F910F91FF90EF900895F62E9C
:100570000B8D10E00F5F1F4F0F731127E02E8C8D36
:100580008E110CC00FB607FCFACFE889F98980817B
:1005900085FFF5CFCE010E946E02F1CFEB8DEC0FFF
:1005A000FD2FF11DE35AFF4FF0829FB7F8940B8F98
:1005B000EA89FB8980818062CFCFCF93DF93EC0102
:1005C000888D8823B9F0AA89BB89E889F9898C913B
:1005D00085FD03C0808186FD0DC00FB607FCF7CFF7
:1005E0008C9185FFF2CF808185FFEDCFCE010E94F7
:1005F0006E02E9CFDF91CF910895DC011A96ED915B
:10060000FC9130E020E00994462FDC011496ED9136
:10061000FC9130E020E06BE00994DC011696ED914E
:10062000FC9130E020E040E069E10994DC0116969D
:10063000ED91FC9130E020E040E068E109949A01FE
:10064000DC011696ED91FC91462F67E10994EF923B
:10065000FF920F931F93CF93DF931F92CDB7DEB717
:100660007C018B01D8016C91673129F150F465311F
:10067000A0F40F90DF91CF911F910F91FF90EF9019
:1006800008956A3118F16E3FA1F7F801418149835D
:1006900069E2C7010E94FD020BC0F8014181498354
:1006A000D7011696ED91FC9130E020E0C701099545
:1006B0000E5F1F4FD7CFF80181818983AE014F5F55
:1006C0005F4F61E0C7010E941F03F2CF0F5F1F4F12
:1006D000D7011696ED91FC9130E020E040E0C70193
:1006E0000995C0CF462FDC011696ED91FC9130E0C4
:1006F00020E066E10994462FDC011696ED91FC910D
:1007000030E020E065E10994EF92FF920F931F9390
:10071000CF93DF93EC01042F79016D3009F446C0CB
:1007200050F46B30C9F1693009F49FC06A3009F4A4
:1007300065C080E046C06E3009F452C06F3099F752
:100740000E941603F7011381110F110F110F6C890D
:10075000160F60E4CE010E947B03612F62956F70DB
:100760006061CE010E947B03612F6F70CE010E94F9
:100770007203F7016481606BCE010E947203F7017E
:10078000408151816281660F660F660FCE010E9423
:100790001F030150A1F72EC063E171E0442311F063
:1007A0006EE071E0CE010E9427030AC0411110C023
:1007B00067E071E00E942703E881F98182898C8BD0
:1007C00081E0DF91CF911F910F91FF90EF900895FD
:1007D00060E071E00E942703E881F9818389EFCF0F
:1007E0000E94160361E8CE010E947B03602FCE01B8
:1007F0000E947203CE010E940D03E2CFEA85FB85C1
:1008000030E020E040E068E2CE010995EE81FF8112
:1008100030E020E040E064E1CE01099541E06BE486
:10082000CE010E94FD02E881F981448169E2CE0196
:100830000E94FD0240E06BE4CE010E94FD02E881CF
:10084000F981448169E2CE010E94FD0241E06BE43E
:10085000CE010E94FD02E881F981458169E2CE0165
:100860000E94FD0268E171E09DCF8DE491E09983E3
:1008700088831C8AA5CFDC011896ED91FC9130E0AD
:1008800020E040E069E10994DC011896ED91FC91CB
:1008900030E020E040E068E10994CF93DF931F92BD
:1008A000CDB7DEB76983BE016F5F7F4F0E9408013D
:1008B0000F90DF91CF910895EF92FF921F93CF9306
:1008C000DF93EC01162F7A010E94440460E4CE010C
:1008D0000E944D04E885F9859701412F67E1CE011B
:1008E0000995CE01DF91CF911F91FF90EF900C946D
:1008F0003B04EF92FF921F93CF93DF93EC01142FF1
:100900007901663181F138F4643109F44BC0653105
:1009100079F080E022C06831C9F150F16931C9F73E
:100920008091A002882391F1CE010E943B042EC049
:100930008091A002882319F0CE010E943B04CE01D1
:100940000E94440460E0CE010E944D04612FCE015C
:100950000E944D0481E08093A002DF91CF911F910E
:10096000FF90EF900895642F0E944D0481E0F5CF31
:100970008091A002882319F0CE010E943B04A701B8
:10098000193138F4612FCE010E945C041092A0024C
:10099000EDCF68E1CE010E945C04185188E1E80EB9
:1009A000F11CEDCF8E898F3F11F488E78E8BE8859F
:1009B000F9859701412F64E1CE01DF91CF911F911D
:1009C000FF90EF9009940F93FC01E05CFF4F0190C2
:1009D000F081E02D4E1B5F0BDC01D496ED91FC9174
:1009E00009950F910895CF93DF93FC01A081B18108
:1009F00082AD90E09C0143E0220F331F4A95E1F75E
:100A000037AF26AF50962C91509748E0249F900125
:100A1000112435AF24AF23AD30E0B90153E0660FA8
:100A2000771F5A95E1F7EF01C05CDF4F7983688348
:100A300051964C915197E901C80FD91F50E04C17BE
:100A40005D0718F4CA01821B930BEF01CE5BDF4FE9
:100A500079836883229623E0880F991F2A95E1F70E
:100A6000860F971F99838883229654968D919C9127
:100A7000559799838883E85BFF4F56968D919C919B
:100A800091838083DF91CF9108950F931F93FC0191
:100A9000E25BFF4F0190F081E02DDC01A05BBF4FD6
:100AA0000D90BC91A02D4A175B0740F4E017F107A9
:100AB00048F00417150730F080E019C0E017F1077F
:100AC000C0F3FACFFC01E65BFF4F40815181845BAC
:100AD0009F4FFC01808191816817790758F481E06C
:100AE0004217530720F081E02617370728F71F9198
:100AF0000F91089542175307B0F3DECF2F923F9224
:100B00004F925F926F927F928F929F92AF92BF921D
:100B1000CF92DF92EF92FF920F931F93CF93DF93C9
:100B2000CDB7DEB72A970FB6F894DEBF0FBECDBFA4
:100B30009A878987865B9F4F9A838983FC011182FC
:100B40001082E985FA85EA5BFF4F40805180298554
:100B50003A85245B3F4F3C832B83F90151824082CD
:100B6000E985FA85EE5BFF4F2080318029853A8543
:100B7000225B3F4F3E832D83F90131822082E9853C
:100B8000FA85EC5BFF4F6080718029853A85205B98
:100B90003F4F38872F83F90171826082E985FA859A
:100BA000E85AFF4FE080F180E985FA85EC5AFF4F63
:100BB000A080B180E985FA85EA5AFF4FC080D180D4
:100BC000E985FA85EE5AFF4F808091808701950173
:100BD000A601B40189859A850E94450529853A8533
:100BE0002C573F4F3A87298781111BC0F90110828A
:100BF0002A960FB6F894DEBF0FBECDBFDF91CF911E
:100C00001F910F91FF90EF90DF90CF90BF90AF902A
:100C10009F908F907F906F905F904F903F902F901C
:100C2000089581E0E985FA8580838114910421F09B
:100C3000E981FA8191828082A414B50420F4EB81C9
:100C4000FC81B182A0822C143D0420F4ED81FE8150
:100C5000D182C082E614F70458F6EF81F885F1825C
:100C6000E082C6CF0F93CF93DF93E02FDC01AC5728
:100C7000BF4FFC91FF2309F460C02115310509F431
:100C80005CC02230310538F0023009F04AC06F5F95
:100C90007F4F621B730B0E2F0170E0FD52C0FC01F1
:100CA000E25BFF4F0190F081E02D4E175F0708F4E3
:100CB00044C0FC01E05BFF4F0190F081E02D4E1736
:100CC0005F07D8F5FC01E45BFF4F0190F081E02D58
:100CD000DC01A65BBF4F0D90BC91A02D260F371FE6
:100CE0002617370738F56E177F0718F59F01215033
:100CF0003109A217B30708F56A177B0708F4BD018D
:100D00002E173F0708F4F901E61BF70BEC01AEA91B
:100D1000BFA914960D90BC91A02D9F01FD010995CE
:100D20000CC0033009F0B7CF4F5F5F4F421B530B2E
:100D3000B2CFBD016E177F07E0F2DF91CF910F9127
:100D40000895FC01E65BFF4F0190F081E02D6E17E6
:100D50007F0798F3FC01E45BFF4F0190F081E02DE9
:100D60006E177F0750F7FC01E05BFF4F0190F081A9
:100D7000E02DDC01A25BBF4F0D90BC91A02D240F94
:100D8000351F24173507A8F44E175F0788F49F0115
:100D900021503109A217B30780F64A175B0708F400
:100DA000AD012E173F0708F4F901E41BF50BAECF98
:100DB000AD014E175F0708F6EDCF213069F038F02E
:100DC000223079F0840F911D47FD9A950895860F82
:100DD000911D67FD9A950895841B910947FD939590
:100DE0000895861B910967FD93950895213069F058
:100DF00038F0223079F0861B910967FD93950895AC
:100E0000840F911D47FD9A950895860F911D67FDEA
:100E10009A950895841B910947FD939508953F92F3
:100E20004F925F926F927F928F929F92AF92BF92FA
:100E3000CF92DF92EF92FF920F931F93CF93DF93A6
:100E40007C01162F442EEC01C25ADF4F5E806F806A
:100E50006C018AE8C80ED11C78847518312E711681
:100E600008F4372C8C809D800E85202F462D652D13
:100E70008A819B810E94DD065C01202F462D652D15
:100E8000C4010E94F606AC01442079F08C85F6017D
:100E90008083232D30E0B501C7010E94320617156B
:100EA00048F017196394512CD7CF8B858111F7CF58
:100EB0008D85EDCF150D1E836F82DF91CF911F9130
:100EC0000F91FF90EF90DF90CF90BF90AF909F90E9
:100ED0008F907F906F905F904F903F900895DC01CE
:100EE0001A964C911A97ED91FC911197249130E04C
:100EF000042E02C0359527950A94E2F7842F860FB9
:100F0000883068F031961196FC93EE93E49198E066
:100F1000941B01C0EE0F9A95EAF72E2B88501A9673
:100F20008C938FEF9FEF01C0880F6A95EAF7809549
:100F300082230895FC01E60FF11D849190E0982F23
:100F400088273196E4918E0F911D0895CF93DF93FA
:100F5000EC016BAFEEA9FFA90190F081E02D09959E
:100F6000EEA9FFA90280F381E02DCE01DF91CF91A0
:100F70000994AF92BF92CF92DF92EF92FF920F93BC
:100F80001F93CF93DF9300D000D01F92CDB7DEB771
:100F90008C01DC01DA96AC90DA97DB96EC90DB976B
:100FA000ED91FC91B188FE2CD12CC12CD801ED9192
:100FB000FC9111978089D8962D913C911C82FD82DD
:100FC0008B83B8E08B9FC00111248C9DA0018D9D67
:100FD000500D9C9D500D1124240F351F3A832983F9
:100FE000D8011496ED91FC919E012F5F3F4F41E097
:100FF0006FE0C8010995F3948F2D8E198A1528F496
:10100000BFEFCB1ADB0AFB1488F20F900F900F9002
:101010000F900F90DF91CF911F910F91FF90EF9064
:10102000DF90CF90BF90AF900895089508950F93EB
:101030001F93CF93DF93EC01862F642F8C32B8F48B
:101040008A32D8F5883239F18932E9F1803408F4EE
:1010500072C0982F9F73FE01E90FF11D868D8F3F9F
:1010600061F1903108F045C00E94390126C08D32EF
:1010700081F160F394EB980F923040F78F73C80FB3
:10108000D11D8E8D411133C00E94390161E08E8DDA
:101090000E94670112C08E01025E1F4FD0E0F8016E
:1010A00081918F018F3F31F061E0D03108F062E033
:1010B0000E946701DF5FD63191F781E0DF91CF9128
:1010C0001F910F91089570E090E080E00E94BD01B3
:1010D000F4CF85E090E0433010F082E090E0880F9C
:1010E000991F880F991F05970197F1F7E6CF62E0E6
:1010F000CFCF282F30E0F901E255FF4F8491F9015D
:10110000E656FF4F0491F901EA57FF4F149111235E
:1011100079F081110E941001E12FF0E0EE0FFF1F26
:10112000E859FF4FA591B491EC910E2381E009F4A9
:1011300080E0898FC2CF80E0C1CF20912702260FA7
:101140003327331F21323105ECF420917602FC0164
:1011500090E080E0243069F082E00895A0912702B9
:101160002191AC01495F5D4FA40FB52FB11D2C93A8
:101170000196861798F380912702680F60932702E3
:1011800080E0089581E008951092760281E08093D6
:1011900075021092500261E082E10E94390161E023
:1011A00083E10E943901E9EBF0E080818E7F80834A
:1011B00080818D7F808388E48093B80085E480936C
:1011C000BC000895CF93DF9391E0909306028823AB
:1011D000B9F0C091B800D091BA008091BC008A7B70
:1011E0008093BC0060E082E10E94390160E083E10D
:1011F0000E9439010E94C408D093BA00C093B8007D
:10120000DF91CF9108950895E0914F0280914E02B1
:10121000E81730F4F0E0EA51FE4F808190E0089545
:101220008FEF9FEF089590914F0280914E022FEF24
:101230003FEF981748F4E92FF0E0EA51FE4F208184
:1012400030E09F5F90934F02C901089580914E0254
:1012500090914F02891B990B0895CF92DF92EF92E4
:10126000FF920F931F93CF93DF937C01CB018A01F1
:1012700020917C02222389F0EB016B01C40ED51E64
:10128000CC15DD0569F06991D701ED91FC910190D4
:10129000F081E02DC7010995F3CF642F0E949D08CE
:1012A000C801DF91CF911F910F91FF90EF90DF90D8
:1012B000CF900895CF92DF92EF92FF920F931F93FA
:1012C000CF93DF93EC01962F683109F44BC0B9013D
:1012D000993130F49431C9F0973189F080E006C03B
:1012E000993109F461C09032C9F781E0DF91CF9163
:1012F0001F910F91FF90EF90DF90CF90089550E0F5
:1013000087E493E00E942D09F0CF8C859D85AE8502
:10131000BF85892B8A2B8B2B71F4E881F981A585F8
:10132000B0E020EA36E841E050E00E94F7116C8717
:101330007D878E879F8710924F0210924E021092E7
:101340007D0210929F020E94C40885E198E090936C
:101350004D0280934C0286E198E090934B0280937B
:101360004A02C3CF2C853D854E855F8560E074E2DF
:1013700084EF90E00E94D5112051310941095109B3
:1013800056954795379527952093B8008E8990E01C
:101390009595879591E090937C0280939E021092A0
:1013A0007D0210929F02A1CFD0919F02D13208F00E
:1013B00093C0C0919E020E9498016B017C018091B4
:1013C0007602811164C082E08093760281E080938E
:1013D00075028FEF8093740210927302D0937202A1
:1013E000AEE7B2E0E2E5F2E080E0D8137CC0109214
:1013F000510280915102CC0FC82BC09351028091B1
:101400005002813009F073C0109250020E9498017E
:101410006B017C01809151028093BB008091780226
:1014200090917902A0917A02B0917B02892B8A2B4C
:101430008B2B99F00E94980100917802109179020B
:1014400020917A0230917B026C197D098E099F09E7
:101450000617170728073907D8F18091BC0083FDCC
:10146000D9CF85EC8093BC000E9498016B017C0170
:10147000809176028230E9F1809174028F3F61F1B0
:1014800080917402803241F18091740225C0809174
:10149000780290917902A0917A02B0917B02892B17
:1014A0008A2B8B2B09F48BCF0E9498010091780234
:1014B0001091790220917A0230917B026C197D099A
:1014C0008E099F09061717072807390708F077CFF5
:1014D000809177020E94E20810927D0210929F0292
:1014E00010927C0202CF9D9191938F5F7ECF85EE0B
:1014F000B9CF8091780290917902A0917A02B0914F
:101500007B02892B8A2B8B2B09F4B2CF0E94980186
:10151000009178021091790220917A0230917B0239
:101520006C197D098E099F090617170728073907C7
:1015300008F09ECFCDCFCF93DF931F92CDB7DEB70C
:10154000698320917C022223F9F020919F022032AE
:1015500058F021E030E0FC013383228390E080E00A
:101560000F90DF91CF91089580917D02E82FF0E0F8
:10157000E258FD4F998190838F5F80937D02809325
:101580009F0281E090E0ECCF61E0CE0101960E94E5
:101590009D08F7CFCF92DF92EF92FF920F931F93A8
:1015A000CF93DF936C01EB017B01E40EF51E10E09D
:1015B00000E0CE15DF0561F06991D601ED91FC9157
:1015C0000190F081E02DC6010995080F191FF1CF98
:1015D000C801DF91CF911F910F91FF90EF90DF90A5
:1015E000CF9008952F923F924F925F926F927F9289
:1015F0008F929F92AF92BF92CF92DF92EF92FF9223
:101600000F931F93CF93DF93CDB7DEB728970FB615
:10161000F894DEBF0FBECDBF7C016C0124E0C20E8A
:10162000D11CFC01E057FF4F0190F081E02DC60175
:1016300009958C018E3F9F4F08F061C0370184E906
:10164000680E711CF3010190F081E02DFD83EC83A5
:101650005701F2E9AF0EB11CF5018080918097012E
:1016600020593F4F3B832A83F9018081813009F45F
:1016700070C008F45FC0823009F476C0833009F48A
:1016800082C0F701EC59FF4F9182808232962C8103
:101690003D813183208338978081918147969D8356
:1016A0008C830F3F110511F008F020C1B69601366A
:1016B000110530F40134110558F0F701EE57FF4FD2
:1016C000808191812C813D81280F391F3D832C839E
:1016D0008C819D810196FC01249121115FC090E0D5
:1016E00080E0EA81FB812081213009F4C1C108F446
:1016F000B7C1223009F4BEC1233009F4C3C181E06F
:1017000090E028960FB6F894DEBF0FBECDBFDF91F4
:10171000CF911F910F91FF90EF90DF90CF90BF90EE
:10172000AF909F908F907F906F905F904F903F9081
:101730002F900895F701E05AFF4F0190F081E02DBE
:10174000C60109952C813D81280F391F3D832C83CB
:1017500098CFF701E05AFF4F0190F081E02DC601CC
:101760000995881A990A8DCFF701E05AFF4F019029
:10177000F081E02DC6010995EC81FD81E81BF90B94
:10178000FD83EC837ECFF701E05AFF4F0190F0819B
:10179000E02DC6010995880E991E73CFEC81FD815D
:1017A00024912017110609F09AC0CF0102960097E4
:1017B00009F495CFF701EE59FF4FF887EF83918336
:1017C00080831286739660818F8198850E946F074F
:1017D000EF81F8858087F701EA58FF4F60818F819C
:1017E00098850E946F07582EEF81F88581879701B1
:1017F00022573F4F3D832C83F9019081EF81F8857B
:10180000948781E0911180E0EF81F8858587F70169
:10181000E958FF4F8080682D8F8198850E946F075F
:10182000382EF701E858FF4F2080622D8F81988570
:101830000E946F07982EF701E758FF4F1081612F24
:101840008F8198850E946F079FEF910F01E010E054
:10185000980101C0220F9A95EAF7821B8E83EF81CF
:10186000F885408414140CF0C4C08A94C80101C0E7
:10187000880F8A94EAF7381AF685F983950C2A942A
:10188000C80101C0880F2A94EAF7282E29182F2FA3
:10189000422D632DEF81F885828193810E94DD06C0
:1018A0004C01EF81F885938382832981422D632D3A
:1018B000848195810E94F606EF81F8859583848363
:1018C000F981F13009F49AC008F44EC0F23009F4FD
:1018D000A4C0F33009F4B5C0BC0194014FC0FC01B1
:1018E00084912C813D81280F311DF0CEF701EA57FC
:1018F000FF4F80819181EC81FD81E80FF91FFD830D
:10190000EC834F0160E0C4010E949A072C813D8165
:10191000280F391F3D832C8362E0C4010E949A077F
:1019200034E0830E911C8017910760F3EC81FD81F8
:10193000849190E0982F88273196E4918E2B009720
:1019400009F4CDCE0817190721F48C819D810396E7
:101950002ECFEC81FD813296E4912C813D812E0FBA
:10196000311D3D832C83E2CF9401240D311D47FCB2
:101970003A95BC01650D711D57FC7A958B01AC0140
:10198000B401C6010E944505882399F1EF81F885CD
:10199000168217824701F3E78F0E911C24E7E20EAF
:1019A000F11CF40160818F8198850E946F07082FD8
:1019B000F70160818F8198850E946F07182F40E0A2
:1019C000602FC6010E940F0741E0612FC6010E94EF
:1019D0000F0761E08F8198850E946F078111EFCF1B
:1019E000EF81F88587818515E4F28485EC81FD819E
:1019F0008083FE818F2FFF0F990B73CE051911097C
:101A000057FC139594012F5F3F4FBC01640D711D6E
:101A100047FC7A95800E911EB1CFA8014419510957
:101A200047FC539594012F5F3F4F0519110957FC4F
:101A30001395BC016F5F7F4F800F911F840E951E21
:101A40009DCF9401250D311D57FC3A9504191109BC
:101A500047FC1395BC016F5F7F4F800F911F8ECFA6
:101A6000F50120813181820F931F9183808347CEBE
:101A7000F301F7CFF50120813181281B390B318328
:101A800020833DCEF301F7CF089590E080E00895E4
:101A9000CF93DF93FC0101900020E9F73197AF016C
:101AA000481B590BBC018AEA92E00E94F001EC014C
:101AB00042E050E06BE971E08AEA92E00E94F001B6
:101AC0008C0F9D1FDF91CF9108950E94480D8AEAE7
:101AD00092E00E94DD0262E370E080E090E00C940E
:101AE000BD01FC01A081B18150962C9182AD38E0FE
:101AF000839FC0011124289FA001299F500D11240C
:101B000070E060E080AD91AD0C9417121F93CF93FD
:101B1000DF93EC010E94B9071BAD8AAD180FE88175
:101B2000F9818189181768F0EC81FD8130E020E0AF
:101B300040E060E1CE01099580E0DF91CF911F91F7
:101B40000895FE01E557FF4F8081882319F0CE01EB
:101B50000E94710D612FCE010E94A60781E0EDCF9A
:101B6000CF93DF93EC01FC01E557FF4F8081882381
:101B700019F0CE010E94710D60E0CE01DF91CF918E
:101B80000C94A6070F931F93CF93DF9387ED93E0F9
:101B90000E94B00D00E210E020E430E050E040E0B0
:101BA00070E060E087ED93E00E944505882381F0B6
:101BB000D0E0C0E000E020E430E0AE0170E060E0A2
:101BC00087ED93E00E9432062196C032D10591F74D
:101BD00087ED93E00E94860D8111DCCFDF91CF91DC
:101BE0001F910F91089585ED8093BC00809178023C
:101BF00090917902A0917A02B0917B020796A11D83
:101C0000B11D23E0B695A795979587952A95D1F7AD
:101C10002091BC0024FD03C01092760208954091EB
:101C200078025091790260917A0270917B02452B83
:101C3000462B472B69F30097A105B10541F02AE235
:101C40002A95F1F700C00197A109B109E1CF809170
:101C500077020C94E2081F920F920FB60F92112494
:101C60002F933F938F939F93AF93BF938091A20243
:101C70009091A302A091A402B091A5023091A1027B
:101C800023E0230F2D3758F50196A11DB11D209398
:101C9000A1028093A2029093A302A093A402B09306
:101CA000A5028091A6029091A702A091A802B091EE
:101CB000A9020196A11DB11D8093A6029093A702CF
:101CC000A093A802B093A902BF91AF919F918F9169
:101CD0003F912F910F900FBE0F901F90189526E8FF
:101CE000230F0296A11DB11DD2CF1F920F920FB6E6
:101CF0000F9211242F933F934F935F936F937F9392
:101D00008F939F93AF93BF93EF93FF938AEA92E0F1
:101D10000E946E02FF91EF91BF91AF919F918F91C1
:101D20007F916F915F914F913F912F910F900FBED7
:101D30000F901F9018951F920F920FB60F921124BB
:101D40002F938F939F93EF93FF93E091BA02F091BB
:101D5000BB028081E091C002F091C10282FD1BC0F4
:101D600090818091C3028F5F8F732091C40282178C
:101D700041F0E091C302F0E0E655FD4F958F80936E
:101D8000C302FF91EF919F918F912F910F900FBE02
:101D90000F901F9018958081F4CF1F920F920FB66D
:101DA0000F9211242F933F934F935F936F937F93E1
:101DB0008F939F93AF93BF93EF93FF938091B9005D
:101DC000887F803609F44AC0F0F5883209F4A7C04C
:101DD00018F5803109F49BC0B8F4882309F4F9C0E0
:101DE000883009F494C0FF91EF91BF91AF919F911A
:101DF0008F917F916F915F914F913F912F910F90B4
:101E00000FBE0F901F901895883109F488C080325A
:101E100051F78093740214C0803409F49DC040F4DB
:101E20008033B9F38833F9F68093740285ECB0C03F
:101E3000803509F485C0883509F496C0883499F650
:101E40000E94F30DD0CF883909F48CC038F588375B
:101E500029F050F4883611F0803729F683E080931A
:101E600076021092490257C0883809F47BC0803945
:101E700019F0803809F0B7CF80914902803208F01C
:101E800071C0E091490281E08E0F809349028091F8
:101E9000BB00F0E0E75DFD4F80833DC0803B39F043
:101EA000E0F4803A09F479C0883A09F09CCF84E0E4
:101EB000809376021092280210922702E0914C0241
:101EC000F0914D0209958091270281110FC081E0A8
:101ED000809327021092070209C0803C09F4A6CF24
:101EE000883C09F4A3CF883B09F07DCFE09128021C
:101EF00081E08E0F80932802F0E0E95FFD4F808142
:101F00008093BB00909128028091270229C0809184
:101F100051028093BB0085EC8093BC0064CF90910C
:101F2000730280917202981758F5E091730281E074
:101F30008E0F80937302F0E0EE5AFD4F8081E9CF5F
:101F4000E091730281E08E0F809373028091BB0059
:101F5000F0E0EE5AFD4F80839091730280917202FF
:101F60009817C8F285E8D8CFE091730281E08E0F10
:101F7000809373028091BB00F0E0EE5AFD4F8083A6
:101F80008091750281115CCF81E08093500284EAD8
:101F90008093BC001092760226CF85EC8093BC0023
:101FA0001092760280914902803230F4E091490229
:101FB000F0E0E75DFD4F10826091490270E0E09132
:101FC0004A02F0914B0289E292E00995109249028F
:101FD0000ACF1092740234CFCF931092AD021092B8
:101FE000AC0288EE93E0A0E0B0E08093AE02909364
:101FF000AF02A093B002B093B10229E631E0309372
:10200000AB022093AA0225EC30E03093B702209374
:10201000B60224EC30E03093B9022093B80220ECF1
:1020200030E03093BB022093BA0221EC30E03093D1
:10203000BD022093BC0222EC30E03093BF0220931B
:10204000BE0226EC30E03093C1022093C002109211
:10205000C3021092C4021092C5021092C6021092DE
:102060004A031092490380934B0390934C03A0932F
:102070004D03B0934E038BE791E090934803809318
:1020800047031092D6031092D5038CE890E090930A
:1020900064048093630410926604109265041092A5
:1020A0006804109267041092EF038DE891E090931A
:1020B000D4038093D3031092D8031092D7031092C5
:1020C000EC031092E3031092E4031092E5031092E4
:1020D000E6038FEF8093ED038093F103E5EFF3E0E8
:1020E0008BE094E0CFEFC1938E179F07E1F784E870
:1020F00093E09093DC038093DB0389E794E0909373
:10210000DE038093DD038AE599E09093E0038093FA
:10211000DF0387E198E09093E2038093E10330E0EE
:1021200020E040E069E087ED93E00E948403109294
:1021300032041092310486E990E090930C0480936D
:102140000B0483E593E09093100480930F0481E0E7
:1021500080931104109212041092400410926004B3
:1021600010925C04809361048093620485E991E09D
:1021700090930E0480930D0487ED93E00E94F30486
:1021800010922A041092290410922E0410922D0409
:102190008FEF9FEF90932C0480932B049093300447
:1021A00080932F04E0910D04F0910E040280F381DE
:1021B000E02D87ED93E0099585E091E0909334045C
:1021C0008093330410924304C0930004C09301042D
:1021D000C0930204CF910895789484B5826084BD41
:1021E00084B5816084BD85B5826085BD85B581601B
:1021F00085BD80916E00816080936E001092810099
:102200008091810082608093810080918100816053
:102210008093810080918000816080938000809114
:10222000B10084608093B1008091B00081608093A0
:10223000B00080917A00846080937A0080917A0067
:10224000826080937A0080917A00816080937A0026
:1022500080917A00806880937A001092C100E091AA
:10226000BA02F091BB0282E08083E091B602F09165
:10227000B7021082E091B802F091B90280E1808348
:102280001092C202E091BE02F091BF0286E080830C
:10229000E091BC02F091BD02808180618083E09179
:1022A000BC02F091BD02808188608083E091BC0215
:1022B000F091BD02808180688083E091BC02F09142
:1022C000BD0280818F7D8083E091DB03F091DC0390
:1022D00030E020E040E06AE087ED93E0099587ED8B
:1022E00093E00E94B00D87ED93E00E94860D81116E
:1022F000FACF60E087ED93E00E94A60760E087EDEB
:1023000093E00E9404030E94C20D8EE991E00E94B6
:10231000650DE091DB03F091DC0330E020E040E06C
:102320006EE087ED93E0099584EA91E00E94650DE7
:10233000E091DB03F091DC0330E020E04FEF6EE052
:1023400087ED93E0099561E087ED93E00E94040337
:1023500088EA91E00E94650D60E087ED93E00E94BD
:1023600004038FEA91E00E94650DE091DB03F09198
:10237000DC0330E020E041E06DE087ED93E009957B
:102380000E94C20D85EB91E00E94650D8DEB91E0FE
:102390000E94480DC0E0D0E02097F1F30E945A025D
:1023A0008823D1F30E940000F7CFA1E21A2EAA1BC6
:1023B000BB1BFD010DC0AA1FBB1FEE1FFF1FA217F5
:1023C000B307E407F50720F0A21BB30BE40BF50BF2
:1023D000661F771F881F991F1A9469F7609570957B
:1023E000809590959B01AC01BD01CF0108950E949D
:1023F0000812A59F900DB49F900DA49F800D911D74
:1024000011240895EE0FFF1F0590F491E02D09941B
:10241000A29FB001B39FC001A39F700D811D112425
:10242000911DB29F700D811D1124911D0895DC0135
:1024300001C06D9341505040E0F70895F894FFCFEC
:102440001815A015C019FF1815A115C819FF1815E2
:10245000AE19FF1815AF19FF1815AE15D516801552
:10246000A8163F15D316001540158D161415201605
:102470000015A115C815DA1612158116CF15D91633
:10248000F115DB1640152E15A415A619FF00011431
:102490000A6464323200127A0000042896100800A0
:1024A0000080004000000000009002F0011D02DDED
:1024B000024E022C024002000000009B0A2D09453A
:1024C0000D030926091309040900000000F20ACAD5
:1024D0000A450D440DF3047E05E3040D0A0053483C
:1024E0004F574E0044494D0041534C454550004123
:1024F00057414B4500464C495050454400444F4ECF
:02250000450094
:00000001FF
