:100000000C9458000C9480000C9480000C94800098
:100010000C9480000C9480000C9480000C94800060
:100020000C9480000C9480000C9480000C94800050
:100030000C9480000C9480000C9480000C94800040
:100040000C946A040C9480000C94DA040C94B404AC
:100050000C9480000C9480000C9480000C94800020
:100060000C940C050C948000000000002500280072
:100070002B00040404040404040402020202020229
:10008000030303030303010204081020408001025C
:1000900004081020010204081020000000080002DB
:1000A00001000003040700000000000000002B0610
:1000B00011241FBECFEFD8E0DEBFCDBF11E0A0E01E
:1000C000B1E0E2EFF2E102C005900D92AE34B1076B
:1000D000D9F722E0AEE4B1E001C01D92A23CB20724
:1000E000E1F710E0C8E5D0E004C02197FE010E94CE
:1000F0007109C735D107C9F70E9464060C947709C6
:100100000C94000090E0FC01E656FF4F2491FC01A6
:10011000EA57FF4F3491FC01EE58FF4FE491EE2374
:10012000C9F0222339F0233001F1A8F4213019F16C
:10013000223029F1F0E0EE0FFF1FE859FF4FA591A3
:10014000B4918FB7F894EC91611126C030953E239D
:100150003C938FBF08952730A9F02830C9F0243090
:1001600049F7809180008F7D03C0809180008F7758
:1001700080938000DFCF84B58F7784BDDBCF84B5DB
:100180008F7DFBCF8091B0008F778093B000D2CF6E
:100190008091B0008F7DF9CF3E2BDACF3FB7F89436
:1001A0008091C5019091C601A091C701B091C8018D
:1001B00026B5A89B05C02F3F19F00196A11DB11DC2
:1001C0003FBFBA2FA92F982F8827BC01CD01620FFE
:1001D000711D811D911D42E0660F771F881F991FB9
:1001E0004A95D1F7089508950895AF92BF92CF929E
:1001F000DF92EF92FF920F931F93CF93DF936C01E7
:100200007B018B01040F151FEB015E01AE18BF08C7
:10021000C017D10759F06991D601ED91FC91019079
:10022000F081E02DC6010995892B79F7C501DF9191
:10023000CF911F910F91FF90EF90DF90CF90BF90E3
:10024000AF900895FC01538D448D252F30E0842F0D
:1002500090E0821B930B541710F0CF9608950197EE
:100260000895FC01918D828D981761F0A28DAE0FDB
:10027000BF2FB11D5D968C91928D9F5F9F73928F62
:1002800090E008958FEF9FEF0895FC01918D828D8E
:10029000981731F0828DE80FF11D858D90E008955B
:1002A0008FEF9FEF0895FC01918D228D892F90E0B3
:1002B000805C9F4F821B91098F739927089589E174
:1002C00092E00E94530121E0892B09F420E0822F63
:1002D000089580E090E0892B29F00E945F01811150
:1002E0000C9400000895FC01A48DA80FB92FB11D36
:1002F000A35ABF4F2C91848D90E001968F7399275C
:10030000848FA689B7892C93A089B1898C91837039
:1003100080648C93938D848D981306C00288F38932
:10032000E02D80818F7D80830895EF92FF920F935F
:100330001F93CF93DF93EC0181E0888F9B8D8C8D91
:1003400098131AC0E889F989808185FF15C09FB785
:10035000F894EE89FF896083E889F9898081837048
:10036000806480839FBF81E090E0DF91CF911F91F7
:100370000F91FF90EF900895F62E0B8D10E00F5F18
:100380001F4F0F731127E02E8C8D8E110CC00FB6EE
:1003900007FCFACFE889F989808185FFF5CFCE0186
:1003A0000E947301F1CFEB8DEC0FFD2FF11DE35A8D
:1003B000FF4FF0829FB7F8940B8FEA89FB89808109
:1003C0008062CFCFCF93DF93EC01888D8823B9F083
:1003D000AA89BB89E889F9898C9185FD03C0808150
:1003E00086FD0DC00FB607FCF7CF8C9185FFF2CFCD
:1003F000808185FFEDCFCE010E947301E9CFDF91AF
:10040000CF91089520916F01260F3327331F21329A
:100410003105ECF42091EF01FC0190E080E0243004
:1004200069F082E00895A0916F012191AC01415BD8
:100430005E4FA40FB52FB11D2C930196861798F32C
:1004400080916F01680F60936F0180E0089581E0F3
:1004500008951092EF0181E08093EE011092C9019E
:1004600061E082E10E94820061E083E10E948200FB
:10047000E9EBF0E080818E7F808380818D7F8083B7
:1004800088E48093B80085E48093BC000895CF93FE
:10049000DF9391E090934E018823B9F0C091B800AA
:1004A000D091BA008091BC008A7B8093BC0060E050
:1004B00082E10E94820060E083E10E9482000E944B
:1004C0002902D093BA00C093B800DF91CF9108956C
:1004D000CF92DF92EF92FF920F931F93CF93DF9310
:1004E000D091180281E0D13208F09CC0C09117026F
:1004F0000E94CE006B017C018091EF0181116CC0E4
:1005000082E08093EF0181E08093EE018FEF809392
:10051000ED011092EC01D093EB01A7EFB1E0EBEC11
:10052000F1E080E0D8138DC01092CA018091CA0119
:10053000CC0FC82BC093CA018091C901813009F04A
:1005400084C01092C9010E94CE006B017C01809191
:10055000CA018093BB008091F1019091F201A091BA
:10056000F301B091F401892B8A2B8B2BA1F00E940F
:10057000CE000091F1011091F2012091F301309130
:10058000F4016C197D098E099F09061717072807C2
:10059000390708F442C08091BC0083FDD8CF85ECB8
:1005A0008093BC000E94CE006B017C018091EF0122
:1005B000823009F44CC08091ED018F3F09F469C08D
:1005C0008091ED01803209F466C08091ED018033A5
:1005D00009F463C084E026C08091F1019091F2019A
:1005E000A091F301B091F401892B8A2B8B2B09F494
:1005F00083CF0E94CE000091F1011091F201209171
:10060000F3013091F4016C197D098E099F090617D9
:1006100017072807390708F06FCF8091F0010E9473
:10062000470285E01092F601109218021092F5012F
:10063000DF91CF911F910F91FF90EF90DF90CF90BE
:1006400008959D9191938F5F6DCF85EEA9CF809195
:10065000F1019091F201A091F301B091F401892B85
:100660008A2B8B2B09F4A2CF0E94CE000091F101BE
:100670001091F2012091F3013091F4016C197D0980
:100680008E099F09061717072807390708F08ECF2C
:10069000C4CF80E0C7CF82E0C5CF83E0C3CF089549
:1006A000E091970180919601E81730F4F0E0E85668
:1006B000FE4F808190E008958FEF9FEF0895909115
:1006C0009701809196012FEF3FEF981748F4E92F9B
:1006D000F0E0E856FE4F208130E09F5F9093970155
:1006E000C90108958091960190919701891B990BFA
:1006F0000895CF92DF92EF92FF920F931F93CF93C3
:10070000DF937C01CB018A012091F501222389F03E
:10071000EB016B01C40ED51ECC15DD0569F06991A6
:10072000D701ED91FC910190F081E02DC701099571
:10073000F3CF642F0E940202C801DF91CF911F9175
:100740000F91FF90EF90DF90CF900895CF93DF93BC
:100750001F92CDB7DEB769832091F5012223F9F00E
:1007600020911802203258F021E030E0FC01338360
:10077000228390E080E00F90DF91CF9108958091E7
:10078000F601E82FF0E0E950FE4F998190838F5FEA
:100790008093F6018093180281E090E0ECCF61E055
:1007A000CE0101960E940202F7CF90E080E008950A
:1007B000FC0101900020E9F73197AF01481B590B6C
:1007C000BC0189E192E00C94F5008F929F92AF9268
:1007D000BF920F931F93CF93DF93CDB7DEB7A1974F
:1007E0000FB6F894DEBF0FBECDBF19A2423008F499
:1007F0004AE08E010F5D1F4F842E912CB12CA12C4D
:10080000A50194010E944F09E62FB901CA01EA30FF
:10081000F4F4E05DD801EE938D01232B242B252BDE
:1008200079F790E080E0109719F0CD010E94D8038D
:10083000A1960FB6F894DEBF0FBECDBFDF91CF916A
:100840001F910F91BF90AF909F908F900895E95C9A
:10085000E1CF0C94D803682F70E090E080E04AE08C
:100860000C94E50385ED8093BC008091F10190919B
:10087000F201A091F301B091F4010796A11DB11D01
:1008800023E0B695A795979587952A95D1F720915E
:10089000BC0024FD03C01092EF0108954091F101C6
:1008A0005091F2016091F3017091F401452B462BB8
:1008B000472B69F30097A105B10541F02AE22A957B
:1008C000F1F700C00197A109B109E1CF8091F001D2
:1008D0000C9447021F920F920FB60F9211242F9380
:1008E0003F938F939F93AF93BF938091C10190915A
:1008F000C201A091C301B091C4013091C00123E0B5
:10090000230F2D3758F50196A11DB11D2093C0016D
:100910008093C1019093C201A093C301B093C4011D
:100920008091C5019091C601A091C701B091C80105
:100930000196A11DB11D8093C5019093C601A0939E
:10094000C701B093C801BF91AF919F918F913F9123
:100950002F910F900FBE0F901F90189526E8230F30
:100960000296A11DB11DD2CF1F920F920FB60F920A
:1009700011242F933F934F935F936F937F938F93A4
:100980009F93AF93BF93EF93FF9389E192E00E940F
:100990007301FF91EF91BF91AF919F918F917F91E3
:1009A0006F915F914F913F912F910F900FBE0F90DC
:1009B0001F9018951F920F920FB60F9211242F932C
:1009C0008F939F93EF93FF93E0912902F0912A0276
:1009D0008081E0912F02F091300282FD1BC0908156
:1009E000809132028F5F8F7320913302821741F022
:1009F000E0913202F0E0E75EFD4F958F8093320286
:100A0000FF91EF919F918F912F910F900FBE0F90BB
:100A10001F9018958081F4CF1F920F920FB60F92FE
:100A200011242F933F934F935F936F937F938F93F3
:100A30009F93AF93BF93EF93FF938091B900887F0B
:100A4000803609F44AC0F0F5883209F4A7C018F5D9
:100A5000803109F49BC0B8F4882309F4F9C08830C8
:100A600009F494C0FF91EF91BF91AF919F918F9145
:100A70007F916F915F914F913F912F910F900FBE9A
:100A80000F901F901895883109F488C0803251F773
:100A90008093ED0114C0803409F49DC040F480338C
:100AA000B9F38833F9F68093ED0185ECB0C0803559
:100AB00009F485C0883509F496C0883499F60E94F7
:100AC0003204D0CF883909F48CC038F5883729F042
:100AD00050F4883611F0803729F683E08093EF01D7
:100AE0001092910157C0883809F47BC0803919F001
:100AF000803809F0B7CF80919101803208F071C041
:100B0000E091910181E08E0F809391018091BB0073
:100B1000F0E0EF58FE4F80833DC0803B39F0E0F4B9
:100B2000803A09F479C0883A09F09CCF84E0809338
:100B3000EF011092700110926F01E0919401F09119
:100B40009501099580916F0181110FC081E080931B
:100B50006F0110924F0109C0803C09F4A6CF883C78
:100B600009F4A3CF883B09F07DCFE091700181E0CB
:100B70008E0F80937001F0E0E15BFE4F80818093E7
:100B8000BB009091700180916F0129C08091CA01D2
:100B90008093BB0085EC8093BC0064CF9091EC0106
:100BA0008091EB01981758F5E091EC0181E08E0FF0
:100BB0008093EC01F0E0E553FE4F8081E9CFE091B6
:100BC000EC0181E08E0F8093EC018091BB00F0E09E
:100BD000E553FE4F80839091EC018091EB019817D3
:100BE000C8F285E8D8CFE091EC0181E08E0F8093C8
:100BF000EC018091BB00F0E0E553FE4F80838091D3
:100C0000EE0181115CCF81E08093C90184EA809379
:100C1000BC001092EF0126CF85EC8093BC001092AF
:100C2000EF0180919101803230F4E0919101F0E088
:100C3000EF58FE4F10826091910170E0E0919201B7
:100C4000F091930181E791E00995109291010ACF0B
:100C50001092ED0134CFE9E1F2E01382128288EEC6
:100C600093E0A0E0B0E084839583A683B78324E07B
:100C700031E03183208325EC30E03587248724EC74
:100C800030E03787268720EC30E0318B208B21EC59
:100C900030E0338B228B22EC30E0358B248B26EC3A
:100CA00030E0378B268B118E128E138E148EE6EB6E
:100CB000F2E01382128284839583A683B78386E150
:100CC00091E0918380830895789484B5826084BD97
:100CD00084B5816084BD85B5826085BD85B5816040
:100CE00085BD80916E00816080936E0010928100BE
:100CF0008091810082608093810080918100816079
:100D00008093810080918000816080938000809139
:100D1000B10084608093B1008091B00081608093C5
:100D2000B00080917A00846080937A0080917A008C
:100D3000826080937A0080917A00816080937A004B
:100D400080917A00806880937A001092C100E091CF
:100D50002902F0912A0282E08083E0912502F0913D
:100D600026021082E0912702F09128028FEC808306
:100D700010923102E0912D02F0912E02C6E0C08364
:100D8000E0912B02F0912C02808180618083E091C0
:100D90002B02F0912C02808188608083E0912B02ED
:100DA000F0912C02808180688083E0912B02F09189
:100DB0002C0280818F7D8083109297011092960182
:100DC0001092F601109218020E94290283EF90E01F
:100DD000909395018093940184EF90E09093930118
:100DE000809392018DE090E09093BF018093BE01CB
:100DF00081E08093BD0193E19093BC019FE09093CB
:100E0000BA019CE19093B9019EE19093B801C0931F
:100E1000BB018093F50188E68093170260E086EBC2
:100E200092E00E94A6038091B801CAE06C2F0E9454
:100E300043098295807F682F690F86EB92E00E94BC
:100E4000A6038091B9016C2F0E9443098295807F8F
:100E5000682F690F86EB92E00E94A6038091BA0189
:100E60006C2F0E9443098295807F682F690F86EB63
:100E700092E00E94A6038091BB016C2F0E9443095F
:100E80008295807F682F690F86EB92E00E94A6030F
:100E90008091BC016C2F0E9443098295807F682F4E
:100EA000690F86EB92E00E94A6038091BD016C2F32
:100EB0000E9443098295807F682F690F86EB92E03C
:100EC0000E94A6038091BE016C2F0E944309829567
:100ED000807F682F690F86EB92E00E94A6030E9434
:100EE0006802D1E098E6792E25EE622E35EC532E7D
:100EF00000E010E044244A9446E0342ED093F501FB
:100F0000709217021092F6011092180260E086EBC0
:100F100092E00E94A6030E9468020E94CE006B012C
:100F20007C018091EF01811161C0D093EF01D093DA
:100F3000EE014092ED011092EC013092EB01D09362
:100F4000CA018091CA01806D8093CA018091C90154
:100F5000813009F023C11092C9010E94CE006B01BB
:100F60007C018091CA018093BB008091F101909136
:100F7000F201A091F301B091F401892B8A2B8B2B04
:100F8000A1F00E94CE008090F1019090F201A0901B
:100F9000F301B090F4016C197D098E099F09861642
:100FA0009706A806B90608F442C08091BC0083FDEC
:100FB000D8CF5092BC000E94CE006B017C01809182
:100FC000EF01813009F4EDC08091EC01873008F029
:100FD0000AC18091EC01ABECB1E0E8E9F1E090E00E
:100FE000981751F12D9121939F5FFACF8091F101D4
:100FF0009091F201A091F301B091F401892B8A2B19
:101000008B2B09F48ECF0E94CE008090F10190903E
:10101000F201A090F301B090F4016C197D098E09E2
:101020009F0986169706A806B90608F07ACF809120
:10103000F0010E94470280E0109297018093960190
:1010400086EB92E00E945F03982F929597708F70C5
:101050009C9F800D11248093B80186EB92E00E9442
:101060005F03982F92959F708F709C9F800D112425
:101070008093B90186EB92E00E945F03982F9295CE
:1010800093708F709C9F800D11248093BA0186EB22
:1010900092E00E945F03982F92959F708F709C9FA3
:1010A000800D11248093BB0186EB92E00E945F03C8
:1010B000982F92959F708F709C9F800D1124809324
:1010C000BC0186EB92E00E945F03982F92959F707F
:1010D0008F709C9F800D11248093BD0186EB92E060
:1010E0000E945F03982F92959F708F709C9F800D38
:1010F000112490E09093BF018093BE018091BA01CA
:101100000E942B0484E291E00E9429048091B9019D
:101110000E942B0484E291E00E9429048091B8018E
:101120000E942B0486E291E00E9429048091BD0177
:101130000E942B0488E291E00E9429048091BC0166
:101140000E942B0488E291E00E9429046091BE0174
:101150007091BF016053784F90E080E04AE00E94B8
:10116000E5038AE291E00E9429048091BC010E947B
:101170002B048CE291E00E942904E091BB01E15034
:10118000E730B8F5F0E0E953F74F0C947109F50832
:101190003109340937093A093D0940096092BC0018
:1011A0000ACF8091F1019091F201A091F301B091E9
:1011B000F401892B8A2B8B2B09F401CF0E94CE00DE
:1011C0008090F1019090F201A090F301B090F401B1
:1011D0006C197D098E099F0986169706A806B9061F
:1011E00008F0EDCE24CF87E0F6CE8EE291E00E94AB
:1011F00029048AE291E00E94D8038AE491E00E94E7
:10120000D8030E94CE004B015C0188ECC82ED12C83
:10121000E12CF12C0E94CE00681979098A099B09FA
:10122000683E734081059105A8F321E0C21AD108F8
:10123000E108F10888EE880E83E0981EA11CB11C1D
:10124000C114D104E104F10429F70115110509F4D1
:1012500055CE0E945F01882309F450CE0E94000001
:101260004DCE82E391E0C3CF86E391E0C0CF8AE325
:1012700091E0BDCF8EE391E0BACF82E491E0B7CFA9
:1012800086E491E0B4CF991B79E004C0991F9617CA
:1012900008F0961B881F7A95C9F780950895A1E2FA
:1012A0001A2EAA1BBB1BFD010DC0AA1FBB1FEE1FE0
:1012B000FF1FA217B307E407F50720F0A21BB30B2B
:1012C000E40BF50B661F771F881F991F1A9469F7A7
:1012D00060957095809590959B01AC01BD01CF0103
:1012E0000895EE0FFF1F0590F491E02D0994F894F6
:0212F000FFCF2E
:1012F200000000009501F5002201E20153013101D5
:10130200450100000000A6037903D5034F037203D1
:101312005F0350033A0009002F0020002A004D4FBE
:101322004E00545545005745440054485500465216
:0E13320049005341540053554E000D0A00006F
:00000001FF
