:100000000C9468000C9490000C9490000C94900058
:100010000C9490000C9490000C9490000C94900020
:100020000C9490000C9490000C9490000C94900010
:100030000C9490000C9490000C9490000C94900000
:100040000C9452070C9490000C94C2070C949C07DB
:100050000C9490000C9490000C9490000C949000E0
:100060000C94F4070C9490001F1C1F1E1F1E1F1FD2
:100070001E1F1E30303A32313A353200536570203F
:1000800033302032303236000000000025002800D6
:100090002B00040404040404040402020202020209
:1000A000030303030303010204081020408001023C
:1000B00004081020010204081020000000080002BB
:1000C00001000003040700000000000000002009F8
:1000D00011241FBECFEFD8E0DEBFCDBF22E0AEE6D9
:1000E000B1E001C01D92A23EB207E1F711E0A0E02D
:1000F000B1E0E8EAFFE102C005900D92AE36B1072B
:10010000D9F710E0C8E6D0E004C02197FE010E94B4
:10011000A70EC736D107C9F70E9459090C94D20F10
:100120000C94000090E0FC01E654FF4F2491FC0188
:10013000EA55FF4F3491FC01EE56FF4FE491EE2358
:10014000C9F0222339F0233001F1A8F4213019F14C
:10015000223029F1F0E0EE0FFF1FE857FF4FA59185
:10016000B4918FB7F894EC91611126C030953E237D
:100170003C938FBF08952730A9F02830C9F0243070
:1001800049F7809180008F7D03C0809180008F7738
:1001900080938000DFCF84B58F7784BDDBCF84B5BB
:1001A0008F7DFBCF8091B0008F778093B000D2CF4E
:1001B0008091B0008F7DF9CF3E2BDACF3FB7F89416
:1001C0008091BD019091BE01A091BF01B091C0018D
:1001D00026B5A89B05C02F3F19F00196A11DB11DA2
:1001E0003FBFBA2FA92F982F8827BC01CD01620FDE
:1001F000711D811D911D42E0660F771F881F991F99
:100200004A95D1F708958F929F92AF92BF92CF9265
:10021000DF92EF92FF924B015C010E94DE006B01C6
:100220007C010E94DE006C197D098E099F09683EE1
:10023000734081059105A8F321E0821A9108A10875
:10024000B10888EEC80E83E0D81EE11CF11C8114B1
:100250009104A104B10429F7FF90EF90DF90CF90B3
:10026000BF90AF909F908F90089508950895AF929A
:10027000BF92CF92DF92EF92FF920F931F93CF9393
:10028000DF936C017B018B01040F151FEB015E01F5
:10029000AE18BF08C017D10759F06991D601ED918A
:1002A000FC910190F081E02DC6010995892B79F729
:1002B000C501DF91CF911F910F91FF90EF90DF90DB
:1002C000CF90BF90AF900895FC01538D448D252FA2
:1002D00030E0842F90E0821B930B541710F0CF96E0
:1002E000089501970895FC01918D828D981761F012
:1002F000A28DAE0FBF2FB11D5D968C91928D9F5F29
:100300009F73928F90E008958FEF9FEF0895FC0107
:10031000918D828D981731F0828DE80FF11D858DBA
:1003200090E008958FEF9FEF0895FC01918D228D4D
:10033000892F90E0805C9F4F821B91098F739927D2
:10034000089585E392E00E94950121E0892B09F44C
:1003500020E0822F089580E090E0892B29F00E9410
:10036000A10181110C9400000895FC01A48DA80F37
:10037000B92FB11DA35ABF4F2C91848D90E00196E7
:100380008F739927848FA689B7892C93A089B18907
:100390008C91837080648C93938D848D981306C0A8
:1003A0000288F389E02D80818F7D80830895EF920C
:1003B000FF920F931F93CF93DF93EC0181E0888F1F
:1003C0009B8D8C8D98131AC0E889F989808185FFEF
:1003D00015C09FB7F894EE89FF896083E889F98991
:1003E00080818370806480839FBF81E090E0DF9193
:1003F000CF911F910F91FF90EF900895F62E0B8DE6
:1004000010E00F5F1F4F0F731127E02E8C8D8E11A0
:100410000CC00FB607FCFACFE889F989808185FF07
:10042000F5CFCE010E94B501F1CFEB8DEC0FFD2F82
:10043000F11DE35AFF4FF0829FB7F8940B8FEA89C2
:10044000FB8980818062CFCF682F85E392E00C9496
:10045000D701CF93DF93EC01888D8823B9F0AA8967
:10046000BB89E889F9898C9185FD03C0808186FD6F
:100470000DC00FB607FCF7CF8C9185FFF2CF8081BE
:1004800085FFEDCFCE010E94B501E9CFDF91CF917D
:100490000895DC0150E0E8E6F0E081E0861730F4F2
:1004A0009491490F511D8F5F3196F8CF633038F02A
:1004B000CD0183709927892B11F44F5F5F4F9D0108
:1004C0002D5F3F4F36952795369527956DE671E060
:1004D000A69FC001A79F900DB69F900D1124019774
:1004E000820F931F840F951F089520918F01260F6F
:1004F0003327331F21323105ECF420910B02FC012C
:1005000090E080E0243069F082E00895A0918F01AE
:100510002191AC0141595E4FA40FB52FB11D2C9311
:100520000196861798F380918F01680F60938F0171
:1005300080E0089581E0089510920B0281E080939D
:100540000A021092E50161E082E10E94920061E0FE
:1005500083E10E949200E9EBF0E080818E7F80834E
:1005600080818D7F808388E48093B80085E48093C8
:10057000BC000895CF93DF9391E090936E018823A0
:10058000B9F0C091B800D091BA008091BC008A7BCC
:100590008093BC0060E082E10E94920060E083E111
:1005A0000E9492000E949C02D093BA00C093B800AF
:1005B000DF91CF9108958F929F92AF92BF92CF9289
:1005C000DF92EF92FF920F931F93CF93DF93D0911F
:1005D0003402D13208F0D7C0182FC09133020E94E4
:1005E000DE006B017C0180910B0281116BC082E007
:1005F00080930B0210930A028FEF809309021092EE
:100600000802D0930702A3E1B2E0E7EEF1E080E058
:10061000D81391C01092E6018091E601CC0FC82B4F
:10062000C093E6018091E501813009F088C0109205
:10063000E5010E94DE006B017C018091E601809360
:10064000BB0080910D0290910E02A0910F02B0911B
:100650001002892B8A2B8B2BA1F00E94DE000091C7
:100660000D0210910E0220910F02309110026C19B0
:100670007D098E099F09061717072807390708F40F
:1006800042C08091BC0083FDD8CF85EC8093BC0034
:100690000E94DE006B017C0180910B02823009F424
:1006A00050C0809109028F3F09F46FC08091090208
:1006B000803209F46CC080910902803309F469C06A
:1006C00084E026C080910D0290910E02A0910F024D
:1006D000B0911002892B8A2B8B2B09F484CF0E94B6
:1006E000DE0080900D0290900E02A0900F02B0905C
:1006F00010026C197D098E099F0986169706A806B7
:10070000B90608F070CF80910C020E94BA0285E011
:10071000109212021092340210921102DF91CF91C6
:100720001F910F91FF90EF90DF90CF90BF90AF900F
:100730009F908F9008959D9191938F5F69CF85EEE3
:10074000A5CF80910D0290910E02A0910F02B09161
:100750001002892B8A2B8B2B09F49ECF0E94DE007E
:1007600000910D0210910E0220910F0230911002A3
:100770006C197D098E099F09061717072807390785
:1007800008F08ACFC0CF81E0C3CF80E0C1CF82E044
:10079000BFCF83E0BDCFCF93DF93EC018B81882364
:1007A000A1F0888191E0909311028093330210921E
:1007B00012021092340281E00E94DB0291E081116A
:1007C00090E0892FDF91CF9108951092C40110928B
:1007D000C30110921202109234020E949C0285E31F
:1007E00091E09093B5018093B40186E391E09093FA
:1007F000B3018093B20181E08B83CE010E94CB03D1
:10080000982F8111CECFDDCF0895E091C401809162
:10081000C301E81730F4F0E0EB53FE4F808190E025
:1008200008958FEF9FEF08959091C4018091C301C7
:100830002FEF3FEF981748F4E92FF0E0EB53FE4F0E
:10084000208130E09F5F9093C401C9010895809199
:10085000C3019091C401891B990B0895CF92DF9237
:10086000EF92FF920F931F93CF93DF937C01CB0105
:100870008A0120911102222389F0EB016B01C40E41
:10088000D51ECC15DD0569F06991D701ED91FC917C
:100890000190F081E02DC7010995F3CF642F0E94EC
:1008A0007502C801DF91CF911F910F91FF90EF90DA
:1008B000DF90CF900895CF93DF931F92CDB7DEB72F
:1008C0006983209111022223F9F020913402203211
:1008D00058F021E030E0FC013383228390E080E097
:1008E0000F90DF91CF91089580911202E82FF0E0F0
:1008F000ED5EFD4F998190838F5F8093120280930C
:10090000340281E090E0ECCF61E0CE0101960E94DC
:100910007502F7CF90E080E00895FC01019000207F
:10092000E9F73197AF01481B590BBC0185E392E011
:100930000C9437018F929F92AF92BF920F931F93A7
:10094000CF93DF93CDB7DEB7A1970FB6F894DEBF94
:100950000FBECDBF19A2423008F44AE08E010F5DF0
:100960001F4F842E912CB12CA12CA50194010E9423
:10097000850EE62FB901CA01EA30F4F4E05DD80132
:10098000EE938D01232B242B252B79F790E080E02B
:10099000109719F0CD010E948D04A1960FB6F8941E
:1009A000DEBF0FBECDBFDF91CF911F910F91BF90E2
:1009B000AF909F908F900895E95CE1CFCF93DF9344
:1009C0000E948D04EC018AE291E00E948D048C0F5C
:1009D0009D1FDF91CF910895CF93DF93BC01990FB5
:1009E000880B990B4AE00E949A04EC018AE291E09C
:1009F0000E948D048C0F9D1FDF91CF9108952F923F
:100A00003F924F925F926F927F928F929F92AF929E
:100A1000BF92CF92DF92EF92FF920F931F93CF93EB
:100A2000DF935C011B016A01F12CE12CD5011496C6
:100A30008D919C9186010E191F098017910708F46A
:100A40008C01F501D0810E94DE002B013C018091D8
:100A50000B02811172C0C02F013208F0C0E2F1E038
:100A6000F0930B0221E0C601801B910BE816F906FA
:100A700008F420E020930A028FEF8093090210927D
:100A800008028C0F80930702A1E0A093E6018091F9
:100A9000E601DD0FD82BD093E6018091E50181308E
:100AA00009F090C01092E5010E94DE002B013C018C
:100AB0008091E6018093BB0080910D0290910E021F
:100AC000A0910F02B0911002892B8A2B8B2BA1F0E1
:100AD0000E94DE0020910D0230910E0240910F0223
:100AE000509110026419750986099709261737076E
:100AF0004807590708F442C08091BC0083FDD8CF55
:100B0000B5ECB093BC000E94DE002B013C0180914B
:100B10000B02813009F45AC0809108028C1710F43E
:100B2000C0910802A7EEB1E0E5ECF1E080E08C179F
:100B300051F19D9191938F5FFACF80910D02909129
:100B40000E02A0910F02B0911002892B8A2B8B2BE1
:100B500009F47DCF0E94DE0020910D0230910E023B
:100B600040910F0250911002641975098609970986
:100B7000261737074807590708F069CF80910C02FC
:100B80000E94BA02C0E01092C401C093C301C01712
:100B9000110609F057C041018E0C9F1CE401CE01E3
:100BA000881999098017910798F5D50111968D91AB
:100BB0009C91DC01ED91FC910284F385E02D099577
:100BC0008993EDCFE5EEE093BC009DCF80910D02BF
:100BD00090910E02A0910F02B0911002892B8A2BE6
:100BE0008B2B09F494CF0E94DE0020910D023091EE
:100BF0000E0240910F025091100264197509860986
:100C00009709261737074807590708F080CFB6CF4E
:100C1000E00EF11EEC14FD0408F408CF81E0DF9132
:100C2000CF911F910F91FF90EF90DF90CF90BF90E9
:100C3000AF909F908F907F906F905F904F903F907C
:100C40002F90089580E0EBCF1F93CF93DF93DC01CB
:100C50001496ED91FC91E417F50710F490E01FC095
:100C6000122FEA01FC0181819281208131E03093D1
:100C70001102209333021092120210923402DC010E
:100C8000ED91FC910280F381E02D0995C817D907F9
:100C900029F7812F0E94DB0291E08111DFCF892F9C
:100CA000DF91CF911F910895CF93DF9300D0CDB7FF
:100CB000DEB78FE08A8321E041E050E0BE016E5F45
:100CC0007F4F8091C1019091C2010E94240641E0B2
:100CD00050E0BE016F5F7F4F8091C1019091C201D2
:100CE0000E94FF0489810F900F90DF91CF910895AA
:100CF000EF92FF920F931F93CF93DF93CDB7DEB7A1
:100D00002A970FB6F894DEBF0FBECDBF8C01CE017F
:100D100001967C0188E0F70111928A95E9F7F801C4
:100D200035812AE0832F622F0E94650E982F880F4D
:100D3000890F880F830F8A833481832F0E94650E69
:100D4000982F880F890F880F830F8B833381832F10
:100D50000E94650E982F880F890F880F830F8C8350
:100D600080814281618190E00E944902069667E09D
:100D700070E00E94710E811101C087E08D83F8013F
:100D800032812AE0832F622F0E94650E982F880FF0
:100D9000890F880F830F8E833181832F0E94650E08
:100DA000982F880F890F880F830F8F833081832FAF
:100DB0000E94650E982F880F890F880F830F8887F0
:100DC00021E048E050E0B7018091C1019091C2015B
:100DD0000E9424060E9454069FE099878F778A8795
:100DE00021E042E050E0BE01675F7F4F8091C1018A
:100DF0009091C2010E9424062A960FB6F894DEBF95
:100E00000FBECDBFDF91CF911F910F91FF90EF905B
:100E10000895CF93DF93EC010A971CF480E30E94BE
:100E20002402BE01DD0F880B990B4AE0DF91CF91C0
:100E30000C949A0485ED8093BC0080910D029091F2
:100E40000E02A0910F02B09110020796A11DB11DD4
:100E500023E0B695A795979587952A95D1F7209188
:100E6000BC0024FD03C010920B02089540910D02B6
:100E700050910E0260910F0270911002452B462B8B
:100E8000472B69F30097A105B10541F02AE22A95A5
:100E9000F1F700C00197A109B109E1CF80910C02DF
:100EA0000C94BA021F920F920FB60F9211242F9337
:100EB0003F938F939F93AF93BF938091B90190918C
:100EC000BA01A091BB01B091BC013091B80123E0FF
:100ED000230F2D3758F50196A11DB11D2093B801A0
:100EE0008093B9019093BA01A093BB01B093BC0168
:100EF0008091BD019091BE01A091BF01B091C00150
:100F00000196A11DB11D8093BD019093BE01A093D8
:100F1000BF01B093C001BF91AF919F918F913F915D
:100F20002F910F900FBE0F901F90189526E8230F5A
:100F30000296A11DB11DD2CF1F920F920FB60F9234
:100F400011242F933F934F935F936F937F938F93CE
:100F50009F93AF93BF93EF93FF9385E392E00E943B
:100F6000B501FF91EF91BF91AF919F918F917F91CB
:100F70006F915F914F913F912F910F900FBE0F9006
:100F80001F9018951F920F920FB60F9211242F9356
:100F90008F939F93EF93FF93E0914502F091460268
:100FA0008081E0914B02F0914C0282FD1BC0908148
:100FB00080914E028F5F8F7320914F02821741F014
:100FC000E0914E02F0E0EB5CFD4F958F80934E0276
:100FD000FF91EF919F918F912F910F900FBE0F90E6
:100FE0001F9018958081F4CF1F920F920FB60F9229
:100FF00011242F933F934F935F936F937F938F931E
:101000009F93AF93BF93EF93FF938091B900887F35
:10101000803609F44AC0F0F5883209F4A7C018F503
:10102000803109F49BC0B8F4882309F4F9C08830F2
:1010300009F494C0FF91EF91BF91AF919F918F916F
:101040007F916F915F914F913F912F910F900FBEC4
:101050000F901F901895883109F488C0803251F79D
:101060008093090214C0803409F49DC040F4803399
:10107000B9F38833F9F68093090285ECB0C0803566
:1010800009F485C0883509F496C0883499F60E9421
:101090001A07D0CF883909F48CC038F5883729F081
:1010A00050F4883611F0803729F683E080930B02E4
:1010B0001092B10157C0883809F47BC0803919F00B
:1010C000803809F0B7CF8091B101803208F071C04B
:1010D000E091B10181E08E0F8093B1018091BB005E
:1010E000F0E0EF56FE4F80833DC0803B39F0E0F4E6
:1010F000803A09F479C0883A09F09CCF84E0809363
:101100000B021092900110928F01E091B401F091C6
:10111000B501099580918F0181110FC081E0809305
:101120008F0110926F0109C0803C09F4A6CF883C62
:1011300009F4A3CF883B09F07DCFE091900181E0D5
:101140008E0F80939001F0E0E159FE4F80818093F3
:10115000BB009091900180918F0129C08091E601A0
:101160008093BB0085EC8093BC0064CF9091080213
:1011700080910702981758F5E091080281E08E0FE0
:1011800080930802F0E0E951FE4F8081E9CFE091C1
:10119000080281E08E0F809308028091BB00F0E08E
:1011A000E951FE4F808390910802809107029817C1
:1011B000C8F285E8D8CFE091080281E08E0F8093D5
:1011C00008028091BB00F0E0E951FE4F80838091DE
:1011D0000A0281115CCF81E08093E50184EA80936B
:1011E000BC0010920B0226CF85EC8093BC001092BD
:1011F0000B028091B101803230F4E091B101F0E056
:10120000EF56FE4F10826091B10170E0E091B201A3
:10121000F091B30181E991E009951092B1010ACFF3
:101220001092090234CFFC01908190539A3008F05B
:1012300090E0818180532AE0929F800D11240895CF
:10124000E5E3F2E01382128288EE93E0A0E0B0E0E2
:1012500084839583A683B7832AE031E0318320839A
:1012600025EC30E03587248724EC30E0378726876B
:1012700020EC30E0318B208B21EC30E0338B228B63
:1012800022EC30E0358B248B26EC30E0378B268B3C
:10129000118E128E138E148EE2EDF2E01382128202
:1012A00084839583A683B7838CE191E091838083C7
:1012B0000895CF93DF93CDB7DEB761970FB6F8945B
:1012C000DEBF0FBECDBF789484B5826084BD84B587
:1012D000816084BD85B5826085BD85B5816085BD31
:1012E00080916E00816080936E00109281008091E9
:1012F0008100826080938100809181008160809371
:101300008100809180008160809380008091B10095
:1013100084608093B1008091B00081608093B000C0
:1013200080917A00846080937A0080917A00826054
:1013300080937A0080917A00816080937A00809116
:101340007A00806880937A001092C100E091450293
:10135000F091460282E08083E0914102F0914202E6
:101360001082E0914302F091440280E18083109268
:101370004D02E0914902F0914A0286E08083E091BB
:101380004702F0914802808180618083E0914702AA
:10139000F0914802808188608083E0914702F0915B
:1013A0004802808180688083E0914702F091480282
:1013B00080818F7D80838DE291E00E94DE048091A8
:1013C000C1019091C201009711F00E94490F86E07F
:1013D00090E00E94AD0E8C0188E6F801808382EDDA
:1013E00092E092838183138280E290E095838483EC
:1013F0001093C2010093C1011092C4011092C30165
:1014000010921202109234020E949C0285E391E035
:101410009093B5018093B40186E391E09093B3017A
:101420008093B20181E0F8018383C8010E94CB035D
:1014300081110BC083E391E00E94DE046AE070E05A
:1014400080E090E00E940301F9CF8DE391E00E94DB
:10145000DE0483E491E00E948D040E94540690E033
:10146000880F892F881F990B91950E94EC040E9488
:10147000540690E0880F892F881F990B892B09F457
:1014800055C04BE050E06CE770E0CE0101960E9441
:10149000920CCE010A960E9413098C87E981E154CF
:1014A000E33120F50E2E000CFF0BE75AF54F0C949C
:1014B000A70EEC0B760A760A000C760AEA0B760A7F
:1014C000760A760A6C0A760A760AF30BFE0BFC0B98
:1014D000760A760A760AFA0B8A81813609F476C191
:1014E0008B818E3609F474C187E08D87CE01059615
:1014F0000E9413098E8748E050E063E770E0CE0158
:1015000001960E94920CCE0101960E9413098F87CA
:10151000CE0104960E941309888BCE0107960E9483
:101520001309898BCE010C960E94780683E491E022
:101530000E948D040E94540690E0880F892F881F16
:10154000990B91950E94EC0400E010E0BAE33B2E69
:10155000F1E12F2E8091B6019091B701059799F492
:1015600089E491E00E94DE04F8E1F98382E08A8355
:10157000EDE1EB83F7E1FC838BE38D833E82CE01CB
:1015800001960E9478068091B6019091B70101966C
:101590009093B7018093B6011982E090C101F09059
:1015A000C20120E041E050E0BE016F5F7F4FC70104
:1015B0000E942406882341F047E050E0BE016F5F9F
:1015C0007F4FC7010E94FF0429812F77822F90E06F
:1015D00034E0959587953A95E1F7982F990F990FF3
:1015E000B82EB91ABB0CB20E2A81822F90E044E0CB
:1015F000959587954A95E1F7982F990F990FA82E01
:10160000A91AAA0CA20E2B81822F90E054E0959586
:1016100087955A95E1F7982F990F990F982E991A57
:10162000990C920E2D81822F90E064E0959587951C
:101630006A95E1F7982F990F990FC82EC91ACC0C0B
:10164000C20E2E812F77822F90E074E095958795BA
:101650007A95E1F7982F990F990FD82ED91ADD0CAA
:10166000D20E2F81822F90E0E4E095958795EA9540
:10167000E1F7982F990F990FE82EE91AEE0CE20E78
:10168000F12C82E591E00E948D04B7016053784F00
:1016900090E080E04AE00E949A048DE20E942402D9
:1016A0008D2D90E00E9409078DE20E9424028C2D6E
:1016B00090E00E94090780E20E942402892D90E0B8
:1016C0000E9409078AE30E9424028A2D90E00E946A
:1016D00009078AE30E9424028B2D90E00E940907EB
:1016E00087E591E00E948D044C2D6D2DC7010E946D
:1016F0004902069667E070E00E94710EBC0190E01E
:1017000080E04AE00E949A048DE591E00E948D04F9
:1017100029821A82E090C101F090C20120E041E0EC
:1017200050E0BE016F5F7F4FC7010E9424068823EF
:1017300041F042E050E0BE016F5F7F4FC7010E9461
:10174000FF046A8170E086E0759567958A95E1F7F8
:10175000072E000C880B990B0E94A20C20E030E0B1
:1017600040E85EE30E94010D6B017C01698170E03D
:1017700090E080E00E94A00C9B01AC01C701B60183
:101780000E94C00D6B017C014B015C01AC019B010F
:101790000E94600E8823B1F181E691E00E948D04E1
:1017A0008AE291E00E948D0468EC70E080E090E0B5
:1017B0000E9403010115110509F4CCCE0E94A1017C
:1017C000882309F4C5CE0E940000C2CE81E08DCEF0
:1017D00086E08BCE82E089CE8B81823711F088E063
:1017E00084CE84E082CE8B81823711F085E07DCE7D
:1017F00083E07BCE89E079CE8AE077CE8BE075CE30
:101800008CE073CE26013701E89477F82FEF3FEF95
:101810004FE75FE7C301B2010E94600E81110DC066
:101820002FEF3FEF4FE75FE7C301B2010E949B0C30
:1018300018161CF485E691E0B1CF2FEF3FEF4FE78C
:101840005FE4C701B6010E945B0E18161CF489E61E
:1018500091E0A4CF2FEF3FEF4FE75FECC701B60158
:101860000E949B0C87FDF3CF20E030E0A901C70167
:10187000B6010E949B0C87FF09C08DE20E942402E2
:1018800046015701B7FAB094B7F8B0942AE037EDA3
:1018900043EA5BE3C501B4010E94C00D4B015C014A
:1018A0000E942C0E6B017C010E94A00C9B01AC01DC
:1018B000C501B4010E94BF0D4B015C014AE0C701A4
:1018C000B6010E949A048EE20E94240220E030E0D9
:1018D00040E251E4C501B4010E94010D4B015C01DD
:1018E0000E942C0E6B01F12CE12C4AE0C701B601DD
:1018F0000E949A04C701B6010E94A00C9B01AC0192
:10190000C501B4010E94BF0D20E030E040E251E487
:101910000E94010D0E942C0E90E080E04AE00E949F
:101920009A043ECFFB01DC0102C005900D924150AC
:101930005040D8F708950E94DD0C08F481E0089526
:10194000E89409C097FB3EF4909580957095619559
:101950007F4F8F4F9F4F9923A9F0F92F96E9BB270F
:101960009395F695879577956795B795F111F8CF8B
:10197000FAF4BB0F11F460FF1BC06F5F7F4F8F4FF6
:101980009F4F16C0882311F096E911C0772321F0EC
:101990009EE8872F762F05C0662371F096E8862F84
:1019A00070E060E02AF09A95660F771F881FDAF7DB
:1019B000880F9695879597F90895990F0008550F08
:1019C000AA0BE0E8FEEF16161706E807F907C0F0C5
:1019D00012161306E407F50798F0621B730B840BCD
:1019E000950B39F40A2661F0232B242B252B21F4A7
:1019F00008950A2609F4A140A6958FEF811D811D47
:101A000008950E94140D0C94850D0E94770D38F0F6
:101A10000E947E0D20F0952311F00C946E0D0C9415
:101A2000740D11240C94B90D0E94960D70F3959FBE
:101A3000C1F3950F50E0551F629FF001729FBB27C5
:101A4000F00DB11D639FAA27F00DB11DAA1F649F61
:101A50006627B00DA11D661F829F2227B00DA11D14
:101A6000621F739FB00DA11D621F839FA00D611D9A
:101A7000221F749F3327A00D611D231F849F600DBB
:101A8000211D822F762F6A2F11249F5750409AF0E4
:101A9000F1F088234AF0EE0FFF1FBB1F661F771F70
:101AA000881F91505040A9F79E3F510580F00C943B
:101AB0006E0D0C94B90D5F3FE4F3983ED4F3869518
:101AC00077956795B795F795E7959F5FC1F7FE2BDB
:101AD000880F911D9695879597F9089597F99F67B7
:101AE00080E870E060E008959FEF80EC08950024A6
:101AF0000A941616170618060906089500240A9473
:101B000012161306140605060895092E0394000CF8
:101B100011F4882352F0BB0F40F4BF2B11F460FF87
:101B200004C06F5F7F4F8F4F9F4F089557FD9058B0
:101B3000440F551F59F05F3F71F04795880F97FB91
:101B4000991F61F09F3F79F087950895121613064B
:101B50001406551FF2CF4695F1DF08C0161617067A
:101B60001806991FF1CF86957105610508940895AF
:101B7000E894BB2766277727CB0197F9089550583B
:101B8000BB27AA270E94D70D0C94850D0E94770DC4
:101B900038F00E947E0D20F039F49F3F19F426F4AE
:101BA0000C94740D0EF4E095E7FB0C946E0DE92F88
:101BB0000E94960D58F3BA176207730784079507BA
:101BC00020F079F4A6F50C94B80D0EF4E0950B2EE8
:101BD000BA2FA02D0B01B90190010C01CA01A0017F
:101BE0001124FF27591B99F0593F50F4503E68F1DA
:101BF0001A16F040A22F232F342F4427585FF3CF1B
:101C0000469537952795A795F0405395C9F77EF4EB
:101C10001F16BA0B620B730B840BBAF09150A1F034
:101C2000FF0FBB1F661F771F881FC2F70EC0BA0FBA
:101C3000621F731F841F48F4879577956795B79542
:101C4000F7959E3F08F0B0CF9395880F08F099273D
:101C5000EE0F9795879508950E949E0D88F09F57E7
:101C600098F0B92F9927B751B0F0E1F0660F771FC0
:101C7000881F991F1AF0BA95C9F714C0B13091F0B6
:101C80000E94B80DB1E008950C94B80D672F782F1D
:101C90008827B85F39F0B93FCCF38695779567957B
:101CA000B395D9F73EF490958095709561957F4FE7
:101CB0008F4F9F4F08950E94DD0C08F48FEF089519
:101CC0000E94DD0C880B990B0895991B79E004C0E4
:101CD000991F961708F0961B881F7A95C9F780956B
:101CE0000895AA1BBB1B51E107C0AA1FBB1FA61763
:101CF000B70710F0A61BB70B881F991F5A95A9F7B5
:101D000080959095BC01CD010895A1E21A2EAA1BE1
:101D1000BB1BFD010DC0AA1FBB1FEE1FFF1FA2179B
:101D2000B307E407F50720F0A21BB30BE40BF50B98
:101D3000661F771F881F991F1A9469F76095709521
:101D4000809590959B01AC01BD01CF010895EE0FE8
:101D5000FF1F0590F491E02D09940F931F93CF93EB
:101D6000DF938230910510F482E090E0E091E00290
:101D7000F091E10230E020E0B0E0A0E0309799F48B
:101D80002115310509F44AC0281B390B24303105CF
:101D9000D8F58A819B816115710589F1FB019383D7
:101DA0008283FE0111C04081518102811381481755
:101DB0005907E0F04817590799F4109761F0129607
:101DC0000C93129713961C933296CF01DF91CF910B
:101DD0001F910F9108950093E0021093E102F4CF58
:101DE0002115310551F04217530738F0A901DB01E5
:101DF0009A01BD01DF01F801C1CFEF01F9CF909346
:101E0000E1028093E002CDCFFE01E20FF31F819348
:101E100091932250310939832883D7CF2091DE0254
:101E20003091DF02232B41F4209102013091030114
:101E30003093DF022093DE022091000130910101F6
:101E40002115310541F42DB73EB740910401509161
:101E50000501241B350BE091DE02F091DF02E21751
:101E6000F307A0F42E1B3F0B2817390778F0AC01BD
:101E70004E5F5F4F2417350748F04E0F5F1F50939A
:101E8000DF024093DE02819391939FCFF0E0E0E088
:101E90009CCFCF93DF930097E9F0FC013297138238
:101EA0001282A091E002B091E102ED0130E020E069
:101EB0001097A1F420813181820F931F2091DE02BF
:101EC0003091DF022817390709F061C0F093DF0273
:101ED000E093DE02DF91CF910895EA01CE17DF078C
:101EE000E8F54A815B819E0141155105B1F7E90191
:101EF000FB83EA8349915991C40FD51FEC17FD0765
:101F000061F4808191810296840F951FE901998384
:101F10008883828193819B838A83F0E0E0E012963C
:101F20008D919C9113970097B9F52D913C91119744
:101F3000CD010296820F931F2091DE023091DF02C5
:101F40002817390739F6309751F51092E1021092AF
:101F5000E002B093DF02A093DE02BCCFD383C28342
:101F600040815181840F951FC817D90761F44E5FD6
:101F70005F4F88819981480F591F518340838A811F
:101F80009B81938382832115310509F0B0CFF093B3
:101F9000E102E093E0029ECFFD01DC01C0CF13829D
:081FA0001282D7CFF894FFCFA5
:101FA8000000E202800000000000D7013701640150
:101FB8002902950173018701000000005B042E04CB
:101FC8008A0404042704140405040D0A0042454742
:101FD800494E004E4F5420464F554E4400524541FD
:101FE8004459004C4F53543D004F574E20444154E0
:101FF80045004E4F573D0020444F573D0020543D6B
:0E200800006E616E00696E66006F7666000005
:00000001FF
