:100000000C945D000C9485000C9485000C94850084
:100010000C9485000C9485000C9485000C9485004C
:100020000C9485000C9485000C9485000C9485003C
:100030000C9485000C9485000C9485000C9485002C
:100040000C94E4050C9485000C9454060C942E0634
:100050000C9485000C9485000C9485000C9485000C
:100060000C9486060C948500000000080002010034
:100070000003040700000000000000000000000072
:10008000250028002B0000000000240027002A0083
:10009000040404040404040402020202020203032E
:1000A0000303030301020408102040800102040836
:1000B0001020010204081020A50711241FBECFEF55
:1000C000D8E0DEBFCDBF12E0A0E0B1E0E6EEF4E1A3
:1000D00002C005900D92A637B107D9F723E0A6E735
:1000E000B2E001C01D92A33EB207E1F710E0CDE5FA
:1000F000D0E004C02197FE010E946B0ACC35D107E5
:10010000C9F70E94DE070C94710A0C94000090E07D
:10011000FC01EC55FF4F249180579F4FFC018491C7
:10012000882399F090E0880F991FFC01EA57FF4F50
:10013000A591B491FC01E458FF4F859194918FB73C
:10014000F894EC91E22BEC938FBF089590E0FC01C2
:10015000E859FF4F2491FC01EC55FF4F3491FC010D
:10016000E057FF4FE491EE23C9F0222339F023300A
:1001700001F1A8F4213019F1223029F1F0E0EE0F5D
:10018000FF1FE458FF4FA591B4918FB7F894EC91FD
:10019000611126C030953E233C938FBF08952730D0
:1001A000A9F02830C9F0243049F7809180008F7D74
:1001B00003C0809180008F7780938000DFCF84B56B
:1001C0008F7784BDDBCF84B58F7DFBCF8091B0006E
:1001D0008F778093B000D2CF8091B0008F7DF9CF20
:1001E0003E2BDACF3FB7F8948091C6029091C702B8
:1001F000A091C802B091C90226B5A89B05C02F3FA7
:1002000019F00196A11DB11D3FBFBA2FA92F982F3C
:100210008827BC01CD01620F711D811D911D42E037
:10022000660F771F881F991F4A95D1F708958F92FF
:100230009F92AF92BF92CF92DF92EF92FF924B01CB
:100240005C010E94F2006B017C010E94F2006C19BB
:100250007D098E099F09683E734081059105A8F3C9
:1002600021E0821A9108A108B10888EEC80E83E047
:10027000D81EE11CF11C81149104A104B10429F7DA
:10028000FF90EF90DF90CF90BF90AF909F908F90B6
:10029000089508950895AF92BF92CF92DF92EF92A2
:1002A000FF920F931F93CF93DF936C017B018B0120
:1002B000040F151FEB015E01AE18BF08C017D10770
:1002C00059F06991D601ED91FC910190F081E02DFA
:1002D000C6010995892B79F7C501DF91CF911F914F
:1002E0000F91FF90EF90DF90CF90BF90AF90089567
:1002F000FC01538D448D252F30E0842F90E0821B2C
:10030000930B541710F0CF96089501970895FC01B0
:10031000918D828D981761F0A28DAE0FBF2FB11D08
:100320005D968C91928D9F5F9F73928F90E0089560
:100330008FEF9FEF0895FC01918D828D981731F01A
:10034000828DE80FF11D858D90E008958FEF9FEF6E
:100350000895FC01918D228D892F90E0805C9F4F44
:10036000821B91098F73992708958AE393E00E9475
:10037000A90121E0892B09F420E0822F089580E073
:1003800090E0892B29F00E94B50181110C940000A6
:100390000895FC01A48DA80FB92FB11DA35ABF4F1A
:1003A0002C91848D90E001968F739927848FA68974
:1003B000B7892C93A089B1898C91837080648C93C8
:1003C000938D848D981306C00288F389E02D808177
:1003D0008F7D80830895EF92FF920F931F93CF93A9
:1003E000DF93EC0181E0888F9B8D8C8D98131AC070
:1003F000E889F989808185FF15C09FB7F894EE8957
:10040000FF896083E889F9898081837080648083B3
:100410009FBF81E090E0DF91CF911F910F91FF90FE
:10042000EF900895F62E0B8D10E00F5F1F4F0F73A6
:100430001127E02E8C8D8E110CC00FB607FCFACF61
:10044000E889F989808185FFF5CFCE010E94C90135
:10045000F1CFEB8DEC0FFD2FF11DE35AFF4FF08232
:100460009FB7F8940B8FEA89FB8980818062CFCF98
:10047000CF93DF93EC01888D8823B9F0AA89BB89DB
:10048000E889F9898C9185FD03C0808186FD0DC0C6
:100490000FB607FCF7CF8C9185FFF2CF808185FFE7
:1004A000EDCFCE010E94C901E9CFDF91CF91089530
:1004B00020919702260F3327331F21323105ECF4A8
:1004C00020913403FC0190E080E0243069F082E068
:1004D0000895A09197022191AC0149585D4FA40F56
:1004E000B52FB11D2C930196861798F38091970232
:1004F000680F6093970280E0089581E0089510925C
:10050000340381E08093130310920E0361E082E1D3
:100510000E94A60061E083E10E94A600E9EBF0E002
:1005200080818E7F808380818D7F808388E480932B
:10053000B80085E48093BC000895CF93DF9391E0E9
:10054000909376028823B9F0C091B800D091BA0098
:100550008091BC008A7B8093BC0060E082E10E94B5
:10056000A60060E083E10E94A6000E947F02D09373
:10057000BA00C093B800DF91CF910895CF92DF9277
:10058000EF92FF920F931F93CF93DF93D82FC62F35
:10059000613208F098C00E94F2006B017C018091EA
:1005A000340381116BC081E0809334038093130383
:1005B0009FEF90931203109211039C0F90931003DE
:1005C00080930F0380910F03DD0FD82BD0930F037F
:1005D00080910E03813009F078C010920E030E94C2
:1005E000F2006B017C0180910F038093BB0080912E
:1005F000360390913703A0913803B0913903892BCA
:100600008A2B8B2BA1F00E94F200009136031091EF
:10061000370320913803309139036C197D098E0915
:100620009F09061717072807390708F448C0809163
:10063000BC0083FDD8CF85EC8093BC000E94F20003
:100640006B017C0180913403813009F440C08091BA
:1006500011038C1710F4C0911103EEEEF2E0A4E147
:10066000B3E080E08C1355C08C2FDF91CF911F91A8
:100670000F91FF90EF90DF90CF9008958091360317
:1006800090913703A0913803B0913903892B8A2BBD
:100690008B2B09F484CF0E94F20000913603109155
:1006A000370320913803309139036C197D098E0985
:1006B0009F09061717072807390708F070CF8091A0
:1006C00035030E949D02C0E0CFCF85EEB5CF80916B
:1006D000360390913703A0913803B0913903892BE9
:1006E0008A2B8B2B09F4AECF0E94F20000913603C7
:1006F0001091370320913803309139036C197D092B
:100700008E099F09061717072807390708F09ACF9F
:10071000D6CF91919D938F5FA5CF8F929F92AF92ED
:10072000BF92CF92DF92EF92FF920F931F93CF93DE
:10073000DF93D091ED02D13208F0D7C0182FC091CD
:10074000EC020E94F2006B017C0180913403811164
:100750006BC082E080933403109313038FEF809378
:10076000120310921103D0931003ACECB2E0EEEE42
:10077000F2E080E0D81391C010920F0380910F0334
:10078000CC0FC82BC0930F0380910E03813009F06A
:1007900088C010920E030E94F2006B017C018091D0
:1007A0000F038093BB008091360390913703A09193
:1007B0003803B0913903892B8A2B8B2BA1F00E942F
:1007C000F2000091360310913703209138033091E5
:1007D00039036C197D098E099F0906171707280729
:1007E000390708F442C08091BC0083FDD8CF85EC66
:1007F0008093BC000E94F2006B017C018091340365
:10080000823009F450C0809112038F3F09F46FC009
:1008100080911203803209F46CC0809112038033FE
:1008200009F469C084E026C08091360390913703B3
:10083000A0913803B0913903892B8A2B8B2B09F4B3
:1008400084CF0E94F2008090360390903703A090EE
:100850003803B09039036C197D098E099F098616FB
:100860009706A806B90608F070CF809135030E945C
:100870009D0285E01092CB021092ED021092CA0206
:10088000DF91CF911F910F91FF90EF90DF90CF906C
:10089000BF90AF909F908F9008959D9191938F5F9F
:1008A00069CF85EEA5CF8091360390913703A09153
:1008B0003803B0913903892B8A2B8B2B09F49ECFF7
:1008C0000E94F20000913603109137032091380303
:1008D000309139036C197D098E099F090617170796
:1008E0002807390708F08ACFC0CF81E0C3CF80E066
:1008F000C1CF82E0BFCF83E0BDCF0895E091C002B9
:100900008091BF02E81730F4F0E0EC5EFC4F80818C
:1009100090E008958FEF9FEF08959091C00280912D
:10092000BF022FEF3FEF981748F4E92FF0E0EC5E9D
:10093000FC4F208130E09F5F9093C002C901089571
:100940008091BF029091C002891B990B0895CF92AC
:10095000DF92EF92FF920F931F93CF93DF937C016F
:10096000CB018A012091CA02222389F0EB016B019D
:10097000C40ED51ECC15DD0569F06991D701ED9146
:10098000FC910190F081E02DC7010995F3CF642F10
:100990000E945802C801DF91CF911F910F91FF90E3
:1009A000EF90DF90CF900895CF93DF931F92CDB754
:1009B000DEB769832091CA022223F9F02091ED026B
:1009C000203258F021E030E0FC013383228390E0B4
:1009D00080E00F90DF91CF9108958091CB02E82FB6
:1009E000F0E0E453FD4F998190838F5F8093CB02B9
:1009F0008093ED0281E090E0ECCF61E0CE010196C2
:100A00000E945802F7CF90E080E00895CF93C62F60
:100A100091E09093CA0290E59093EC021092CB0281
:100A20001092ED02682F87ED93E00E94D4046C2FA2
:100A300087ED93E00E94D40481E00E948D0365E07D
:100A400070E080E090E0CF910C941701FC010190E0
:100A50000020E9F73197AF01481B590BBC018AE32D
:100A600093E00C944B0187E291E00C9426058F9261
:100A70009F92AF92BF920F931F93CF93DF93CDB707
:100A8000DEB7A1970FB6F894DEBF0FBECDBF19A297
:100A9000423008F44AE08E010F5D1F4F842E912CE6
:100AA000B12CA12CA50194010E94490AE62FB9019D
:100AB000CA01EA30F4F4E05DD801EE938D01232BF6
:100AC000242B252B79F790E080E0109719F0CD01C9
:100AD0000E942605A1960FB6F894DEBF0FBECDBFCB
:100AE000DF91CF911F910F91BF90AF909F908F900A
:100AF0000895E95CE1CFCF93DF930E942605EC01D6
:100B00000E9433058C0F9D1FDF91CF9108950C94A7
:100B1000260591E09093CA0290E59093EC02109222
:100B2000CB021092ED02682F87ED93E00E94D4046F
:100B300081E00E948D0361E080E50E94BE02109278
:100B4000C0028093BF02882329F087ED93E00E94C2
:100B50008D0408958FEF089585ED8093BC008091FA
:100B6000360390913703A0913803B091390307966B
:100B7000A11DB11D23E0B695A795979587952A9558
:100B8000D1F72091BC0024FD03C0109234030895D6
:100B900040913603509137036091380370913903C7
:100BA000452B462B472B69F30097A105B10541F072
:100BB0002AE22A95F1F700C00197A109B109E1CF16
:100BC000809135030C949D021F920F920FB60F92E5
:100BD00011242F933F938F939F93AF93BF93809153
:100BE000C2029091C302A091C402B091C50230919B
:100BF000C10223E0230F2D3758F50196A11DB11D29
:100C00002093C1028093C2029093C302A093C402B6
:100C1000B093C5028091C6029091C702A091C8020C
:100C2000B091C9020196A11DB11D8093C602909397
:100C3000C702A093C802B093C902BF91AF919F9120
:100C40008F913F912F910F900FBE0F901F9018958D
:100C500026E8230F0296A11DB11DD2CF1F920F923D
:100C60000FB60F9211242F933F934F935F936F937F
:100C70007F938F939F93AF93BF93EF93FF938AE3F9
:100C800093E00E94C901FF91EF91BF91AF919F91B5
:100C90008F917F916F915F914F913F912F910F9025
:100CA0000FBE0F901F9018951F920F920FB60F92C4
:100CB00011242F938F939F93EF93FF93E0914A0317
:100CC000F0914B038081E0915003F091510382FD3C
:100CD0001BC09081809153038F5F8F7320915403C9
:100CE000821741F0E0915303F0E0E65CFC4F958FF2
:100CF00080935303FF91EF919F918F912F910F90CC
:100D00000FBE0F901F9018958081F4CF1F920F9205
:100D10000FB60F9211242F933F934F935F936F93CE
:100D20007F938F939F93AF93BF93EF93FF938091A4
:100D3000B900887F803609F44AC0F0F5883209F49A
:100D4000A7C018F5803109F49BC0B8F4882309F4D2
:100D5000F9C0883009F494C0FF91EF91BF91AF9131
:100D60009F918F917F916F915F914F913F912F91C3
:100D70000F900FBE0F901F901895883109F488C00E
:100D8000803251F78093120314C0803409F49DC05F
:100D900040F48033B9F38833F9F68093120385EC7D
:100DA000B0C0803509F485C0883509F496C0883410
:100DB00099F60E94AC05D0CF883909F48CC038F57B
:100DC000883729F050F4883611F0803729F683E00F
:100DD000809334031092B90257C0883809F47BC05D
:100DE000803919F0803809F0B7CF8091B90280328C
:100DF00008F071C0E091B90281E08E0F8093B902D2
:100E00008091BB00F0E0E756FD4F80833DC0803B02
:100E100039F0E0F4803A09F479C0883A09F09CCFBF
:100E200084E0809334031092980210929702E0912C
:100E3000BC02F091BD0209958091970281110FC00B
:100E400081E0809397021092770209C0803C09F4F8
:100E5000A6CF883C09F4A3CF883B09F07DCFE09171
:100E6000980281E08E0F80939802F0E0E958FD4FE0
:100E700080818093BB00909198028091970229C055
:100E800080910F038093BB0085EC8093BC0064CFFE
:100E90009091110380911003981758F5E091110378
:100EA00081E08E0F80931103F0E0E251FD4F8081CD
:100EB000E9CFE091110381E08E0F809311038091BF
:100EC000BB00F0E0E251FD4F8083909111038091CF
:100ED00010039817C8F285E8D8CFE091110381E09C
:100EE0008E0F809311038091BB00F0E0E251FD4F23
:100EF00080838091130381115CCF81E080930E0386
:100F000084EA8093BC001092340326CF85EC809352
:100F1000BC00109234038091B902803230F4E09129
:100F2000B902F0E0E756FD4F10826091B90270E01F
:100F3000E091BA02F091BB0289E992E00995109222
:100F4000B9020ACF1092120334CFEAE3F3E013821E
:100F5000128288EE93E0A0E0B0E084839583A683BC
:100F6000B78327E031E03183208325EC30E03587FB
:100F7000248724EC30E03787268720EC30E0318B63
:100F8000208B21EC30E0338B228B22EC30E0358B50
:100F9000248B26EC30E0378B268B118E128E138E2D
:100FA000148EE7EDF3E01382128284839583A68387
:100FB000B78389E191E0918380830895CF93DF9394
:100FC00000D01F92CDB7DEB7789484B5826084BD1F
:100FD00084B5816084BD85B5826085BD85B581603D
:100FE00085BD80916E00816080936E0010928100BB
:100FF0008091810082608093810080918100816076
:101000008093810080918000816080938000809136
:10101000B10084608093B1008091B00081608093C2
:10102000B00080917A00846080937A0080917A0089
:10103000826080937A0080917A00816080937A0048
:1010400080917A00806880937A001092C100E091CC
:101050004A03F0914B0382E08083E0914603F091D4
:1010600047031082E0914803F09149038FEC80839D
:1010700010925203E0914E03F0914F0386E080837B
:10108000E0914C03F0914D03808180618083E09179
:101090004C03F0914D03808188608083E0914C0384
:1010A000F0914D03808180688083E0914C03F09142
:1010B0004D0380818F7D80831092C0021092BF0209
:1010C0001092CB021092ED020E947F0289E491E01F
:1010D0009093BD028093BC028AE491E09093BB029E
:1010E0008093BA028AE00E94870061E08AE00E9451
:1010F000A6001FB7F8948091BE02811124C0EAE9CE
:10110000F0E08491EEEAF0E09491E82FF0E0EE0F49
:10111000FF1FEA57FF4FA591B491EC91E92321F409
:1011200061E08AE00E94A6008AE00E9487008CB5F8
:1011300080618CBD8CB580648CBD8DE00E94870081
:101140008BE00E9487008091BE028F5F8093BE0279
:101150001FBF88E391E00E947B058CE591E00E942F
:101160007B0581E791E00E947B0588E391E00E9486
:101170007B050E94330583E991E00E947B05C12C29
:10118000D12C7601C39410E000E0BB24B394B0925C
:10119000CA02C092EC021092CB021092ED0281E0E2
:1011A0000E948D03811114C089EA91E00E94870595
:1011B0008FE08C1520F08EEB91E00E94870540E1D6
:1011C000C701B6010E9437050E9433050F5F1F4F0C
:1011D0009FEFC91AD90AE90AF90AEFE7CE16D10436
:1011E000E104F104A1F680EC91E00E948705B801CA
:1011F000110F880B990B4AE00E94370583EC91E0B0
:101200000E947B050E9433058AED91E00E947B05D8
:101210006AE280E00E94060563E681E00E9406051E
:1012200080E00E948905082F81E00E948905182F1F
:1012300088EF91E00E948705602F70E090E080E0E9
:101240004AE00E94370580E391E00A3211F48AE215
:1012500091E00E947B058AE092E00E948705612F61
:1012600070E090E080E04AE00E94370580E391E082
:10127000133611F48AE291E00E947B050E94330547
:101280008CE192E00E947B05809100019091010128
:10129000A091020189839A83AB83CE0101967C01E0
:1012A0006E0194E0C90ED11CF70111917F0160E03D
:1012B0008AE00E94A6001EBD00000DB407FEFDCF0F
:1012C0000EB561E08AE00E94A60081E392E00E94F0
:1012D0008705103120F48EEB91E00E948705612F85
:1012E00070E090E080E040E10E94370589E392E001
:1012F0000E948705003120F48EEB91E00E94870563
:10130000602F70E090E080E040E10E9437050E948D
:101310003305EC14FD0441F60E94330580E492E0AD
:101320000E947B050E943305BB24B39428E6A22EBD
:101330003AE0E32E48EE442E43E0542E612C712C0B
:1013400050E0C52E50E0D52EB092CA02A092EC0219
:101350001092CB021092ED0260E087ED93E00E94C4
:10136000D40481E00E948D0363E088E60E94BE02FF
:101370001092C0028093BF0287ED93E00E948D041B
:10138000982F9F7792959F708F70182F9E9D100DAC
:10139000112487ED93E00E948D049C0194E0359523
:1013A00027959A95E1F72F7033278F70082FE29ECB
:1013B000000D112487ED93E00E948D04982F9F73F8
:1013C00092959F708F70F82E9E9DF00C11248FE5E2
:1013D00092E00E948705F9E0FF1520F08EEB91E086
:1013E0000E9487056F2D70E090E080E04AE00E9447
:1013F000370586EF91E00E9487050A3020F48EEBD6
:1014000091E00E948705602F70E090E080E04AE064
:101410000E94370586EF91E00E9487051A3020F47C
:101420008EEB91E00E948705612F70E090E080E0F4
:101430004AE00E94370586E692E00E9487052FB7B2
:10144000F8946091C2027091C3028091C40290919D
:10145000C5022FBFA30192010E94490ACA01B90126
:101460004AE00E94370584E792E00E947B0560ED28
:1014700077E080E090E00E941701C114D10409F4E4
:1014800063CF0E94B501882309F45ECF0E9400005B
:101490005BCFA1E21A2EAA1BBB1BFD010DC0AA1F28
:1014A000BB1FEE1FFF1FA217B307E407F50720F0CD
:1014B000A21BB30BE40BF50B661F771F881F991F48
:1014C0001A9469F760957095809590959B01AC0191
:1014D000BD01CF010895EE0FFF1F0590F491E02D9F
:0614E0000994F894FFCF0F
:1014E600AA554200000000EB014B0178013802A921
:1014F6000187019B0100000000D404A70403057DB9
:1015060004A0048D047E040D0A00205B4F4B5D0091
:10151600205B4641494C5D003D3D3D3D3D3D3D3DE9
:101526003D3D3D3D3D3D3D3D3D3D3D3D3D3D3D3DE5
:101536003D3D3D3D3D3D3D3D3D3D3D00204D756CB8
:1015460074692D50726F746F636F6C2044656D6F94
:10155600002053657269616C202855534152542905
:10156600202B20493243202854574929202B205329
:101576005049005B4932435D205363616E6E696E6C
:1015860067206275732E2E2E002020466F756E64BE
:1015960020646576696365206174203078003000C8
:1015A60020200020646576696365287329206F6EA4
:1015B60020493243206275732E005B4932435D2019
:1015C600454550524F4D2077726974652F7265619B
:1015D6006420746573743A00202057726F74652016
:1015E60034322C20726561642000202057726F749B
:1015F600652039392C207265616420005B5350499F
:101606005D205472616E7366657220746573743AF8
:1016160000202054583D3078002052583D30780044
:10162600536574757020636F6D706C6574652E20DC
:1016360052656164696E67205254432E2E2E005BFC
:101646005254435D200020207C2020557074696D23
:06165600653A200073005C
:00000001FF
