:100000000C9458000C9480000C9480000C94800098
:100010000C9480000C9480000C9480000C94800060
:100020000C9480000C9480000C9480000C94800050
:100030000C9480000C9480000C9480000C94800040
:100040000C94AC040C9480000C941C050C94F604E5
:100050000C9480000C9480000C9480000C94800020
:100060000C944E050C948000000000002500280030
:100070002B00040404040404040402020202020229
:10008000030303030303010204081020408001025C
:1000900004081020010204081020000000080002DB
:1000A00001000003040700000000000000006D06CE
:1000B00011241FBECFEFD8E0DEBFCDBF11E0A0E01E
:1000C000B1E0EAEFF1E102C005900D92A23EB10766
:1000D000D9F723E0A2EEB1E001C01D92AE34B20721
:1000E000E1F710E0C8E5D0E004C02197FE010E94CE
:1000F000F508C735D107C9F70E94A6060C94FB087E
:100100000C94000090E0FC01E656FF4F2491FC01A6
:10011000EA57FF4F3491FC01EE58FF4FE491EE2374
:10012000C9F0222339F0233001F1A8F4213019F16C
:10013000223029F1F0E0EE0FFF1FE859FF4FA591A3
:10014000B4918FB7F894EC91611126C030953E239D
:100150003C938FBF08952730A9F02830C9F0243090
:1001600049F7809180008F7D03C0809180008F7758
:1001700080938000DFCF84B58F7784BDDBCF84B5DB
:100180008F7DFBCF8091B0008F778093B000D2CF6E
:100190008091B0008F7DF9CF3E2BDACF3FB7F89436
:1001A0008091510290915202A0915302B091540259
:1001B00026B5A89B05C02F3F19F00196A11DB11DC2
:1001C0003FBFBA2FA92F982F8827BC01CD01620FFE
:1001D000711D811D911D42E0660F771F881F991FB9
:1001E0004A95D1F708958F929F92AF92BF92CF9286
:1001F000DF92EF92FF924B015C010E94CE006B01F7
:100200007C010E94CE006C197D098E099F09683E11
:10021000734081059105A8F321E0821A9108A10895
:10022000B10888EEC80E83E0D81EE11CF11C8114D1
:100230009104A104B10429F7FF90EF90DF90CF90D3
:10024000BF90AF909F908F90089580914B029091B6
:100250004A02891B990B089508950895AF92BF92A1
:10026000CF92DF92EF92FF920F931F93CF93DF9382
:100270006C017B018B01040F151FEB015E01AE18B1
:10028000BF08C017D10759F06991D601ED91FC91D3
:100290000190F081E02DC6010995892B79F7C50100
:1002A000DF91CF911F910F91FF90EF90DF90CF9052
:1002B000BF90AF900895FC01538D448D252F30E001
:1002C000842F90E0821B930B541710F0CF96089563
:1002D00001970895FC01918D828D981761F0A28D90
:1002E000AE0FBF2FB11D5D968C91928D9F5F9F7356
:1002F000928F90E008958FEF9FEF0895FC01918D0C
:10030000828D981731F0828DE80FF11D858D90E078
:1003100008958FEF9FEF0895FC01918D228D892F15
:1003200090E0805C9F4F821B91098F7399270895FD
:1003300085EA92E00E948C0121E0892B09F420E0FB
:10034000822F089580E090E0892B29F00E94980187
:1003500081110C9400000895FC01A48DA80FB92F01
:10036000B11DA35ABF4F2C91848D90E001968F73DD
:100370009927848FA689B7892C93A089B1898C91FC
:10038000837080648C93938D848D981306C002884B
:10039000F389E02D80818F7D80830895EF92FF9215
:1003A0000F931F93CF93DF93EC0181E0888F9B8D98
:1003B0008C8D98131AC0E889F989808185FF15C052
:1003C0009FB7F894EE89FF896083E889F989808175
:1003D0008370806480839FBF81E090E0DF91CF9144
:1003E0001F910F91FF90EF900895F62E0B8D10E066
:1003F0000F5F1F4F0F731127E02E8C8D8E110CC0D5
:100400000FB607FCFACFE889F989808185FFF5CF1F
:10041000CE010E94AC01F1CFEB8DEC0FFD2FF11D51
:10042000E35AFF4FF0829FB7F8940B8FEA89FB895C
:1004300080818062CFCFCF93DF93EC01888D8823BA
:10044000B9F0AA89BB89E889F9898C9185FD03C037
:10045000808186FD0DC00FB607FCF7CF8C9185FF1C
:10046000F2CF808185FFEDCFCE010E94AC01E9CFB4
:10047000DF91CF91089520910302260F3327331F78
:1004800021323105ECF420917B02FC0190E080E008
:10049000243069F082E00895A09103022191AC011B
:1004A0004D515E4FA40FB52FB11D2C9301968617A9
:1004B00098F380910302680F6093030280E008952F
:1004C00081E0089510927B0281E080937A0210927D
:1004D000550261E082E10E94820061E083E10E94B6
:1004E0008200E9EBF0E080818E7F808380818D7FC8
:1004F000808388E48093B80085E48093BC000895ED
:10050000CF93DF9391E09093E2018823B9F0C091FB
:10051000B800D091BA008091BC008A7B8093BC0067
:1005200060E082E10E94820060E083E10E9482003C
:100530000E946202D093BA00C093B800DF91CF91BD
:1005400008958F929F92AF92BF92CF92DF92EF92D7
:10055000FF920F931F93CF93DF93D091A402D132D8
:1005600008F0D7C0182FC091A3020E94CE006B01E3
:100570007C0180917B0281116BC082E080937B02C1
:1005800010937A028FEF8093790210927802D093C1
:100590007702A3E8B2E0E7E5F2E080E0D81391C08B
:1005A0001092560280915602CC0FC82BC09356026F
:1005B00080915502813009F088C0109255020E9446
:1005C000CE006B017C01809156028093BB0080912C
:1005D0007D0290917E02A0917F02B0918002892BD2
:1005E0008A2B8B2BA1F00E94CE0000917D021091EE
:1005F0007E0220917F02309180026C197D098E0964
:100600009F09061717072807390708F442C0809189
:10061000BC0083FDD8CF85EC8093BC000E94CE0047
:100620006B017C0180917B02823009F450C0809183
:1006300079028F3F09F46FC080917902803209F40A
:100640006CC080917902803309F469C084E026C0CF
:1006500080917D0290917E02A0917F02B0918002F4
:10066000892B8A2B8B2B09F484CF0E94CE0080909B
:100670007D0290907E02A0907F02B09080026C1963
:100680007D098E099F0986169706A806B90608F007
:1006900070CF80917C020E94800285E010928202DD
:1006A0001092A40210928102DF91CF911F910F91BD
:1006B000FF90EF90DF90CF90BF90AF909F908F9082
:1006C00008959D9191938F5F69CF85EEA5CF80911D
:1006D0007D0290917E02A0917F02B0918002892BD1
:1006E0008A2B8B2B09F49ECF0E94CE0000917D02B5
:1006F00010917E0220917F02309180026C197D0959
:100700008E099F09061717072807390708F08ACFAF
:10071000C0CF81E0C3CF80E0C1CF82E0BFCF83E014
:10072000BDCF0895E0914A0280914B02E81730F462
:10073000F0E0E65DFD4F808190E008958FEF9FEF40
:10074000089590914A0280914B022FEF3FEF981746
:1007500048F4E92FF0E0E65DFD4F208130E09F5F37
:1007600090934A02C9010895CF92DF92EF92FF92CF
:100770000F931F93CF93DF937C01CB018A012091CC
:100780008102222389F0EB016B01C40ED51ECC152A
:10079000DD0569F06991D701ED91FC910190F0813F
:1007A000E02DC7010995F3CF642F0E943B02C801D9
:1007B000DF91CF911F910F91FF90EF90DF90CF903D
:1007C0000895CF93DF931F92CDB7DEB76983209151
:1007D00081022223F9F02091A402203258F021E076
:1007E00030E0FC013383228390E080E00F90DF91C2
:1007F000CF91089580918202E82FF0E0ED57FD4FF0
:10080000998190838F5F809382028093A40281E01C
:1008100090E0ECCF61E0CE0101960E943B02F7CF61
:1008200090E080E00895FC0101900020E9F7319705
:10083000AF01481B590BBC0185EA92E00C942E01D4
:1008400084E291E00C9413048F929F92AF92BF9236
:100850000F931F93CF93DF93CDB7DEB7A1970FB65A
:10086000F894DEBF0FBECDBF19A2423008F44AE0B3
:100870008E010F5D1F4F842E912CB12CA12CA50150
:1008800094010E94D308E62FB901CA01EA30F4F4BA
:10089000E05DD801EE938D01232B242B252B79F7D6
:1008A00090E080E0109719F0CD010E941304A1960A
:1008B0000FB6F894DEBF0FBECDBFDF91CF911F9171
:1008C0000F91BF90AF909F908F900895E95CE1CF1A
:1008D000CF93DF930E941304EC010E9420048C0F3D
:1008E0009D1FDF91CF91089585ED8093BC0080918D
:1008F0007D0290917E02A0917F02B09180020796C6
:10090000A11DB11D23E0B695A795979587952A95CA
:10091000D1F72091BC0024FD03C010927B02089502
:1009200040917D0250917E0260917F027091800221
:10093000452B462B472B69F30097A105B10541F0E4
:100940002AE22A95F1F700C00197A109B109E1CF88
:1009500080917C020C9480021F920F920FB60F922E
:1009600011242F933F938F939F93AF93BF938091C5
:100970004D0290914E02A0914F02B09150023091E1
:100980004C0223E0230F2D3758F50196A11DB11D10
:1009900020934C0280934D0290934E02A0934F02FD
:1009A000B09350028091510290915202A091530253
:1009B000B09154020196A11DB11D809351029093F4
:1009C0005202A0935302B0935402BF91AF919F91F2
:1009D0008F913F912F910F900FBE0F901F90189500
:1009E00026E8230F0296A11DB11DD2CF1F920F92B0
:1009F0000FB60F9211242F933F934F935F936F93F2
:100A00007F938F939F93AF93BF93EF93FF9385EA69
:100A100092E00E94AC01FF91EF91BF91AF919F9145
:100A20008F917F916F915F914F913F912F910F9097
:100A30000FBE0F901F9018951F920F920FB60F9236
:100A400011242F938F939F93EF93FF93E091B5021F
:100A5000F091B6028081E091BB02F091BC0282FD70
:100A60001BC090818091BE028F5F8F732091BF0267
:100A7000821741F0E091BE02F0E0EB55FD4F958FFB
:100A80008093BE02FF91EF919F918F912F910F90D4
:100A90000FBE0F901F9018958081F4CF1F920F9278
:100AA0000FB60F9211242F933F934F935F936F9341
:100AB0007F938F939F93AF93BF93EF93FF93809117
:100AC000B900887F803609F44AC0F0F5883209F40D
:100AD000A7C018F5803109F49BC0B8F4882309F445
:100AE000F9C0883009F494C0FF91EF91BF91AF91A4
:100AF0009F918F917F916F915F914F913F912F9136
:100B00000F900FBE0F901F901895883109F488C080
:100B1000803251F78093790214C0803409F49DC06B
:100B200040F48033B9F38833F9F68093790285EC89
:100B3000B0C0803509F485C0883509F496C0883482
:100B400099F60E947404D0CF883909F48CC038F526
:100B5000883729F050F4883611F0803729F683E081
:100B600080937B021092250257C0883809F47BC01D
:100B7000803919F0803809F0B7CF80912502803292
:100B800008F071C0E091250281E08E0F809325026C
:100B90008091BB00F0E0EB5FFD4F80833DC0803B68
:100BA00039F0E0F4803A09F479C0883A09F09CCF32
:100BB00084E080937B021092040210920302E09181
:100BC0002802F091290209958091030281110FC03A
:100BD00081E0809303021092E30109C0803C09F494
:100BE000A6CF883C09F4A3CF883B09F07DCFE091E4
:100BF000040281E08E0F80930402F0E0ED51FE4F7D
:100C000080818093BB00909104028091030229C0EF
:100C1000809156028093BB0085EC8093BC0064CF2A
:100C20009091780280917702981758F5E0917802B8
:100C300081E08E0F80937802F0E0E95AFD4F8081C9
:100C4000E9CFE091780281E08E0F80937802809165
:100C5000BB00F0E0E95AFD4F8083909178028091CB
:100C600077029817C8F285E8D8CFE091780281E042
:100C70008E0F809378028091BB00F0E0E95AFD4F1F
:100C8000808380917A0281115CCF81E0809355024C
:100C900084EA8093BC0010927B0226CF85EC80937F
:100CA000BC0010927B0280912502803230F4E091EA
:100CB0002502F0E0EB5FFD4F10826091250270E0AD
:100CC000E0912602F091270285E092E009951092CA
:100CD00025020ACF1092790234CFE5EAF2E01382BE
:100CE000128288EE93E0A0E0B0E084839583A6832F
:100CF000B78324E031E03183208325EC30E0358771
:100D0000248724EC30E03787268720EC30E0318BD5
:100D1000208B21EC30E0338B228B22EC30E0358BC2
:100D2000248B26EC30E0378B268B118E128E138E9F
:100D3000148EE2E4F3E01382128284839583A68307
:100D4000B78386E191E0918380830895789484B598
:100D5000826084BD84B5816084BD85B5826085BDB7
:100D600085B5816085BD80916E00816080936E0045
:100D70001092810080918100826080938100809137
:100D800081008160809381008091800081608093E8
:100D900080008091B10084608093B1008091B000A8
:100DA00081608093B00080917A00846080937A00A3
:100DB00080917A00826080937A0080917A008160CD
:100DC00080937A0080917A00806880937A001092F4
:100DD000C10010924A0210924B02109282021092AD
:100DE000A4020E9462028CE291E090932902809317
:100DF00028028DE291E09093270280932602E091F1
:100E0000B502F091B60282E08083E091B102F091E8
:100E1000B2021082E091B302F091B4028FEC8083B1
:100E20001092BD02E091B902F091BA0286E080838F
:100E3000E091B702F091B802808180618083E091F7
:100E4000B702F091B802808188608083E091B70298
:100E5000F091B802808180688083E091B702F091C0
:100E6000B80280818F7D808387E291E00E946804D0
:100E700084E491E00E94680487E291E00E946804A3
:100E80000E94200480E691E00E9468042AE0822EFD
:100E9000912CA12CB12CC12CD12C7601D1E0C0E534
:100EA000D0938102C093A302109282021092A402F6
:100EB0006C2D82E493E00E94E103682D82E493E0CC
:100EC0000E94E10381E00E94A10265E070E080E001
:100ED00090E00E94F30085E791E00E9413044AE04D
:100EE000C701B6010E94240482E891E00E94130425
:100EF0004AE0C501B4010E9424040E9420048FEF3F
:100F0000C81AD80AE80AF80A8AE0880E911CA11CBF
:100F1000B11C88E0C816D104E104F10409F60E946E
:100F2000200487E891E00E946804812C912C5401F0
:100F30008AE0C82ED12CE12CF12CC0E0D1E0222493
:100F40002A9495EE392E15EC0C2DD093810280E574
:100F50008093A302109282021092A402682D82E470
:100F600093E00E94E10381E00E94A1020E94CE0072
:100F70002B013C0180917B02811160C0D0937B02E8
:100F8000D0937A022092790210927802109277021E
:100F9000D093560280915602806A809356028091C7
:100FA0005502813009F0C1C0109255020E94CE0056
:100FB0002B013C01809156028093BB0080917D0201
:100FC00090917E02A0917F02B0918002892B8A2BA2
:100FD0008B2BA1F00E94CE0020917D0230917E02E9
:100FE00040917F0250918002641975098609970922
:100FF000261737074807590708F441C08091BC00FD
:1010000083FDD8CF1093BC000E94CE002B013C0181
:1010100080917B02813009F48BC08091780281112C
:10102000A9C080917802A7E5B2E0EAE2F2E090E0A0
:10103000981751F12D9121939F5FFACF80917D02F6
:1010400090917E02A0917F02B0918002892B8A2B21
:101050008B2B09F48FCF0E94CE0020917D0230911E
:101060007E0240917F0250918002641975098609C1
:101070009709261737074807590708F07BCF809153
:101080007C020E94800280E010924A0280934B0210
:1010900077247A94882329F082E493E00E94A103C4
:1010A000782E87E991E00E9413044AE0C501B4015B
:1010B0000E94240482E891E00E941304672D70E0EE
:1010C00090E080E04AE00E942404071155C084EAC1
:1010D00091E00E9468048AE0C80ED11CE11CF11C5A
:1010E0008FEF881A980AA80AB80A8AE5C816D104A8
:1010F000E104F10409F028CF0E942004C11149C085
:101100008EEB91E00E946804C0E0D0E068EE73E0EE
:1011100080E090E00E94F3002097C1F30E949801C4
:101120008823A1F30E940000F1CF3092BC006CCF65
:1011300080917D0290917E02A0917F02B091800209
:10114000892B8A2B8B2B09F463CF0E94CE00209130
:101150007D0230917E0240917F025091800264199D
:10116000750986099709261737074807590708F0B0
:101170004FCF85CF81E057CF8BEA91E00E941304D7
:101180004AE0C701B6010E9424040E942004CF5FF8
:10119000A2CF6C2F70E090E080E04AE00E9424042F
:1011A00080ED91E0AFCFA1E21A2EAA1BBB1BFD017F
:1011B0000DC0AA1FBB1FEE1FFF1FA217B307E40736
:1011C000F50720F0A21BB30BE40BF50B661F771F8E
:1011D000881F991F1A9469F760957095809590956E
:1011E0009B01AC01BD01CF010895EE0FFF1F0590DB
:0A11F000F491E02D0994F894FFCF6C
:1011FA0000000000CE012E015B011B028C016A0176
:10120A007E0100000000E103B403100491032501EC
:10121A00A10392030D0A003D3D3D3D3D3D3D3D3D4F
:10122A003D3D3D3D3D3D3D3D3D3D3D3D3D3D3D3DE4
:10123A003D3D3D002049324320454550524F4D2007
:10124A00522F57205465737420283078353029007E
:10125A0057726974696E6720746573742064617467
:10126A00612E2E2E002020577269746520726567E0
:10127A005B005D203D200052656164696E672062F3
:10128A0061636B2E2E2E002020526561642020722D
:10129A0065675B0020205B4F4B5D0020205B464169
:1012AA00494C5D2065787065637465642000416C03
:1012BA006C20746573747320504153534544210064
:1012CA002074657374287329204641494C45442E7D
:0212DA00000012
:00000001FF
