:100000000C9462000C948A000C948A000C948A0070
:100010000C948A000C948A000C948A000C948A0038
:100020000C948A000C948A000C948A000C948A0028
:100030000C948A000C948A000C948A000C948A0018
:100040000C94B9020C948A000C9429030C940303B9
:100050000C948A000C948A000C948A000C948A00F8
:100060000C948A000C948A000000000024002700F1
:100070002A0000000000250028002B0000000000DE
:1000800023002600290004040404040404040202DA
:100090000202020203030303030301020408102007
:1000A0004080010204081020010204081020000012
:1000B0000008000201000003040700000000000027
:1000C00000003C0611241FBECFEFD8E0DEBFCDBF3D
:1000D00022E0ACE1B1E001C01D92A732B207E1F726
:1000E00011E0A0E0B1E0EEE2F0E102C005900D9277
:1000F000AC31B107D9F710E0C2E6D0E004C02197D7
:10010000FE010E940F08C136D107C9F70E945B03A8
:100110000C9415080C940000833081F028F4813091
:1001200099F08230A9F008958730A9F08830C9F09D
:100130008430B1F4809180008F7D03C08091800075
:100140008F7780938000089584B58F7784BD08955C
:1001500084B58F7DFBCF8091B0008F778093B00006
:1001600008958091B0008F7DF9CFCF93DF93282F32
:1001700030E0F901E255FF4F8491F901E656FF4F57
:10018000D491F901EA57FF4FC491CC23A1F081111A
:100190000E948C00EC2FF0E0EE0FFF1FE458FF4FA1
:1001A000A591B491EC91ED2381E090E009F480E019
:1001B000DF91CF91089580E090E0FACF1F93CF9325
:1001C000DF93282F30E0F901E255FF4F8491F901C8
:1001D000E656FF4FD491F901EA57FF4FC491CC2363
:1001E000A9F0162F81110E948C00EC2FF0E0EE0F89
:1001F000FF1FEE58FF4FA591B4918FB7F894EC9183
:10020000111108C0D095DE23DC938FBFDF91CF9111
:100210001F910895DE2BF8CFCF93DF9390E0FC0180
:10022000E656FF4F24918A579F4FFC018491882303
:10023000D1F090E0880F991FFC01E859FF4FA5917C
:10024000B491FC01EE58FF4FC591D49161110EC0DD
:100250009FB7F8948C91E22FE0958E238C932881A0
:10026000E223E8839FBFDF91CF9108958FB7F89481
:10027000EC91E22BEC938FBFF6CFAF92BF92CF926F
:10028000DF92EF92FF920F931F93CF93DF936C0156
:100290007B018B01040F151FEB015E01AE18BF0837
:1002A000C017D10759F06991D601ED91FC910190E9
:1002B000F081E02DC6010995892B79F7C501DF9101
:1002C000CF911F910F91FF90EF90DF90CF90BF9053
:1002D000AF900895FC01538D448D252F30E0842F7D
:1002E00090E0821B930B541710F0CF96089501975E
:1002F0000895FC01918D828D981761F0A28DAE0F4B
:10030000BF2FB11D5D968C91928D9F5F9F73928FD1
:1003100090E008958FEF9FEF0895FC01918D828DFD
:10032000981731F0828DE80FF11D858D90E00895CA
:100330008FEF9FEF0895FC01918D228D892F90E022
:10034000805C9F4F821B91098F739927089588E8DD
:1003500091E00E949B0121E0892B09F420E0822F8B
:10036000089580E090E0892B29F00E94A701811177
:100370000C9400000895FC01A48DA80FB92FB11DA5
:10038000A35ABF4F2C91848D90E001968F739927CB
:10039000848FA689B7892C93A089B1898C918370A9
:1003A00080648C93938D848D981306C00288F389A2
:1003B000E02D80818F7D80830895EF92FF920F93CF
:1003C0001F93CF93DF93EC0181E0888F9B8D8C8D01
:1003D00098131AC0E889F989808185FF15C09FB7F5
:1003E000F894EE89FF896083E889F98980818370B8
:1003F000806480839FBF81E090E0DF91CF911F9167
:100400000F91FF90EF900895F62E0B8D10E00F5F87
:100410001F4F0F731127E02E8C8D8E110CC00FB65D
:1004200007FCFACFE889F989808185FFF5CFCE01F5
:100430000E94BB01F1CFEB8DEC0FFD2FF11DE35AB4
:10044000FF4FF0829FB7F8940B8FEA89FB89808178
:100450008062CFCF682F88E891E00C94DD01CF93C4
:10046000DF93EC01888D8823B9F0AA89BB89E889DC
:10047000F9898C9185FD03C0808186FD0DC00FB682
:1004800007FCF7CF8C9185FFF2CF808185FFEDCF00
:10049000CE010E94BB01E9CFDF91CF9108958CBDC1
:1004A0009DBD0895FC0101900020E9F73197AF014F
:1004B000481B590BBC0188E891E00C943D018F92D8
:1004C0009F92AF92BF920F931F93CF93DF93CDB7BD
:1004D000DEB7A1970FB6F894DEBF0FBECDBF19A24D
:1004E000423008F44AE08E010F5D1F4F842E912C9C
:1004F000B12CA12CA50194010E949C07E62FB90103
:10050000CA01EA30F4F4E05DD801EE938D01232BAB
:10051000242B252B79F790E080E0109719F0CD017E
:100520000E945202A1960FB6F894DEBF0FBECDBF57
:10053000DF91CF911F910F91BF90AF909F908F90BF
:100540000895E95CE1CFAB01BC01FC0180819181A0
:100550000C946906CF93C82F803118F480E30E9471
:100560002A026C2F70E090E080E040E1CF910C9483
:100570005F021F920F920FB60F9211242F933F9399
:100580008F939F93AF93BF93809184019091850146
:10059000A0918601B09187013091830123E0230F60
:1005A0002D3758F50196A11DB11D2093830180932D
:1005B000840190938501A0938601B0938701809177
:1005C0007F0190918001A0918101B09182010196FB
:1005D000A11DB11D80937F0190938001A0938101A3
:1005E000B0938201BF91AF919F918F913F912F91D5
:1005F0000F900FBE0F901F90189526E8230F0296BC
:10060000A11DB11DD2CF1F920F920FB60F921124D0
:100610002F933F934F935F936F937F938F939F930A
:10062000AF93BF93EF93FF9388E891E00E94BB01E3
:10063000FF91EF91BF91AF919F918F917F916F91BA
:100640005F914F913F912F910F900FBE0F901F9090
:1006500018951F920F920FB60F9211242F938F931C
:100660009F93EF93FF93E0919801F091990180811E
:10067000E0919E01F0919F0182FD1BC090818091CD
:10068000A1018F5F8F732091A201821741F0E09149
:10069000A101F0E0E857FE4F958F8093A101FF91F3
:1006A000EF919F918F912F910F900FBE0F901F9000
:1006B00018958081F4CFCF93DF9300D000D01F92A4
:1006C000CDB7DEB7789484B5826084BD84B581608F
:1006D00084BD85B5826085BD85B5816085BD80910D
:1006E0006E00816080936E00109281008091810085
:1006F000826080938100809181008160809381007D
:10070000809180008160809380008091B10084603E
:100710008093B1008091B00081608093B00080919F
:100720007A00846080937A0080917A00826080935E
:100730007A0080917A00816080937A0080917A00BB
:10074000806880937A001092C100E0919801F09146
:10075000990182E08083E0919401F09195011082EB
:10076000E0919601F091970180E180831092A001C1
:10077000E0919C01F0919D0186E08083E0919A01D7
:10078000F0919B01808180618083E0919A01F091DA
:100790009B01808188608083E0919A01F0919B01A8
:1007A000808180688083E0919A01F0919B01808133
:1007B0008F7D80831FB7F89480911C01811127C021
:1007C000E0E9F0E08491E4EAF0E09491E82FF0E0D1
:1007D000EE0FFF1FE859FF4FA591B491EC91E9236B
:1007E00021F461E08AE00E94DE0061E08AE00E947C
:1007F0000C018CB580618CBD8CB580648CBD61E0D2
:100800008DE00E940C0161E08BE00E940C01809160
:100810001C018F5F80931C011FBF83E191E00E9448
:10082000520289E191E00E945202CC24C394D12C5F
:1008300070E0A72E70E0B72EEFE18E2EE1E09E2E45
:1008400088E891E00E949B01892B09F409C288E89D
:1008500091E00E9479018D3099F3E0917E018A3018
:1008600009F0F2C1AE2FB0E0A25EBE4F1C92EE23A3
:1008700009F46CC010911E019C828B828DE30E9452
:100880002A02EFE9E10FE43108F0DAC10E2E000C84
:10089000FF0BE35BFB4F0C940F08B8055C052006CB
:1008A00020062006200620067104200620062006C9
:1008B00061041305200620062006A9047E042B05EA
:1008C000CC046AE070E0CE0103960E94A302162FCA
:1008D00061E0812F0E940C0160E0812F0E94DE0008
:1008E00031C06AE070E0CE0103960E94A302162F89
:1008F00061E0812F0E940C0161E0EFCF6AE070E0BF
:10090000CE0103960E94A302162F60E0812F0E9461
:100910000C01812F0E94B5002C01990F6608770801
:100920004AE0C301B20177FE0BC08DE20E942A02A9
:1009300066277727CB0164197509860997094AE06C
:100940000E945F0289E191E00E94520210927E01B2
:1009500077CFF12C10E000E06AE070E0CE01039662
:100960000E94A302E62E60E08E2D0E940C018E2DC7
:100970000E94B500892B39F0C601002E01C0880FF6
:100980000A94EAF7F82A0F5F1F4F0830110521F784
:100990008F2D0E94AA02D6CF8091000190911D0157
:1009A000923061F1933089F19130B1F5882321F1D2
:1009B00080E5856090E00E944F0240E150E0BE017A
:1009C0006F5F7F4F8B819C810E94690689819A812C
:1009D0002B813C818217930709F4B4CF9C838B83CE
:1009E0006EBD00000DB407FEFDCF8EB50E94AA02B9
:1009F00080E20E942A02E1CF80E7DBCF811103C0B1
:100A000080E78960D7CF80E5FCCF811103C080E704
:100A10008D60D0CF80E5FCCF811103C080E781607D
:100A2000C9CF80E5FCCF6AE070E0CE0103960E945A
:100A3000A302637060931D016AE070E0CE0103962B
:100A40000E94A30221E0672B682B692B09F420E0A8
:100A50002093000177CF6AE070E0CE0103960E94F8
:100A6000A302E62E6AE070E0CE0103960E94A30284
:100A7000F62E60E170E0CE0103960E94A302162FCD
:100A800061E08E2D0E940C0161E08F2D0E940C010F
:100A900008E0612F661F6627661F8E2D0E94DE000C
:100AA000110F61E08F2D0E94DE0060E08F2D0E940B
:100AB000DE00015071F746CF6AE070E0CE01039688
:100AC0000E94A302062F6AE070E0CE0103960E9406
:100AD000A302362E6AE070E0CE0103960E94A302C4
:100AE000262E60E170E0CE0103960E94A3022B0146
:100AF0003C0161E0802F0E940C0161E0832D0E9487
:100B00000C0160E0822D0E940C0160E0802F0E94A9
:100B1000DE001D8257E0E52EF12CD301C2010E2C20
:100B200004C0B595A795979587950A94D2F7682F35
:100B30006170832D0E94DE0061E0802F0E94DE0044
:100B4000822D0E94B5004D81242F30E0220F331FEB
:100B500011E0892B09F410E0122B1D8360E0802F37
:100B60000E94DE0081E0E81AF108B8F6812F11CF6B
:100B70006AE070E0CE0103960E94A302E62E6AE0CE
:100B800070E0CE0103960E94A302F62E772E062F68
:100B9000172F61E08E2D0E940C010115110519F42B
:100BA00060E08E2D9BCE0F3F110511F461E0F9CF6F
:100BB000EE2DF0E0E255FF4FE491E33029F140F4EF
:100BC000E130C1F0E230D9F0003811057CF7E8CF10
:100BD000E73031F1E83061F1E430B1F78091800025
:100BE0008062809380008F2D972D90938B0080934F
:100BF0008A00A8CE84B5806884BDF7BCA3CE84B536
:100C0000806284BDF8BC9ECE809180008068809315
:100C100080008F2D972D909389008093880092CE2D
:100C20008091B00080688093B000F092B3008ACECB
:100C30008091B00080628093B000F092B40082CEC8
:100C40008FE30E942A027ECEEF3508F0F9CD91E0C5
:100C50009E0F90937E01F0E0E25EFE4F8083F0CD28
:100C6000A114B10409F4ECCD0E94A701882309F472
:100C7000E7CD0E940000E4CDE8E8F1E013821282A3
:100C800088EE93E0A0E0B0E084839583A683B783E9
:100C900085E091E09183808385EC90E0958784875F
:100CA00084EC90E09787868780EC90E0918B808B36
:100CB00081EC90E0938B828B82EC90E0958B848B1F
:100CC00086EC90E0978B868B118E128E138E148E8D
:100CD0000895B0E0A0E0EFE6F6E00C94CA075C01EE
:100CE0006B017A016115710519F0FB019183808315
:100CF000E114F10451F0C7010297839730F040E00E
:100D000030E020E090E072C05E01E5012196F5013F
:100D10001081812F90E00E948007892BA9F71D3256
:100D200001F52196F501118101E0E114F10409F4C6
:100D3000DAC0F0E1EF16F10409F082C0103359F483
:100D400088818F7D883509F076C0198122960260EE
:100D5000F0E1EF2EF12C812C912CA12C88E0B82E03
:100D60008CC01B3221F4E5012296F501118100E0CF
:100D7000DCCFEAE0EE16F10409F4BBC0F0E1EF16B7
:100D8000F10409F06DC0E7CF78E0E72EF12C812C5B
:100D9000912CA12C60E1B62E70C03FE9310F3A31A1
:100DA00028F439EA332E80C021E09AC0302F317008
:100DB000C114D10431F0222309F12197F601D18326
:100DC000C08327FF21C060E070E080E090E831112F
:100DD00004C06FEF7FEF8FEF9FE722E230E03093A8
:100DE000260220932502462F372F282F642F732F9A
:100DF000822FCDB7DEB7E1E10C94E60701FF04C016
:100E00002297F601D183C083332341F090958095DA
:100E1000709561957F4F8F4F9F4FE5CF97FFE3CF41
:100E200082E290E090932602809325026FEF7FEF9D
:100E30008FEF9FE7D8CF10E3E114F10409F4A4CFBA
:100E400028E0E216F10409F4A2CF0CF092CF812C35
:100E5000912CA12CE0E4BE2E82E0E816F10469F0AA
:100E600060E070E080E090E897010F2C000C440BEC
:100E7000550B0E949C0749015A0120E060E070E098
:100E8000CB0127010F2C000C66087708FE0150EDFE
:100E9000352E310E39E0331540F43FEB310F3A3146
:100EA00008F07BCF49EC342E310E3E141F040CF0B9
:100EB0007DCF27FD15C086169706A806B90678F0DF
:100EC000A30192010E948C07630D711D811D911D6C
:100ED00061307105810520E8920708F465CF2FEF96
:100EE00021961081D3CF103309F42ACF2AE0E22EC5
:100EF000F12C9CEC892E982CA82C9CE0B92EBDCF0F
:100F000091110C948907803219F089508550C8F7E7
:100F10000895992788270895DB018F939F930E9456
:100F2000BE07BF91AF91A29F800D911DA39F900D11
:100F3000B29F900D11240895A1E21A2EAA1BBB1B8B
:100F4000FD010DC0AA1FBB1FEE1FFF1FA217B30795
:100F5000E407F50720F0A21BB30BE40BF50B661FAB
:100F6000771F881F991F1A9469F76095709580956F
:100F700090959B01AC01BD01CF0108950E9400082E
:100F8000A59F900DB49F900DA49F800D911D1124DD
:100F900008952F923F924F925F926F927F928F921D
:100FA0009F92AF92BF92CF92DF92EF92FF920F93F8
:100FB0001F93CF93DF93CDB7DEB7CA1BDB0B0FB602
:100FC000F894DEBF0FBECDBF09942A8839884888BF
:100FD0005F846E847D848C849B84AA84B984C88455
:100FE000DF80EE80FD800C811B81AA81B981CE0F4C
:100FF000D11D0FB6F894DEBF0FBECDBFED01089531
:10100000A29FB001B39FC001A39F700D811D112449
:10101000911DB29F700D811D1124911D0895EE0F39
:0E102000FF1F0590F491E02D0994F894FFCF86
:10102E000100000000DD013D016A012F029B0179E4
:0C103E00018D015245414459000D0A008B
:00000001FF
