:100000000C9458000C9480000C9480000C94800098
:100010000C9480000C9480000C9480000C94800060
:100020000C9480000C9480000C9480000C94800050
:100030000C9480000C9480000C9480000C94800040
:100040000C94A6040C9480000C9416050C94F004F7
:100050000C9480000C9480000C9480000C94800020
:100060000C9448050C948000000000002500280036
:100070002B00040404040404040402020202020229
:10008000030303030303010204081020408001025C
:1000900004081020010204081020000000080002DB
:1000A00001000003040700000000000000006706D4
:1000B00011241FBECFEFD8E0DEBFCDBF24E0A0E308
:1000C000B1E001C01D92A03BB207E1F711E0A0E052
:1000D000B1E0E2E6F5E102C005900D92A033B10770
:1000E000D9F710E0C8E5D0E004C02197FE010E94D6
:1000F000A90AC735D107C9F70E94A0060C94AF0A18
:100100000C94000090E0FC01E656FF4F2491FC01A6
:10011000EA57FF4F3491FC01EE58FF4FE491EE2374
:10012000C9F0222339F0233001F1A8F4213019F16C
:10013000223029F1F0E0EE0FFF1FE859FF4FA591A3
:10014000B4918FB7F894EC91611126C030953E239D
:100150003C938FBF08952730A9F02830C9F0243090
:1001600049F7809180008F7D03C0809180008F7758
:1001700080938000DFCF84B58F7784BDDBCF84B5DB
:100180008F7DFBCF8091B0008F778093B000D2CF6E
:100190008091B0008F7DF9CF3E2BDACF3FB7F89436
:1001A0008091B1039091B203A091B303B091B403D5
:1001B00026B5A89B05C02F3F19F00196A11DB11DC2
:1001C0003FBFBA2FA92F982F8827BC01CD01620FFE
:1001D000711D811D911D42E0660F771F881F991FB9
:1001E0004A95D1F7089508950895AF92BF92CF929E
:1001F000DF92EF92FF920F931F93CF93DF936C01E7
:100200007B018B01040F151FEB015E01AE18BF08C7
:10021000C017D10759F06991D601ED91FC91019079
:10022000F081E02DC6010995892B79F7C501DF9191
:10023000CF911F910F91FF90EF90DF90CF90BF90E3
:10024000AF900895FC01538D448D252F30E0842F0D
:1002500090E0821B930B541710F0CF9608950197EE
:100260000895FC01918D828D981761F0A28DAE0FDB
:10027000BF2FB11D5D968C91928D9F5F9F73928F62
:1002800090E008958FEF9FEF0895FC01918D828D8E
:10029000981731F0828DE80FF11D858D90E008955B
:1002A0008FEF9FEF0895FC01918D228D892F90E0B3
:1002B000805C9F4F821B91098F739927089585E079
:1002C00094E00E94530121E0892B09F420E0822F61
:1002D000089580E090E0892B29F00E945F01811150
:1002E0000C9400000895FC01A48DA80FB92FB11D36
:1002F000A35ABF4F2C91848D90E001968F7399275C
:10030000848FA689B7892C93A089B1898C91837039
:1003100080648C93938D848D981306C00288F38932
:10032000E02D80818F7D80830895EF92FF920F935F
:100330001F93CF93DF93EC0181E0888F9B8D8C8D91
:1003400098131AC0E889F989808185FF15C09FB785
:10035000F894EE89FF896083E889F9898081837048
:10036000806480839FBF81E090E0DF91CF911F91F7
:100370000F91FF90EF900895F62E0B8D10E00F5F18
:100380001F4F0F731127E02E8C8D8E110CC00FB6EE
:1003900007FCFACFE889F989808185FFF5CFCE0186
:1003A0000E947301F1CFEB8DEC0FFD2FF11DE35A8D
:1003B000FF4FF0829FB7F8940B8FEA89FB89808109
:1003C0008062CFCF682F85E094E00C949501CF93A5
:1003D000DF93EC01888D8823B9F0AA89BB89E8896D
:1003E000F9898C9185FD03C0808186FD0DC00FB613
:1003F00007FCF7CF8C9185FFF2CF808185FFEDCF91
:10040000CE010E947301E9CFDF91CF910895209131
:100410005101260F3327331F21323105ECF420918F
:10042000DB03FC0190E080E0243069F082E0089575
:10043000A09151012191AC014F5C5E4FA40FB52FEB
:10044000B11D2C930196861798F380915101680F86
:100450006093510180E0089581E008951092DB03DC
:1004600081E08093DA031092B50361E082E10E949B
:10047000820061E083E10E948200E9EBF0E080818C
:100480008E7F808380818D7F808388E48093B80015
:1004900085E48093BC000895CF93DF9391E090931F
:1004A00030018823B9F0C091B800D091BA00809192
:1004B000BC008A7B8093BC0060E082E10E948200E5
:1004C00060E083E10E9482000E942E02D093BA0075
:1004D000C093B800DF91CF9108958F929F92AF9211
:1004E000BF92CF92DF92EF92FF920F931F93CF9321
:1004F000DF93D0910404D13208F0D7C0182FC091F7
:1005000003040E94CE006B017C018091DB0381110A
:100510006BC082E08093DB031093DA038FEF80934C
:10052000D9031092D803D093D703A3EEB3E0E7EB3F
:10053000F3E080E0D81391C01092B6038091B60327
:10054000CC0FC82BC093B6038091B503813009F05E
:1005500088C01092B5030E94CE006B017C0180918F
:10056000B6038093BB008091DD039091DE03A091E0
:10057000DF03B091E003892B8A2B8B2BA1F00E9423
:10058000CE000091DD031091DE032091DF03309156
:10059000E0036C197D098E099F09061717072807C4
:1005A000390708F442C08091BC0083FDD8CF85ECA8
:1005B0008093BC000E94CE006B017C018091DB0324
:1005C000823009F450C08091D9038F3F09F46FC085
:1005D0008091D903803209F46CC08091D9038033B3
:1005E00009F469C084E026C08091DD039091DE03A8
:1005F000A091DF03B091E003892B8A2B8B2B09F4A8
:1006000084CF0E94CE008090DD039090DE03A09006
:10061000DF03B090E0036C197D098E099F098616EF
:100620009706A806B90608F070CF8091DC030E94F7
:100630004C0285E01092E203109204041092E10350
:10064000DF91CF911F910F91FF90EF90DF90CF90AE
:10065000BF90AF909F908F9008959D9191938F5FE1
:1006600069CF85EEA5CF8091DD039091DE03A09147
:10067000DF03B091E003892B8A2B8B2B09F49ECFEB
:100680000E94CE000091DD031091DE032091DF0374
:100690003091E0036C197D098E099F090617170731
:1006A0002807390708F08ACFC0CF81E0C3CF80E0A8
:1006B000C1CF82E0BFCF83E0BDCF0895E091790143
:1006C00080917801E81730F4F0E0E658FE4F808121
:1006D00090E008958FEF9FEF0895909179018091B8
:1006E00078012FEF3FEF981748F4E92FF0E0E65834
:1006F000FE4F208130E09F5F90937901C9010895FA
:100700008091780190917901891B990B0895CF927E
:10071000DF92EF92FF920F931F93CF93DF937C01B1
:10072000CB018A012091E103222389F0EB016B01C7
:10073000C40ED51ECC15DD0569F06991D701ED9188
:10074000FC910190F081E02DC7010995F3CF642F52
:100750000E940702C801DF91CF911F910F91FF9076
:10076000EF90DF90CF900895CF93DF931F92CDB796
:10077000DEB769832091E1032223F9F0209104047C
:10078000203258F021E030E0FC013383228390E0F6
:1007900080E00F90DF91CF9108958091E203E82FE0
:1007A000F0E0ED51FC4F998190838F5F8093E203DD
:1007B0008093040481E090E0ECCF61E0CE010196EB
:1007C0000E940702F7CF90E080E00895FC010190BD
:1007D0000020E9F73197AF01481B590BBC0185E0B8
:1007E00094E00C94F5008F929F92AF92BF920F937A
:1007F0001F93CF93DF93CDB7DEB7A1970FB6F894D1
:10080000DEBF0FBECDBF19A2423008F44AE08E0110
:100810000F5D1F4F842E912CB12CA12CA5019401AA
:100820000E94360AE62FB901CA01EA30F4F4E05D0D
:10083000D801EE938D01232B242B252B79F790E003
:1008400080E0109719F0CD010E94E603A1960FB643
:10085000F894DEBF0FBECDBFDF91CF911F910F91F6
:10086000BF90AF909F908F900895E95CE1CFCF92B9
:10087000DF92EF92FF92CF93DF936C01990FEE0816
:10088000FF08F7FE1DC08DE20E94E201EC01662721
:100890007727CB016C197D098E099F094AE00E94D8
:1008A000F303C80FD91F84E291E00E94E6038C0F86
:1008B0009D1FDF91CF91FF90EF90DF90CF90089533
:1008C0004AE0C701B6010E94F303EC01ECCFAB0193
:1008D000BC01FC01808191810C94030985ED80931A
:1008E000BC008091DD039091DE03A091DF03B09105
:1008F000E0030796A11DB11D23E0B695A795979536
:1009000087952A95D1F72091BC0024FD03C0109251
:10091000DB0308954091DD035091DE036091DF0316
:100920007091E003452B462B472B69F30097A105F7
:10093000B10541F02AE22A95F1F700C00197A1091B
:10094000B109E1CF8091DC030C944C021F920F920D
:100950000FB60F9211242F933F938F939F93AF93D2
:10096000BF938091AD039091AE03A091AF03B0917E
:10097000B0033091AC0323E0230F2D3758F50196D7
:10098000A11DB11D2093AC038093AD039093AE03E2
:10099000A093AF03B093B0038091B1039091B203E1
:1009A000A091B303B091B4030196A11DB11D809332
:1009B000B1039093B203A093B303B093B403BF9178
:1009C000AF919F918F913F912F910F900FBE0F90FC
:1009D0001F90189526E8230F0296A11DB11DD2CFB6
:1009E0001F920F920FB60F9211242F933F934F93A4
:1009F0005F936F937F938F939F93AF93BF93EF9387
:100A0000FF9385E094E00E947301FF91EF91BF9105
:100A1000AF919F918F917F916F915F914F913F9196
:100A20002F910F900FBE0F901F9018951F920F924D
:100A30000FB60F9211242F938F939F93EF93FF93F1
:100A4000E0911504F09116048081E0911B04F0916F
:100A50001C0482FD1BC0908180911E048F5F8F73E8
:100A600020911F04821741F0E0911E04F0E0EB5F3B
:100A7000FB4F958F80931E04FF91EF919F918F9173
:100A80002F910F900FBE0F901F9018958081F4CF7B
:100A90001F920F920FB60F9211242F933F934F93F3
:100AA0005F936F937F938F939F93AF93BF93EF93D6
:100AB000FF938091B900887F803609F44AC0F0F531
:100AC000883209F4A7C018F5803109F49BC0B8F446
:100AD000882309F4F9C0883009F494C0FF91EF919C
:100AE000BF91AF919F918F917F916F915F914F9146
:100AF0003F912F910F900FBE0F901F901895883146
:100B000009F488C0803251F78093D90314C080342F
:100B100009F49DC040F48033B9F38833F9F680932B
:100B2000D90385ECB0C0803509F485C0883509F457
:100B300096C0883499F60E946E04D0CF883909F4A3
:100B40008CC038F5883729F050F4883611F080379A
:100B500029F683E08093DB031092730157C0883835
:100B600009F47BC0803919F0803809F0B7CF809143
:100B70007301803208F071C0E091730181E08E0F43
:100B8000809373018091BB00F0E0ED5AFE4F8083AB
:100B90003DC0803B39F0E0F4803A09F479C0883AEE
:100BA00009F09CCF84E08093DB03109252011092F5
:100BB0005101E0917601F091770109958091510101
:100BC00081110FC081E0809351011092310109C061
:100BD000803C09F4A6CF883C09F4A3CF883B09F0F8
:100BE0007DCFE091520181E08E0F80935201F0E0C1
:100BF000EF5CFE4F80818093BB0090915201809109
:100C0000510129C08091B6038093BB0085EC80938D
:100C1000BC0064CF9091D8038091D703981758F502
:100C2000E091D80381E08E0F8093D803F0E0E9547F
:100C3000FC4F8081E9CFE091D80381E08E0F809353
:100C4000D8038091BB00F0E0E954FC4F8083909181
:100C5000D8038091D7039817C8F285E8D8CFE091E0
:100C6000D80381E08E0F8093D8038091BB00F0E021
:100C7000E954FC4F80838091DA0381115CCF81E0DD
:100C80008093B50384EA8093BC001092DB0326CFE7
:100C900085EC8093BC001092DB038091730180325D
:100CA00030F4E0917301F0E0ED5AFE4F1082609154
:100CB000730170E0E0917401F091750183E591E0BA
:100CC0000995109273010ACF1092D90334CFE5E051
:100CD000F4E01382128288EE93E0A0E0B0E0848317
:100CE0009583A683B78324E031E03183208325EC0C
:100CF00030E03587248724EC30E03787268720ECE6
:100D000030E0318B208B21EC30E0338B228B22ECD6
:100D100030E0358B248B26EC30E0378B268B118E20
:100D2000128E138E148EE2EAF4E013821282848310
:100D30009583A683B78386E191E0918380830895AC
:100D4000CF93DF9300D000D0CDB7DEB7789484B5D1
:100D5000826084BD84B5816084BD85B5826085BDB7
:100D600085B5816085BD80916E00816080936E0045
:100D70001092810080918100826080938100809137
:100D800081008160809381008091800081608093E8
:100D900080008091B10084608093B1008091B000A8
:100DA00081608093B00080917A00846080937A00A3
:100DB00080917A00826080937A0080917A008160CD
:100DC00080937A0080917A00806880937A001092F4
:100DD000C100E0911504F091160482E08083E09157
:100DE0001104F09112041082E0911304F0911404A4
:100DF00080E1808310921D04E0911904F0911A049F
:100E000086E08083E0911704F0911804808180616E
:100E10008083E0911704F0911804808188608083BA
:100E2000E0911704F0911804808180688083E0913C
:100E30001704F091180480818F7D808310927901CE
:100E4000109278011092E203109204040E942E0284
:100E500083EF90E0909377018093760184EF90E0A8
:100E6000909375018093740187E291E00E94E603FC
:100E700084E291E00E94E60335EEE32E40E0A42EEA
:100E800040E0B42E5BE1852E52E0952EFF24F394D2
:100E900077247A9425EC622E85E094E00E94530139
:100EA000892B09F4A4C185E094E00E9431018D30C2
:100EB00099F32091AA033091AB038A3009F086C1DF
:100EC000F901E65EFD4F1082232B09F460C01091FA
:100ED0001A029C828B828DE30E94E201183741F056
:100EE0001A3709F454C18DE291E00E94E6034AC129
:100EF0006AE070E0CE0103960E94670460E170E052
:100F0000CE0103960E946704C62E6AE070E0CE010F
:100F100003960E946704D62E0AED11E0512C40E1A1
:100F200050E0BE016F5F7F4F8B819C810E9403095F
:100F300089819A812B813C818217930751F020E4AB
:100F4000521649F09C838B835394F80161938F016F
:100F5000E6CF552009F1F092E103C092030410920C
:100F6000E20310920404452D50E06AED71E082EA3C
:100F700094E00E94870381E0D11080E00E946D021E
:100F800090E0009711F4D11007C00E94370410922E
:100F9000AB031092AA0380CF0E94CE001B012C014C
:100FA0008091DB03811168C0F0E2FD1510F490E23E
:100FB000D92EF092DB03F092DA037092D9031092EB
:100FC000D8038FEF8D0D8093D703F092B6038091F5
:100FD000B603CC0CC82AC092B6038091B503813009
:100FE00009F07CC01092B5030E94CE001B012C01B9
:100FF0008091B6038093BB008091DD039091DE0366
:10100000A091DF03B091E003892B8A2B8B2BA1F0F9
:101010000E94CE000091DD031091DE032091DF03DA
:101020003091E003621973098409950906171707BF
:101030002807390708F441C08091BC0083FDD8CF50
:101040006092BC000E94CE001B012C018091DB034A
:10105000813009F446C08091D8038D1510F4D090EA
:10106000D803E7EBF3E0AAE7B1E080E08D1551F19A
:1010700091919D938F5FFACF8091DD039091DE0374
:10108000A091DF03B091E003892B8A2B8B2B09F40D
:1010900087CF0E94CE000091DD031091DE032091E6
:1010A000DF033091E003621973098409950906177B
:1010B00017072807390708F073CF8091DC030E94D7
:1010C0004C02D12C10927901D09278010AE911E0FA
:1010D000C12CD11028C082E090E057CFE092BC0034
:1010E000B1CF8091DD039091DE03A091DF03B09139
:1010F000E003892B8A2B8B2B09F4A8CF0E94CE000A
:101100000091DD031091DE032091DF033091E003B5
:101110006219730984099509061717072807390703
:1011200008F094CFCACF82EA94E00E946D03F801E0
:1011300081938F01C394CD10F6CF0C2D10E04AE0BF
:1011400060E070E0CB010E94F3038AE9C82E81E0E1
:10115000D82E80E20E94E201F60151906F01FFE07B
:10116000F51518F080E30E94E201652D70E090E033
:1011700080E040E10E94F303C6018A599140801744
:1011800091073CF384E291E00E94E60300CF6AE01D
:1011900070E0CE0103960E94670460E170E0CE012A
:1011A00003960E946704F092E10360930304109297
:1011B000E2031092040481E00E946D02682F70E047
:1011C00090E080E04AE00E94F303DCCF2F3891E00A
:1011D000390708F061CEA9014F5F5F4F5093AB0311
:1011E0004093AA03265E3D4FF901808355CEA1149A
:1011F000B10409F44FCE0E945F01882309F44ACE5E
:101200000E94000047CEB0E0A0E0E9E0F9E00C94D5
:10121000640A5C016B017A016115710519F0FB012B
:1012200091838083E114F10451F0C7010297839701
:1012300030F040E030E020E090E072C05E01E50177
:101240002196F5011081812F90E00E941A0A892BC6
:10125000A9F71D3201F52196F501118101E0E11494
:10126000F10409F4DAC0F0E1EF16F10409F082C0EC
:10127000103359F488818F7D883509F076C0198143
:1012800022960260F0E1EF2EF12C812C912CA12C02
:1012900088E0B82E8CC01B3221F4E5012296F501BE
:1012A000118100E0DCCFEAE0EE16F10409F4BBC0E6
:1012B000F0E1EF16F10409F06DC0E7CF78E0E72E1A
:1012C000F12C812C912CA12C60E1B62E70C03FE94D
:1012D000310F3A3128F439EA332E80C021E09AC028
:1012E000302F3170C114D10431F0222309F121973C
:1012F000F601D183C08327FF21C060E070E080E069
:1013000090E8311104C06FEF7FEF8FEF9FE722E28B
:1013100030E03093AF042093AE04462F372F282FB0
:10132000642F732F822FCDB7DEB7E1E10C94800AD2
:1013300001FF04C02297F601D183C083332341F01B
:1013400090958095709561957F4F8F4F9F4FE5CF1A
:1013500097FFE3CF82E290E09093AF048093AE04D6
:101360006FEF7FEF8FEF9FE7D8CF10E3E114F10429
:1013700009F4A4CF28E0E216F10409F4A2CF0CF09E
:1013800092CF812C912CA12CE0E4BE2E82E0E816B5
:10139000F10469F060E070E080E090E897010F2CC4
:1013A000000C440B550B0E94360A49015A0120E0FB
:1013B00060E070E0CB0127010F2C000C6608770875
:1013C000FE0150ED352E310E39E0331540F43FEB80
:1013D000310F3A3108F07BCF49EC342E310E3E14F8
:1013E0001F040CF07DCF27FD15C086169706A806B2
:1013F000B90678F0A30192010E94260A630D711DBF
:10140000811D911D61307105810520E8920708F466
:1014100065CF2FEF21961081D3CF103309F42ACF57
:101420002AE0E22EF12C9CEC892E982CA82C9CE032
:10143000B92EBDCF91110C94230A803219F0895036
:101440008550C8F70895992788270895DB018F9361
:101450009F930E94580ABF91AF91A29F800D911D4A
:10146000A39F900DB29F900D11240895A1E21A2E12
:10147000AA1BBB1BFD010DC0AA1FBB1FEE1FFF1F38
:10148000A217B307E407F50720F0A21BB30BE40B88
:10149000F50B661F771F881F991F1A9469F76095CF
:1014A0007095809590959B01AC01BD01CF01089589
:1014B0000E949A0AA59F900DB49F900DA49F800D45
:1014C000911D112408952F923F924F925F926F9237
:1014D0007F928F929F92AF92BF92CF92DF92EF92C4
:1014E000FF920F931F93CF93DF93CDB7DEB7CA1B45
:1014F000DB0B0FB6F894DEBF0FBECDBF09942A8870
:10150000398848885F846E847D848C849B84AA8417
:10151000B984C884DF80EE80FD800C811B81AA81A4
:10152000B981CE0FD11D0FB6F894DEBF0FBECDBF6F
:10153000ED010895A29FB001B39FC001A39F700D5C
:10154000811D1124911DB29F700D811D1124911DCB
:101550000895EE0FFF1F0590F491E02D0994F89483
:02156000FFCFBB
:10156200000000009501F5002201E701530131015D
:10157200450100000000B4038703E3035D03800319
:101582006D035E030D0A005245414459003F0000BD
:00000001FF
